S02B00002F55736572732F526168756C2F576172702D6669726D776172652F6275696C642F6B73646B312E316A
S113000000060020E90400001105000011050000AD
S113001000000000000000000000000000000000DC
S113002000000000000000000000000011050000B6
S11300300000000000000000110500001105000090
S11300401105000011050000110500001105000054
S1130050110500001105000011050000B1070000A2
S11300608F2B000011050000992B000011050000E2
S1130070A32B00001105000011050000110500006C
S11300801105000011050000110500001105000014
S113009089070000A10700001105000011050000F8
S11300A011050000110500001105000011050000F4
S11300B01105000011050000C10700001105000032
S1130400FFFFFFFFFFFFFFFFFFFFFFFFFE3DFFFFBB
S113041010B5064C2378002B07D1054B002B02D0D6
S1130420044800E000BF0123237010BD48FFFF1FF4
S113043000000000F86D000008B5084B002B03D045
S11304400748084900E000BF07480368002B03D0B1
S1130450064B002B00D0984708BDC04600000000A2
S1130460F86D00004CFFFF1F44FFFF1F0000000059
S1130470164B002B00D1144B9D46402292029A1A2F
S1130480924600218B460F461348144A121A04F070
S1130490DAFE0F4B002B00D098470E4B002B00D0F8
S11304A098470020002104000D000D48002802D0C8
S11304B00C4800E000BF04F097FE2000290000F083
S11304C01DFE04F07BFEC04600000800000600206C
S11304D0000000000000000048FFFF1F94020020FD
S11304E0000000000000000072B606480649074AF2
S11304F002600A6002F05AFB02F09AFB62B6FFF750
S1130500B7FF000080E100E080E200E0FFFFFFFFB2
S1130510004800471105000002B47146490849002B
S1130520095C49008E4402BC7047C046002934D09F
S11305300123002210B488422CD301242407A142B1
S113054004D2814202D209011B01F8E7E400A1426E
S113055004D2814202D249005B00F8E7884201D309
S1130560401A1A434C08A04202D3001B5C082243E1
S11305708C08A04202D3001B9C082243CC08A04252
S113058002D3001BDC082243002803D01B0901D03E
S11305900909E3E7101C10BC7047002801D00020B3
S11305A0C04307B4024802A14018029003BDC046EC
S11305B0D90000000029F0D003B5FFF7B9FF0EBC45
S11305C04243891A1847C046002941D010B4041C7C
S11305D04C40A44601230022002900D549420028AA
S11305E000D5404288422CD301242407A14204D2DE
S11305F0814202D209011B01F8E7E400A14204D2BE
S1130600814202D249005B00F8E7884201D3401AD4
S11306101A434C08A04202D3001B5C0822438C08F6
S1130620A04202D3001B9C082243CC08A04202D360
S1130630001BDC082243002803D01B0901D0090950
S1130640E3E7101C6446002C00D5404210BC704700
S1130650002806D003DB0020C043400801E08020CE
S1130660000607B4024802A14018029003BDC04628
S1130670190000000029EBD003B5FFF7A7FF0EBC5B
S11306804243891A1847C0467047C04683780220FF
S11306909842804140427047437A0020013B012B3D
S11306A003D90B78012001330B707047031C3038D9
S11306B009280BD91A1C613A2738052A06D91A1CAD
S11306C0413A0020052A01D8181C37387047000029
S11306D0174AC0239B001360164A1360164A13601E
S11306E0164A00231360164A1360164A1360164A0A
S11306F01360164A1360164A1360164A1360164AAA
S11307001360164A1360164A1360164A1360164A99
S11307101360164A1360164A1360164A1360164A89
S11307201360164A1360164A1360164A1360704722
S11307300090145404901454089014540C901454BD
S11307401090145414901454189014541C9014546D
S113075020901454249014543090145400A0145431
S113076004A0145408A014540CA0145410A014543D
S113077014A0145418A014541CA0145428A01454E5
S11307802CA0145434A0145408B5002004F03EF8EE
S1130790002803D00020011C04F02CF808BD000040
S11307A0024B1A6801321A607047C04664FFFF1F8B
S11307B008B50248072103F0F5FB08BD00C0074057
S11307C0024B012252421A607047C046A090044076
S11307D008B5002002F067FD094AC0239B0013609E
S11307E0084A00201360084B084A1B6808495360F4
S11307F00323107250729072137003F01FFC08BD33
S11308000CA0145410A0145418FEFF1F74000020F0
S1130810E000002010B5002003F072FC0A4B002415
S11308201C600A4B0A4A1C6080235B001360094A5F
S11308300620136002F0D2FF082002F0CFFF201C34
S113084002F036FD10BDC0460CA0145410A0145480
S1130850189014541C901454064B10B5041C0A1C14
S11308601B68211C002003F09DFC431E984140009E
S113087010BDC0461CFEFF1F37B5002002F0F5FC7A
S11308800E4AC0239B0013600D4A0E4C13600E4A9F
S1130890002513600D4B25716571A5711A68FA2343
S11308A09B005343281C0A49236003F0FFFF281CC4
S11308B0211C01AA04F060F837BDC04618901454F6
S11308C01C9014546C00002000A014542CFEFF1F34
S11308D09800002008B5002004F02AF80A4A802372
S11308E05B001360094A08201360094A136002F090
S11308F075FF062002F072FF092002F06FFF00204E
S113090002F0B8FC08BDC046189014541C9014544E
S113091000A0145408B5094A80235B001360084AF8
S113092009201360074A1360074A136002F048FF66
S11309300E20FF3002F044FF08BDC046309014542E
S1130940249014542090145404A0145408B5002086
S113095002F09AFC054A80239B001360044A00209D
S11309601360044903F01AF808BDC0460CA01454DF
S113097010A01454A8FFFF1F08B5002003F04AF884
S1130980034B00201860034B186002F082FC08BD82
S11309900CA0145410A0145408B50620FF3002F023
S11309A01DFF024B186802F008FA08BD10FEFF1F75
S11309B00FB4F0B585B00AAB04CB244C40250393A7
S11309C0009500200A9903AA231C01F0B3FF204ECE
S11309D0071E1CDA1F4C0020211C01F09DFE3378F9
S11309E0002B2ED0FFF7F4FE1B4801F057FC201C0F
S11309F004F039FC411C201CFFF72EFF002803D013
S1130A000020164901F088FEFFF704FF19E033784F
S1130A10002B13D0FFF7DCFE0F4801F03FFC391E1A
S1130A20402900DA291C201CFFF716FF002803D0F8
S1130A3000200A4901F070FEFFF7ECFE052002F0E9
S1130A40BCF905B0F0BC08BC04B018472A0000206B
S1130A50CCFFFF1FED6A0000E40C0000336B0000C4
S1130A6038B5784D041C2B88984200D1E8E0764BC9
S1130A70C218764B92B29A4200D9DDE0744A8023C0
S1130A805B001360734A1360734A1360734A136004
S1130A90734A1360734B984200D17EE024D8724BA2
S1130AA0984263D010D8714B984249D0FA23DB00A6
S1130AB0984256D0E123DB00984200D0AFE00C20EE
S1130AC0FF3002F08BFE3FE0694B984257D09623EB
S1130AD01B0198425CD0674B984200D09FE00C20E9
S1130AE0FF3002F07BFE4EE0634B984270D00FD88B
S1130AF0624B98425ED0AF231B01984263D0604B97
S1130B00984200D08BE00C20FF3002F067FE55E0E5
S1130B105C4B984269D007D85B4B98427FD10C203C
S1130B20FF3002F05BFE64E0C8231B01984265D0ED
S1130B30564B984273D10C20FF3002F041FE61E025
S1130B400C20FF3002F03CFE8520400002F046FEFF
S1130B500820FF3002F042FE8320400002F03EFEF7
S1130B6060E00C20FF3002F039FE03E00C20FF307F
S1130B7002F026FE8520400002F022FEE8E70C2069
S1130B80FF3002F01DFE8520400002F027FE0CE03D
S1130B900C20FF3002F022FE03E00C20FF3002F0B4
S1130BA00FFE8520400002F00BFE0820FF3002F00B
S1130BB007FED1E70C20FF3002F002FE8520400042
S1130BC002F00CFE0CE00C20FF3002F007FE03E004
S1130BD00C20FF3002F0F4FD8520400002F0F0FD0F
S1130BE00820FF3002F0FAFD14E00C20FF3002F080
S1130BF0E7FD8520400002F0F1FD07E00C20FF3006
S1130C0002F0ECFD8520400002F0DAFD0820FF3000
S1130C1002F0D6FD8320400002F0D2FD02E01C4821
S1130C20FFF7C6FE1B4B186802F0C7F80620FF301A
S1130C3002F0C6FD2C8003E01748211CFFF7B8FE24
S1130C4038BDC04608FEFF1FF8F8FFFFDC050000B2
S1130C5014A0145418A014541CA0145428A0145400
S1130C602CA01454C4090000340800006C070000D0
S1130C70FC08000098080000540B00008C0A0000D7
S1130C80280A00001C0C0000B80B0000E40C000053
S1130C90A952000010FEFF1FD652000010B5041C1C
S1130CA0002901D0FFF714FD0021022001F030F8E3
S1130CB00420211C01F02CF8002802D00148FFF781
S1130CC077FE10BD0E530000F8B5051C2648171C0E
S1130CD00C1CFFF76DFE2548FFF76AFE291C221C39
S1130CE02348FFF765FE234B23481968234B244D03
S1130CF01A68244B244E1B68FFF75AFE234B244CDE
S1130D00F15824486A692B68FFF752FE217862780B
S1130D10A379C9B2D2B2DBB21F48FFF749FE1F4B19
S1130D20217A227E1B78C9B2D2B2DBB21C48FFF70B
S1130D303FFE1C4B1C4819785A781C4BC9B2D2B2DE
S1130D401B69FFF735FE1A4B1A4899781A4BC9B23A
S1130D50F2586B68FFF72CFE184B3A78196818485C
S1130D60FFF726FEF8BDC0466C530000AC530000EC
S1130D70DE53000004FEFF1F125400002CFEFF1F70
S1130D8000D0034018FEFF1F007004403C10000018
S1130D9000400640495400007F54000000500640C3
S1130DA0AE54000000E00740DE54000000ED00E017
S1130DB000D00740185500003410000064FFFF1FE6
S1130DC05055000037B51C4CFF236372FFF700FD3C
S1130DD01A4801F063FA251C01F0DAFC01906C7AE0
S1130DE02023E4B2221C9A43131C423B172B03D941
S1130DF0231C313B072B1BD8002809DAFF2CEBD02E
S1130E00211C002001F094FCFFF704FD201C12E0DB
S1130E10FF2CF5D101A80121FFF71EFD002803D006
S1130E200020074901F078FCFFF7F4FC019802E088
S1130E300028D1DBEEE73EBDCEFFFF1FE40C00002F
S1130E40336B000070B5FFF7BDFF051CFFF7BAFF59
S1130E50FF24061C281C2040FFF728FC051C301C1E
S1130E602040FFF723FC2D012818C0B270BD70B5D7
S1130E70FFF7A8FF061CFFF7A5FF051CFFF7A2FF5D
S1130E80041CFFF79FFFFF231E40FA2292001D401F
S1130E90303E56431C406422303D5543303C0A22C8
S1130EA05443751903402C19303BE01870BD000001
S1130EB0F0B591B01D1C16AB0C91197817AB0592C7
S1130EC01A7818AB1B78041C0D931CAB1B780E937B
S1130ED01DAB1B8808936B465933DB7F09931FAB0B
S1130EE01B880F9320AB1B780A930B1C914200D9EB
S1130EF0131CDBB20293002D03D10599002906D1FE
S1130F0002E0059A002A02D05348FFF751FD0898E1
S1130F10FFF7A6FD201CFFF74BFD0027089C049754
S1130F200697039700230793199B07998B426ADB63
S1130F3000261A998E4262DA02990C9A89190B9149
S1130F40C8B20121904700283BD1039B0899013383
S1130F5003938C4204D9643CA4B2201CFFF780FDA7
S1130F60002D19D0EB68099A9B7804999B1A5A4270
S1130F7053410A9AC9180491002A38D0EA68EB68E8
S1130F80E86802998078711812785B780090334889
S1130F900B91FFF70DFD2AE0059A09999378CB1A76
S1130FA05A425341049AD2180A9B0492002B1ED031
S1130FB00599029B8A782A48D2B2F118FFF7F8FC07
S1130FC015E002280FD10B992648FFF7F1FC06998A
S1130FD00F9A01310691944209D26434A4B2201CC0
S1130FE0FFF73EFD03E0033843424341FF181B9BD8
S1130FF0002B02DD181C01F0E0FE013699E7079A88
S11310000132079290E70E9A002A1BD1039B06999E
S113101015485A18191CFFF7CBFC322001F0CDFEFD
S1131020039A099B04991148FFF7C2FC322001F08E
S1131030C4FE391C0E48FFF7BBFC322001F0BDFE94
S113104011B0F0BD029B0D9A0133DBB202939342BF
S113105000D867E7DAE7C046A95200007E550000D1
S1131060A3550000B8550000CB550000E35500001F
S11310701456000070B588B0151C0CAA16780C4ADA
S11310800C1C126806A94A6004AA1570094D088050
S11310902D6805A80670009001930295231C00207A
S11310A002F0E8FD431E9841400008B070BDC04600
S11310B004FEFF1F00FEFF1FF7B5CB1DDB08DB009E
S11310C06A46D21A02AF9546061C0C1CFFF7D4FBE5
S11310D0094B02AD1B680020321C019300942B1CA9
S11310E0011C03F0A7FC041C631E9C41FFF7F2FBE8
S11310F0BD46A000F2BDC0460CFEFF1FF0B5BDB05A
S113110029AE301C0021072204F09DF819A81FAA5B
S113111033901BA9379221AB23A827AA3491389383
S1131120399030AB25A93B920320E14A01241DAF3D
S113113018713A91002015A93291309218933470A5
S11311403596369702F07CF8201C02F079F8D94BDA
S1131150802212021A6001F04DFE0020011C021CC4
S1131160031C009401F024FBD348FFF721FCFA2070
S1131170800001F022FED148FFF71AFCFA2080001B
S113118001F01BFECE48FFF713FCFA20800001F0AB
S113119014FECC4A231C0221CB4801F04FFE211C33
S11311A0201C01F057FE002003F06CFA0025FC23FC
S11311B02DA9DB00281C0B804C808C80CD800D81F8
S11311C08D7203F08DFA291C221C15A804F03BF83B
S11311D0299882211D90B2886944BA80B379032684
S11311E03E70BB7120AF1F901FAE3A800B7005217B
S11311F031701AAF6A21199069443A80022619AFF6
S11312000B703E7072271CA96F441B900A803B70C0
S113121004211BAF39708A2722A96F4421900A80C8
S11312203B7021A908270F70922724A96F442390AB
S11312300A803B70092123AF3970259026A80280CB
S11312409A226A44137027A80A2325AF18AA3B7070
S11312500570231C33A802F081F89C48FFF7A8FB13
S1131260291C301C00F054FD08218843C0B2A84258
S113127002D09748FFF79CFB9648FFF799FB9648E6
S1131280FFF796FB9549964802F07EFA954C201C90
S1131290FFF78EFB944AC0239B001360934A944843
S11312A01360944A251C1360FFF782FBFFF710FAC2
S11312B0201CFFF77DFBE1211D20C90000F026FF63
S11312C00E209621FF30090100F0E0FD00200121ED
S11312D000F034FE002803D08748FFF769FB05E0DF
S11312E0864B8748DB689978FFF762FB0120011C75
S11312F000F024FE002803D08248FFF759FB05E0E4
S11313007E4B8148DB689978FFF752FBE121092085
S1131310C90000F07DFE7D4C7D49201C062200F0B2
S113132087FE0E90002803D07A48FFF741FB0EE0B9
S1131330E168E268E368E668E068347949789278BD
S1131340DB780094407901907348FFF731FB7348D0
S1131350FFF72EFB7248FFF72BFBFFF739FA281C27
S1131360FFF726FB6F48FFF723FB6F4800F096FF5B
S1131370281CFFF71DFB6D4B01226D4800271A70D6
S11313800326FFF715FB0F970D9600F0D3FF694C6A
S1131390391C208815AA80B2FFF796FC6648FFF72F
S11313A007FB6648FFF704FB6548FFF701FB654848
S11313B0FFF7FEFA6448FFF7FBFA6448FFF7F8FA10
S11313C06348FFF7F5FA6348FFF7F2FA6248FFF75C
S11313D0EFFA6248FFF7ECFA391C0D9A6048FFF700
S11313E0E7FA6048FFF7E4FA5F48FFF7E1FA5F487D
S11313F0FFF7DEFA5E48FFF7DBFA5E48FFF7D8FA3C
S11314005D48FFF7D5FA5D48FFF7D2FA5C48FFF76D
S1131410CFFA5C48FFF7CCFA5B48FFF7C9FA5B48A0
S1131420FFF7C6FA5A48FFF7C3FA5A48FFF7C0FA5B
S11314305948FFF7BDFA5948FFF7BAFAFFF7C2FC5B
S1131440FF25011C0C9029406A2900D1B9E100DD77
S1131450C3E0632900D147E115DC522900D1CDE373
S11314600ADC0A2900D1CEE3502900D0D0E34C484D
S1131470FFF79EFA4B48C7E3612900D1DCE06229FB
S113148000D121E1C4E3662900D147E100DD8FE00A
S1131490642900D138E1652900D0B9E34248FFF757
S11314A087FAFFF7CFFC071C391C4048B1E3C0465C
S11314B099060000880200202956000044560000C6
S11314C04A56000014FEFF1FC8FEFF1F53560000BB
S11314D078560000AC560000B456000038FEFF1FDA
S11314E030FEFF1F815800000090145404901454DF
S11314F0D156000008901454F2560000C800002091
S113150027570000465700007C5700008000002049
S1131510785200009C570000D75700004058000044
S11315205C5800006E580000E40C0000CCFFFF1F64
S11315307C58000008FEFF1F8858000092580000E5
S1131540AF580000CB580000E758000004590000D1
S11315502B5900004A59000076590000A159000097
S1131560C4590000F35900000F5A0000335A000018
S1131570575A00007E5A0000A65A0000C45A0000C0
S1131580E15A0000005B00001F5B0000395B0000B3
S1131590595B0000785B0000A35B0000CE5B000099
S11315A04E6A0000906A0000FD6000003361000094
S11315B0672900D1FAE0682900D029E3DA48FFF767
S11315C0F7F9DA4C201CFFF7F3F9201CFFF7F0F9C8
S11315D0D748FFF7EDF9D74816E3702900D138E270
S11315E011DC6D2906DC6C2900DB72E1D248FFF7BF
S11315F0DFF965E16E2900D126E26F2900D007E307
S1131600FFF7CAF9C1E6742900D139E20ADC72296C
S113161000D12BE2732900D0FAE2C348FFF7C8F9DE
S1131620C648F1E2782900D19DE27A2900D1A2E2EC
S1131630752900D0ECE288E2C148FFF7B9F9C14846
S1131640FFF7B6F9C048FFF7B3F9C048FFF7B0F9A0
S1131650BF48FFF7ADF9BF48FFF7AAF9BE48FFF747
S1131660A7F9BE48FFF7A4F9BD48FFF7A1F9BD48A3
S1131670FFF79EF9BC48FFF79BF9BC48FFF798F9C0
S1131680BB48FFF795F9BB48FFF792F9BA48FFF753
S11316908FF9BA48FFF78CF9B948FFF789F9B948C7
S11316A0FFF786F9B848FFF783F9FFF78BFB011CB6
S11316B02940312901D1002666E6352900D0A7E268
S11316C0B24E0F9601265FE6B148FFF771F9FFF7B6
S11316D0CEFBB04BB04A18601968914201D1AF4AB1
S11316E01A601968AE4894E2AE48FFF761F9FFF753
S11316F0BEFBAD4BA84A18601968914201D1A74AB4
S11317001A601968A94884E2A948FFF751F9FFF75C
S1131710AEFBA84B18601968A7487AE2A748FFF700
S113172047F9FFF78FFBA64E0C900C99301CFFF77E
S11317303FF9A448FFF73CF9FFF784FB16AD011C01
S11317402870301CFFF734F90C9E992E0FD129789C
S11317509D483A1CFFF72CF9391C2A780A200123EA
S113176000F05CFB011E00D10FE6984851E20C9892
S1131770884B2BAE1B68308020882C9380B2FFF7F7
S11317806FF9FFF7E3F8924B17AA1B6817700293DF
S11317900123311C00950193002002F06BFA011E15
S11317A000D13AE28B48FFF703F936E28A48FFF7A3
S11317B0FFF8FFF75CFB80B220802188874889B25C
S11317C027E2391C8648FFF7F3F8FFF7FBFA031CFE
S11317D0303B5A1E9341DBB282481093FFF7E8F87E
S11317E0FFF7F0FA303811907F48FFF7E1F8FFF780
S11317F0E9FA031C303B5A1E9341DBB27B48129337
S1131800FFF7D6F8FFF733FB0C907948FFF7D0F8D1
S1131810FFF72DFB061C7748FFF7CAF8FFF727FBF5
S1131820051C7548FFF7C4F8FFF70CFB0C991390DF
S113183000913A1C331C71480D99FFF7B9F82288BE
S11318400D9B92B2ADB2022B34D0032B34D000974F
S1131850012B18D00396119E002404960C9E2E236F
S11318600596109E02930696139E07920896129E62
S1131870019409950A9662486249221C624BFFF75B
S113188017FB0D9481E50396119E002304960C9E8C
S113189031210596109E02910696139E0792089692
S11318A0129E019309950A9658485949374AFFF7F9
S11318B0FFFAB2E1574800E05748FFF779F8ACE186
S11318C001200021FFF7EAF93C200121FFF7E6F9A6
S11318D0F6E71548FFF76CF85048FFF769F8FFF78B
S11318E0B1FA2BAE30704E48FFF762F8FFF7BFFA3B
S11318F0051C0C983278C3B26C2B00D094E023887A
S113190048489BB2291CFFF753F80024AC4200DB83
S11319103BE52BAB1A7800230093FF200121FFF74E
S1131920A9FB0134F2E7C04697620000C5620000DB
S1131930F5620000266300005C6500000F6700008C
S1131940E15B0000EC5B00001A5C00005C5C0000E2
S11319509D5C0000DD5C00000D5D00004A5D000040
S1131960895D0000C75D0000045E0000425E000067
S11319707F5E0000BE5E0000FB5E0000385F00007A
S1131980735F0000B05F0000ED5F000022000020E4
S11319901D60000004FEFF1F0F2700001027000039
S11319A04B6000006B6000002CFEFF1F996000007C
S11319B0B360000018FEFF1FE26000004A610000EF
S11319C07D61000093610000BC610000ED610000D6
S11319D000FEFF1F0E6200002F620000686200001C
S11319E05863000092630000BB630000D4630000EE
S11319F0136400003F64000077640000A8640000E2
S1131A00E56400003D1F0000C8000020F2640000EF
S1131A1045210000006500002B6500007F65000083
S1131A209E650000BE65000023887E489BB2291C89
S1131A30FEF7BEFF0024AC4200DBA6E42BA8012184
S1131A40FFF73AFB0134F6E7208880B2FFF708F885
S1131A509BE40220002100F05BF90E90002800D1E5
S1131A6093E4082800D190E46F48CDE008200021D9
S1131A7000F04EF90E9E002E00D186E46B48C3E0C0
S1131A802BA9002001F084FBFA212B988900FEF792
S1131A904DFD011C6648FEF78BFF01F0F3FD011CB0
S1131AA06448FEF785FF01F049FA011C6248FEF71D
S1131AB07FFF624B624819684B1E9941FEF778FF1D
S1131AC0002001F0DCFB011C5E48FEF771FF0020E2
S1131AD001F0E4FB011C5C48FEF76AFF002001F002
S1131AE0ECFB011C5948FEF763FF002001F0B0FB3A
S1131AF0011C5748FEF75CFF012001F0A9FB011C03
S1131B005448FEF755FF544B544819684B1E9941ED
S1131B10FEF74EFF002001F0A3FB011C5048FEF726
S1131B2047FF504B504819684B1E9941FEF740FF40
S1131B304E4B4F4819684B1E9941FEF739FF002060
S1131B4001F0C0FB011C4B4863E00F9E002E01D145
S1131B50494859E04948FEF72BFFFFF773F90F9EF8
S1131B607070FFF712FC4648FEF722FF454801F06B
S1131B7024F9454848E04548FEF71AFFFFF722F9E3
S1131B80C3B2683B5A4253414148DFB2FEF710FFEB
S1131B90FFF76DF986B2311C3E48FEF709FF0121BB
S1131BA0002000F0B9FA0D903B48FEF701FF3B48D6
S1131BB0FEF7FEFE3A48FEF7FBFE3A48FEF7F8FE53
S1131BC03948FEF7F5FE0025384C291C22683848B0
S1131BD06368FEF7EDFE381C00F0BAF9381C00F01B
S1131BE0EBFA2168334862680D9BFEF7E1FE002E94
S1131BF002D0301C01F0E1F80135E5E72E48FEF78C
S1131C00D7FE2E4800E02E48FEF7D2FEFFF7BDFBBC
S1131C102C48FEF7CDFEFFF7B8FBFEF7ADFEFFF74D
S1131C20B4FBC0460966000054660000B2660000BA
S1131C303B6700004D670000636700003C80845EE2
S1131C408A6700009B670000AC670000BD67000066
S1131C50D1670000E56700003C800450F96700008C
S1131C600A680000348084591B6800003480045AD8
S1131C702C6800003E6800004F6800008D6800007A
S1131C80C568000010270000E4680000EE6800004A
S1131C90176900005F69000097690000C1690000CE
S1131CA0E3690000056A00004761000000D00340BA
S1131CB02A6A00003D6A00004E6A0000706A000053
S1131CC0BB6A0000016000001FB5041C01A90020CC
S1131CD002F02EFD01A8694602F068FC009B6846EC
S1131CE01C1901A9009402F0E9FB01A901220020BA
S1131CF002F04AFD1FBD0000034B00221A60034B93
S1131D008022D205DA67704700901C5804E100E095
S1131D1010B50A230C1C08287DD8FEF7FDFB051B13
S1131D20283C48626970570001F0ACFC0523012887
S1131D3071D0FFF7E1FF201CFFF7C6FF0020011C54
S1131D4001F02EFB041C0020012101F083F8002C7B
S1131D505ED15FE001F096FC062301285BD0FFF71B
S1131D60CBFF201CFFF7B0FF01200021E8E701F0C2
S1131D7089FC082301284ED001F0E0F8002803D0A4
S1131D800020012101F066F80220002101F008FB87
S1131D9000283DD13EE001F075FC072300283AD02D
S1131DA0FFF7AAFF201CFFF78FFF032005E0FFF7D2
S1131DB0A3FF201CFFF788FF0420002101F0F0FAA4
S1131DC0041C01F05FFC0028C1D1BDE708200021FC
S1131DD001F0E6FA00281BD10120011C01F03AF8B9
S1131DE018E0FFF789FF201CFFF76EFF05200CE0C9
S1131DF0FFF782FF201CFFF767FF062005E0FFF7CF
S1131E007BFF201CFFF760FF0720002101F0C8FAC8
S1131E10092300E00023181C10BD0000F0B5194C84
S1131E2085B002910392071CA08A1E1C80B2FEF7A3
S1131E3017FE40253C2E00DCF51CFEF76BFDA36865
S1131E4002991F70A368039A5970A3689A70606816
S1131E5001F0C4FCFEF710FD0B49A268E3680968B1
S1131E60002001910095011C02F0E4FD051CFEF721
S1131E7031FD606801F0A4FC6B1E9D41680005B053
S1131E80F0BDC046C80000200CFEFF1F08B5274A5D
S1131E90274B58609A60274A0A20DA6040221A6168
S1131EA0998252221F210023FFF7B8FF002802D095
S1131EB02148FEF77DFD0A2000F07FFF0A202D2136
S1131EC006220023FFF7AAFF002802D01A48FEF7D3
S1131ED06FFD0A202C2107220023FFF79FFF002813
S1131EE002D01548FEF764FD0A20282106220023AB
S1131EF0FFF794FF002802D00F48FEF759FD0A208F
S1131F0029213E220023FFF789FF002802D00A4836
S1131F10FEF74EFD0A20272135220023FFF77EFF1E
S1131F20002802D00448FEF743FD08BD68FFFF1FE8
S1131F30C8000020E2FFFF1F136B000008B5021C5D
S1131F404B1E0B20111C0022FFF768FF08BD000088
S1131F5038B50821051C0E20FFF7F0FF00280DD02E
S1131F60274C201CFEF724FD201CFEF721FD201C1D
S1131F70FEF71EFD201CFEF71BFD40E0214CE3682C
S1131F809A78E368D978002D03D01F48FEF710FD36
S1131F9005E009020A4311B21C48FEF709FDE36893
S1131FA01A79E3685979002D03D01748FEF700FD2C
S1131FB005E009020A4311B21448FEF7F9FCE3688C
S1131FC09A79E368D979002D03D00F48FEF7F0FC25
S1131FD005E009020A4311B20C48FEF7E9FCE36884
S1131FE01A7AE368597A002D03D00748FEF7E0FC1B
S1131FF005E009020A4311B20448FEF7D9FC38BDD2
S1132000836C0000C80000208A6C00009A6C0000F9
S1132010044B054A58609A60044ADA6040221A6107
S1132020998270478000002068FFFF1FE2FFFF1FB6
S113203073B51E4C0E1CA08A151C80B2FEF710FD51
S1132040FEF768FC0023AB420AD02269934207D210
S1132050F15CA268D154E268FF21D1540133F2E764
S1132060606801F0BBFB012000F0A7FE606801F08E
S1132070A7FB012000F0A1FE606801F0AFFBFEF7B2
S1132080FBFB0B49A268E3680968002001910095F5
S1132090011C02F0CFFC051C6B1E9D41FEF71AFCCF
S11320A0606801F08DFB680076BDC04680000020AA
S11320B00CFEFF1FF0B5124B89B05A7806AC228093
S11320C0104A061C126805AD0792D8880F1C80B20E
S11320D0FEF7C6FC2E7004AE3770FEF737FC0A4BD1
S11320E0211C1B682A1C02930123019300960020E3
S11320F001F0C0FD431E9841400009B0F0BDC04648
S11321002200002004FEFF1F00FEFF1F014B587039
S1132110D98070472200002038B5094B041CD888A8
S11321200D1C80B2FEF79CFC211C0920FFF7C2FFA6
S1132130291C041C2A20FFF7BDFF0443E0B238BD6C
S113214022000020F0B58BB007ADFF23041C0591DD
S11321502B70182804D8092806D2062823D803E0AF
S1132160031C1D3B142B1ED8104F08AE7B7802377E
S113217033800F4B1B680993B88880B2FEF770FC5C
S11321802C70FEF7E3FB0B4B00201B68311C029301
S1132190059B009701932A1C012301F078FD431E3F
S11321A09841400000E003200BB0F0BD2200002065
S11321B004FEFF1F00FEFF1F38B5324C051CE088EB
S11321C080B2FEF74DFC02210120FFF7BBFFA1788E
S11321D0E278C9B2D2B2002803D02B48FEF7E8FB5C
S11321E010E0002D03D02948FEF7E2FB0AE0920834
S11321F08901114380229201254B5140C918254879
S1132200FEF7D6FB02210320FFF79CFFA178E278BA
S1132210C9B2D2B2002803D01B48FEF7C9FB10E0B4
S1132220002D03D01948FEF7C3FB0AE09208890188
S1132230114380229201164B5140C9181548FEF7EC
S1132240B7FB02210520FFF77DFFA178E278C9B230
S1132250D2B2002803D00C48FEF7AAFB10E0002DF0
S113226003D00A48FEF7A4FB0AE09208890111434F
S113227080229201064B5140C9180648FEF798FB8C
S113228038BDC04622000020836C00008A6C000028
S113229000E0FFFF9A6C00007047000073B50E4C1D
S11322A00E4B221C0125061C083200201C600C4920
S11322B05A600095031C01F05BFF0A4B8022AA4080
S11322C0013C66821A60608A80B2FEF7C9FB052071
S11322D001F076FA257073BDCFFFFF1FE0000020E8
S11322E0992200001490145437B50E24FF34051CB1
S11322F0201C01F065FA0A2000F05FFD201C01F0AB
S11323006DFA0C2001F06AFA084A01231570009353
S1132310FA239B0000200193011C054B02F08AFB69
S1132320051C201C01F04CFA281C3EBD15010020A0
S113233014010020644AC0239B0010B51360634A53
S113234080241360FEF798FA614B64001C60614BB3
S1132350201C1C60604B1C6001F032FA642000F009
S11323602CFD201C01F03AFA642000F026FD201C0C
S113237001F026FA642000F020FDAE20FFF7B4FF40
S1132380A020FFF7B1FF7220FFF7AEFFA120FFF7F7
S1132390ABFF0020FFF7A8FFA220FFF7A5FF002056
S11323A0FFF7A2FFA420FFF79FFFA820FFF79CFFE1
S11323B03F20FFF799FFAD20FFF796FF8E20FFF730
S11323C093FFB020FFF790FF0B20FFF78DFFB120A4
S11323D0FFF78AFF3120FFF787FFB320FFF784FF61
S11323E0F020FFF781FF8A20FFF77EFF6420FFF7CC
S11323F07BFF8B20FFF778FF7820FFF775FF8A209B
S1132400FFF772FF6420FFF76FFFBB20FFF76CFF3D
S11324103A20FFF769FFBE20FFF766FF3E20FFF773
S113242063FF8720FFF760FF0620FFF75DFF812031
S1132430FFF75AFF9120FFF757FF8220FFF754FF61
S11324405020FFF751FF8320FFF74EFF7D20FFF759
S11324504BFFAF20FFF748FF2620FFF745FF012081
S1132460FFF742FF2520FFF73FFF0020FFF73CFF67
S11324700020FFF739FF5F20FFF736FF3F20FFF70B
S113248033FF2220FFF730FF0020FFF72DFF00204D
S1132490FFF72AFF5F20FFF727FF3F20FFF724FF06
S11324A00020FFF721FFFF20FFF71EFF0020FFF7AA
S11324B01BFF0020FFF718FFFF20FFF715FF002088
S11324C0FFF712FF002010BD2090145424901454E0
S11324D034A014543090145400A014540269C368F6
S11324E09A4204D8806810180138C01A01E0013AF1
S11324F0D01A7047F7B58368C668041C4068019118
S1132500151C9F1B8019974203D902F093FEAD1945
S11325100AE001993A1C02F08DFE019BED1BD919CA
S113252060682A1C02F086FEE560F7BDF7B5171C4B
S1132530C4680022061C019100923369B568A34265
S113254000D85B19013B1B1B2D1BBD4200D93D1C50
S11325509D4200D91D1C73682A1C1819019902F0A8
S113256069FE009A019B52190092B2685B196419C2
S11325700193A31A5A1E93415B421C407F1BF460D3
S1132580DBD10098FEBD000010B5104C104A0223A8
S1132590236163610F4BA261A2640F4AE361642368
S11325A02362E26400230422A3626362E362A365FC
S11325B06365E3652265E01D084902F04CFE201CBA
S11325C0074902F048FE2023A37110BD80010020BA
S11325D09F6C00001A01002016010020A86C000066
S11325E0AC6C0000F7B5204E041C33780191171C25
S11325F0002B01D1FFF7C8FF18235C434834361978
S1132600F268346900920025944216D9B2683D1CE0
S1132610131B9F4200D91D1C73682A1C19190198A9
S113262002F008FE019A641952190192B2687F1BE4
S1132630A31A5A1E93415B421C40009B1B1B009330
S1132640BB4200D90097009A002A07D0736801980A
S1132650191902F0EFFD009AAD18A418002D00D04E
S11326603461281CFEBDC0468001002010B50B1C3F
S1132670EFF31084012181F31088191CFFF7B2FFD6
S113268084F3108810BD0000F8B5013018256843A4
S1132690134D0F1C2D186E69141C012E0ED0002E24
S11326A006D0022E16D1281CFFF740FF041C14E0AC
S11326B0281CFFF713FFA0420ED305E0281CFFF7E8
S11326C00DFF844200D9041C281C391C221CFFF76E
S11326D011FF02E0002400E0341C201CF8BDC046B9
S11326E080010020F8B50B4B071C1B780E1C151C31
S11326F0002B01D1FFF748FFEFF31084012181F390
S11327001088381C311C2A1CFFF7BEFF84F3108884
S1132710F8BDC0468001002038B5051C081C0C1CFF
S113272002F0A1FD211C021C281CFFF7DBFF38BDB1
S1132730F8B5164B061C1A780C1C1D1C002A01D176
S1132740FFF722FFEFF31087012181F3108818208F
S1132750013670432818C2688568531C591B4D1EE6
S1132760A94149420B404169022902D101698B42C6
S1132770FCD001698B4204D04568AC54C36001208D
S113278000E0002087F31088F8BDC04680010020D7
S113279013B56C4607340020211C0122FFF766FFA5
S11327A0012801D1207801E00120404216BD00003B
S11327B0F7B5164C01932378051C0F1C161C002B2F
S11327C001D1FFF7E1FE226995421CD2EFF310809C
S11327D0012181F31088002D0CD018236A1C5A4360
S11327E06B43A750A2185660019AE3181A6200229C
S11327F09A625A6218235D43089B6419E36280F36A
S11328001088002001E001204042FEBD800100202C
S1132810826810B5041C4068531C834205D82068A4
S11328208154A360E3680133E360A26863689A4259
S11328300CD120692168FFF755FFA368984203D0A3
S113284001235B42E36001E00023A36010BD0000AC
S1132850F0B585B00A9C051C009101921F1C081C50
S11328600126019A904204D30199FDF75FFE0136D7
S1132870F7E70296BE4200D202970B9A01231A4050
S1132880039219D1002C01D1002415E00B9B2026C2
S11328909B070ED53026002F0BD0202609E0281CDC
S11328A0311CFFF7B5FFEA68013C002A04DB002C69
S11328B0EAD0029BA342F2D3EA680126002A34DB61
S11328C0012F01D9013F06E00098311CFDF72EFECF
S11328D0019B984208D3019A5643F1E7301C0199B1
S11328E0FDF724FE061E10D00098311CFDF71EFED5
S11328F0331C4343009AD21A0D4B0092195C281CD6
S1132900FFF786FFEB68002BE8DA039A002A0CD065
S1132910002C0AD0029AA24207D2281C2021FFF7D9
S113292077FFEB68013C002BF2DA05B0F0BDC0463E
S1132930B36C0000F0B58FB0149D07900C1C181CEC
S1132940291C161C069302F031FC0699079A0023F1
S113295009910A950B930D920C932178651C00291B
S113296004D10C9B002B00DD03E10DE1252900D0EF
S1132970F6E002340025671E3B782B2B0CD003D8DD
S1132980232B0DD1082308E02D2B03D0302B07D1A6
S1132990022302E0012300E004231D430134EAE79B
S11329A000243B781A1C303A092A05D80A225443D9
S11329B0303C0137E418F4E7002103912E2B0DD1AC
S11329C001373B781A1C303A092A07D803990A229E
S11329D04A43303AD21801370392F2E73978042394
S11329E00A1C9A43682A01D10137F7E7642925D0E4
S11329F008D8582900D193E063291AD0252900D09A
S1132A00ACE0A8E0732900D193E00DD8702900D080
S1132A10A4E0336809A81A1D19683260082300224B
S1132A2001920093102293E075296FD0782977D012
S1132A3094E033681A1D326019788CE033681A1DEB
S1132A401B683260D9175818012205934840049234
S1132A50092806DD0A21FDF7B7FD049B0133049321
S1132A60F6E70499039A914200D20492002C05D00F
S1132A70059B002B01DB690700D5013CAA0702D5A1
S1132A80039B002B10D0E9070ED4002C01D10024A5
S1132A900AE0049AA24207D209A82021FFF7B8FE4F
S1132AA00C9B013C002BF0DA0C9B002B56DB0599A8
S1132AB0002904DA4942059109A82D2103E06A0797
S1132AC003D509A82B21FFF7A3FE0C9B002B45DBA4
S1132AD003232B40022B11D1039900290ED1002C82
S1132AE001D100240AE0049AA24207D209A83021A5
S1132AF0FFF78EFE0C9B013C002BF0DA0C9B002BA5
S1132B002CDB0094019509A8059906E0336809A80F
S1132B101A1D19683260009401950A22039B17E07C
S1132B20336809A81A1D19683260009401951022AF
S1132B30F4E733681A1D32601C68217801340029D7
S1132B400CD009A8FFF764FE0C990029F5DA05E01A
S1132B50FFF77EFE02E009A8FFF75AFE7D1C02E0A3
S1132B6009A8FFF755FE0C9A002A00DAF9E62C1C96
S1132B70F3E60B9A002A03D007980699FFF7B2FDF3
S1132B800C990B9A8B180C930C980FB0F0BD08B5E8
S1132B90002000F031FE08BD08B5002001F054FE0D
S1132BA008BD08B5002001F02BFB08BD10B5174B7C
S1132BB008229978114202D099780A439A70144BEA
S1132BC08821002249015A501249222008701249D2
S1132BD0802040025850186810490140196010497B
S1132BE010485C582040C024A404204358500E4B85
S1132BF080211A72197601211A7059700B490A70D2
S1132C0099790C221142FBD110BDC04600D0074077
S1132C100070044000E0074044100000FFFFF3FF91
S1132C2004100000FFFFFFF0004006400050064083
S1132C30154B164930B51A1E8A420CD0144C002389
S1132C40A408A34204D098000D5801331550F8E7A6
S1132C50104B9A6001E00F4A93600F4A0F4900231A
S1132C60891A8B4204D0D45C0D48C4540133F8E76C
S1132C700C4A0D490023891A8B4204D0D018002431
S1132C8004700133F8E730BD0000000000000000CC
S1132C900000000000ED00E0206E0000686F0000FE
S1132CA000FEFF1F48FFFF1F94020020031C417019
S1132CB00020187058609860704710B54378041C61
S1132CC00120FF2B08D000F011FB63780133DBB245
S1132CD0637000F0FFFA002010BD0020704738B583
S1132CE0041C0D1C00F002FBE3681D43E56000F0CA
S1132CF0F1FA002038BD00000A4B00229A641A1C25
S1132D0040329A631A1C30329A621A1C20329A6139
S1132D101A1C10329A60044A1360044B9B60DB60F7
S1132D207047C0460C02002008020020F801002071
S1132D30024B00221A60186880B270470C007C5065
S1132D4070B54378041C0E1C002B0AD000F0CEFA98
S1132D5063780025013BDBB26370257000F0BAFA9A
S1132D6029E00225002926D00378002B16D0FFF78E
S1132D70DFFF6368A268984201D3C31A03E080218D
S1132D80C31A49025B1803259A4214D200F0AEFA22
S1132D900023237000F09EFA02250CE003254B1C4F
S1132DA009D000F0A3FA0123237000F093FAFFF78F
S1132DB0BFFFA6606060281C70BD38B5051CFFF716
S1132DC0B7FF041CFFF7B4FF031BA04203D2802209
S1132DD0001B520283189D42F4D238BD08B5012865
S1132DE001D100F083FA08BD08B5012801D100F033
S1132DF071FA08BD10B5FFF77FFF094A012313607C
S1132E000849094A0020094C106008600421216027
S1132E10074C216007490B6007490860136010BD27
S1132E203880045000008450000004500000045115
S1132E300400045104000C500000045310B5044C69
S1132E40206021710020A2602373637310BDC0460B
S1132E505C020020F0B585B003AD374C00900191C1
S1132E60287069702379009904208B4261D9237BEF
S1132E70002663730123AB70371C237BBB4215D937
S1132E80A268BB009B58002B0DD01A79D1070AD534
S1132E909968281C1B689847002804D0019A677316
S1132EA00526002A32D00137FFB2E6E7002E02D011
S1132EB0019B012B2AD10120FFF790FF00990C20E0
S1132EC0484322680027101800F0B6F8009B012040
S1132ED06371FFF789FF0223AB70237BBB4225D9C3
S1132EE0A168BB005B58002B0DD01A7991070AD555
S1132EF09968281C1B689847002804D0019A6773B6
S1132F00002A15D006260137FFB2E6E70023AB708E
S1132F10013FFFB2FF2F09D0A168BB005B58002B13
S1132F20F6D09968281C1B689847F1E7301C00E02C
S1132F30062005B0F0BDC0465C020020014B587964
S1132F407047C0465C02002013B503780021041CBE
S1132F500191022B07D0032B0BD0012B0ED1027948
S1132F60191C134801E00279114801AB01F032FA4F
S1132F7008E001A90E4801F06FFA03E00C4801A92A
S1132F8001F00CFA002812D1A2790A4BD201D2B274
S1132F901A706278084B5200D2B21A70A278074BAA
S1132FA01A70E278064B1A706279064B1A7016BDD5
S1132FB000400640184086530040865000400650AA
S1132FC001400650184016501F2303408022DB05A1
S1132FD052051A43054943099B005B18101C18430A
S1132FE00068431E9841C0B27047C0462880044020
S1132FF01F2303408022DB0552051A430449430979
S11330009B005B18101C1843002303607047C046E4
S1133010288004401F2303408021DA054905114319
S11330204209044892001218081C104301229A40D5
S1133030026070472880044073B5124D00220723B4
S1133040041C0093281C131C012101F0EDFB201C1F
S1133050FFF77AFF637A0022217A0093281C131C5D
S113306001F0E2FBE279084B92041A60074BA17A63
S11330701D68281C01F00CFA281CE17A01F017FAEB
S1133080002076BD0070044000700C59146D0000DF
S113309008B5054801F042F9044B1968C9B2013179
S11330A0FDF744FA08BDC0460040064044801C5E5B
S11330B008B5054801F032F9044B1968C9B2013169
S11330C0FDF734FA08BDC0460040064044801C5E4B
S11330D008B5054801F022F9044B1968C9B2013159
S11330E0FDF724FA08BDC046004006404480145849
S11330F008B5054801F012F9044B1968C9B2013149
S1133100FDF714FA08BDC046004006404480145838
S11331100C4B1868C0B202280FD0032802D0002834
S11331200ED102E0FA2080000BE0074B80221B68DE
S11331301202934205D1181C03E0044B186800E006
S11331400020704700700C59880200208C02002077
S113315008B5FFF7DDFF08BD08B5054B186801F099
S11331609EF90023984201D0024B1B68181C08BD2D
S1133170146D00008802002008B5044B01201B6870
S1133180DBB2002B01D0FFF7E7FF08BD0480045237
S113319010B50C1C122830D8FDF7BEF90A0A0D121E
S11331A02F15181B2F2F1E202F2F2F2F23272B00D7
S11331B0FFF76EFF01E0FFF77BFF206000201FE0B8
S11331C0FFF786FFF9E7FFF793FFF6E7FFF7A0FFA6
S11331D0F3E7FFF7C1FFF0E70A4B0CE0FFF7CCFF82
S11331E0EBE7094801F09AF8E7E7074801F080F8AF
S11331F0E3E7FA239B002360E0E700232360022037
S113320010BDC046006CDC020040064008B5094B06
S11332101B68DBB2022B06D0032B07D00020012B46
S113322007D1054805E0FFF797FF02E0034801F0E6
S11332305FF808BD04800C5D006CDC0200400640B1
S113324008B5024B185CFFF7E5FE08BDC36C00002F
S113325008B5024B185CFFF7B7FE08BDC36C00004D
S113326008B5BB20FFF7B0FE08BD08B57620FFF710
S1133270D1FE08BD08B57620FFF7BAFE08BD08B533
S11332807620FFF7A1FE08BD08B56620FFF7C2FE51
S113329008BD08B56620FFF7ABFE08BD08B566207B
S11332A0FFF792FE08BD08B59420FFF7B3FE08BDF2
S11332B008B59420FFF79CFE08BD08B59420FFF7DD
S11332C083FE08BD08B5024B185CFFF77DFE08BD00
S11332D0C56C0000044A1368002B04D0013B136042
S11332E0002B00D162B670476C02002072B6024B0C
S11332F01A6801321A6070476C02002010B50B4B3B
S11333000B4A1278002A04D1013B002BF8D1032088
S11333100AE0064C074801F021FD012803D0013CD6
S1133320002CF7D1F3E7002010BDC046EA030000EB
S113333002D0075100E0074010B5064C064801F0E2
S11333400DFD042804D0013C002CF7D1032000E03B
S1133350002010BDEA03000000E00740F7B5071C99
S11333600E1C151C01930120002F15D0002913D029
S1133370FFF734FD094C0021201C102201F063FFEB
S113338027602671002D03D0019BA560237363730E
S11333900120FFF729FD0020FEBDC0467002002079
S11333A0F0B5B24F8BB0019002913B7B01207B734F
S11333B0FFF714FD3B7901998B4204D80120FFF7F4
S11333C013FD022050E1019A396893005E58019B75
S11333D0357807AC029A2370291C02239943227280
S11333E066600391012901D0052D0AD1A04801216D
S11333F001F006FC002809D10120FFF7F5FC0120AB
S113340032E1072D02D99A480321F1E701236372BF
S1133410002400943B7B00998B4219D9009AB96827
S113342093005B58002B0ED01A79D1070BD59968FD
S113343007A81B689847002805D0009A029B7A7356
S11334400424012B04D1009B0133DBB20093E1E798
S11334500120FFF7C9FC874800F084FF039A012A82
S11334601AD10138C0B2022800D9D4E0FFF740FED7
S1133470814B984200D9CEE0FFF70AFE7F4FB84255
S113348000D9C8E0FFF724FEB84200D9C3E0FFF733
S11334900FFEB84200D9BEE0029A012A00D0DFE054
S11334A003200A2D00D9DFE0281CFDF735F80608B3
S11334B00A1B4E6441472C363B0000225CE0032289
S11334C05AE06B4801F04AFC012809D06848002101
S11334D001F0A6FBFFF712FF041C002C00D0C3E090
S11334E0012249E0624801F039FC042809D060480F
S11334F0022101F095FBFFF71FFF041C002C00D0F4
S1133500B2E0042238E005AB07221A7000225A7098
S1133510F2789A703279DA7030E0072205AB1A70CB
S1133520012203E0072205AB1A7003225A7025E03A
S113353005AB02221A7001221A7104E005AB0222C3
S113354001211A7019715A7118E005AB02221A7020
S11335500027012246481A715F7101F0FFFB012820
S11335600CD04348391C01F05BFBFFF7C7FE041C79
S1133570BC4203D078E0052205AB1A702B1C083B33
S113358005A9022B03D873798B71B379CB71737846
S1133590002B0DD0012D0BD9B0780222384B002816
S11335A002D01869024302E018699043021C1A61B0
S11335B02F4801F059FB002800D00324002D05D129
S11335C0FFF79CFE0024002805D04DE0012D02D118
S11335D0FFF7B2FEF6E70120FFF700FC019B234E44
S11335E007AFB37302237B720025337BAB4222D92E
S11335F0B168AB005B58002B0AD01A79910707D544
S11336009968381C1B689847002801D075730524F5
S11336100135EDB2E9E7029B012B11D0002C0FD04C
S11336200120FFF7DBFB07AE0023009D7372013D11
S1133630EDB2FF2D06D10120FFF7D6FB201C13E0CD
S11336400624EDE7094BAA009B68D358002BEED063
S11336501A79D107EBD59968301C1B689847E6E7BF
S1133660002C00D11CE7DBE70BB0F0BD700200209A
S113367000E007400040064040420F0080841E00E6
S113368000ED00E008B5064801F068FB012804D00D
S11336900123042802D00B2300E00023181C08BDDA
S11336A000E007400368F7B51D0AFF2635401B4AB2
S11336B01E40AB009F581A4A041C9A58281C0192B9
S11336C0FFF7BEFD311C0022381C01F04FFB019BAB
S11336D0B6009E19227984235B05334352001A6095
S11336E0802362795B0533431A60A27990235B05DA
S11336F0334312011A60E3790A4A16431A0432600A
S1133700002B0AD0084B5B5D002B06D01F22134010
S113371001229A40131C054A1360F7BD206D000076
S1133720186D000000001818286D000000E100E08A
S1133730F8B50368041CFF25180A2840104A1D40E8
S113374083009E580F4A9F58FFF77AFD301C291CAE
S1133750012201F00BFB301C291C626801F016FBEE
S1133760AD00227A88237D195B052B4392001A60F1
S113377098235B051D43637A9B012B60F8BDC0460B
S1133780206D0000186D000038B50C1C002802D113
S1133790002C09D112E003680133F9D0051C083567
S11337A0FFF780FF281CF6E72368013306D0251CA9
S11337B0201C0C35FFF7BCFF2C1CF5E738BD0000BE
S11337C0010AFF231940044A890003408A58012052
S11337D0984050607047C046206D0000010AFF23E6
S11337E01940044A890003408A5801209840906097
S11337F07047C046206D000008B5084B8200D258BF
S1133800942302325B0513431B78002B02D000F093
S11338104BFA01E000F0A0FA08BDC046C86C0000F5
S1133820021C80230C325B0513431B78002BF7D05A
S11338300171704738B5094B8000C4580D1C201C19
S11338401830291CFFF77CFA0328F8D0002801D08F
S113385004232374207CC0B238BDC04680020020FB
S1133860F0B589B005930EAB0290161C1A7883004C
S113387035488D0A18581E3D01903448CFB21C5863
S1133880002007AB18800123A07CE374A374534287
S11338905341DBB203936B425D41EDB20490002DC2
S11338A002D00F0AC9B28C467F000023FFB29D42AA
S11338B004D12B1C002E01D1039AD3B21F4307ABB2
S11338C01F700122002D02D0604658700222A360AE
S11338D0E2600198391CFFF7A3FF02980F99FFF7E4
S11338E0A9FF237C002B0CD1002E0AD0059AA660D8
S11338F0E26031780198FFF793FF02980F99FFF780
S113390099FF237C002B16D1039B002B13D0002D91
S113391001D1002E0FD000230125A3600198E5609A
S113392001F088FA291C39430198FFF779FF0298BE
S11339300F99FFF77FFF04980023A074207CE374A1
S1133940C0B209B0F0BDC046C86C000080020020BF
S1133950104A830010B598580F4A9C58E37C002BFA
S113396005D0237C052B02D0237C042B09D198237A
S1133970821C5B05134300221A7001F06DFA0123C7
S11339806374A37C002B03D0201C1830FFF795F937
S113399010BDC046C86C000080020020F7B5194B6A
S11339A08200D358061C0193174B0D1CD758009264
S11339B00124002F24D12422081C391C01F043FCCB
S11339C0281C391C1830FFF771F9301CFFF75CFC18
S11339D0019801F0E3F9009A0B4BD5500B4B9A5D1B
S11339E01F231A40231C93401A1C094B1A60019A86
S11339F09C2302325B05134380226C741A703C1CB6
S1133A00201CFEBDC86C000080020020C76C0000B2
S1133A1000E100E0F7B50F4E8400A359002701939D
S1133A200D4B051CE2589C2302325B0513431F70A7
S1133A30FFF72FFC094B01985A5D1F231A400123FD
S1133A4093401A1C064B1830DA67FFF746F9A75162
S1133A50F7BDC04680020020C86C0000C76C00009F
S1133A6004E100E00A4A830070B59E58094A0C1C20
S1133A709D584A686B699A4209D0FFF729FB62682E
S1133A80011C0023301C01F097F964686C6170BD5F
S1133A90C86C000080020020F0B587B005930FAB1E
S1133AA01B780492334A029383009E58324A03914E
S1133AB09C58071C637C002B02D10320207456E021
S1133AC0029B002B01D11E230E930023E360A3600D
S1133AD0237423606374029B381CA3740399FFF757
S1133AE0C1FF9022B31C52051A431021117098256E
S1133AF08422F11C52056D050A431D430221402313
S1133B001170301C2B7001F095F9039B381C198837
S1133B10012300930E9B049A0193059BFFF7A0FEDB
S1133B200D9B002B16D0237C002B10D10C9B301C3A
S1133B30A3600D9BE3600C9B1978FFF771FE029B59
S1133B40002B12D0381C0E99FFF774FE0DE0237C75
S1133B50042B0AD100232B70F37801255B092B4237
S1133B6002D0301C01F078F96574207CC0B207B033
S1133B70F0BDC046C86C000080020020F0B58BB0D8
S1133B80099313AB1B780892384A049383009D5819
S1133B90374A07919C58061C637C002B02D10320F2
S1133BA0207461E00499002901D11E221292109B15
S1133BB01199049A002761602360E760A274277456
S1133BC0301C0799A7606774FFF74CFFAB1C039385
S1133BD0039990235B05194310230B708423EA1C7B
S1133BE05B05134302221A70039A98235B051A4358
S1133BF040231370281C0591069201F01BF9079BC2
S1133C00129A1988301C0192099B0097089AFFF7B1
S1133C1027FE237CDBB2BB4216D105998C220B70A4
S1133C2011995205012903D1039B1A43082301E08A
S1133C3003990A431370049A2B79002A12D0301C7A
S1133C401299FFF7F7FD0DE0237C042B0AD1069BA4
S1133C5001261F70EB785B09334202D0281C01F067
S1133C60FBF86674207CC0B20BB0F0BDC86C0000D9
S1133C70800200201FB5069C0094079C0194089CB8
S1133C80029401240394FFF707FF04B010BD1FB58D
S1133C90069C0094079C0194089C029401240394BC
S1133CA0FFF76CFF04B010BD254A830070B59D5822
S1133CB08422E91C52050A4302211170214A9C58AE
S1133CC090226B1852051A431278E978D2B28E0604
S1133CD034D5942149051943097800292ED0012AA5
S1133CE015D1EB78134202D0052323740CE0E3686A
S1133CF0013BE360002B07D0A368281C5A1CA26078
S1133D005978FFF78DFD19E0FFF722FE16E062688F
S1133D10013A6260002A06D08C214905012A05D1A6
S1133D200B43082204E0FFF713FE02E00B430022DA
S1133D301A7023685A1C22602A791A7070BDC04612
S1133D40C86C000080020020C31C84204005184376
S1133D500223037070470000F0B5904B8100CD58EA
S1133D609022EB7889B05205DBB2071C0593101C36
S1133D70AB1D1843EE7884460078EC1CC0B2079063
S1133D8094204005184300780494F6B2441EA041E0
S1133D90834C0696982676050C59A91CC0B2334369
S1133DA000911143029018780A78C0B2D2B20392FB
S1133DB0029A0191002A30D0079900290DD01023CE
S1133DC062461370281CFFF7BFFF236B002B00D142
S1133DD0E1E0F8B2626B0121D9E000281DD0402255
S1133DE01A70281CFFF7B0FF231C2C331B78002B00
S1133DF002D1009806433370236B002B03D0F8B232
S1133E008021626B9847E37D002B04D0201C18307E
S1133E108021FEF764FF0A23BCE0069901228E117B
S1133E20281C1640FFF790FF0598012103110B424F
S1133E3019D0049A90235B05134310221A70002EA4
S1133E4004D0EB785B07DB0F10D11AE00823237052
S1133E502C342378002B00D09DE09822009C52053E
S1133E602243137097E0002E16D0EAE7019810233E
S1133E700370236B002B6BD0F8B20221626B98475E
S1133E8066E001990B70236B002B03D0F8B2626BD0
S1133E90042198472B797EE0039A012A26D1EB78F6
S1133EA0134255D0019B1E702B79231C2C331B7895
S1133EB0002B07D10298002804D1982300995B05B0
S1133EC00B431870236B002B03D0F8B20821626BEC
S1133ED09847A37D002B04D0201C18300821FEF73E
S1133EE0FEFE00236360E360237554E02B79A2682F
S1133EF0DBB2002A2AD022691370236901332361BB
S1133F00A368013BA360A368002B44D1029B002B50
S1133F1012D1231C2C331B78002B05D19823009835
S1133F205B05029903431970E37D002B04D0201C28
S1133F3018302021FEF7D3FE002363752361236B21
S1133F40002B28D0F8B2626B202120E0072321E067
S1133F506368002B1DD0E2681378291C80220C3181
S1133F6052050A431278002AF7D02B71E368013313
S1133F70E3606368013B63606368002B0BD1E3601B
S1133F802375236B002B06D0626BF8B2102198477F
S1133F9001E00623237009B0F0BDC046C86C0000E0
S1133FA080020020042907D007290BD19C235B053C
S1133FB003301843802304E090235B050330184347
S1133FC0102303707047000038B50A4B8000C458B2
S1133FD0094BDC22C358520508331A4300231360EB
S1133FE0A27C1D1C9A4203D0201C1430FEF765FEEF
S1133FF0257438BD84020020CC6C000038B50C4B0D
S11340008000C4580B4B0025C058D423021C08322E
S11340105B0513431D6008492A1C00F0C2FFE37CC2
S1134020AB4203D0201C2030FEF747FE657438BD38
S113403084020020CC6C00001B000200F7B5151CA4
S11340402A4A009181002A4B8F58061C0191CC58B2
S11340500B20002F49D1391C3422009801F0F3F8C9
S1134060009A019B2149301C5A502A78214B920610
S11340701A60FFF718F9201C00F00CFF0098391C97
S11340801430FEF713FE0098391C2030FEF70EFEA4
S1134090301CFFF7BBF86A68011C201C00F006FF07
S11340A0201CA97A00F05BFF201C297A00F06BFF2A
S11340B06A7AB4235B05234352031A60CC23083481
S11340C05B058022234312031A60C8235B051C434B
S11340D08023DB022360084B381C9A5D1F231A409F
S11340E0012393401A1C054B1A60FEBD8402002074
S11340F0CC6C000004800C5DE0FEFF1F00E100E0DA
S1134100F8B5174A174B8500EB58AF58041CD82252
S1134110191D52050A431268002AF8D0124A0833BE
S1134120115D1F22114001228A40111C0F4A0026F2
S1134130D167CC2252051A431660C8225205134394
S1134140381C1E601430FEF7C8FD381C2030FEF702
S1134150C4FD034B201C5E51FFF7AAF8F8BDC0460E
S113416084020020CC6C0000E0FEFF1F04E100E0AC
S113417070B504AC2578094C80000659084C0459E4
S11341802363012362606374321CD42308325B0509
S113419013436A05E06AE1621A6070BDCC6C0000EA
S11341A084020020F8B51E1C134B8000C458134B26
S11341B0C5580123A374277C0620002F1BD10C2093
S11341C0002A18D0A26023742B1CDC2508336D054B
S11341D01D4380231B0421602B60201C1430311CE0
S11341E0FEF7AEFD031E032BF7D00020834202D05E
S11341F0286020740A20F8BD84020020CC6C0000E2
S1134200F8B52C4A83009C582B4A061C9D58237CE5
S1134210002B02D1637C002B4AD0DC232F1C5B05CE
S113422008371A1C3A431268002A16D02A1D134371
S11342301B68002B11D0A368002B0ED022681378C2
S1134240EB60236801332360A368013BA360A36888
S1134250002B02D1301CFFF7B7FED4235B051F43AC
S11342603A68002A1AD02A1D13431B68002B15D064
S1134270EB6862681370E36A002B03D0301C211CC6
S113428098470BE0636801336360E368013BE360D4
S1134290E368002B02D1301CFFF7B0FE281C07494D
S11342A000F09EFE002803D0281C044900F0B2FE52
S11342B0F8BDC04684020020CC6C0000130001004D
S11342C084235B0503431A7800239A4209D0802390
S11342D05B05013018430378012B01D1024B00E048
S11342E0024B181C7047C04600127A0080841E00DE
S11342F038B5084A031C083313431D78064A031CC7
S1134300183313431C78FFF7DBFFEDB2E4B22C192A
S1134310E04038BD000090100000101010B50D4AA8
S1134320831D13431B78041CDBB2002B0FD0012B1D
S113433007D1FFF7C5FF084B08341C432378D84046
S113434006E00020022B03D1044B186800E0044867
S113435010BDC04600000811000090108802002023
S1134360006CDC020C4A831D13431B78DBB2012B67
S113437008D0002B04D00320022B0CD005200AE027
S1134380181C08E080235B05013018430078431EA5
S113439098410223181A7047000008119C22031C3C
S11343A052051830024380201070074A00201A4337
S11343B0107006489A1D02431078C0B20028F8D144
S11343C0034B0B607047C04600000813000008113F
S11343D0006CDC02F8B5041C0D1C171C1E1CFFF736
S11343E0C1FF012802D1002D04D007E0022805D125
S11343F0012D03D1201C311CFFF7D0FF8023621C48
S11344005B0513431D7084235B05234302221A704A
S11344100C4A231C083313437A00D2B21A700A4B95
S1134420402223431A70094AA31D13431B78012B0E
S1134430F9D1002D01D1064B00E0064B3B4133601E
S11344400020F8BD000090100000081300000811BF
S113445080841E0000127A000A4A10B51468031CF6
S11344600120002C0CD00848802418430470074C09
S1134470981D204300780228F9D1126800200A60B0
S113448010BDC04688020020000008130000081177
S11344909C235B05C9011843C9B2017070479C2372
S11344A05B0518430078431E9841C0B270479423BB
S11344B05B0549011843C9B20170704770B50668BD
S11344C00C1C301C2049FCF731F81F49051C301C1A
S11344D0FCF770F80E1C081CE1210901FCF726F812
S11344E0E121E0800901301CFCF764F80E1C081C73
S11344F03C21FCF71BF83C212081301CFCF75AF8C6
S1134500124BA17223806E23FF3322889D4209D966
S1134510013292B2ED1A032322801A4053425341CE
S11345206E33F1E7930701D0094900E009490123FB
S1134530CA5C954201D8638003E00133AD1A0D2BA8
S1134540F6D1A58070BDC04680510100B2070000BD
S1134550F76C0000EA6C000030B511490488031CB4
S113456062180020812A19D85A88511E0B2915D89F
S113457099884D1E1E2D11D8DD88172D0ED81D8942
S11345803B2D0BD89B7A3B2B08D8A30701D0054BB6
S113459000E0054B9B5C8B424041C0B230BDC0463D
S11345A04EF8FFFFF76C0000EA6C000070B5124A89
S11345B085880388AD186E22FF325A434488AA18AE
S11345C09D0852190D4D6600755B52199D0702D165
S11345D0022C00D8013A0A60C488E122038912013E
S11345E062433C246343D318827A08689B18044AC4
S11345F042439B180B6070BD4A05F5FFD06C000068
S113460080510100084B1A6880231B029A420AD188
S1134610031CA0201033400518430368002B02D16B
S113462080235B00036070478802002010B580225D
S1134630041C52051034002314430121216023601B
S11346404360016090211C30490501430B608821BF
S1134650490501430B6084214905014310430B6064
S1134660036010BD021C902314325B051343002227
S11346701A604260102201601A6070470068086086
S113468070470000114B820070B5D558104B802242
S113469092051A60041C281CFFF7C8FF281CFFF7AA
S11346A0B1FF0C4B0C4E195D01251F221140345DE6
S11346B02B1C8B40191C2240084BC020A84095405D
S11346C019501D5019601D6070BDC046086D000072
S11346D03C80845E056D0000046D000000E100E094
S11346E0F7B5124B8000C7580025081C0E1C019515
S11346F0FFF732FF041EAC4216D001A9301CFFF7AD
S113470055FF281CFEF724FD011C80200002814275
S113471006D0FBF70BFF011C0198FBF707FF019084
S1134720381C0199FFF79EFF201CFEBD086D000098
S1134730F7B5134B8000C5580024281C0E1C01A992
S11347400194FFF79BFF201CFEF702FD041C802050
S1134750000284420ED00B4B211C04351D43FBF791
S1134760E5FE2D68019F211C4743A8B2FBF7DEFE3E
S11347703F180197311C01A8FFF7A0FEF7BDC04602
S1134780086D000000007810F0B5194B800085B06A
S1134790C5580026081C0F1C01920396FFF7DCFE87
S11347A0041EB44201D100241EE0381C03A9FFF703
S11347B0FDFE301C2F68FEF7CBFC011C802000029C
S11347C0814206D0FBF7B2FE011C0398FBF7AEFE54
S11347D00390039BBB42E6D3AB60019A88235B053D
S11347E01C351D4393002B60201C05B0F0BDC04652
S11347F0086D0000044B8000C25888231C325B05FE
S11348001343890019607047086D0000054B800050
S1134810C258882314325B0513431868431E984119
S1134820C0B27047086D00006B461A78E023DB02C3
S113483012041A400B07111C1943024BC0180160E3
S11348407047C0464410000008B5084B8200D25897
S1134850902303325B0513431B78002B02D000F036
S113486015F901E000F07CF908BDC046106D0000A8
S11348700C4A08B580000C4B8158C3589C20033166
S11348804005002208431A71027094204005014338
S11348900A701A7F002A03D0181C2030FEF70DFA84
S11348A008BDC046106D0000900200201C4BF7B5F7
S11348B03022061C0C1C8700081C0021FD5800F047
S11348C0C2FC301CFEF7D1FCFEF702FC2060281C61
S11348D000F0F6FB201C00212030FEF7E7F99023BE
S11348E0EA1C5B051343019210221A70281C032151
S11348F000F026FC281C002100F048FC094BFC5069
S1134900094B9A5D1F231A40012393401A1C074B3D
S11349101A60019A98235B05134340221A70F7BD6D
S1134920106D0000900200200C6D000000E100E01A
S1134930F8B50D4E84000D4BA759051CE05800F046
S1134940BFFB381C2030FEF7C8F9094B281C5A5D00
S11349501F231A40012393401A1C064BDA67FEF703
S113496089FC0023A351F8BD90020020106D0000C3
S11349700C6D000004E100E00A4B800070B5C558DE
S1134980094B0C1CC358161C281C1A68096800F033
S11349909EFB30602179281C6279A37900F0E3FB47
S11349A070BDC046106D000090020020F7B51F4A8C
S11349B083009C581E4A061C9D5822790420002A14
S11349C033D1002903D0301C01AAFFF7D5FF982169
S11349D0EA1C49051143002340200B700870276925
S11349E09F4203D1301CFFF743FF1DE001212171D9
S11349F0A36194235B052B4319780720002914D065
S1134A00A368002B03D019780133A36000E0191CBC
S1134A10A9712369013B2361A3690133A3619C2329
S1134A205B051A43802313700020FEBD9002002012
S1134A30106D0000F8B5134C8600134F3459069DD1
S1134A40F65901272777A2602561E3606561FFF7C6
S1134A50ADFF051E14D1201C20300799FEF770F914
S1134A600328F8D000280BD09C22033652050023DB
S1134A703243237113709422520516433370032575
S1134A80281CF8BD90020020106D000010B51F4BCB
S1134A908200D3581E4952581979002934D05969D3
S1134AA0002911D09C2149051143097800290BD014
S1134AB09479D968E4B2002903D00C70D968013123
S1134AC0D9605969013959611969002914D09421AF
S1134AD049051143097800290ED09968002903D0AB
S1134AE00C780131996000E00C1C94711A69013A48
S1134AF01A619A6901329A611A69002A04D15B69C0
S1134B00002B01D1FFF7B4FE10BDC0469002002077
S1134B10106D000008B5104B8000C3580F4A81582F
S1134B200022581CC2779C20033140050843DA62F6
S1134B301A701A835A629A621A63027094204005AA
S1134B4001430A701A1C38321278002A03D0181D47
S1134B500121FEF7C4F808BD90020020106D00008A
S1134B6038B5254B8200D35824495258591CC97F63
S1134B7000293FD0D96A002916DB94214905114345
S1134B800978002910D0596A1C7F002905D0DD6AF4
S1134B90002D02DD0C78013159629471D96A013912
S1134BA0D962596B01315963D96A002905DA942114
S1134BB0D41C4905214300240C70196B002911DD14
S1134BC09C2149051143097800290BD091799A6AEF
S1134BD0C9B2002A03D011709A6A01329A621A6B20
S1134BE0013A1A63DA6A002A04DC1B6B002B01DC2D
S1134BF0FFF790FF38BDC04690020020106D000002
S1134C00012903D0032909D1842300E094235B05FF
S1134C1018430078431E9841C0B200E0002070475A
S1134C20034B013049011843C9B201707047C046B3
S1134C300000881294235B05023049011843C9B26D
S1134C4001707047034B023089011843C9B20170E7
S1134C507047C046000008138C235B050230C9006E
S1134C601843C9B201707047F7B5384EC21C1643D9
S1134C7032780B78041C0D1CD2B20120072B63D8A8
S1134C80181CFBF749FC04192A0D192A2A3A304B3F
S1134C9001341C43002323703378012BFCD152E0F0
S1134CA00320012A50D12A4B01341C434023237092
S1134CB03378042BFCD146E00021012B01D00423DE
S1134CC00221327803209A423ED1201CFFF7A8FF2C
S1134CD0204B04211A698A4333E00227BB4207D1DF
S1134CE00B790027BB4203D04979201CFFF7AAFFA8
S1134CF0194B01341C43277019E0174B621C1A43EB
S1134D00042111706A78A11C0B431A706B78002B74
S1134D1006D1AB78002B03D0E978201CFFF78AFF7B
S1134D20AB79002B03D0E979201CFFF795FF33788A
S1134D300421DBB20193019B01330193054B1A69F2
S1134D400A431A6130BF0020FEBDC0460000301087
S1134D500000881200ED00E000001010024B033048
S1134D6018430078C0B2704700003010143080231C
S1134D70012A04D11B058A401843111C04E0DB04FA
S1134D80184301238B40D9430160704701238B40B2
S1134D90002A01D0436000E0836070470023C222F0
S1134DA0037043708370C37043718371C371037262
S1134DB042728372C3727047F0B587B00293FA23CC
S1134DC09B005343002701250490059101936D42F4
S1134DD03C1C00970123A34003930026144A059822
S1134DE093195988039B5943FBF7A0FB019A831A33
S1134DF0824200D9131AAB4204D20D4A0094975D43
S1134E001D1E02D00436C82EE8D10134032C01D073
S1134E10002DDFD1029B002B00D01D60009A3F23A0
S1134E201F4093011F43049BFFB25F7007B0F0BDA6
S1134E302A6D0000942302305B0503431B78002B8A
S1134E4004D088235B051843042303E080231B0557
S1134E5018433023037070479422831C52051A436D
S1134E601278011C0220012A12D18022D204134399
S1134E70CF221A708023DB00C8782022024004D09D
S1134E80013B002B03D0C046F6E7101C00E00920CC
S1134E9070470000034B0360034B436000238360AF
S1134EA0036170470400000F00C01FC0F0B50F1C61
S1134EB087B091000390381C141CFBF737FB82B2B7
S1134EC09100381C0492FBF731FB251AA04200D94B
S1134ED0051B0526331C63430422029301920299A5
S1134EE0381CFBF723FB81B205907143381CFBF798
S1134EF01DFB231AA04200D9031BAB4204D8059A18
S1134F001D1C92B204920196029B01361B19029356
S1134F10212EE4D1201C6421FBF708FB0323434327
S1134F2001209D4219D2019B043B032B06D8039A0E
S1134F30C4235B051343802292021A60039AE1237F
S1134F405B051343019A0020013A12061A60039A82
S1134F5083235B051343049A1A6007B0F0BDF4235E
S1134F6010B55B05022903D1184380239B0508E093
S1134F70041C90220834520522430901184311608D
S1134F800023036010BD842308304A085B050343F3
S1134F9052001A6080235B05184301231940016005
S1134FA07047012310B58B40041C080C042816D844
S1134FB0FBF7B2FA0A0305070900043404E00834D5
S1134FC002E00C3400E01034002A03D080221205E1
S1134FD0144303E08022D2041443DB43236010BD56
S1134FE0021C10B5080C0023042810D80124FBF778
S1134FF093FA030507090B00136806E0536804E0FD
S1135000936802E0D36800E01369CB402340181C86
S113501010BD0000294A031C881800B510284BD87D
S1135020FBF77AFA413A251E1710094A4A4A4A2CD4
S11350304A4A4A4A3300D022520504331343802299
S1135040520336E0CC225205043313438022120368
S11350502FE0C8225205043313438022D20228E0F1
S1135060C4225205043313438022920221E0C02259
S1135070520504331343802252021AE0FC225205E3
S1135080043313438022120613E0F822520504333A
S113509013438022D2050CE0BC225205043313438F
S11350A08022120205E0B822520504331343802201
S11350B0D2011A60002000E0032000BDF2FFFEFFD1
S11350C00423C37000238370437003717047F0B5E9
S11350D089B00692120B0392012608230722079037
S11350E005910025764202930192022700246B1C4D
S11350F0191C794306980493FBF718FA059A82421F
S113510006D3131A9E4203D91E1C039002940195E0
S113511001347F00092C01D0002EE8D1072D03D0E3
S1135120002E01D0049DE0E7019B03981A0170232F
S11351301340029A1343079ADBB2537009B0F0BDCF
S11351408423C21C5B05134301220A405200D2B2DD
S113515089071A70C90F90235B05023009011843AF
S1135160C9B20170704710B58C2403306405C900BE
S11351700443C9B221708821490592000143D2B287
S11351800A70802252051043037010BD8023023040
S11351905B05012203430A4089071A70C90F8C2357
S11351A05B05C9001843C9B20170704741188842B1
S11351B003D0002303700130F9E77047084B10B5A2
S11351C0041C002B02D0002100E000BF054B18682E
S11351D0836A002B00D09847201C00F04BF8C0468F
S11351E000000000F46D000070B50E4B0E4D00245D
S11351F0ED1AAD101E1CAC4204D0A300F35898471E
S11352000134F8E701F0F8FD084B094D0024ED1ACC
S1135210AD101E1CAC4204D0A300F35898470134CF
S1135220F8E770BD186E0000186E0000186E0000DC
S11352301C6E000010B50023934203D0CC5CC45410
S11352400133F9E710BD031C8218934202D0197090
S11352500133FAE77047031C0A7801311A700133ED
S1135260002AF9D170470023C25C0133002AFBD124
S1135270581E7047FEE7C0469F000000000000096A
S11352806757617270537069436F6D6D6F6E5369C8
S11352906E6B4275666665725B25645D203D205BBE
S11352A03078253032585D0A001B5B306D1B5B344F
S11352B03B34336D1B5B313B33376D0D53616E698A
S11352C0747920636865636B206661696C65642129
S11352D01B5B306D0A001B5B306D1B5B343B343150
S11352E06D1B5B313B33376D0D496E76616C6964C0
S11352F020737570706C7920766F6C7461676520AB
S11353005B25645D206D56211B5B306D0A0077615F
S113531072705365744C6F77506F7765724D6F641C
S113532065286B57617270506F7765724D6F646555
S1135330564C50532C2030202F2A20736C656570F6
S1135340207365636F6E6473203A20697272656CB2
S11353506576616E742068657265202A2F29282974
S1135360206661696C65642E2E2E0A000D0A0A0AF5
S11353700A5B202A090909095761727020284857D5
S1135380207265766973696F6E204329202F204748
S11353906C61757820284857207265766973696F47
S11353A06E2042290909092A205D0A000D5B20208C
S11353B00909090920202020202043616D627269B7
S11353C0646765202F2050687973636F6D706C611A
S11353D0622020200909090920205D0A0A000D091C
S11353E0537570706C793D25646D562C094465665F
S11353F061756C74205461726765742052656164D0
S11354002052656769737465723D3078253032784F
S11354100A000D094932433D25646B622F732C0940
S11354205350493D25646B622F732C0955415254E6
S11354303D2564622F732C094932432050756C6CEE
S11354402D55703D25640A0A000D0953494D2D3E22
S113545053434743363D3078253032780909525456
S1135460432D3E53523D3078253032780909525449
S1135470432D3E5453523D3078253032780A000D86
S1135480094D43475F43313D30782530327809096F
S1135490094D43475F43323D30782530327809095E
S11354A04D43475F533D3078253032780A000D096B
S11354B04D43475F53433D3078253032780909091D
S11354C04D43475F4D433D30782530327809094FCD
S11354D053435F43523D3078253032780A000D093A
S11354E0534D435F504D50524F543D307825303228
S11354F078090909534D435F504D4354524C3D3094
S1135500782530327809095343422D3E5343523DA6
S11355103078253032780A000D09504D435F5245EA
S11355204753433D30782530327809090953494DB2
S11355305F53434743343D30782530327809525421
S1135540432D3E5450523D3078253032780A0A00BB
S11355500D0925647320696E205254432048616EFE
S1135560646C657220746F2D646174652C09256404
S113557020506D6772204572726F72730A000D09B4
S1135580307825303278202D2D3E205B3078253040
S113559032782030782530327820307825303278CF
S11355A05D0A000D09307825303278202D2D3E20FB
S11355B03078253032780A000D0930782530327879
S11355C0202D2D3E202D2D2D2D0A000D0A09256498
S11355D02F2564207375636365737320726174652A
S11355E02E0A000D0925642F2564207375636365F5
S11355F073736573206D6174636865642072656696
S11356002E2076616C7565206F66203078253032E7
S1135610782E0A000D0925642062616420636F6D91
S11356206D616E64732E0A0A000A0A0A0D426F6FD6
S113563074696E6720576172702C20696E20332E56
S11356402E2E2000322E2E2E2000312E2E2E0A0A2F
S11356500A0D0041626F757420746F20737769744A
S113566063682043505520746F20564C5052206D6F
S11356706F64652E2E2E2000776172705365744C12
S11356806F77506F7765724D6F6465286B576172E1
S113569070506F7765724D6F6465564C505228296F
S11356A0206661696C65642E2E2E0A00646F6E6537
S11356B02E0A0D0041626F757420746F20475049A3
S11356C04F5F4452565F496E697428292E2E2E204E
S11356D00041626F757420746F206C6F77506F7720
S11356E0657250696E53746174657328292E2E2E69
S11356F020004144584C3336323A205350492074E8
S113570072616E73616374696F6E20746F20726569
S113571061642044455649445F4144206661696C94
S113572065642E2E2E0A004144584C3336323A20FA
S113573044455649445F4144203D205B3078253040
S113574032585D2E0A004144584C3336323A2053C5
S11357505049207472616E73616374696F6E207452
S11357606F20726561642044455649445F4D53542B
S1135770206661696C65642E2E2E0A004144584CE3
S11357803336323A2044455649445F4D5354203D04
S1135790205B3078253032585D2E0A004154343570
S11357A044423A20535049207472616E73616374A9
S11357B0696F6E20746F2072656164204D616E752F
S11357C06661637475726572204944206661696C10
S11357D065642E2E2E0A00415434354442204D6116
S11357E06E7566616374757265722049443D5B3001
S11357F078253032585D2C204465766963652049EC
S1135800443D5B307825303258203078253032588A
S11358105D2C20457874656E646564204465766902
S1135820636520496E666F726D6174696F6E3D5B6E
S1135830307825303258203078253032585D0A00CF
S1135840436F6E6669677572696E672042475820B8
S1135850426C7565746F6F74682E0A00456E6162E0
S11358606C696E6720554152542E2E2E2000696EAD
S1135870697442475828292E2E2E2000426F6F74D7
S113588020646F6E652E0A000D53656C6563743A6F
S11358900A000D2D202761273A2073657420646562
S11358A06661756C742073656E736F722E0A000DD9
S11358B02D202762273A20736574204932432062E1
S11358C061756420726174652E0A000D2D202763B2
S11358D0273A20736574205350492062617564200F
S11358E0726174652E0A000D2D202764273A2073F7
S11358F0657420554152542062617564207261744C
S1135900652E0A000D2D202765273A207365742023
S113591064656661756C7420726567697374657219
S113592020616464726573732E0A000D2D2027664E
S1135930273A207772697465206279746520746FE0
S11359402073656E736F722E0A000D2D2027672752
S11359503A207365742064656661756C74207365A0
S11359606E736F7220737570706C7920766F6C74BF
S11359706167652E0A000D2D202768273A20706F75
S1135980776572646F776E20636F6D6D616E6420EE
S1135990746F20616C6C2073656E736F72732E0A62
S11359A0000D2D202769273A207365742070756CCB
S11359B06C2D757020656E61626C652076616C7506
S11359C0652E0A000D2D20276A273A20726570651E
S11359D061742072656164207265672030782530B7
S11359E03278206F6E2073656E736F722023256486
S11359F02E0A000D2D20276B273A20736C656570E5
S1135A0020756E74696C2072657365742E0A000DBE
S1135A102D20276C273A2073656E642072657065AB
S1135A20617465642062797465206F6E2049324325
S1135A302E0A000D2D20276D273A2073656E6420F1
S1135A4072657065617465642062797465206F6E37
S1135A50205350492E0A000D2D20276E273A206529
S1135A606E61626C652073656E736F7220737570FE
S1135A70706C7920766F6C746167652E0A000D2D49
S1135A8020276F273A2064697361626C652073650F
S1135A906E736F7220737570706C7920766F6C748E
S1135AA06167652E0A000D2D202770273A20737731
S1135AB06974636820746F20564C5052206D6F6473
S1135AC0652E0A000D2D202772273A2073776974FA
S1135AD0636820746F2052554E206D6F64652E0AE2
S1135AE0000D2D202773273A20706F77657220757B
S1135AF07020616C6C2073656E736F72732E0A0074
S1135B000D2D202774273A2064756D702070726FF4
S1135B10636573736F722073746174652E0A000D6C
S1135B202D202775273A207365742049324320615C
S1135B306464726573732E0A000D2D202752273A70
S1135B4020726561642062797465732066726F6D7A
S1135B5020466C6173682E0A000D2D202746273AD3
S1135B6020777269746520627974657320746F207C
S1135B70466C6173682E0A000D2D202778273A2081
S1135B8064697361626C652053574420616E6420BC
S1135B907370696E20666F72203130207365637391
S1135BA02E0A000D2D20277A273A20706572706521
S1135BB07475616C6C792064756D7020616C6C20F7
S1135BC073656E736F7220646174612E0A000D45F3
S1135BD06E7465722073656C656374696F6E3E20C4
S1135BE0000D0953656C6563743A0A000D092D2094
S1135BF0273127204144584C3336320909092830CB
S1135C007830302D2D30783244293A20312E3656D2
S1135C10202D2D20332E35560A000D092D20273234
S1135C202720424D58303535616363656C2009097E
S1135C3028307830302D2D30783346293A20322ED2
S1135C403456202D2D20332E36562028636F6D7048
S1135C50696C6564206F757429200A000D092D2074
S1135C6027332720424D583035356779726F09093B
S1135C700928307830302D2D30783346293A2032B7
S1135C802E3456202D2D20332E36562028636F6D4A
S1135C9070696C6564206F757429200A000D092DE4
S1135CA02027342720424D583035356D6167090966
S1135CB00928307834302D2D30783532293A203285
S1135CC02E3456202D2D20332E36562028636F6D0A
S1135CD070696C6564206F757429200A000D092DA4
S1135CE020273527204D4D413834353151090909D4
S1135CF028307830302D2D30783331293A20312E28
S1135D00393556202D2D20332E36560A000D092DF7
S1135D1020273627204C50533235480909092830AA
S1135D207830382D2D30783234293A20312E3756B8
S1135D30202D2D20332E36562028636F6D70696C0C
S1135D406564206F757429200A000D092D202737FA
S1135D5027204D4147333131300909092830783043
S1135D60302D2D30783131293A20312E39355620D5
S1135D702D2D20332E36562028636F6D70696C6587
S1135D8064206F757429200A000D092D20273827F7
S1135D902048444331303030090909283078303004
S1135DA02D2D30783146293A20332E3056202D2D92
S1135DB020352E30562028636F6D70696C65642021
S1135DC06F757429200A000D092D202739272053C7
S1135DD0493730323109090928307830302D2D30D7
S1135DE0783046293A20312E3956202D2D20332E55
S1135DF036562028636F6D70696C6564206F757406
S1135E0029200A000D092D20276127204C334744FF
S1135E1032304809090928307830462D2D3078333E
S1135E2039293A20322E3256202D2D20332E365643
S1135E302028636F6D70696C6564206F7574292008
S1135E400A000D092D2027622720424D453638309F
S1135E5009090928307841412D2D30784638293AEE
S1135E6020312E3656202D2D20332E3656202863F1
S1135E706F6D70696C6564206F757429200A000D5C
S1135E80092D2027642720544353333437323509EE
S1135E90090928307830302D2D30783144293A20C2
S1135EA0322E3756202D2D20332E33562028636F63
S1135EB06D70696C6564206F757429200A000D0982
S1135EC02D202765272053493437303509090928FF
S1135ED06E2F61293A2020202020202020322E37C6
S1135EE056202D2D20352E35562028636F6D706970
S1135EF06C6564206F757429200A000D092D202714
S1135F006727204343533831310909092830783051
S1135F10302D2D30784646293A20312E3856202D02
S1135F202D20332E36562028636F6D70696C65649E
S1135F30206F757429200A000D092D202768272059
S1135F40414D473838333409090928307830302D29
S1135F502D3F293A20332E3356202D2D20332E3336
S1135F60562028636F6D70696C6564206F757429A1
S1135F70200A000D092D20276A2720415337323685
S1135F803209090928307830302D2D3078324229F1
S1135F903A20322E3756202D2D20332E36562028E7
S1135FA0636F6D70696C6564206F757429200A00D5
S1135FB00D092D20276B2720415337323633090929
S1135FC00928307830302D2D30783242293A203269
S1135FD02E3756202D2D20332E36562028636F6DF4
S1135FE070696C6564206F757429200A000D094579
S1135FF06E7465722073656C656374696F6E3E20A0
S1136000000D09496E76616C69642073656C656383
S113601074696F6E202725632720210A000D0A0961
