:1000000000060020E90400001105000011050000B1
:1000100000000000000000000000000000000000E0
:1000200000000000000000000000000011050000BA
:100030000000000000000000110500001105000094
:100040001105000011050000110500001105000058
:1000500011050000110500001105000091140000B9
:10006000D738000011050000E1380000110500003C
:10007000EB3800001105000011050000110500001B
:100080001105000011050000110500001105000018
:100090006914000081140000110500001105000022
:1000A00011050000110500001105000011050000F8
:1000B0001105000011050000A11400001105000049
:10040000FFFFFFFFFFFFFFFFFFFFFFFFFE3DFFFFBF
:1004100010B5064C2378002B07D1054B002B02D0DA
:10042000044800E000BF0123237010BD40FFFF1F00
:1004300000000000B07A000008B5084B002B03D084
:100440000748084900E000BF07480368002B03D0B5
:10045000064B002B00D0984708BDC04600000000A6
:10046000B07A000044FFFF1F3CFFFF1F00000000A8
:10047000164B002B00D1144B9D46402292029A1A33
:10048000924600218B460F461348144A121A05F073
:10049000F0FB0F4B002B00D098470E4B002B00D0E9
:1004A00098470020002104000D000D48002802D0CC
:1004B0000C4800E000BF05F0ADFB2000290001F072
:1004C000BFFB05F091FBC0460000080000060020BD
:1004D000000000000000000040FFFF1F2802002075
:1004E000000000000000000072B606480649074AF6
:1004F00002600A6003F0FEF903F03EFA62B6FFF70D
:10050000B7FF000080E100E080E200E0FFFFFFFFB6
:10051000004800471105000002B47146490849002F
:10052000095C49008E4402BC7047C046002934D0A3
:100530000123002210B488422CD301242407A142B5
:1005400004D2814202D209011B01F8E7E400A14272
:1005500004D2814202D249005B00F8E7884201D30D
:10056000401A1A434C08A04202D3001B5C082243E5
:100570008C08A04202D3001B9C082243CC08A04256
:1005800002D3001BDC082243002803D01B0901D042
:100590000909E3E7101C10BC7047002801D00020B7
:1005A000C04307B4024802A14018029003BDC046F0
:1005B000D90000000029F0D003B5FFF7B9FF0EBC49
:1005C0004243891A1847C046002941D010B4041C80
:1005D0004C40A44601230022002900D549420028AE
:1005E00000D5404288422CD301242407A14204D2E2
:1005F000814202D209011B01F8E7E400A14204D2C2
:10060000814202D249005B00F8E7884201D3401AD8
:100610001A434C08A04202D3001B5C0822438C08FA
:10062000A04202D3001B9C082243CC08A04202D364
:10063000001BDC082243002803D01B0901D0090954
:10064000E3E7101C6446002C00D5404210BC704704
:10065000002806D003DB0020C043400801E08020D2
:10066000000607B4024802A14018029003BDC0462C
:10067000190000000029EBD003B5FFF7A7FF0EBC5F
:100680004243891A1847C0467047C046F8B55F46CE
:10069000564644464D46F0B40C034D00CE0F610A59
:1006A000440F2143C400180380465800400D824681
:1006B000D80F84464046400A530F0343D0006D0DC7
:1006C000371C83465246664500D19DE0AF1A002F85
:1006D00000DC03E1002A38D1184300D0E4E06307CE
:1006E00009D00F232340042B05D0231DA342A4418E
:1006F000644209191C1C080200D478E0CE4B6A1C25
:100700009A4200D105E1CD4BE40819404807520553
:10071000490204430B0B520D371C002000211B0320
:10072000201C1C0B0B0D1B05C54D23435205520805
:100730001D4015436D006D08FF07291C39433CBC63
:1007400090469946A246AB46F8BDBB488542C6D006
:10075000802000040343382F00DDECE01F2F00DD74
:1007600020E12020C01B1A1C814682405846F840D8
:100770000243944658464A469040421E9041FB40F0
:10078000624602431F1CA21A9442A4416442C91B40
:10079000091B141C0B02A2D549024F0A002F00D1DD
:1007A000C4E0381C00F0C4FD021C083A1F2A00DD1A
:1007B000B7E02821091A201C9740C84007439440FD
:1007C000954200DDA9E0551B691C1F2900DDD8E01A
:1007D0001F22551B3B1C221CAB40CA40AC40651E6F
:1007E000AC411343CF401C43391C002577E7480731
:1007F000E4086A05C908520D371C04438E4B9D421C
:1008000048D009030B0B88E7AA1A9446002A00DC9B
:1008100098E05046002853D08748854200D15EE7D3
:100820008020000403436246382A00DDFDE01F2AD1
:1008300000DD4BE120226046101A1A1C82408246DD
:10084000914658466246D0404A4602439046584632
:1008500052469040421E9041424602436046C34089
:100860001219A242A441644259180919141C080221
:1008700000D434E7704B01359D4200D124E16F4B29
:1008800060081940012323401C1C0443CB071C4370
:10089000490824E70B1C234300D1C7E180231B0335
:1008A0000B431B031B0B38E7013F002F64D1584655
:1008B000221A9442A4416442C91A091B141C69E714
:1008C0005846184300D10AE7012252429444604638
:1008D000002800D0C5E058460219C2E7002F72D1A7
:1008E000681C4005400D012800DCDEE05A46A21AD3
:1008F0009442BF41C81A7F42C71B380200D488E027
:100900005A46141BA3459241591A52428F1A664601
:1009100044E7371C00230024FFE64849AD1A39405C
:10092000DDE6271C28388740002449E7201C00F01A
:10093000FFFC203038E75A461A43531E9A41D2B280
:10094000002720E7002A00D0DDE0681C4205520D98
:10095000012A00DC8EE0384DA84200D1B3E05D46AC
:100960002A19A242A441644259180919CC07520815
:1009700014434908051CB2E62F48854200D0EAE638
:10098000ADE62B1C1F3B3A1CDA40131C20296DD00E
:100990003F22551BAF403C43601E84411C43002155
:1009A00000259CE6381C20381A1CC240101C202F41
:1009B0005ED04022D71BBB405A461A43531E9A4171
:1009C00002430027DFE6002D3CD01B4DAA4500D195
:1009D00094E080252D047F422943382F00DDADE0CF
:1009E0001F2F00DD2CE12025ED1B081C261CA84034
:1009F000FE40AC400643651EAC413443F9405D46C1
:100A00002C1BA34592415B1A5242991A55466646E1
:100A1000C0E6131C3B43141C002B00D0BEE600278D
:100A20000022002500210024E8E65A461A43531EFE
:100A30009A41D2B2002313E7FF070000FFFF7FFFB8
:100A4000FFFF0F800D1C254358D0FF43002F51D1CD
:100A5000041BA3459241591A5242891A55466646CB
:100A600098E69648854200D0DDE638E6002792E712
:100A70000023A1E7081C2043002D00D0C0E000287F
:100A800000D1FBE05846184300D128E65846021929
:100A9000A242A441644259180919141C0A0200D444
:100AA0001DE6874B0125194019E6081C2043002D3F
:100AB00039D100286DD15946194300D1BDE0191C28
:100AC0005C4666460BE6051C2A1CABE760462038F0
:100AD0001A1CC24060469146202800D1ABE040225B
:100AE000121A93405A461A43531E9A414B461A43D0
:100AF0000023B5E6714DAA4500D06EE7191C5C468F
:100B000055466646EBE5002D1ED10D1C254373D0DE
:100B1000D543002D6DD15C445C4592415918524239
:100B200089185546A3E6002849D15946194300D1F2
:100B300096E0191C5C466646604DD0E50C43611E8C
:100B40008C41E4B200215AE75C4DAA4554D055428D
:100B5000802210040143382D00DD85E01F2D00DDCB
:100B600095E02022501B0A1C84468240201CE8404D
:100B70000243904662469440601E844142461443BC
:100B8000E9405C445C459241CB1852429918554665
:100B90006DE65846184300D1A1E55846271ABC42D5
:100BA0009241C81A5242801A02026AD55846041B62
:100BB000A3459241591A5242891A66468FE5584612
:100BC000184336D04807E40804438020C9080003CE
:100BD000014208D0DD08054205D15946CA085C0724
:100BE0001443291C6646630FC9001943E400334DC2
:100BF00075E5324A9245AED1191C5C4655466EE504
:100C0000002837D05846184313D080254807E408F9
:100C1000C9082D0304432942E5D0D8082842E2D16F
:100C20005D46EA085C071443011CDCE7002300244E
:100C300073E5224D53E5002354E700270022F1E637
:100C40003D1C203D0A1CEA40151C202F31D04026B7
:100C5000F71BB9400C43611E8C412C430021CEE6AA
:100C6000164A0027151CDDE60C43611E8C41E4B2D8
:100C7000002186E7191C5C46104D30E5191C5C46C6
:100C80002DE5031C3B43D8D0011C3C1C27E520204C
:100C9000404240190A1CC2409046202D0BD04020F3
:100CA000451BA9400C43611E8C4145462C43002145
:100CB00067E70021CEE70021F4E7C046FF07000008
:100CC000FFFF7FFFF0B5564644465F464D46F0B401
:100CD0001F1C0B031B0B9A464B0087B0041C80465D
:100CE0005B0DC80F161C02938146002B68D0694B20
:100CF0000299994232D08022534652031A43D200BD
:100D0000630F1A439246644AE000891880460291B4
:100D1000002400253B031B0B9B467800FB0F321C75
:100D2000400D039300D175E05A4B984269D0802260
:100D3000594652030A43730FD2001A43564B934647
:100D4000C018F200002303994E4671401C430F2C3B
:100D500000D9A9E0514EA4003459A74653461C437C
:100D600000D087E00025AA46A84608240225D1E73E
:100D70004946022D6CD0032D00D117E2012D00D081
:100D800058E10D40EDB20024A9460023A046002002
:100D9000002125030A0D1C052D0B1205404B2A438B
:100DA000134023435B004C465B08E207191C404696
:100DB000114307B03CBC90469946A246AB46F0BDF5
:100DC0005346234350D05346002B00D184E1504674
:100DD00000F0AEFA031E272B00DD76E128210D1A64
:100DE000211C083B5246E9409A400D1C1543221C29
:100DF0009A40AA4690462B4B00241B1A02930025CA
:100E000088E75B461E430323002E9CD1B346002295
:100E1000022398E75B46334321D05846002800D18F
:100E20004EE100F085FA272800DD42E128210F1A63
:100E3000021C311C083A5B46F94093400F1C1F43CB
:100E4000331C9340BB461A1C164B181A00237AE732
:100E500001230B4000249946A0460E4B97E700273C
:100E6000BB46002201236EE7002104248A468846FF
:100E700001254FE70C2403254CE700258024A946D3
:100E80002403A846034B82E7DA46904603991D1CCB
:100E90006FE7C046FF07000001FCFFFFA45C0000F5
:100EA000FFFF0F800DFCFFFF029F160C3818049007
:100EB0004046070C0004000C1204120C031C5343A0
:100EC000041C3D1C7443554398463B1C73436419F2
:100ED000A44644460293230C63449D4204D9029DD8
:100EE000802464022D1902951D0C039545462C049F
:100EF0001B04240C1C1905945C46230C051C584348
:100F00002404240C8446381C604365435F438146B7
:100F1000CC44280C6044BB46814502D980277F021F
:100F2000BB442D04070C2D0C000440195546BC464B
:100F30002F04E3448446280C3D0C2F1C5743B8462D
:100F40002F1C77434243B94647463F0C9144BA466B
:100F5000D14446434A4502D980225202B6184F4630
:100F60003A0CB6183A0447463F043F0CB8462F1CCB
:100F700067435D434443584365190190380C2D186D
:100F80004244B846AC4204D9019880235B02C018A1
:100F90000190039C029F201C6044C0196045A4413D
:100FA00047466442A4462B043C049946240C4C4416
:100FB000A046D8448018C246E24490429241574627
:100FC00052429146F219E245BF417F424B46BC4630
:100FD000D845BF41D4187F4263461F432D0C7F196B
:100FE000B24292414C45AD4152426D421543019E81
:100FF0007D19AB19E20D5B02059F134342023A4390
:101000009A46531E9A41C30D101C18436402204394
:1010100080465046C0010DD5454601225646049CE7
:101020006B082A401A43F30701341A4376080494E4
:101030009046B246049E634FF319002B61DD404693
:1010400040070BD00F2244462240042A06D04246D5
:101050000432424580414042824490465546ED016B
:1010600007D5594B5646049F80201E40C000B2460B
:101070003B18564A934200DDEAE644465546E208EC
:101080006807104301226C025B050A408046240B6E
:101090005B0D91467BE6DA4690461D1C69E680248E
:1010A0002403574627421CD13C432403240B484BBE
:1010B0006DE6031C283B311C99408B460022C3E699
:1010C000301C00F035F92030ADE6283B211C99405A
:1010D00000228A4690468EE6201C00F029F9203036
:1010E00078E65846204207D1044303992403240B91
:1010F00089469046364B4AE63C432403240B344B46
:1011000045E6344B049E9B1B382B06DD01230B4028
:1011100000249946A046002339E61F2B25DC049CB9
:101120002D4D46466019524644468640DC4082407A
:101130005746301C2243DF40441EA04102433B1C63
:10114000540709D00F201040042805D0101D9042EC
:10115000924152429B18021C1D021AD501230B40DA
:1011600000249946A046012311E61C48049C5546DC
:10117000001BC540281C202B16D0194E5746A2191B
:1011800097403A1C43461A43531E9A410243002398
:10119000D6E758075B02D2081C0B01230B40104313
:1011A000994680460023F2E50022EBE780242403E1
:1011B00050460123044319402403240B8946044B61
:1011C000E5E5C046FF030000FFFFFFFEFE0700004D
:1011D000FF07000002FCFFFF1E040000E2FBFFFF10
:1011E0003E04000070B50B1C124C09030E0B590095
:1011F000021C490DDD0F0020A14211DD0E48814285
:101200000FDC8020400306430C48401A1F280BDDEA
:101210000B4A521AD640321C5042002D00D1101CED
:1012200070BD084BE818FBE7074BC240C9188E4059
:101230003243F1E7FE0300001D0400003304000008
:1012400013040000FFFFFF7FEDFBFFFFF8B5041E56
:1012500031D0C70F00D04442201C00F069F8184D6F
:101260002D1A0A2819DD0B38844024036D05240B40
:101270006D0D3A1C0026002000210B0D2403240BC9
:101280001B0523430F4C2D051C402C4364006408B0
:10129000D307211C301C1943F8BD061C1536231C2E
:1012A000B3401E1C0B23181AC44024036D05240BE5
:1012B0006D0D3A1CDFE70022002500240026DAE746
:1012C0001E040000FFFF0F8010B5041E28D000F0A0
:1012D0002FF8154A121A0A2815DD0B38844024030A
:1012E0005205240B520D0023002000212403181C5A
:1012F0000B0D240B1B0523430C4C12051C401443FF
:101300006400610810BD031C1533211C99400B1C9F
:101310000B21081AC44024035205240B520DE3E7A5
:10132000002200240023DFE71E040000FFFF0F80DF
:101330001C2101231B04984201D3000C10391B0A05
:10134000984201D3000A08391B09984201D30009C9
:10135000043902A2105C40187047C0460403020220
:10136000010101010000000000000000837802205C
:101370009842804140427047437A0020013B012B54
:1013800003D90B78012001330B707047031C3038F0
:1013900009280BD91A1C613A2738052A06D91A1CC4
:1013A000413A0020052A01D8181C37387047000040
:1013B000174AC0239B001360164A1360164A136035
:1013C000164A00231360164A1360164A1360164A21
:1013D0001360164A1360164A1360164A1360164AC1
:1013E0001360164A1360164A1360164A1360164AB1
:1013F0001360164A1360164A1360164A1360164AA1
:101400001360164A1360164A1360164A1360704739
:101410000090145404901454089014540C901454D4
:101420001090145414901454189014541C90145484
:1014300020901454249014543090145400A0145448
:1014400004A0145408A014540CA0145410A0145454
:1014500014A0145418A014541CA0145428A01454FC
:101460002CA0145434A0145408B5002003F06CFFD1
:10147000002803D00020011C03F05AFF08BD000023
:10148000024B1A6801321A607047C0465CFFFF1FAA
:1014900008B50248072103F005FC08BD00C007405D
:1014A000024B012252421A607047C046A09004408D
:1014B00037B5002002F063FD0D4AC0239B00136086
:1014C0000C4A0D4C136000250C4B25716571A571FC
:1014D0001A68FA239B005343281C0949236003F030
:1014E00083FF281C211C01AA03F0E4FF37BDC0467E
:1014F0001C90145400A014545800002028FEFF1F14
:101500006000002008B5002003F0B0FF0A4A8023E5
:101510005B001360094A08201360094A136002F057
:10152000DDFF062002F0DAFF092002F0D7FF0020DD
:1015300002F02AFD08BDC046189014541C901454A3
:1015400000A0145408B5074A80235B001360064AC4
:101550000E201360054AFF301360054A136002F045
:10156000AFFF08BD309014542490145420901454AC
:1015700004A0145408B5002002F010FD054A802391
:101580009B001360044A00201360044903F086F8AE
:1015900008BDC0462090145424901454A0FFFF1F8F
:1015A00008B5002003F0B6F8034B00201860034B89
:1015B000186002F0F8FC08BD0CA0145410A01454DC
:1015C00008B50620FF3002F089FF024B186802F0D0
:1015D00098FA08BD10FEFF1F0FB41FB506AB04CB71
:1015E0000020039340230093069903AA084B02F0BE
:1015F00045F8002804DA0749002001F061FF02E005
:10160000052002F07EFA05B008BC04B01847C046B9
:1016100016000020C177000038B5784D041C2B88D7
:10162000984200D1E8E0764BC218764B92B29A42CB
:1016300000D9DDE0744A80235B001360734A1360B5
:10164000734A1360734A1360734A1360734B984272
:1016500000D17EE024D8724B984263D010D8714BF1
:10166000984249D0FA23DB00984256D0E123DB00B0
:10167000984200D0AFE00C20FF3002F02FFF3FE097
:10168000694B984257D096231B0198425CD0674B18
:10169000984200D09FE00C20FF3002F01FFF4EE088
:1016A000634B984270D00FD8624B98425ED0AF2304
:1016B0001B01984263D0604B984200D08BE00C2015
:1016C000FF3002F00BFF55E05C4B984269D007D821
:1016D0005B4B98427FD10C20FF3002F0FFFE64E0AC
:1016E000C8231B01984265D0564B984273D10C20F9
:1016F000FF3002F0E5FE61E00C20FF3002F0E0FE7A
:101700008520400002F0EAFE0820FF3002F0E6FEED
:101710008320400002F0E2FE60E00C20FF3002F087
:10172000DDFE03E00C20FF3002F0CAFE8520400001
:1017300002F0C6FEE8E70C20FF3002F0C1FE852073
:10174000400002F0CBFE0CE00C20FF3002F0C6FEA1
:1017500003E00C20FF3002F0B3FE8520400002F0D1
:10176000AFFE0820FF3002F0ABFED1E70C20FF30C7
:1017700002F0A6FE8520400002F0B0FE0CE00C2036
:10178000FF3002F0ABFE03E00C20FF3002F098FEC9
:101790008520400002F094FE0820FF3002F09EFEFB
:1017A00014E00C20FF3002F08BFE8520400002F098
:1017B00095FE07E00C20FF3002F090FE85204000EF
:1017C00002F07EFE0820FF3002F07AFE8320400007
:1017D00002F076FE02E01C48FFF7FEFE1B4B186885
:1017E00002F08FF90620FF3002F06AFE2C8003E041
:1017F0001748211CFFF7F0FE38BDC04608FEFF1F4A
:10180000F8F8FFFFDC05000014A0145418A01454CD
:101810001CA0145428A014542CA01454C409000073
:10182000340800006C070000FC0800009808000065
:10183000540B00008C0A0000280A00001C0C000059
:10184000B80B0000E40C00000E5D000010FEFF1F4E
:101850003B5D000010B5041C002901D0FFF7A8FD76
:101860000021022001F088F80420211C01F084F8F6
:10187000002802D00148FFF7AFFE10BD735D0000E5
:10188000F8B5051C2648171C0C1CFFF7A5FE2548BB
:10189000FFF7A2FE291C221C2348FFF79DFE234BC5
:1018A00023481968234B244D1A68244B244E1B6887
:1018B000FFF792FE234B244CF15824486A692B68A9
:1018C000FFF78AFE21786278A379C9B2D2B2DBB27F
:1018D0001F48FFF781FE1F4B217A227E1B78C9B279
:1018E000D2B2DBB21C48FFF777FE1C4B1C481978BC
:1018F0005A781C4BC9B2D2B21B69FFF76DFE1A4B66
:101900001A4899781A4BC9B2F2586B68FFF764FE0F
:10191000184B3A7819681848FFF75EFEF8BDC046C4
:10192000D15D0000115E0000435E000004FEFF1F59
:10193000775E000028FEFF1F00D0034018FEFF1F47
:10194000007004403C10000000400640AE5E000005
:10195000E45E000000500640135F000000E0074016
:10196000435F000000ED00E000D007407D5F000015
:10197000341000005CFFFF1FB55F000008B501F0E8
:10198000ABFD0028FBDB08BD70B5FFF7F7FF051CBA
:10199000FFF7F4FFFF24061C281C2040FFF7F6FC8D
:1019A000051C301C2040FFF7F1FC2D012818C0B2A7
:1019B00070BD70B5FFF7E2FF061CFFF7DFFF051CE7
:1019C000FFF7DCFF041CFFF7D9FFFF231E40FA22BC
:1019D00092001D40303E56431C406422303D55432A
:1019E000303C0A225443751903402C19303BE0184F
:1019F00070BD0000F0B591B01D1C16AB0C911978AC
:101A000017AB05921A7818AB1B78041C0D931CAB0E
:101A10001B780E931DAB1B8808936B465933DB7FF5
:101A200009931FAB1B880F9320AB1B780A930B1CE9
:101A3000914200D9131CDBB20293002D03D105990A
:101A4000002906D102E0059A002A02D05348FFF788
:101A5000C3FD0898FFF7E0FD201CFFF7BDFD002740
:101A6000089C04970697039700230793199B0799EF
:101A70008B426ADB00261A998E4262DA02990C9A2E
:101A800089190B91C8B20121904700283BD1039BD3
:101A90000899013303938C4204D9643CA4B2201CFE
:101AA000FFF7BAFD002D19D0EB68099A9B780499CD
:101AB0009B1A5A4253410A9AC9180491002A38D0F5
:101AC000EA68EB68E86802998078711812785B78A8
:101AD000009033480B91FFF77FFD2AE0059A0999A2
:101AE0009378CB1A5A425341049AD2180A9B049213
:101AF000002B1ED00599029B8A782A48D2B2F11891
:101B0000FFF76AFD15E002280FD10B992648FFF771
:101B100063FD06990F9A01310691944209D264340B
:101B2000A4B2201CFFF778FD03E003384342434191
:101B3000FF181B9B002B02DD181C01F0E2FF013691
:101B400099E7079A0132079290E70E9A002A1BD173
:101B5000039B069915485A18191CFFF73DFD3220C2
:101B600001F0CFFF039A099B04991148FFF734FD58
:101B7000322001F0C6FF391C0E48FFF72DFD322040
:101B800001F0BFFF11B0F0BD029B0D9A0133DBB233
:101B90000293934200D867E7DAE7C0460E5D000083
:101BA000E35F0000086000001D600000306000007E
:101BB000486000007960000070B588B0151C0CAA60
:101BC00016780C4A0C1C126806A94A6004AA157003
:101BD000094D08802D6805A80670009001930295B4
:101BE000231C002002F0C6FE431E9841400008B0AE
:101BF00070BDC04604FEFF1F00FEFF1FF7B5CB1DE2
:101C0000DB08DB006A46D21A02AF9546061C0C1CA4
:101C1000FFF74EFC094B02AD1B680020321C0193FC
:101C200000942B1C011C03F0A3FC041C631E9C41AC
:101C3000FFF768FCBD46A000F2BDC0460CFEFF1FCA
:101C4000F0B5BDB029AE301C0021072204F011F818
:101C500019A81FAA33901BA9379221AB23A827AA42
:101C600034913893399030AB25A93B920320EA4A4E
:101C700001241DAF18713A91002015A932913092BC
:101C8000189334703596369702F064F9201C02F0F0
:101C900061F9E24B802212021A6001F04FFF00202E
:101CA000011C021C031C009401F026FCDC48FFF719
:101CB00093FCFA20800001F024FFDA48FFF78CFC47
:101CC000FA20800001F01DFFD748FFF785FCFA20BD
:101CD000800001F016FFD54A231C0221D44801F0F0
:101CE00051FF211C201C01F059FF002003F068FA6D
:101CF0000025FC232DA9DB00281C0B804C808C8048
:101D0000CD800D818D7203F089FA291C221C15A843
:101D100003F0AFFF299882211D90B2886944BA80F0
:101D2000B37903263E70BB7120AF1F901FAE3A807F
:101D30000B70052131701AAF6A21199069443A80FD
:101D4000022619AF0B703E7072271CA96F441B90BE
:101D50000A803B7004211BAF39708A2722A96F4487
:101D600021900A803B7021A908270F70922724A98F
:101D70006F4423900A803B70092123AF397025906E
:101D800026A802809A226A44137027A80A2325AF46
:101D900018AA3B700570231C33A802F05FF9A54810
:101DA000FFF71AFC291C301C00F0E6FD08218843CF
:101DB000C0B2A84202D0A048FFF70EFC9F48FFF730
:101DC0000BFC9F48FFF708FC9E499F4802F05CFB14
:101DD0009E4C0026201CFFF7FFFB9D4AC0239B0062
:101DE00013609C4A9C4813609C4A1360FFF7F4FB05
:101DF000FFF7DEFA201CFFF7EFFBE1211D20C900F1
:101E000000F066FF4020964901F086F99548FFF7FB
:101E1000E3FB01F0D3F90C9001F002FA071C01F08A
:101E2000E5F9051C01F016FA01360D90311C8E48BB
:101E3000FFF7D2FB391C8D48FFF7CEFB8C4C201CE2
:101E4000FFF7CAFB291C8B48FFF7C6FB201CFFF7D6
:101E5000C3FB0C998848FFF7BFFB201CFFF7BCFBB6
:101E60000D998648FFF7B8FB201CFFF7B5FB281C2F
:101E7000FFF72AFA041C381C0D1CFFF7E7F9654B25
:101E8000634AFEF71FFF021C0B1C201C291CFEF7D7
:101E9000FDFBFFF7A7F9011C7948FFF79DFB794887
:101EA000FFF79AFB052EB4D17748FFF795FB0E207C
:101EB0009621FF30090100F01DFE0020012100F0F5
:101EC00071FE002803D07148FFF786FB05E0704BD8
:101ED0007048DB689978FFF77FFB0120011C00F058
:101EE00061FE0F90002803D06B48FFF775FB05E0FB
:101EF000674B6A48DB689978FFF76EFB684B0122F5
:101F00000026684803271A70FFF766FB0C961096A8
:101F10000D9700F0C9FF644C0C99208815AA80B277
:101F2000FFF7AEFC6148FFF757FB6148FFF754FB32
:101F30006048FFF751FB6048FFF74EFB5F48FFF733
:101F40004BFB5F48FFF748FB5E48FFF745FB5E48E9
:101F5000FFF742FB5D48FFF73FFB5D48FFF73CFBA7
:101F60000C990D9A5B48FFF737FB5B48FFF734FB92
:101F70005A48FFF731FB5A48FFF72EFB5948FFF745
:101F80002BFB5948FFF728FB5848FFF725FB58481B
:101F9000FFF722FB5748FFF71FFB5748FFF71CFBD3
:101FA0005648FFF719FB5648FFF716FB5548FFF751
:101FB00013FB5548FFF710FBFFF7E0FCFF25011C62
:101FC000071C29406A2900D1C9E100DDCAE0632964
:101FD00000D158E100DD9DE0522901D100F01EFC46
:101FE0000DDC0A2901D100F01EFC502901D000F0BF
:101FF0001FFC4648FFF7F0FA454800F015FC612940
:1020000000D1DEE0622900D12DE100F011FCC046D4
:10201000FCA9F1D24D62503F791300001C02002050
:102020008E600000A9600000AF60000014FEFF1F7A
:10203000C4FEFF1FB8600000DD60000011610000F9
:102040001961000034FEFF1F2CFEFF1FB762000065
:1020500000901454049014543661000008901454F5
:10206000E40C000057610000726100008D61000007
:10207000A3610000A8610000BC610000CC61000009
:10208000DA610000746B0000EF610000086200007C
:10209000900000203D6200005C620000926200003F
:1020A000C4FFFF1FB262000008FEFF1FBE620000F7
:1020B000C8620000E5620000016300001D630000CB
:1020C0003A6300006163000080630000AC630000BD
:1020D000D7630000FA630000296400004564000033
:1020E000696400008D640000B4640000DC640000DA
:1020F000FA640000176500003665000055650000B1
:102100006F6500009A650000C56500002277000039
:1021100064770000662900D1CFE00EDC642900D18D
:10212000C1E0652900D083E3CF48FFF755FAFFF7F8
:102130002BFC0C900C99CD487BE3672900D103E17F
:10214000682900D074E3CA48FFF746FAC94C201C3E
:10215000FFF742FA201CFFF73FFAC748FFF73CFAA7
:10216000C64861E3702900D183E211DC6D2906DCE9
:102170006C2900DB42E2C248FFF72EFA35E26E29F5
:1021800000D171E26F2900D052E3FFF719FAC0E6DF
:10219000742900D184E20ADC722900D176E2732925
:1021A00000D045E3B248FFF717FAB6483CE3782978
:1021B00000D1E8E27A2900D1EDE2752900D037E3B9
:1021C000D3E2B148FFF708FAB048FFF705FAB04884
:1021D000FFF702FAAF48FFF7FFF9AF48FFF7FCF946
:1021E000AE48FFF7F9F9AE48FFF7F6F9AD48FFF74B
:1021F000F3F9AD48FFF7F0F9AC48FFF7EDF9AC485B
:10220000FFF7EAF9AB48FFF7E7F9AB48FFF7E4F966
:10221000AA48FFF7E1F9AA48FFF7DEF9A948FFF756
:10222000DBF9A948FFF7D8F9A848FFF7D5F9A8487E
:10223000FFF7D2F9A748FFF7CFF9FFF79FFB011C83
:102240002940352904D1A44F012610970D9660E648
:102250006C2904D0312900D0EAE20026F6E79F4F2E
:1022600013261097F2E79E48FFF7B6F9FFF7A1FB98
:102270009C4B9D4A18601968914201D19B4A1A6093
:1022800019689B48D5E29B48FFF7A6F9FFF791FB39
:10229000994B954A18601968914201D1934A1A6086
:1022A00019689648C5E29648FFF796F9FFF781FB53
:1022B000944B186019689448BBE29448FFF78CF976
:1022C000FFF762FB924E071C391C301CFFF784F9A4
:1022D0009048FFF781F9FFF757FB16AD011C2870F6
:1022E000301CFFF779F9992F0FD129788A480C9A79
:1022F000FFF772F90C992A780A20012300F0C2FB3B
:10230000011E00D105E6854893E2764B2BAE1B6893
:1023100020882C9380B23780FFF77EF9FFF72AF9E7
:102320007F4B0C9F1B6817AA177002930123311C67
:1023300000950193002002F01DFB011E00D151E128
:102340007848FFF749F94DE17748FFF745F9FFF77E
:1023500030FB80B220802188744889B269E20C99F0
:102360007348FFF739F9FFF709FB031C303B5A1E8E
:102370009341DBB26F480E93FFF72EF9FFF7FEFA99
:10238000303811906C48FFF727F9FFF7F7FA031C74
:10239000303B5A1E9341DBB268481293FFF71CF999
:1023A000FFF707FB071C6648FFF716F9FFF701FB6D
:1023B000051C6448FFF710F9FFF7FBFA061C62489A
:1023C000FFF70AF9FFF7E0FA0D99139000975F48BD
:1023D0000C9A2B1CFFF700F921880D9889B2B6B230
:1023E000132800D9F6E0FEF797F80A22383A3CC3E2
:1023F000F5C5C7C9CBCDCFD1D5D3F5D7D9DD059795
:102400000E9F0C9A2E2302930697119B139F0996F9
:10241000129E00920022049307910192039508975F
:102420000A964B484B494C4BFFF7E4FA71E5059788
:102430000E9F31220C9802920697119A139F0996CB
:10244000129E002300900492079101930395089730
:102450000A9642484249204AB9E042489FE0424831
:102460009DE042489BE0C046296B00005F6B000086
:10247000C36C0000F16C0000216D0000526D000083
:1024800030720000E3730000D8650000E3650000CF
:10249000116600005366000094660000D4660000D8
:1024A000046700004167000080670000BE6700000D
:1024B000FB6700003968000076680000B56800001E
:1024C000F26800002F6900006A690000A769000037
:1024D000E4690000196A0000060000200E000020D8
:1024E000496A000004FEFF1F0F27000010270000AC
:1024F000776A0000976A000028FEFF1FC56A000087
:10250000DF6A000018FEFF1F0E6B0000766B0000F4
:10251000A96B0000BF6B0000E86B0000196C0000A5
:1025200000FEFF1F3A6C00005B6C0000946C000022
:10253000846D0000BE6D0000E76D0000006E0000BD
:102540003F6E00006B6E0000A36E0000D46E0000B2
:10255000116F0000A52B0000900000201E6F0000EE
:10256000092D00002C6F0000576F0000886F0000DD
:10257000B24814E0B24812E0B24810E0B2480EE0AF
:10258000B2480CE0B2480AE0B24808E0B24806E0BF
:10259000B24804E0B24802E0B24800E0B248FFF7B7
:1025A0001BF81FE0052205970E9F0C980292119AC6
:1025B00006970996139F129E00900023049207919C
:1025C000AA48AB49AB4A0193039508970A96FFF7CF
:1025D00011FA07E0A8480D99FEF7FEFF0D9F002FA6
:1025E00000D196E4FEF7DCFF93E401200021FFF721
:1025F00031F93C200121FFF72DF9F6E79F48FEF75E
:10260000EBFF9F48FEF7E8FFFFF7BEF92BAE3070F7
:102610009C48FEF7E1FFFFF7CCF92388FFB2051CC9
:1026200032789BB26C2F11D19748291CFEF7D4FF4A
:102630000024AC4200DB6CE42BAB1A78002300933F
:10264000FF200121FFF7B8FA0134F2E78F48291C77
:10265000FEF7C2FF0024AC4200DB5AE42BA80121A4
:10266000FFF7CCFA0134F6E7208880B2FEF7D4FFFA
:102670004FE40220002100F07FF90F90002800D1E4
:1026800047E4082800D144E48148CDE00820002137
:1026900000F072F90F9E002E00D13AE47D48C3E0AD
:1026A0002BA9002001F018FCFA212B988900FDF7D6
:1026B0003DFF011C7848FEF78FFF01F063FE011C0F
:1026C0007648FEF789FF01F0DDFA011C7448FEF739
:1026D00083FF744B744819684B1E9941FEF77CFFC9
:1026E000002001F056FC011C7048FEF775FF002029
:1026F00001F05EFC011C6E48FEF76EFF002001F049
:102700005CFC011C6B48FEF767FF002001F02AFC0F
:10271000011C6948FEF760FF012001F023FC011C49
:102720006648FEF759FF664B664819684B1E99418B
:10273000FEF752FF002001F01DFC011C6248FEF76D
:102740004BFF624B624819684B1E9941FEF744FFEC
:10275000604B614819684B1E9941FEF73DFF002010
:1027600001F030FC011C5D4863E0109F002F01D197
:102770005B4859E05B48FEF72FFFFFF705F9109E15
:102780007070FFF7C6FB5848FEF726FF574801F068
:10279000B8F9574848E05748FEF71EFFFFF7EEF834
:1027A000C3B2683B5A4253415348DFB2FEF714FFAD
:1027B000FFF7FFF886B2311C5048FEF70DFF0121EC
:1027C000002000F08BFA0C904D48FEF705FF4D48B5
:1027D000FEF702FF4C48FEF7FFFE4C48FEF7FCFEFA
:1027E0004B48FEF7F9FE00254A4C291C22684A484E
:1027F0006368FEF7F1FE381C00F0DEF9381C00F0CB
:10280000BDFA2168454862680C9BFEF7E5FE002E84
:1028100002D0301C01F075F90135E5E74048FEF7BC
:10282000DBFE404800E04048FEF7D6FEFFF771FBB4
:102830003E48FEF7D1FEFFF76CFBC046B86F0000C4
:10284000E86F000015700000427000006E7000001C
:102850009C700000C8700000F5700000217100003D
:102860004D7100007A710000A6710000D271000065
:10287000653100000E000020DE710000C36C000016
:10288000537200007272000092720000DD7200004C
:1028900028730000867300000F740000217400008C
:1028A000377400003C80845E5E7400006F7400002A
:1028B0008074000091740000A5740000B9740000D9
:1028C0003C800450CD740000DE74000034808459D4
:1028D000EF7400003480045A007500001275000087
:1028E0002375000061750000997500001027000035
:1028F000B8750000C2750000EB750000337600006B
:102900006B76000095760000B7760000D97600005F
:10291000736B000000D00340FE76000011770000CA
:1029200022770000447700008F7700002D6A0000B6
:102930001FB5041C01A9002002F098FC01A86946FB
:1029400002F0D2FB009B68461C1901A9009402F01A
:1029500053FB01A90122002002F0B4FC1FBD0000BE
:10296000034B00221A60034B8022D205DA677047BE
:1029700000901C5804E100E010B50A230C1C082844
:102980007DD8FDF7C9FD051B283C486269705700DA
:1029900001F0F8FC0523012871D0FFF7E1FF201CAE
:1029A000FFF7C6FF0020011C01F07AFB041C002089
:1029B000012101F0F3F8002C5ED15FE001F0E2FCB0
:1029C000062301285BD0FFF7CBFF201CFFF7B0FFE9
:1029D00001200021E8E701F0D5FC082301284ED0B2
:1029E00001F050F9002803D00020012101F0D6F8B1
:1029F0000220002101F054FB00283DD13EE001F00F
:102A0000C1FC072300283AD0FFF7AAFF201CFFF7DC
:102A10008FFF032005E0FFF7A3FF201CFFF788FFCF
:102A20000420002101F03CFB041C01F0ABFC002859
:102A3000C1D1BDE70820002101F032FB00281BD1E5
:102A40000120011C01F0AAF818E0FFF789FF201C03
:102A5000FFF76EFF05200CE0FFF782FF201CFFF759
:102A600067FF062005E0FFF77BFF201CFFF760FFF4
:102A70000720002101F014FB092300E00023181CAB
:102A800010BD0000F0B5194C85B002910392071CEF
:102A9000A08A1E1C80B2FEF7BFFD40253C2E00DC44
:102AA000F51CFEF74FFDA36802991F70A368039AF7
:102AB0005970A3689A70606801F010FDFEF7F8FC89
:102AC0000B49A268E3680968002001910095011C88
:102AD00002F04EFD051CFEF715FD606801F0F0FCEC
:102AE0006B1E9D41680005B0F0BDC04690000020FF
:102AF0000CFEFF1F08B5274A274B58609A60274AEB
:102B00000A20DA6040221A61998252221F21002392
:102B1000FFF7B8FF002802D02148FEF75DFD0A202C
:102B200000F0EFFF0A202D2106220023FFF7AAFF65
:102B3000002802D01A48FEF74FFD0A202C21072258
:102B40000023FFF79FFF002802D01548FEF744FD41
:102B50000A20282106220023FFF794FF002802D034
:102B60000F48FEF739FD0A2029213E220023FFF7F6
:102B700089FF002802D00A48FEF72EFD0A202721EF
:102B800035220023FFF77EFF002802D00448FEF71D
:102B900023FD08BD60FFFF1F90000020C5FFFF1F41
:102BA000E777000008B5021C4B1E0B20111C002209
:102BB000FFF768FF08BD000038B50821051C0E208E
:102BC000FFF7F0FF00280DD0274C201CFEF704FD76
:102BD000201CFEF701FD201CFEF7FEFC201CFEF76A
:102BE000FBFC40E0214CE3689A78E368D978002D3B
:102BF00003D01F48FEF7F0FC05E009020A4311B2BA
:102C00001C48FEF7E9FCE3681A79E3685979002D5E
:102C100003D01748FEF7E0FC05E009020A4311B2B1
:102C20001448FEF7D9FCE3689A79E368D979002D56
:102C300003D00F48FEF7D0FC05E009020A4311B2A9
:102C40000C48FEF7C9FCE3681A7AE368597A002D4C
:102C500003D00748FEF7C0FC05E009020A4311B2A1
:102C60000448FEF7B9FC38BD387900009000002018
:102C70003F7900004F790000F0B5124B89B05A78C7
:102C800006AC2280104A061C126805AD0792D8884F
:102C90000F1C80B2FEF7C0FC2E7004AE3770FEF73A
:102CA00069FC0A4B211C1B682A1C02930123019317
:102CB0000096002001F05EFE431E9841400009B0DE
:102CC000F0BDC0460600002004FEFF1F00FEFF1FEF
:102CD000014B5870D98070470600002038B5094B69
:102CE000041CD8880D1C80B2FEF796FC211C09201C
:102CF000FFF7C2FF291C041C2A20FFF7BDFF044375
:102D0000E0B238BD06000020F0B58BB007ADFF2360
:102D1000041C05912B70182804D8092806D206280F
:102D200023D803E0031C1D3B142B1ED8104F08AE04
:102D30007B78023733800F4B1B680993B88880B2C9
:102D4000FEF76AFC2C70FEF715FC0B4B00201B688D
:102D5000311C0293059B009701932A1C012301F06B
:102D600016FE431E9841400000E003200BB0F0BD6A
:102D70000600002004FEFF1F00FEFF1F38B5324C86
:102D8000051CE08880B2FEF747FC02210120FFF716
:102D9000BBFFA178E278C9B2D2B2002803D02B4899
:102DA000FEF71AFC10E0002D03D02948FEF714FCB2
:102DB0000AE092088901114380229201254B51407B
:102DC000C9182548FEF708FC02210320FFF79CFFE5
:102DD000A178E278C9B2D2B2002803D01B48FEF72E
:102DE000FBFB10E0002D03D01948FEF7F5FB0AE0CD
:102DF00092088901114380229201164B5140C91853
:102E00001548FEF7E9FB02210520FFF77DFFA178B9
:102E1000E278C9B2D2B2002803D00C48FEF7DCFB3E
:102E200010E0002D03D00A48FEF7D6FB0AE0920816
:102E30008901114380229201064B5140C91806486E
:102E4000FEF7CAFB38BDC0460600002038790000F6
:102E50003F79000000E0FFFF4F79000037B50E24F6
:102E6000FF34051C201C01F02BFB0A2000F049FE5A
:102E7000201C01F033FB0C2001F030FB084A012339
:102E800015700093FA239B0000200193011C054B51
:102E900002F06EFB051C201C01F012FB281C3EBD3D
:102EA000A9000020A800002008B5644AC0239B00A8
:102EB0001360634A1360FEF7FBFA624A80235B00EB
:102EC0001360614A06201360604A136001F0F8FA4B
:102ED000642000F016FE062001F000FB642000F0E4
:102EE00010FE062001F0ECFA642000F00AFEAE208D
:102EF000FFF7B4FFA020FFF7B1FF7220FFF7AEFF8E
:102F0000A120FFF7ABFF0020FFF7A8FFA220FFF7EB
:102F1000A5FF0020FFF7A2FFA420FFF79FFFA82036
:102F2000FFF79CFF3F20FFF799FFAD20FFF796FFCB
:102F30008E20FFF793FFB020FFF790FF0B20FFF7E5
:102F40008DFFB120FFF78AFF3120FFF787FFB32005
:102F5000FFF784FFF020FFF781FF8A20FFF77EFF55
:102F60006420FFF77BFF8B20FFF778FF7820FFF7C7
:102F700075FF8A20FFF772FF6420FFF76FFFBB2009
:102F8000FFF76CFF3A20FFF769FFBE20FFF766FFEF
:102F90003E20FFF763FF8720FFF760FF0620FFF763
:102FA0005DFF8120FFF75AFF9120FFF757FF822036
:102FB000FFF754FF5020FFF751FF8320FFF74EFF2C
:102FC0007D20FFF74BFFAF20FFF748FF2620FFF7DC
:102FD00045FF0120FFF742FF2520FFF73FFF0020BC
:102FE000FFF73CFF0020FFF739FF5F20FFF736FFB8
:102FF0003F20FFF733FF2220FFF730FF0020FFF7CD
:103000002DFF0020FFF72AFF5F20FFF727FF3F205B
:10301000FFF724FF0020FFF721FFFF20FFF71EFF2F
:103020000020FFF71BFF0020FFF718FFFF20FFF72E
:1030300015FF0020FFF712FF002008BD1C9014545C
:103040002490145434A014543090145418901454F0
:1030500070B5104B88B05A7806AC22800E4A061C18
:10306000126805AD0792D88880B2FEF7D5FA2E70A7
:10307000FEF780FA094B00201B68211C0293009088
:10308000012301902A1C01F075FC431E9841400069
:1030900008B070BD0E00002004FEFF1F00FEFF1FE1
:1030A000F0B5051C89B00F1C0320052D21D8124B4B
:1030B00006AC5A7804AE2280104A12680792D8886B
:1030C00080B2FEF7A9FA3B0A357005AD2B706F7020
:1030D000FEF750FA0A4B00201B68211C02930223C2
:1030E000019300950123321C01F044FC431E9841DA
:1030F000400009B0F0BDC0460E00002004FEFF1FD6
:1031000000FEFF1F08B50323052802D8FFF7A0FF24
:10311000031C181C08BD000008B50E4B5870D98060
:103120000D4B002059781A7809021143FFF7B8FFB8
:10313000A02109020520FFF7B3FF642000F0E1FCA5
:103140000420FFF7DFFF054A80239B001360044A39
:10315000136008BD0E000020547900002090145424
:1031600024901454F0B589B005AC114EFF232370A0
:10317000737806AD2B800F4B071C1B680236079334
:10318000B08880B2FEF748FA2770FEF7F3F90A4BD1
:1031900000201B68291C0293022301930096031C44
:1031A000221C01F0F4FB431E9841400009B0F0BD21
:1031B0000E00002004FEFF1F00FEFF1F08B50420C4
:1031C000FFF746FF002801D000200CE00420022178
:1031D000FFF7C8FF0028F7D1034BDA7898780A2365
:1031E00000021043584308BD0E00002007B502201E
:1031F000FFF72EFF002801D000200EE00220011C66
:10320000FFF7B0FF0028F7D1044A01ABD17819705D
:1032100092785A701888C00880000EBD0E000020F9
:1032200008B50120FFF714FF002801D000200DE0B1
:1032300001200221FFF796FF0028F7D1044BDA782E
:1032400098780A230002104300B2584308BDC046D4
:103250000E00002008B50320FFF7FAFE002801D079
:1032600000200CE003200221FFF77CFF0028F7D1AB
:10327000034BDA789878C82300021043584308BDFE
:103280000E0000200269C3689A4204D880681018B2
:103290000138C01A01E0013AD01A7047F7B58368C7
:1032A000C668041C40680191151C9F1B8019974239
:1032B00003D902F0D5FCAD190AE001993A1C02F0DD
:1032C000CFFC019BED1BD91960682A1C02F0C8FCD9
:1032D000E560F7BDF7B5171CC4680022061C019114
:1032E00000923369B568A34200D85B19013B1B1BF0
:1032F0002D1BBD4200D93D1C9D4200D91D1C736889
:103300002A1C1819019902F0ABFC009A019B521972
:103310000092B2685B1964190193A31A5A1E934173
:103320005B421C407F1BF460DBD10098FEBD0000B7
:1033300010B5104C104A0223236163610F4BA26148
:10334000A2640F4AE36164232362E264002304223F
:10335000A3626362E362A3656365E3652265E01DC2
:10336000084902F08EFC201C074902F08AFC202349
:10337000A37110BD1401002056790000AE0000209A
:10338000AA0000205F79000063790000F7B5204EA5
:10339000041C33780191171C002B01D1FFF7C8FFE3
:1033A00018235C4348343619F268346900920025CA
:1033B000944216D9B2683D1C131B9F4200D91D1CB4
:1033C00073682A1C1919019802F04AFC019A6419C1
:1033D00052190192B2687F1BA31A5A1E93415B4295
:1033E0001C40009B1B1B0093BB4200D90097009A16
:1033F000002A07D073680198191902F031FC009A6D
:10340000AD18A418002D00D03461281CFEBDC046A4
:103410001401002010B50B1CEFF31084012181F37F
:103420001088191CFFF7B2FF84F3108810BD00004C
:10343000F8B5013018256843134D0F1C2D186E691F
:10344000141C012E0ED0002E06D0022E16D1281CE0
:10345000FFF740FF041C14E0281CFFF713FFA042F5
:103460000ED305E0281CFFF70DFF844200D9041C91
:10347000281C391C221CFFF711FF02E0002400E089
:10348000341C201CF8BDC04614010020F8B50B4BBD
:10349000071C1B780E1C151C002B01D1FFF748FFE1
:1034A000EFF31084012181F31088381C311C2A1C91
:1034B000FFF7BEFF84F31088F8BDC046140100205A
:1034C00038B5051C081C0C1C02F0E3FB211C021C77
:1034D000281CFFF7DBFF38BD13B56C46073400200E
:1034E000211C0122FFF796FF012801D1207801E07D
:1034F0000120404216BD0000F7B5164C0193237819
:10350000051C0F1C161C002B01D1FFF711FF2269AF
:1035100095421CD2EFF31080012181F31088002D19
:103520000CD018236A1C5A436B43A750A21856604C
:10353000019AE3181A6200229A625A6218235D43C4
:10354000089B6419E36280F31088002001E00120E9
:103550004042FEBD14010020826810B5041C406882
:10356000531C834205D820688154A360E36801336B
:10357000E360A26863689A420CD120692168FFF772
:1035800085FFA368984203D001235B42E36001E01A
:103590000023A36010BD0000F0B585B00A9C051C97
:1035A000009101921F1C081C0126019A904204D32D
:1035B0000199FCF7BBFF0136F7E70296BE4200D245
:1035C00002970B9A01231A40039219D1002C01D1C2
:1035D000002415E00B9B20269B070ED53026002FDC
:1035E0000BD0202609E0281C311CFFF7B5FFEA6844
:1035F000013C002A04DB002CEAD0029BA342F2D358
:10360000EA680126002A34DB012F01D9013F06E0D8
:103610000098311CFCF78AFF019B984208D3019A5D
:103620005643F1E7301C0199FCF780FF061E10D0CD
:103630000098311CFCF77AFF331C4343009AD21ADE
:103640000D4B0092195C281CFFF786FFEB68002BDE
:10365000E8DA039A002A0CD0002C0AD0029AA2427F
:1036600007D2281C2021FFF777FFEB68013C002BD5
:10367000F2DA05B0F0BDC0466A790000F0B58FB04F
:10368000149D07900C1C181C291C161C069302F094
:10369000A3FA0699079A002309910A950B930D92B4
:1036A0000C932178651C002904D10C9B002B00DDB4
:1036B00003E10DE1252900D0F6E002340025671E64
:1036C0003B782B2B0CD003D8232B0DD1082308E0FB
:1036D0002D2B03D0302B07D1022302E0012300E081
:1036E00004231D430134EAE700243B781A1C303AD6
:1036F000092A05D80A225443303C0137E418F4E77C
:10370000002103912E2B0DD101373B781A1C303A42
:10371000092A07D803990A224A43303AD2180137B6
:103720000392F2E7397804230A1C9A43682A01D1EC
:103730000137F7E7642925D008D8582900D193E04C
:1037400063291AD0252900D0ACE0A8E0732900D164
:1037500093E00DD8702900D0A4E0336809A81A1DA1
:10376000196832600823002201920093102293E02E
:1037700075296FD0782977D094E033681A1D3260AC
:1037800019788CE033681A1D1B683260D9175818F5
:103790000122059348400492092806DD0A21FCF71E
:1037A00013FF049B01330493F6E70499039A9142B3
:1037B00000D20492002C05D0059B002B01DB690789
:1037C00000D5013CAA0702D5039B002B10D0E907C6
:1037D0000ED4002C01D100240AE0049AA24207D2A0
:1037E00009A82021FFF7B8FE0C9B013C002BF0DA62
:1037F0000C9B002B56DB0599002904DA4942059100
:1038000009A82D2103E06A0703D509A82B21FFF79A
:10381000A3FE0C9B002B45DB03232B40022B11D175
:10382000039900290ED1002C01D100240AE0049A4A
:10383000A24207D209A83021FFF78EFE0C9B013C63
:10384000002BF0DA0C9B002B2CDB0094019509A8CF
:10385000059906E0336809A81A1D196832600094BA
:1038600001950A22039B17E0336809A81A1D1968FD
:103870003260009401951022F4E733681A1D32601B
:103880001C682178013400290CD009A8FFF764FED8
:103890000C990029F5DA05E0FFF77EFE02E009A8A1
:1038A000FFF75AFE7D1C02E009A8FFF755FE0C9AAF
:1038B000002A00DAF9E62C1CF3E60B9A002A03D062
:1038C00007980699FFF7E2FD0C990B9A8B180C9359
:1038D0000C980FB0F0BD08B5002000F00DFE08BD3B
:1038E00008B5002001F04EFD08BD08B5002001F02C
:1038F00025FA08BD10B5174B08229978114202D05D
:1039000099780A439A70144B8821002249015A5031
:10391000124922200870124980204002585018682D
:10392000104901401960104910485C582040C024DB
:10393000A404204358500E4B80211A72197601219D
:103940001A7059700B490A7099790C221142FBD1F7
:1039500010BDC04600D007400070044000E00740A2
:1039600044100000FFFFF3FF04100000FFFFFFF012
:103970000040064000500640154B164930B51A1E4F
:103980008A420CD0144C0023A408A34204D098000F
:103990000D5801331550F8E7104B9A6001E00F4ABB
:1039A00093600F4A0F490023891A8B4204D0D45CDC
:1039B0000D48C4540133F8E70C4A0D490023891A15
:1039C0008B4204D0D018002404700133F8E730BDD6
:1039D00000000000000000000000000000ED00E01A
:1039E000D87A0000187C000000FEFF1F40FFFF1F78
:1039F00028020020031C4170002018705860986055
:103A0000704710B54378041C0120FF2B08D000F04C
:103A1000EDFA63780133DBB2637000F0DBFA00206B
:103A200010BD0020704738B5041C0D1C00F0DEFAF4
:103A3000E3681D43E56000F0CDFA002038BD0000CA
:103A40000A4B00229A641A1C40329A631A1C3032C4
:103A50009A621A1C20329A611A1C10329A60044A27
:103A60001360044B9B60DB607047C046A0010020E0
:103A70009C0100208C010020024B00221A60186873
:103A800080B270470C007C5070B54378041C0E1C4B
:103A9000002B0AD000F0AAFA63780025013BDBB2C4
:103AA0006370257000F096FA29E00225002926D0DF
:103AB0000378002B16D0FFF7DFFF6368A2689842F7
:103AC00001D3C31A03E08021C31A49025B180325FE
:103AD0009A4214D200F08AFA0023237000F07AFA96
:103AE00002250CE003254B1C09D000F07FFA0123CE
:103AF000237000F06FFAFFF7BFFFA6606060281C1C
:103B000070BD38B5051CFFF7B7FF041CFFF7B4FF05
:103B1000031BA04203D28022001B520283189D4245
:103B2000F4D238BD08B5012801D100F05FFA08BD14
:103B300008B5012801D100F04DFA08BD10B5FFF716
:103B40007FFF094A012313600849094A0020094CF4
:103B50001060086004212160074C216007490B6058
:103B600007490860136010BD38800450000084507D
:103B700000000450000004510400045104000C50E3
:103B80000000045310B5044C206021710020A26095
:103B90002373637310BDC046F0010020F0B585B0FB
:103BA00003AD374C0090019128706970237900991A
:103BB00004208B4261D9237B002663730123AB7001
:103BC000371C237BBB4215D9A268BB009B58002B36
:103BD0000DD01A79D1070AD59968281C1B68984717
:103BE000002804D0019A67730526002A32D00137D5
:103BF000FFB2E6E7002E02D0019B012B2AD1012063
:103C0000FFF790FF00990C20484322680027101806
:103C100000F0B6F8009B01206371FFF789FF0223D3
:103C2000AB70237BBB4225D9A168BB005B58002B3E
:103C30000DD01A7991070AD59968281C1B689847F6
:103C4000002804D0019A6773002A15D00626013790
:103C5000FFB2E6E70023AB70013FFFB2FF2F09D0B0
:103C6000A168BB005B58002BF6D09968281C1B6824
:103C70009847F1E7301C00E0062005B0F0BDC046D3
:103C8000F0010020014B58797047C046F001002038
:103C900013B503780021041C0191022B07D0032BDC
:103CA0000BD0012B0ED10279191C134801E00279C7
:103CB000114801AB01F02CF908E001A90E4801F010
:103CC00069F903E00C4801A901F006F9002812D1B6
:103CD000A2790A4BD201D2B21A706278084B520014
:103CE000D2B21A70A278074B1A70E278064B1A709B
:103CF0006279064B1A7016BD004006401840865384
:103D000000408650004006500140065018401650B2
:103D10001F2303408022DB0552051A43054943094E
:103D20009B005B18101C18430068431E9841C0B2EA
:103D30007047C046288004401F2303408022DB05D3
:103D400052051A43044943099B005B18101C184391
:103D5000002303607047C046288004401F230340AF
:103D60008021DA05490511434209044892001218DE
:103D7000081C104301229A400260704728800440CA
:103D800073B5124D00220723041C0093281C131C3A
:103D9000012101F0E7FA201CFFF77AFF637A002285
:103DA000217A0093281C131C01F0DCFAE279084BFD
:103DB00092041A60074BA17A1D68281C01F006F9CD
:103DC000281CE17A01F011F9002076BD0070044052
:103DD00000700C59CC79000008B5054801F03CF89A
:103DE000044B1968C9B20131FCF7A0FB08BDC046FD
:103DF0000040064044801C5E08B5054801F02CF8E0
:103E0000044B1968C9B20131FCF790FB08BDC046EC
:103E10000040064044801C5E08B5054801F01CF8CF
:103E2000044B1968C9B20131FCF780FB08BDC046DC
:103E3000004006404480145808B5054801F00CF8CD
:103E4000044B1968C9B20131FCF770FB08BDC046CC
:103E500000400640448014580C4B1868C0B2022839
:103E60000FD0032802D000280ED102E0FA208000F3
:103E70000BE0074B80221B681202934205D1181CED
:103E800003E0044B186800E00020704700700C59F4
:103E90001C0200202002002008B5FFF7DDFF08BD4E
:103EA00008B5054B186801F098F80023984201D036
:103EB000024B1B68181C08BDCC7900001C020020B6
:103EC00008B5044B01201B68DBB2002B01D0FFF7C3
:103ED000E7FF08BD0480045210B50C1C122830D82E
:103EE000FCF71AFB0A0A0D122F15181B2F2F1E2084
:103EF0002F2F2F2F23272B00FFF76EFF01E0FFF757
:103F00007BFF206000201FE0FFF786FFF9E7FFF747
:103F100093FFF6E7FFF7A0FFF3E7FFF7C1FFF0E736
:103F20000A4B0CE0FFF7CCFFEBE7094800F094FFE9
:103F3000E7E7074800F07AFFE3E7FA239B002360F6
:103F4000E0E700232360022010BDC046006CDC02C5
:103F50000040064008B5024B185CFFF7FFFE08BDA5
:103F60007A79000008B5024B185CFFF7D1FE08BD56
:103F70007A79000008B5BB20FFF7CAFE08BD08B576
:103F80007620FFF7EBFE08BD08B57620FFF7D4FEDC
:103F900008BD08B57620FFF7BBFE08BD08B5662052
:103FA000FFF7DCFE08BD08B56620FFF7C5FE08BDBB
:103FB00008B56620FFF7ACFE08BD08B59420FFF7F2
:103FC000A7FE08BD08B5024B185CFFF7A1FE08BDAF
:103FD0007C790000044A1368002B04D0013B136075
:103FE000002B00D162B670470002002072B6024B6F
:103FF0001A6801321A6070470002002010B50B4B9E
:104000000B4A1278002A04D1013B002BF8D103207F
:104010000AE0064C074801F03FFC012803D0013CB0
:10402000002CF7D1F3E7002010BDC046EA030000E2
:1040300002D0075100E0074010B5064C064801F0D9
:104040002BFC042804D0013C002CF7D1032000E015
:10405000002010BDEA03000000E00740F7B5071C90
:104060000E1C151C01930120002F15D0002913D020
:10407000FFF758FD094C0021201C102201F0F9FD2A
:1040800027602671002D03D0019BA5602373637305
:104090000120FFF74DFD0020FEBDC04604020020B8
:1040A000F0B5B24F8BB0019002913B7B01207B7346
:1040B000FFF738FD3B7901998B4204D80120FFF7C7
:1040C00037FD022050E1019A396893005E58019B48
:1040D000357807AC029A2370291C02239943227277
:1040E00066600391012901D0052D0AD1A048012164
:1040F00001F024FB002809D10120FFF719FD012060
:1041000032E1072D02D99A480321F1E701236372B6
:10411000002400943B7B00998B4219D9009AB9681E
:1041200093005B58002B0ED01A79D1070BD59968F4
:1041300007A81B689847002805D0009A029B7A734D
:104140000424012B04D1009B0133DBB20093E1E78F
:104150000120FFF7EDFC874800F0A2FE039A012A38
:104160001AD10138C0B2022800D9D4E0FFF764FEAA
:10417000814B984200D9CEE0FFF72EFE7F4FB84228
:1041800000D9C8E0FFF748FEB84200D9C3E0FFF706
:1041900033FEB84200D9BEE0029A012A00D0DFE027
:1041A00003200A2D00D9DFE0281CFCF7B5F906082A
:1041B0000A1B4E6441472C363B0000225CE0032280
:1041C0005AE06B4801F068FB012809D068480021DB
:1041D00001F0C4FAFFF712FF041C002C00D0C3E06A
:1041E000012249E0624801F057FB042809D06048E9
:1041F000022101F0B3FAFFF71FFF041C002C00D0CE
:10420000B2E0042238E005AB07221A7000225A708F
:10421000F2789A703279DA7030E0072205AB1A70C2
:10422000012203E0072205AB1A7003225A7025E031
:1042300005AB02221A7001221A7104E005AB0222BA
:1042400001211A7019715A7118E005AB02221A7017
:104250000027012246481A715F7101F01DFB0128F9
:104260000CD04348391C01F079FAFFF7C7FE041C53
:10427000BC4203D078E0052205AB1A702B1C083B2A
:1042800005A9022B03D873798B71B379CB7173783D
:10429000002B0DD0012D0BD9B0780222384B00280D
:1042A00002D01869024302E018699043021C1A61A7
:1042B0002F4801F077FA002800D00324002D05D103
:1042C000FFF79CFE0024002805D04DE0012D02D10F
:1042D000FFF7B2FEF6E70120FFF724FC019B234E17
:1042E00007AFB37302237B720025337BAB4222D925
:1042F000B168AB005B58002B0AD01A79910707D53B
:104300009968381C1B689847002801D075730524EC
:104310000135EDB2E9E7029B012B11D0002C0FD043
:104320000120FFF7FFFB07AE0023009D7372013DE4
:10433000EDB2FF2D06D10120FFF7FAFB201C13E0A0
:104340000624EDE7094BAA009B68D358002BEED05A
:104350001A79D107EBD59968301C1B689847E6E7B6
:10436000002C00D11CE7DBE70BB0F0BD04020020FD
:1043700000E007400040064040420F0080841E00DD
:1043800000ED00E008B5064801F086FA012804D0E7
:104390000123042802D00B2300E00023181C08BDD1
:1043A00000E007400368F7B51D0AFF2635401B4AA9
:1043B0001E40AB009F581A4A041C9A58281C0192B0
:1043C000FFF7C8FD311C0022381C01F06DFA019B7B
:1043D000B6009E19227984235B05334352001A608C
:1043E000802362795B0533431A60A27990235B05D1
:1043F000334312011A60E3790A4A16431A04326001
:10440000002B0AD0084B5B5D002B06D01F22134007
:1044100001229A40131C054A1360F7BDD8790000A9
:10442000D079000000001818E079000000E100E0F9
:10443000F8B50368041CFF25180A2840104A1D40DF
:1044400083009E580F4A9F58FFF784FD301C291C9B
:10445000012201F029FA301C291C626801F034FAAB
:10446000AD00227A88237D195B052B4392001A60E8
:1044700098235B051D43637A9B012B60F8BDC04602
:10448000D8790000D079000038B50C1C002802D182
:10449000002C09D112E003680133F9D0051C08355E
:1044A000FFF780FF281CF6E72368013306D0251CA0
:1044B000201C0C35FFF7BCFF2C1CF5E738BD0000B5
:1044C000010AFF231940044A890003408A58012049
:1044D000984050607047C046D8790000010AFF2319
:1044E0001940044A890003408A580120984090608E
:1044F0007047C046D879000008B5084B8200D258F2
:10450000942302325B0513431B78002B02D000F08A
:104510004BFA01E000F0A0FA08BDC0468079000027
:10452000021C80230C325B0513431B78002BF7D051
:104530000171704738B5094B8000C4580D1C201C10
:104540001830291CFFF7A0FA0328F8D0002801D062
:1045500004232374207CC0B238BDC046140200205E
:10456000F0B589B005930EAB0290161C1A78830043
:1045700035488D0A18581E3D01903448CFB21C585A
:10458000002007AB18800123A07CE374A37453427E
:104590005341DBB203936B425D41EDB20490002DB9
:1045A00002D00F0AC9B28C467F000023FFB29D42A1
:1045B00004D12B1C002E01D1039AD3B21F4307ABA9
:1045C0001F700122002D02D0604658700222A360A5
:1045D000E2600198391CFFF7A3FF02980F99FFF7DB
:1045E000A9FF237C002B0CD1002E0AD0059AA660CF
:1045F000E26031780198FFF793FF02980F99FFF777
:1046000099FF237C002B16D1039B002B13D0002D88
:1046100001D1002E0FD000230125A3600198E56091
:1046200001F0A6F9291C39430198FFF779FF029898
:104630000F99FFF77FFF04980023A074207CE37498
:10464000C0B209B0F0BDC04680790000140200205D
:10465000104A830010B598580F4A9C58E37C002BF1
:1046600005D0237C052B02D0237C042B09D1982371
:10467000821C5B05134300221A7001F08BF90123A1
:104680006374A37C002B03D0201C1830FFF7B9F90A
:1046900010BDC0468079000014020020F7B5194B08
:1046A0008200D358061C0193174B0D1CD75800925B
:1046B0000124002F24D12422081C391C01F0D9FA2E
:1046C000281C391C1830FFF795F9301CFFF766FCE1
:1046D000019801F001F9009A0B4BD5500B4B9A5DF4
:1046E0001F231A40231C93401A1C094B1A60019A7D
:1046F0009C2302325B05134380226C741A703C1CAD
:10470000201CFEBD80790000140200207E7900008C
:1047100000E100E0F7B50F4E8400A3590027019394
:104720000D4B051CE2589C2302325B0513431F709E
:10473000FFF739FC094B01985A5D1F231A400123EA
:1047400093401A1C064B1830DA67FFF76AF9A75135
:10475000F7BDC04614020020807900007E79000079
:1047600004E100E00A4A830070B59E58094A0C1C17
:104770009D584A686B699A4209D0FFF74DFB626801
:10478000011C0023301C01F0B5F864686C6170BD39
:104790008079000014020020F0B587B005930FABBC
:1047A0001B780492334A029383009E58324A039145
:1047B0009C58071C637C002B02D10320207456E018
:1047C000029B002B01D11E230E930023E360A36004
:1047D000237423606374029B381CA3740399FFF74E
:1047E000C1FF9022B31C52051A4310211170982565
:1047F0008422F11C52056D050A431D43022140230A
:104800001170301C2B7001F0B3F8039B381C198811
:10481000012300930E9B049A0193059BFFF7A0FED2
:104820000D9B002B16D0237C002B10D10C9B301C31
:10483000A3600D9BE3600C9B1978FFF771FE029B50
:10484000002B12D0381C0E99FFF774FE0DE0237C6C
:10485000042B0AD100232B70F37801255B092B422E
:1048600002D0301C01F096F86574207CC0B207B00D
:10487000F0BDC0468079000014020020F0B58BB076
:10488000099313AB1B780892384A049383009D5810
:10489000374A07919C58061C637C002B02D10320E9
:1048A000207461E00499002901D11E221292109B0C
:1048B0001199049A002761602360E760A27427744D
:1048C000301C0799A7606774FFF74CFFAB1C03937C
:1048D000039990235B05194310230B708423EA1C72
:1048E0005B05134302221A70039A98235B051A434F
:1048F00040231370281C0591069201F039F8079B9C
:10490000129A1988301C0192099B0097089AFFF7A8
:1049100027FE237CDBB2BB4216D105998C220B709B
:1049200011995205012903D1039B1A43082301E081
:1049300003990A431370049A2B79002A12D0301C71
:104940001299FFF7F7FD0DE0237C042B0AD1069B9B
:1049500001261F70EB785B09334202D0281C01F05E
:1049600019F86674207CC0B20BB0F0BD80790000ED
:10497000140200201FB5069C0094079C0194089C1B
:10498000029401240394FFF707FF04B010BD1FB584
:10499000069C0094079C0194089C029401240394B3
:1049A000FFF76CFF04B010BD254A830070B59D5819
:1049B0008422E91C52050A4302211170214A9C58A5
:1049C00090226B1852051A431278E978D2B28E06FB
:1049D00034D5942149051943097800292ED0012A9C
:1049E00015D1EB78134202D0052323740CE0E36861
:1049F000013BE360002B07D0A368281C5A1CA2606F
:104A00005978FFF78DFD19E0FFF722FE16E0626886
:104A1000013A6260002A06D08C214905012A05D19D
:104A20000B43082204E0FFF713FE02E00B430022D1
:104A30001A7023685A1C22602A791A7070BDC04609
:104A40008079000014020020C31C84204005184314
:104A50000223037070470000F0B5904B8100CD58E1
:104A60009022EB7889B05205DBB2071C0593101C2D
:104A7000AB1D1843EE7884460078EC1CC0B207905A
:104A800094204005184300780494F6B2441EA041D7
:104A9000834C0696982676050C59A91CC0B2334360
:104AA00000911143029018780A78C0B2D2B20392F2
:104AB000029A0191002A30D0079900290DD01023C5
:104AC00062461370281CFFF7BFFF236B002B00D139
:104AD000E1E0F8B2626B0121D9E000281DD040224C
:104AE0001A70281CFFF7B0FF231C2C331B78002BF7
:104AF00002D1009806433370236B002B03D0F8B229
:104B00008021626B9847E37D002B04D0201C183075
:104B10008021FEF788FF0A23BCE0069901228E114E
:104B2000281C1640FFF790FF0598012103110B4246
:104B300019D0049A90235B05134310221A70002E9B
:104B400004D0EB785B07DB0F10D11AE00823237049
:104B50002C342378002B00D09DE09822009C520535
:104B60002243137097E0002E16D0EAE70198102335
:104B70000370236B002B6BD0F8B20221626B984755
:104B800066E001990B70236B002B03D0F8B2626BC7
:104B9000042198472B797EE0039A012A26D1EB78ED
:104BA000134255D0019B1E702B79231C2C331B788C
:104BB000002B07D10298002804D1982300995B05A7
:104BC0000B431870236B002B03D0F8B20821626BE3
:104BD0009847A37D002B04D0201C18300821FEF735
:104BE00022FF00236360E360237554E02B79A26801
:104BF000DBB2002A2AD022691370236901332361B2
:104C0000A368013BA360A368002B44D1029B002B47
:104C100012D1231C2C331B78002B05D1982300982C
:104C20005B05029903431970E37D002B04D0201C1F
:104C300018302021FEF7F7FE002363752361236BF4
:104C4000002B28D0F8B2626B202120E0072321E05E
:104C50006368002B1DD0E2681378291C80220C3178
:104C600052050A431278002AF7D02B71E36801330A
:104C7000E3606368013B63606368002B0BD1E36012
:104C80002375236B002B06D0626BF8B21021984776
:104C900001E00623237009B0F0BDC0468079000012
:104CA00014020020042907D007290BD19C235B059F
:104CB00003301843802304E090235B05033018433E
:104CC000102303707047000038B50A4B8000C458A9
:104CD000094BDC22C358520508331A4300231360E2
:104CE000A27C1D1C9A4203D0201C1430FEF789FEC2
:104CF000257438BD180200208479000038B50C4BAB
:104D00008000C4580B4B0025C058D423021C083225
:104D10005B0513431D6008492A1C00F058FEE37C24
:104D2000AB4203D0201C2030FEF76BFE657438BD0B
:104D300018020020847900001B000200F8B52C4AFC
:104D400083009C582B4A061C9D58237C002B02D1C3
:104D5000637C002B4AD0DC232F1C5B0508371A1C10
:104D60003A431268002A16D02A1D13431B68002BF1
:104D700011D0A368002B0ED022681378EB60236853
:104D800001332360A368013BA360A368002B02D119
:104D9000301CFFF799FFD4235B051F433A68002AB4
:104DA0001AD02A1D13431B68002B15D0EB686268CC
:104DB0001370E36A002B03D0301C211C98470BE0D2
:104DC000636801336360E368013BE360E368002BE1
:104DD00002D1301CFFF792FF281C074900F016FE95
:104DE000002803D0281C044900F02AFEF8BDC04664
:104DF00018020020847900001300010084235B0561
:104E000003431A7800239A4209D080235B050130BE
:104E100018430378012B01D1024B00E0024B181C10
:104E20007047C04600127A0080841E0038B5084AD8
:104E3000031C083313431D78064A031C183313431D
:104E40001C78FFF7DBFFEDB2E4B22C19E04038BD6F
:104E5000000090100000101010B50D4A831D134380
:104E60001B78041CDBB2002B0FD0012B07D1FFF7FE
:104E7000C5FF084B08341C432378D84006E00020C7
:104E8000022B03D1044B186800E0044810BDC04653
:104E900000000811000090101C020020006CDC02D1
:104EA0000C4A831D13431B78DBB2012B08D0002B67
:104EB00004D00320022B0CD005200AE0181C08E0C7
:104EC00080235B05013018430078431E984102237C
:104ED000181A7047000008119C22031C5205183054
:104EE000024380201070074A00201A4310700648C1
:104EF0009A1D02431078C0B20028F8D1034B0B6012
:104F00007047C0460000081300000811006CDC0266
:104F1000F8B5041C0D1C171C1E1CFFF7C1FF01284F
:104F200002D1002D04D007E0022805D1012D03D1C4
:104F3000201C311CFFF7D0FF8023621C5B0513434C
:104F40001D7084235B05234302221A700C4A231C24
:104F5000083313437A00D2B21A700A4B402223431B
:104F60001A70094AA31D13431B78012BF9D1002D98
:104F700001D1064B00E0064B3B4133600020F8BDF9
:104F800000009010000008130000081180841E002B
:104F900000127A000A4A10B51468031C0120002C84
:104FA0000CD00848802418430470074C981D2043F7
:104FB00000780228F9D1126800200A6010BDC046AE
:104FC0001C02002000000813000008119C235B0550
:104FD000C9011843C9B2017070479C235B0518438F
:104FE0000078431E9841C0B2704794235B05490185
:104FF0001843C9B20170704770B506680C1C301CAC
:105000002049FBF793FA1F49051C301CFBF7D2FA25
:105010000E1C081CE1210901FBF788FAE121E08060
:105020000901301CFBF7C6FA0E1C081C3C21FBF7DB
:105030007DFA3C212081301CFBF7BCFA124BA17297
:1050400023806E23FF3322889D4209D9013292B218
:10505000ED1A032322801A40534253416E33F1E785
:10506000930701D0094900E009490123CA5C954230
:1050700001D8638003E00133AD1A0D2BF6D1A58072
:1050800070BDC04680510100B2070000AF7900003A
:10509000A279000030B511490488031C6218002071
:1050A000812A19D85A88511E0B2915D899884D1E66
:1050B0001E2D11D8DD88172D0ED81D893B2D0BD83C
:1050C0009B7A3B2B08D8A30701D0054B00E0054B8A
:1050D0009B5C8B424041C0B230BDC0464EF8FFFFE2
:1050E000AF790000A279000070B5124A8588038864
:1050F000AD186E22FF325A434488AA189D085219EF
:105100000D4D6600755B52199D0702D1022C00D827
:10511000013A0A60C488E1220389120162433C24F7
:105120006343D318827A08689B18044A42439B1849
:105130000B6070BD4A05F5FF8879000080510100C1
:10514000084B1A6880231B029A420AD1031CA02034
:105150001033400518430368002B02D180235B0005
:10516000036070471C02002010B58022041C520509
:105170001034002314430121216023604360016047
:1051800090211C30490501430B60882149050143EA
:105190000B6084214905014310430B60036010BD7F
:1051A000021C902314325B05134300221A604260F4
:1051B000102201601A6070470068086070470000A4
:1051C000114B820070B5D558104B802292051A60A1
:1051D000041C281CFFF7C8FF281CFFF7B1FF0C4B6D
:1051E0000C4E195D01251F221140345D2B1C8B4094
:1051F000191C2240084BC020A840954019501D5052
:1052000019601D6070BDC046C07900003C80845E9E
:10521000BD790000BC79000000E100E0F7B5124B59
:105220008000C7580025081C0E1C0195FFF732FFAF
:10523000041EAC4216D001A9301CFFF755FF281CF4
:10524000FEF72AFE011C80200002814206D0FBF7F7
:105250006DF9011C0198FBF769F90190381C01995F
:10526000FFF79EFF201CFEBDC0790000F7B5134B71
:105270008000C5580024281C0E1C01A90194FFF7CA
:105280009BFF201CFEF708FE041C802000028442C5
:105290000ED00B4B211C04351D43FBF747F92D683D
:1052A000019F211C4743A8B2FBF740F93F18019723
:1052B000311C01A8FFF7A0FEF7BDC046C079000071
:1052C00000007810F0B5194B800085B0C558002655
:1052D000081C0F1C01920396FFF7DCFE041EB4426B
:1052E00001D100241EE0381C03A9FFF7FDFE301C8D
:1052F0002F68FEF7D1FD011C80200002814206D0FC
:10530000FBF714F9011C0398FBF710F90390039BBA
:10531000BB42E6D3AB60019A88235B051C351D4375
:1053200093002B60201C05B0F0BDC046C079000082
:10533000044B8000C25888231C325B05134389004C
:1053400019607047C0790000054B8000C25888235F
:1053500014325B0513431868431E9841C0B270476E
:10536000C07900006B461A78E023DB0212041A4071
:105370000B07111C1943024BC01801607047C0464F
:105380004410000008B5084B8200D2589023033225
:105390005B0513431B78002B02D000F015F901E0E8
:1053A00000F07CF908BDC046C87900000C4A08B579
:1053B00080000C4B8158C3589C20033140050022CB
:1053C00008431A7102709420400501430A701A7F45
:1053D000002A03D0181C2030FEF713FB08BDC0467E
:1053E000C8790000240200201C4BF7B53022061CAF
:1053F0000C1C8700081C0021FD5800F03AFC301CF2
:10540000FEF7BDFDFEF708FD2060281C00F06EFBD6
:10541000201C00212030FEF7EDFA9023EA1C5B05EA
:105420001343019210221A70281C032100F09EFBE6
:10543000281C002100F0C0FB094BFC50094B9A5D71
:105440001F231A40012393401A1C074B1A60019A2C
:1054500098235B05134340221A70F7BDC8790000FA
:1054600024020020C479000000E100E0F8B50D4EF0
:1054700084000D4BA759051CE05800F037FB381C81
:105480002030FEF7CEFA094B281C5A5D1F231A4024
:10549000012393401A1C064BDA67FEF775FD0023C3
:1054A000A351F8BD24020020C8790000C47900008F
:1054B00004E100E00A4B800070B5C558094B0C1C94
:1054C000C358161C281C1A68096800F016FB3060C7
:1054D0002179281C6279A37900F05BFB70BDC0467E
:1054E000C879000024020020F7B51F4A83009C58A9
:1054F0001E4A061C9D5822790420002A33D1002917
:1055000003D0301C01AAFFF7D5FF9821EA1C4905FA
:105510001143002340200B70087027699F4203D17C
:10552000301CFFF743FF1DE001212171A36194238B
:105530005B052B4319780720002914D0A368002BA2
:1055400003D019780133A36000E0191CA971236905
:10555000013B2361A3690133A3619C235B051A43CB
:10556000802313700020FEBD24020020C8790000B3
:10557000F8B5134C8600134F3459069DF659012790
:105580002777A2602561E3606561FFF7ADFF051E27
:1055900014D1201C20300799FEF776FA0328F8D0A2
:1055A00000280BD09C22033652050023324323717E
:1055B000137094225205164333700325281CF8BD3E
:1055C00024020020C879000010B51F4B8200D35878
:1055D0001E4952581979002934D05969002911D02F
:1055E0009C2149051143097800290BD09479D96889
:1055F000E4B2002903D00C70D9680131D96059692F
:10560000013959611969002914D0942149051143C0
:10561000097800290ED09968002903D00C7801314F
:10562000996000E00C1C94711A69013A1A619A6938
:1056300001329A611A69002A04D15B69002B01D1F9
:10564000FFF7B4FE10BDC04624020020C879000058
:1056500008B5104B8000C3580F4A81580022581CCF
:10566000C2779C20033140050843DA621A701A831E
:105670005A629A621A6302709420400501430A70CC
:105680001A1C38321278002A03D0181D0121FEF7A7
:10569000CAF908BD24020020C879000038B5254B9E
:1056A0008200D35824495258591CC97F00293FD041
:1056B000D96A002916DB942149051143097800298C
:1056C00010D0596A1C7F002905D0DD6A002D02DD4B
:1056D0000C78013159629471D96A0139D962596BD8
:1056E00001315963D96A002905DA9421D41C49058E
:1056F000214300240C70196B002911DD9C21490500
:105700001143097800290BD091799A6AC9B2002A0D
:1057100003D011709A6A01329A621A6B013A1A63C5
:10572000DA6A002A04DC1B6B002B01DCFFF790FF18
:1057300038BDC04624020020C8790000012903D0EA
:10574000032909D1842300E094235B0518430078E2
:10575000431E9841C0B200E000207047034B013067
:1057600049011843C9B201707047C0460000881251
:1057700094235B05023049011843C9B20170704798
:10578000034B023089011843C9B201707047C0460B
:10579000000008138C235B050230C9001843C9B20E
:1057A00001707047F7B5384EC21C164332780B783B
:1057B000041C0D1CD2B20120072B63D8181CFAF769
:1057C000ABFE04192A0D192A2A3A304B01341C4326
:1057D000002323703378012BFCD152E00320012AEF
:1057E00050D12A4B01341C43402323703378042BBF
:1057F000FCD146E00021012B01D0042302213278A4
:1058000003209A423ED1201CFFF7A8FF204B042121
:105810001A698A4333E00227BB4207D10B7900277C
:10582000BB4203D04979201CFFF7AAFF194B013472
:105830001C43277019E0174B621C1A430421117096
:105840006A78A11C0B431A706B78002B06D1AB78D9
:10585000002B03D0E978201CFFF78AFFAB79002BDF
:1058600003D0E979201CFFF795FF33780421DBB2E0
:105870000193019B01330193054B1A690A431A6195
:1058800030BF0020FEBDC04600003010000088126E
:1058900000ED00E000001010024B033018430078C8
:1058A000C0B270470000301014308023012A04D1A8
:1058B0001B058A401843111C04E0DB041843012334
:1058C0008B40D9430160704701238B40002A01D0EF
:1058D000436000E0836070470023C222037043707E
:1058E0008370C37043718371C37103724272837298
:1058F000C3727047F0B587B00293FA239B005343FD
:10590000002701250490059101936D423C1C0097EE
:105910000123A34003930026144A0598931959883C
:10592000039B5943FAF702FE019A831A824200D977
:10593000131AAB4204D20D4A0094975D1D1E02D08B
:105940000436C82EE8D10134032C01D0002DDFD15C
:10595000029B002B00D01D60009A3F231F40930143
:105960001F43049BFFB25F7007B0F0BDE2790000F7
:10597000942302305B0503431B78002B04D088235B
:105980005B051843042303E080231B0518433023E1
:10599000037070479422831C52051A431278011C2D
:1059A0000220012A12D18022D2041343CF221A707E
:1059B0008023DB00C8782022024004D0013B002B6A
:1059C00003D0C046F6E7101C00E009207047012311
:1059D00010B58B40041C080C042816D8FAF79CFD5F
:1059E0000A0305070900043404E0083402E00C341B
:1059F00000E01034002A03D080221205144303E093
:105A00008022D2041443DB43236010BD021C10B576
:105A1000080C0023042810D80124FAF77DFD0305A3
:105A200007090B00136806E0536804E0936802E07E
:105A3000D36800E01369CB402340181C10BD000060
:105A4000294A031C881800B510284BD8FAF764FDC2
:105A5000413A251E1710094A4A4A4A2C4A4A4A4ADC
:105A60003300D0225205043313438022520336E020
:105A7000CC22520504331343802212032FE0C822A4
:105A80005205043313438022D20228E0C422520577
:105A9000043313438022920221E0C02252050433D2
:105AA0001343802252021AE0FC22520504331343AE
:105AB0008022120613E0F822520504331343802299
:105AC000D2050CE0BC22520504331343802212029B
:105AD00005E0B8225205043313438022D2011A6034
:105AE000002000E0032000BDF2FFFEFF0423C3708E
:105AF00000238370437003717047F0B589B006923C
:105B0000120B039201260823072207900591002516
:105B1000764202930192022700246B1C191C7943E0
:105B200006980493FAF702FD059A824206D3131AE7
:105B30009E4203D91E1C03900294019501347F00FC
:105B4000092C01D0002EE8D1072D03D0002E01D062
:105B5000049DE0E7019B03981A0170231340029A09
:105B60001343079ADBB2537009B0F0BD8423C21C03
:105B70005B05134301220A405200D2B289071A7012
:105B8000C90F90235B05023009011843C9B20170A7
:105B9000704710B58C2403306405C9000443C9B2B2
:105BA00021708821490592000143D2B20A708022F7
:105BB00052051043037010BD802302305B050122A3
:105BC00003430A4089071A70C90F8C235B05C9007B
:105BD0001843C9B2017070474118884203D00023AE
:105BE00003700130F9E77047084B10B5041C002B17
:105BF00002D0002100E000BF054B1868836A002B2B
:105C000000D09847201C00F04BF8C0460000000070
:105C1000AC7A000070B50E4B0E4D0024ED1AAD109D
:105C20001E1CAC4204D0A300F35898470134F8E797
:105C300001F03EFF084B094D0024ED1AAD101E1C6B
:105C4000AC4204D0A300F35898470134F8E770BD84
:105C5000D07A0000D07A0000D07A0000D47A000018
:105C600010B50023934203D0CC5CC4540133F9E750
:105C700010BD031C8218934202D019700133FAE759
:105C80007047031C0A7801311A700133002AF9D1D8
:105C900070470023C25C0133002AFBD1581E7047B5
:105CA000FEE7C046A80E0000961000009610000007
:105CB000880E0000720D0000720D00007A0E0000C8
:105CC000880E0000720D00007A0E0000720D0000B8
:105CD000880E0000700D0000700D0000700D0000B7
:105CE0009E100000096757617270537069436F6DB1
:105CF0006D6F6E53696E6B4275666665725B256487
:105D00005D203D205B3078253032585D0A001B5BFA
:105D1000306D1B5B343B34336D1B5B313B33376D74
:105D20000D53616E69747920636865636B206661E9
:105D3000696C6564211B5B306D0A001B5B306D1B59
:105D40005B343B34316D1B5B313B33376D0D496E3A
:105D500076616C696420737570706C7920766F6CF5
:105D600074616765205B25645D206D56211B5B3087
:105D70006D0A00776172705365744C6F77506F775E
:105D800065724D6F6465286B57617270506F7765EF
:105D9000724D6F6465564C50532C2030202F2A20B2
:105DA000736C656570207365636F6E6473203A2051
:105DB000697272656C6576616E74206865726520C3
:105DC0002A2F292829206661696C65642E2E2E0AE7
:105DD000000D0A0A0A0A5B202A090909095761729B
:105DE0007020284857207265766973696F6E20436A
:105DF00029202F20476C617578202848572072652C
:105E0000766973696F6E2042290909092A205D0AA3
:105E1000000D5B20200909090920202020202043B3
