:1000000000060020E90400001105000011050000B1
:1000100000000000000000000000000000000000E0
:1000200000000000000000000000000011050000BA
:100030000000000000000000110500001105000094
:100040001105000011050000110500001105000058
:10005000110500001105000011050000850D0000CC
:100060002F3100001105000039310000110500009A
:1000700043310000110500001105000011050000CA
:100080001105000011050000110500001105000018
:100090005D0D0000750D0000110500001105000048
:1000A00011050000110500001105000011050000F8
:1000B0001105000011050000950D0000110500005C
:10040000FFFFFFFFFFFFFFFFFFFFFFFFFE3DFFFFBF
:1004100010B5064C2378002B07D1054B002B02D0DA
:10042000044800E000BF0123237010BD40FFFF1F00
:10043000000000008472000008B5084B002B03D0B8
:100440000748084900E000BF07480368002B03D0B5
:10045000064B002B00D0984708BDC04600000000A6
:100460008472000044FFFF1F3CFFFF1F00000000DC
:10047000164B002B00D1144B9D46402292029A1A33
:10048000924600218B460F461348144A121A05F073
:100490001CF80F4B002B00D098470E4B002B00D0C0
:1004A00098470020002104000D000D48002802D0CC
:1004B0000C4800E000BF04F0D9FF2000290001F043
:1004C00039F804F0BDFFC046000008000006002017
:1004D000000000000000000040FFFF1F200200207D
:1004E000000000000000000072B606480649074AF6
:1004F00002600A6002F02AFE02F06AFE62B6FFF7AE
:10050000B7FF000080E100E080E200E0FFFFFFFFB6
:10051000004800471105000002B47146490849002F
:10052000095C49008E4402BC7047C046002934D0A3
:100530000123002210B488422CD301242407A142B5
:1005400004D2814202D209011B01F8E7E400A14272
:1005500004D2814202D249005B00F8E7884201D30D
:10056000401A1A434C08A04202D3001B5C082243E5
:100570008C08A04202D3001B9C082243CC08A04256
:1005800002D3001BDC082243002803D01B0901D042
:100590000909E3E7101C10BC7047002801D00020B7
:1005A000C04307B4024802A14018029003BDC046F0
:1005B000D90000000029F0D003B5FFF7B9FF0EBC49
:1005C0004243891A1847C046002941D010B4041C80
:1005D0004C40A44601230022002900D549420028AE
:1005E00000D5404288422CD301242407A14204D2E2
:1005F000814202D209011B01F8E7E400A14204D2C2
:10060000814202D249005B00F8E7884201D3401AD8
:100610001A434C08A04202D3001B5C0822438C08FA
:10062000A04202D3001B9C082243CC08A04202D364
:10063000001BDC082243002803D01B0901D0090954
:10064000E3E7101C6446002C00D5404210BC704704
:10065000002806D003DB0020C043400801E08020D2
:10066000000607B4024802A14018029003BDC0462C
:10067000190000000029EBD003B5FFF7A7FF0EBC5F
:100680004243891A1847C0467047C046F0B55F46D6
:1006900056464D464446F0B446024500C00F85B06C
:1006A0000F1C760A2D0E804641D0FF2D26D08024C7
:1006B000240400212643F6007F3D89468B46F90F2E
:1006C0007C027800640A000E00918A463CD0FF2824
:1006D00034D080231B041C430023E4007F380193A3
:1006E000009F4346019A7B4049469C4611430F298F
:1006F00000D971E0764F89007F58BF46002E3ED169
:100700000822022391469B46D9E75A46341CC2462A
:1007100001920199022937D0032900D1CFE00129A4
:1007200000D0ABE053460B400022002632E0002E02
:1007300019D10421012289469346C0E7221C531E89
:100740009A4102320192CBE701270197002CC7D0D2
:10075000201C00F067FA431F9C4076235B42002177
:10076000181A0191BCE7301C00F05CFA7625431F93
:100770009E406D4200232D1A99469B469FE70C230D
:10078000032199468B469AE7D446012367463B40AE
:10079000FF2200267602D205700ADB0710431843B9
:1007A00005B03CBC90469946A246AB46F0BD8026BB
:1007B0000023F603FF22EDE700220026EAE780206F
:1007C000C00306423BD0044239D1061C26437602C0
:1007D000760A009BFF22DDE7281A03907601640168
:1007E000A64239D3361B1A2201230120311C5B009B
:1007F0007600002901DBB44201D8361B0343013ADD
:10080000002AF3DC741EA641341C1C43039A7F3279
:10081000002A27DD630704D00F232340042B00D0D8
:100820000434270103D52B4B039A1C408032FE2A47
:100830000BDD012361460B40FF220026AAE7064399
:100840007602760A4346FF22A4E7A4010123674605
:10085000660AD2B23B409DE7039F1B22013F0397EC
:100860000023C2E77E23039F5B42DB1B1B2B07DDBC
:10087000012361460B40002200268BE7D446C5E7E2
:10088000221CDA40039B9E339C40231C5C1EA34128
:1008900013435A0704D00F221A40042A00D004330D
:1008A0005F0105D5012361460B400122002671E757
:1008B0009E01624601231340760A00226AE78026E1
:1008C000F60326437602760A5346FF2262E7C046C5
:1008D000FC540000FFFFFFF7F0B55F4656464D465B
:1008E0004446F0B44402460083B00F1C640A360E3E
:1008F000C50F002E41D0FF2E22D080231B040020E4
:100900001C43E4007F3E82468046391C4B007F0238
:10091000C90F7F0A1B0E8B463BD0FF2B34D08022A1
:1009200012041743FF007F3B00215A466A400192A0
:1009300052460A430F2A63D87A4892008258974653
:10094000002C3FD10822022392469846DDE701950C
:10095000404602282AD1019A01251540FF23002490
:100960006402DB05600AED071843284303B03CBC72
:1009700090469946A246AB46F0BD002C27D10420F4
:10098000012282469046C0E7391C4A1E914102313D
:10099000CBE70121002FC8D0381C00F043F9431FDA
:1009A0009F4076235B421B1A0021BEE7032800D13B
:1009B000AEE001284FD1019842461040C5B2002355
:1009C0000024CDE70C2303209A4680469DE7201C97
:1009D00000F028F97626431F9C4076420023361A01
:1009E0009A46984691E780240025E403FF23B7E761
:1009F0005B463C1C01938846AAE73C1C8846A7E757
:100A0000250C24043A0C240C3F04F6183F0C211C3E
:100A1000231C794353436F435543FB180A0C9B181F
:100A2000B1469F4202D980225202AD1809041A042D
:100A3000090C521894011B0C611E8C41920EED188A
:100A40001443AD012C43230105D501226308012085
:100A5000144081441C434B467F33002B2DDD60073F
:100A600004D00F222240042A00D00434220103D5EE
:100A70002D4B1C404B468033FE2B17DD019B01257F
:100A80001D400024FF236BE78020C003044208D0F0
:100A9000074206D1041C3C436402640A5D46FF23FE
:100AA0005EE704436402640AFF2359E70198A40146
:100AB0000125640ADBB2054052E77E235B424A46C9
:100AC0009B1A1B2B05DD019B01251D4000240023E3
:100AD00046E7221CDA404B469E339C40231C5C1E9A
:100AE000A3411343580704D00F221A40042A00D010
:100AF00004335A0105D5019B01251D400024012323
:100B00002EE701989C010125640A0540002327E790
:100B10008027FF03019B3C43640201251D40640ABA
:100B2000FF231DE73C550000FFFFFFF74302590A72
:100B30004300C20F1B0E00207E2B0DDD9D2B0CDC15
:100B4000802000040143952B0ADC9620C31AD9406B
:100B50004842002A00D1081C7047034BD018FBE71D
:100B6000963B9940F4E7C046FFFFFF7F70B5041E37
:100B70003CD0C60F00D04442201C00F053F89E2306
:100B8000251C1B1A962B0CDC083884406402640A6E
:100B9000DBB2321C6402DB05600AD2071843104343
:100BA00070BD992B0ADD0522121A211CD1400A1CA6
:100BB000011C1B318D40691E8D411543052801DD47
:100BC000421F9540164C2C406A0704D00F22154056
:100BD000042D00D0043461010CD59F23181AFF287E
:100BE0001AD0A401640AC3B2321CD3E70022002346
:100BF0000024CFE7E408FF2B04D06402640ADBB2D0
:100C0000321CC7E7002C04D08020C00304436402D8
:100C1000640A321CFF23BDE7321CFF230024B9E71E
:100C2000FFFFFFFB1C2101231B04984201D3000C92
:100C300010391B0A984201D3000A08391B0998424F
:100C400001D30009043902A2105C40187047C04665
:100C50000403020201010101000000000000000085
:100C6000837802209842804140427047437A0020B6
:100C7000013B012B03D90B78012001330B70704726
:100C8000031C303809280BD91A1C613A2738052A69
:100C900006D91A1C413A0020052A01D8181C3738F9
:100CA00070470000174AC0239B001360164A136068
:100CB000164A1360164A00231360164A1360164A38
:100CC0001360164A1360164A1360164A1360164AD8
:100CD0001360164A1360164A1360164A1360164AC8
:100CE0001360164A1360164A1360164A1360164AB8
:100CF0001360164A1360164A1360164A1360164AA8
:100D000013607047009014540490145408901454C5
:100D10000C901454109014541490145418901454AB
:100D20001C90145420901454249014543090145453
:100D300000A0145404A0145408A014540CA014547B
:100D400010A0145414A0145418A014541CA014542B
:100D500028A014542CA0145434A0145408B5002016
:100D600003F01EFF002803D00020011C03F00CFF3D
:100D700008BD0000024B1A6801321A607047C04675
:100D80005CFFFF1F08B50248072103F0B7FB08BD51
:100D900000C00740024B012252421A607047C04611
:100DA000A090044037B5002002F015FD0D4AC02385
:100DB0009B0013600C4A0D4C136000250C4B2571F1
:100DC0006571A5711A68FA239B005343281C0949D1
:100DD000236003F035FF281C211C01AA03F096FFB5
:100DE00037BDC0461C90145400A01454500000207D
:100DF00028FEFF1F5800002008B5002003F062FF06
:100E00000A4A80235B001360094A08201360094ADC
:100E1000136002F08FFF062002F08CFF092002F021
:100E200089FF002002F0DCFC08BDC0461890145475
:100E30001C90145400A0145408B5074A80235B008A
:100E40001360064A0E201360054AFF301360054AFE
:100E5000136002F061FF08BD3090145424901454C4
:100E60002090145404A0145408B5002002F0C2FCD1
:100E7000054A80239B001360044A00201360044944
:100E800003F038F808BDC0460CA0145410A0145448
:100E9000A0FFFF1F08B5002003F068F8034B0020F7
:100EA0001860034B186002F0AAFC08BD0CA0145493
:100EB00010A0145408B50620FF3002F03BFF024B8F
:100EC000186802F04AFA08BD10FEFF1F0FB41FB5E4
:100ED00006AB04CB0020039340230093069903AA9A
:100EE000084B01F0F7FF002804DA0749002001F061
:100EF00013FF02E0052002F030FA05B008BC04B090
:100F00001847C0460E000020976F000038B5784D96
:100F1000041C2B88984200D1E8E0764BC218764B2F
:100F200092B29A4200D9DDE0744A80235B001360DC
:100F3000734A1360734A1360734A1360734A1360F1
:100F4000734B984200D17EE024D8724B984263D014
:100F500010D8714B984249D0FA23DB00984256D002
:100F6000E123DB00984200D0AFE00C20FF3002F01C
:100F7000E1FE3FE0694B984257D096231B0198420F
:100F80005CD0674B984200D09FE00C20FF3002F00D
:100F9000D1FE4EE0634B984270D00FD8624B98421E
:100FA0005ED0AF231B01984263D0604B984200D0C3
:100FB0008BE00C20FF3002F0BDFE55E05C4B984208
:100FC00069D007D85B4B98427FD10C20FF3002F0EC
:100FD000B1FE64E0C8231B01984265D0564B98428D
:100FE00073D10C20FF3002F097FE61E00C20FF303F
:100FF00002F092FE8520400002F09CFE0820FF30A7
:1010000002F098FE8320400002F094FE60E00C2085
:10101000FF3002F08FFE03E00C20FF3002F07CFE78
:101020008520400002F078FEE8E70C20FF3002F057
:1010300073FE8520400002F07DFE0CE00C20FF30A6
:1010400002F078FE03E00C20FF3002F065FE852000
:10105000400002F061FE0820FF3002F05DFED1E7A3
:101060000C20FF3002F058FE8520400002F062FEA6
:101070000CE00C20FF3002F05DFE03E00C20FF309E
:1010800002F04AFE8520400002F046FE0820FF30B4
:1010900002F050FE14E00C20FF3002F03DFE8520EF
:1010A000400002F047FE07E00C20FF3002F042FE55
:1010B0008520400002F030FE0820FF3002F02CFEB8
:1010C0008320400002F028FE02E01C48FFF7FEFEED
:1010D0001B4B186802F041F90620FF3002F01CFE9D
:1010E0002C8003E01748211CFFF7F0FE38BDC046F6
:1010F00008FEFF1FF8F8FFFFDC05000014A01454E1
:1011000018A014541CA0145428A014542CA0145437
:10111000C4090000340800006C070000FC0800004F
:1011200098080000540B00008C0A0000280A0000F8
:101130001C0C0000B80B0000E40C0000A6550000D9
:1011400010FEFF1FD355000010B5041C002901D06C
:10115000FFF7A8FD0021022001F050F90420211C16
:1011600001F04CF9002802D00148FFF7AFFE10BD96
:101170000B560000F8B5051C2648171C0C1CFFF781
:10118000A5FE2548FFF7A2FE291C221C2348FFF7D5
:101190009DFE234B23481968234B244D1A68244B8A
:1011A000244E1B68FFF792FE234B244CF158244831
:1011B0006A692B68FFF78AFE21786278A379C9B241
:1011C000D2B2DBB21F48FFF781FE1F4B217A227E8D
:1011D0001B78C9B2D2B2DBB21C48FFF777FE1C4BBA
:1011E0001C4819785A781C4BC9B2D2B21B69FFF758
:1011F0006DFE1A4B1A4899781A4BC9B2F2586B68AF
:10120000FFF764FE184B3A7819681848FFF75EFE3E
:10121000F8BDC04669560000A9560000DB56000024
:1012200004FEFF1F0F57000028FEFF1F00D00340E1
:1012300018FEFF1F007004403C10000000400640F4
:10124000465700007C57000000500640AB57000096
:1012500000E00740DB57000000ED00E000D0074051
:1012600015580000341000005CFFFF1F4D580000AF
:1012700008B501F05DFD0028FBDB08BD70B5FFF788
:10128000F7FF051CFFF7F4FFFF24061C281C204075
:10129000FFF7F6FC051C301C2040FFF7F1FC2D0188
:1012A0002818C0B270BD70B5FFF7E2FF061CFFF74B
:1012B000DFFF051CFFF7DCFF041CFFF7D9FFFF234E
:1012C0001E40FA2292001D40303E56431C406422CC
:1012D000303D5543303C0A225443751903402C19C4
:1012E000303BE01870BD0000F0B591B01D1C16AB8E
:1012F0000C91197817AB05921A7818AB1B78041C5F
:101300000D931CAB1B780E931DAB1B8808936B468B
:101310005933DB7F09931FAB1B880F9320AB1B78DE
:101320000A930B1C914200D9131CDBB20293002DCF
:1013300003D10599002906D102E0059A002A02D0BE
:101340005348FFF7C3FD0898FFF7E0FD201CFFF7A7
:10135000BDFD0027089C0497069703970023079379
:10136000199B07998B426ADB00261A998E4262DA32
:1013700002990C9A89190B91C8B201219047002853
:101380003BD1039B0899013303938C4204D9643CFD
:10139000A4B2201CFFF7BAFD002D19D0EB68099A02
:1013A0009B7804999B1A5A4253410A9AC91804918E
:1013B000002A38D0EA68EB68E868029980787118EA
:1013C00012785B78009033480B91FFF77FFD2AE09D
:1013D000059A09999378CB1A5A425341049AD21824
:1013E0000A9B0492002B1ED00599029B8A782A48FA
:1013F000D2B2F118FFF76AFD15E002280FD10B9960
:101400002648FFF763FD06990F9A01310691944231
:1014100009D26434A4B2201CFFF778FD03E003383E
:1014200043424341FF181B9B002B02DD181C01F0B7
:1014300094FF013699E7079A0132079290E70E9AD6
:10144000002A1BD1039B069915485A18191CFFF74F
:101450003DFD322001F081FF039A099B0499114858
:10146000FFF734FD322001F078FF391C0E48FFF7FA
:101470002DFD322001F071FF11B0F0BD029B0D9ADD
:101480000133DBB20293934200D867E7DAE7C04644
:10149000A65500007B580000A0580000B558000079
:1014A000C8580000E05800001159000070B588B01D
:1014B000151C0CAA16780C4A0C1C126806A94A6066
:1014C00004AA1570094D08802D6805A806700090C3
:1014D00001930295231C002002F078FE431E9841E0
:1014E000400008B070BDC04604FEFF1F00FEFF1F95
:1014F000F7B5CB1DDB08DB006A46D21A02AF954672
:10150000061C0C1CFFF74EFC094B02AD1B680020AB
:10151000321C019300942B1C011C03F055FC041C8D
:10152000631E9C41FFF768FCBD46A000F2BDC046AB
:101530000CFEFF1FF0B5C1B02AAE00210722301CFF
:1015400003F0C3FF1AA81EAA37901CA93A9222AB37
:1015500024A828AA38913C933D9034AB26A93F9209
:101560000320DC4A012520AF18713E91002016A906
:101570003691349219933B973570399602F016F9EB
:10158000281C02F013F9D44B802212021A6001F0D9
:1015900001FF0020011C021C031C009501F0D8FB78
:1015A000CE48FFF793FCFA20800001F0D6FECC482D
:1015B000FFF78CFCFA20800001F0CFFEC948FFF74E
:1015C00085FCFA20800001F0C8FEC74A2B1C0221CE
:1015D000C64801F003FF291C281C01F00BFF002066
:1015E00003F01AFA0024FC2331A9DB00201C0B8035
:1015F0004D808D80CC800C818C7203F03BFA211CD5
:101600002A1C16A803F061FF311C07221EA803F054
:1016100053FF03231EAA1370381C311C072203F04A
:101620004BFF0523311C07221AA83B7003F044FF2F
:1016300002211AA801700722311C1CA803F03CFFEC
:1016400004231CAA1370311C072222A803F034FFC4
:1016500022AB08201870311C072224A803F02CFFAD
:10166000092724A90F700722311C26A803F024FFA4
:101670000A2326AA137028AB391C19AA1C7037A894
:101680002B1C02F017F99A48FFF720FC211C0220BE
:1016900000F0B4FE08218843C0B2A04202D09548B1
:1016A000FFF714FC9448FFF711FC9448FFF70EFC79
:1016B0009349944802F014FB934C201CFFF706FC5E
:1016C000924AC0239B001360914A92481360924A49
:1016D0001360FFF7FBFBFFF7E5FA201CFFF7F6FBB3
:1016E000E1211D20C90001F035F80121002001F0A1
:1016F00037F80E209621FF30090100F03DFF002051
:10170000012100F091FF002803D08448FFF7DEFBA1
:1017100005E0834B8348DB689978FFF7D7FB01200E
:10172000011C00F081FF1290002803D07E48FFF7D3
:10173000CDFB05E07A4B7D48DB689978FFF7C6FB67
:101740007B4B01227B481A70FFF7C0FB00220D92F1
:10175000139203230E93784C201CFFF7B7FB7748B6
:10176000FFF7B4FB00200C900221012001F00EF8DD
:10177000734C0221A378E5789B01AD0803201D433B
:1017800001F004F8A378E6789B010221B608052051
:101790001E4300F0FBFFA378E278802792089B01AC
:1017A000BF0113436748674A7D407E405F40A918E8
:1017B0003B18B21809B212B21BB26348FFF786FB9E
:1017C000FA20800001F0C9FD604900236A18222137
:1017D00092B2FF31181C914258415D4A011CB81861
:1017E0005C4A80B282425B410B420DD058483318AC
:1017F0009BB29A4208D30C980A21FEF73BFF732252
:101800002EAB5A54544843E0544900236A185449B3
:1018100092B2181C91425841524A011CB818524ABF
:1018200080B282425B410B420DD0504833189BB2CC
:101830009A4208D30C980A21FEF71CFF77222EABA0
:101840005A544B4824E04B494B48002376182D1836
:101850004A4A4B48191CB6B2ADB2B2425941A842ED
:101860005B410C980B420CD042497F18BFB2BA4280
:1018700007D30A21FEF7FEFE72222EAB5A544148CE
:1018800006E00A21FEF7F6FE75222EAB3E485A54BA
:10189000FFF71CFB0C980A21FEF7ECFE4B42594166
:1018A0000C9B633B5A425341194300D107E10C9A08
:1018B000002A00D103E100231E1C1F1C1C1C2EAAA1
:1018C0009A5C732A01D1013464E0772A5ED1013732
:1018D00060E0C0466D0C0000140200202659000094
:1018E000415900004759000014FEFF1FC4FEFF1FAE
:1018F0005059000075590000A9590000B159000065
:1019000034FEFF1F2CFEFF1F9E5A0000009014544F
:1019100004901454CE59000008901454EF5900005C
:1019200088000020245A0000435A0000795A000021
:10193000C4FFFF1F995A0000A55A0000D95A0000A1
:101940000600002000E0FFFF0B5B000090D0FFFFCF
:1019500099E1FFFF320300002C5B0000FFD7FFFF7F
:10196000FE0F0000FFE7FFFFFE0B0000FFEFFFFF91
:10197000535B0000FFF7FFFFFFC7FFFFFE1F0000E4
:10198000FE070000775B00009B5B0000723A51424B
:101990004A41B61801330A2B91D1D848FFF796FA7D
:1019A0003A1C211CD648331CFFF790FAE3199B1907
:1019B000181C0F93FFF7DAF8051C301CFFF7D6F858
:1019C000291CFEF763FECF49FEF786FF1190381CF5
:1019D000FFF7CCF8291CFEF759FECA49FEF77CFF39
:1019E0001090201CFFF7C2F8291CFEF74FFEC549D6
:1019F000FEF772FF041C1198FFF798F814901098E6
:101A0000FFF794F81590201CFFF790F8BE4D031CCB
:101A1000012E19DD0F98002801D100211191159A8E
:101A20001499BA48FFF752FA281CFFF74FFAB54944
:101A30001198FEF72BFEB649FEF74EFFFFF776F83A
:101A40000021C0B20A1C35E0032F1ADD0F9A002ACC
:101A500001D1002010901A1C1599149BAD48FFF776
:101A600035FA281CFFF732FAA6491098FEF70EFE49
:101A7000A749FEF731FFFFF759F8C2B20020011C59
:101A800018E00F99002900D10024159A191CA248CA
:101A9000149BFFF71BFA281CFFF718FA9949201C22
:101AA000FEF7F4FD9A49FEF717FFFFF73FF8C1B2C2
:101AB0000020021C00F03AFF984801F04EFC0C9AFE
:101AC00001320C92642A00D04EE69548FFF7FEF9E9
:101AD0009448FFF7FBF9944C0D99208816AA80B220
:101AE000FFF748FB9148FFF7F1F99148FFF7EEF94E
:101AF0009048FFF7EBF99048FFF7E8F98F48FFF7B8
:101B0000E5F98F48FFF7E2F98E48FFF7DFF98E48D5
:101B1000FFF7DCF98D48FFF7D9F98D48FFF7D6F9C3
:101B20000D990E9A8B48FFF7D1F98B48FFF7CEF944
:101B30008A48FFF7CBF98A48FFF7C8F98948FFF7C9
:101B4000C5F98948FFF7C2F98848FFF7BFF9884807
:101B5000FFF7BCF98748FFF7B9F98748FFF7B6F9EF
:101B60008648FFF7B3F98648FFF7B0F98548FFF7D5
:101B7000ADF98548FFF7AAF9FFF77AFBFF25011CAD
:101B8000071C29406A2900D1B8E140DC632900D153
:101B900048E114DC522900D1CDE30ADC0A2900D146
:101BA000CEE3502900D0D0E37848FFF78FF978488A
:101BB000C7E361295AD0622900D123E1C5E3662930
:101BC00000D149E10EDC642900D13BE1652900D058
:101BD000BBE37048FFF77AF9FFF750FB0D900D99C2
:101BE0006D48B3E3672900D17DE1682900D0ACE3FB
:101BF0006A48FFF76BF96A4C201CFFF767F9201C55
:101C0000FFF764F96748FFF761F9674899E37029BE
:101C100000D13AE211DC6D2906DC6C2900DBF6E12B
:101C20006248FFF753F9E9E16E2900D127E26F29F5
:101C300000D08AE3FFF73EF98DE5742900D13EE23A
:101C40000ADC722900D12FE2732900D07DE35348CA
:101C5000FFF73CF9564874E3782900D120E37A294C
:101C600000D125E3752900D06FE38DE25148FFF7DD
:101C70002DF95148FFF72AF95048FFF727F9504846
:101C8000FFF724F94F48FFF721F94F48FFF71EF9F6
:101C90004E48FFF71BF94E48FFF718F94D48FFF77C
:101CA00015F94D48FFF712F94C48FFF70FF94C486A
:101CB000FFF70CF94B48FFF709F94B48FFF706F916
:101CC0004A48FFF703F94A48FFF700F94948FFF788
:101CD000FDF84948FFF7FAF84848FFF7F7F8484891
:101CE000FFF7F4F8FFF7C4FA011C2940312903D0AB
:101CF000352900D12EE328E300232BE5CF5B00003C
:101D0000D75B00000000C842F2650000E45B000001
:101D100000007F434D5C0000B65C0000B80B000083
:101D2000A55A00001F5D000008FEFF1F2C5D00008B
:101D3000365D0000535D00006F5D00008B5D0000AC
:101D4000A85D0000CF5D0000EE5D00001A5E00009F
:101D5000455E0000685E0000975E0000B35E000014
:101D6000D75E0000FB5E0000225F00004A5F0000BB
:101D7000685F0000855F0000A45F0000C35F000093
:101D8000DD5F00000860000033600000F86E0000B6
:101D90003A6F0000A7650000DD65000041670000A4
:101DA0006F6700009F670000D0670000066A0000B0
:101DB000B96B000046600000516000007F600000C9
:101DC000C160000002610000426100007261000019
:101DD000AF610000EE6100002C620000696200004B
:101DE000A7620000E462000023630000606300005B
:101DF0009D630000D8630000156400005264000079
:101E000097640000E748FFF761F8FFF74CFAE64BEC
:101E1000E64A18601968914201D1E54A1A601968CA
:101E2000E44893E2E448FFF751F8FFF73CFAE34B4C
:101E3000DE4A18601968914201D1DD4A1A601968BA
:101E4000DF4883E2DF48FFF741F8FFF72CFADE4B6B
:101E500018601968DD4879E2DD48FFF737F8FFF7C9
:101E60000DFADC4E071C391C301CFFF72FF8DA483E
:101E7000FFF72CF8FFF702FA17AD011C2870301C91
:101E8000FFF724F8992F0FD12978D4480D9AFFF73E
:101E90001DF80D992A780A20012300F035FB011E58
:101EA00000D158E4CE4851E2BF4B2CAE1B682088CD
:101EB0002D9380B23780FFF729F8FEF7D5FFC94B85
:101EC0000D981B6818AA107002930123311C00950D
:101ED0000193002002F07AF9011E00D13FE2C248CE
:101EE000FEF7F4FF3BE2C148FEF7F0FFFFF7DBF936
:101EF00080B220802188BE4889B227E20D99BD4872
:101F0000FEF7E4FFFFF7B4F9031C303B5A1E934180
:101F1000DBB2B9480C93FEF7D9FFFFF7A9F93038C7
:101F20000F90B648FEF7D2FFFFF7A2F9031C303B33
:101F30005A1E9341DBB2B2481093FEF7C7FFFFF77A
:101F4000B2F9061CAF48FEF7C1FFFFF7ACF9051C5C
:101F5000AD48FEF7BBFFFFF7A6F9071CAB48FEF73D
:101F6000B5FFFFF78BF90E9911900D9A0096A848CE
:101F70002B1CFEF7ABFF22880E9992B2BFB202294A
:101F800036D0032936D001291AD00D9B0F98009323
:101F90002E230C9902930792109B119A002404900F
:101FA000069108920A93019403950596099799481A
:101FB0009949221C994BFFF797F90E94FFF7CBFB39
:101FC00031210D9802910F99009004910C9811996C
:101FD0000792109A0023069008910A9201930395A4
:101FE000059609978E488F498F4AFFF77DF9B6E12C
:101FF0008E4800E08E48FEF769FFB0E10120002125
:10200000FFF7A2F83C200121FFF79EF8F6E7894888
:10201000FEF75CFF8848FEF759FFFFF72FF92CAE5B
:1020200030708648FEF752FFFFF73DF92388FFB274
:10203000051C32789BB26C2F12D18148291CFEF707
:1020400045FF0024AC4201DBFFF785FB2CAB1A787F
:1020500000230093FF200121FFF728FA0134F1E764
:102060007848291CFEF732FF0024AC4201DBFFF761
:1020700072FB2CA80121FFF73BFA0134F5E7208819
:1020800080B2FEF743FFFFF766FB0220002100F05D
:10209000B5F91290002801D1FFF75DFB082801D1A6
:1020A000FFF759FB68484CE10820002100F0A6F931
:1020B000129B002B01D1FFF74EFB644841E12CA994
:1020C000002001F035FBFA212C988900FEF72EFA4A
:1020D000011C5F48FEF7FAFE01F080FD011C5D481F
:1020E000FEF7F4FE01F0FAF9011C5B48FEF7EEFE84
:1020F0005A4B5B4819684B1E9941FEF7E7FE0020DA
:1021000001F073FB011C5748FEF7E0FE002001F0D0
:102110007BFB011C5448FEF7D9FE002001F079FB3F
:10212000011C5248FEF7D2FE002001F047FB011CC3
:102130004F48FEF7CBFE012001F040FB011C4D484B
:10214000FEF7C4FE4C4B4D4819684B1E9941FEF7F3
:10215000BDFE002001F03AFB011C4948FEF7B6FE27
:10216000484B494819684B1E9941FEF7AFFE474B53
:10217000474819684B1E9941FEF7A8FE002001F060
:102180004DFB011C4348E1E01398002801D142486F
:10219000D7E04248FEF79AFEFFF770F813994870AF
:1021A000FFF7D9FAC764000004FEFF1F0F270000E5
:1021B00010270000F56400001565000028FEFF1FD1
:1021C000436500005D65000018FEFF1F8C65000080
:1021D000F4650000276600003D66000066660000AA
:1021E0009766000000FEFF1FB8660000D966000079
:1021F00012670000026800003C680000656800008B
:102200007E680000BD680000E968000021690000E8
:10221000526900008F690000292600008800002014
:102220009C6900008D27000006000020AA690000BC
:10223000D569000041670000296A0000486A000073
:10224000686A0000B36A0000FE6A00005C6B000070
:10225000E56B0000F76B00000D6C00003C80845EB5
:10226000346C0000456C0000566C0000676C000088
:102270007B6C00008F6C00003C800450A36C00005D
:10228000B46C000034808459C56C00003480045A5A
:10229000D66C0000E86C0000F96C0000376D00009F
:1022A0003148FEF713FE314801F057F8304848E056
:1022B0003048FEF70BFEFEF7DBFFC3B2683B5A4225
:1022C00053412D48DFB2FEF701FEFEF7ECFF86B268
:1022D000311C2A48FEF7FAFD0121002000F040FAE7
:1022E0000D902748FEF7F2FD2648FEF7EFFD264841
:1022F000FEF7ECFD2548FEF7E9FD2548FEF7E6FD73
:102300000025244C291C226823486368FEF7DEFD63
:10231000381C00F093F9381C00F072FA21681F484D
:1023200062680D9BFEF7D2FD002E02D0301C01F03A
:1023300014F80135E5E71A48FEF7C8FD194800E032
:102340001948FEF7C3FDFFF706FA1848FEF7BEFD71
:10235000FFF701FA164A01231392FFF7FBF9FEF784
:1023600099FDFFF7F8F9C0466F6D000010270000D7
:102370008E6D0000986D0000C16D0000096E0000B8
:10238000416E00006B6E00008D6E0000AF6E0000AD
:10239000F165000000D00340D46E0000E76E00003D
:1023A000F86E00001A6F0000656F0000AB6400005B
:1023B000060000201FB5041C01A9002002F082FBCA
:1023C00001A8694602F0BCFA009B68461C1901A9E5
:1023D000009402F03DFA01A90122002002F09EFBC8
:1023E0001FBD0000034B00221A60034B8022D20560
:1023F000DA67704700901C5804E100E010B50A232A
:102400000C1C08287DD8FEF787F8051B283C48627D
:102410006970570001F0E2FB0523012871D0FFF736
:10242000E1FF201CFFF7C6FF0020011C01F064FA49
:10243000041C0020012100F0DDFF002C5ED15FE0D4
:1024400001F0CCFB062301285BD0FFF7CBFF201C5B
:10245000FFF7B0FF01200021E8E701F0BFFB0823F0
:1024600001284ED001F03AF8002803D000200121C5
:1024700000F0C0FF0220002101F03EFA00283DD10B
:102480003EE001F0ABFB072300283AD0FFF7AAFF9C
:10249000201CFFF78FFF032005E0FFF7A3FF201CA0
:1024A000FFF788FF0420002101F026FA041C01F048
:1024B00095FB0028C1D1BDE70820002101F01CFADE
:1024C00000281BD10120011C00F094FF18E0FFF749
:1024D00089FF201CFFF76EFF05200CE0FFF782FF4D
:1024E000201CFFF767FF062005E0FFF77BFF201C9D
:1024F000FFF760FF0720002101F0FEF9092300E04B
:102500000023181C10BD0000F0B5194C85B00291D5
:102510000392071CA08A1E1C80B2FEF7F7FC402520
:102520003C2E00DCF51CFEF787FCA36802991F70A7
:10253000A368039A5970A3689A70606801F0FAFB67
:10254000FEF730FC0B49A268E3680968002001919E
:102550000095011C02F038FC051CFEF74DFC60687C
:1025600001F0DAFB6B1E9D41680005B0F0BDC0466E
:10257000880000200CFEFF1F08B5274A274B586033
:102580009A60274A0A20DA6040221A619982522210
:102590001F210023FFF7B8FF002802D02148FEF7D3
:1025A00095FC0A2000F0D9FE0A202D2106220023E6
:1025B000FFF7AAFF002802D01A48FEF787FC0A207E
:1025C0002C2107220023FFF79FFF002802D0154887
:1025D000FEF77CFC0A20282106220023FFF794FF47
:1025E000002802D00F48FEF771FC0A2029213E2264
:1025F0000023FFF789FF002802D00A48FEF766FC97
:102600000A20272135220023FFF77EFF002802D071
:102610000448FEF75BFC08BD60FFFF1F8800002038
:10262000C5FFFF1FBD6F000008B5021C4B1E0B202D
:10263000111C0022FFF768FF08BD000038B5082113
:10264000051C0E20FFF7F0FF00280DD0274C201CA2
:10265000FEF73CFC201CFEF739FC201CFEF736FC84
:10266000201CFEF733FC40E0214CE3689A78E368D5
:10267000D978002D03D01F48FEF728FC05E0090299
:102680000A4311B21C48FEF721FCE3681A79E3689B
:102690005979002D03D01748FEF718FC05E0090210
:1026A0000A4311B21448FEF711FCE3689A79E36813
:1026B000D979002D03D00F48FEF708FC05E0090288
:1026C0000A4311B20C48FEF701FCE3681A7AE3688A
:1026D000597A002D03D00748FEF7F8FB05E0090200
:1026E0000A4311B20448FEF7F1FB38BD0E71000039
:1026F000880000201571000025710000F0B5124B14
:1027000089B05A7806AC2280104A061C126805ADC2
:102710000792D8880F1C80B2FEF7F8FB2E7004AE2B
:102720003770FEF7A1FB0A4B211C1B682A1C029381
:10273000012301930096002001F048FD431E9841BB
:10274000400009B0F0BDC0460600002004FEFF1F97
:1027500000FEFF1F014B5870D98070470600002013
:1027600038B5094B041CD8880D1C80B2FEF7CEFB8F
:10277000211C0920FFF7C2FF291C041C2A20FFF797
:10278000BDFF0443E0B238BD06000020F0B58BB0B9
:1027900007ADFF23041C05912B70182804D80928C5
:1027A00006D2062823D803E0031C1D3B142B1ED899
:1027B000104F08AE7B78023733800F4B1B680993AC
:1027C000B88880B2FEF7A2FB2C70FEF74DFB0B4BD6
:1027D00000201B68311C0293059B009701932A1C63
:1027E000012301F000FD431E9841400000E003205A
:1027F0000BB0F0BD0600002004FEFF1F00FEFF1F0F
:1028000038B5324C051CE08880B2FEF77FFB022110
:102810000120FFF7BBFFA178E278C9B2D2B200284D
:1028200003D02B48FEF752FB10E0002D03D02948BF
:10283000FEF74CFB0AE092088901114380229201C5
:10284000254B5140C9182548FEF740FB02210320C3
:10285000FFF79CFFA178E278C9B2D2B2002803D07A
:102860001B48FEF733FB10E0002D03D01948FEF79C
:102870002DFB0AE092088901114380229201164B38
:102880005140C9181548FEF721FB02210520FFF72A
:102890007DFFA178E278C9B2D2B2002803D00C48FB
:1028A000FEF714FB10E0002D03D00A48FEF70EFBE4
:1028B0000AE092088901114380229201064B51409F
:1028C000C9180648FEF702FB38BDC04606000020C6
:1028D0000E7100001571000000E0FFFF257100007F
:1028E00037B50E24FF34051C201C01F015FA0A2010
:1028F00000F033FD201C01F01DFA0C2001F01AFA43
:10290000084A012315700093FA239B0000200193CD
:10291000011C054B02F058FA051C201C01F0FCF9C3
:10292000281C3EBDA1000020A0000020F8B5151C09
:10293000C023654A9B001360644A0E1C1360071C89
:102940008024FEF72FFA624B64001C60614B201C50
:102950001C60614B1C6001F0DFF9642000F0FDFC9D
:10296000201C01F0E7F9642000F0F7FC201C01F0C6
:10297000D3F9642000F0F1FCAE20FFF7B1FFA020F6
:10298000FFF7AEFF7220FFF7ABFFA120FFF7A8FF14
:102990000020FFF7A5FFA220FFF7A2FF0020FFF70E
:1029A0009FFFA420FFF79CFFA820FFF799FF3F207F
:1029B000FFF796FFAD20FFF793FF8E20FFF790FF04
:1029C000B020FFF78DFF0B20FFF78AFFB120FFF744
:1029D00087FF3120FFF784FFB320FFF781FFF0204E
:1029E000FFF77EFF8A20FFF77BFF6420FFF778FF69
:1029F0008B20FFF775FF7820FFF772FF8A20FFF723
:102A00006FFF6420FFF76CFFBB20FFF769FF3A20E0
:102A1000FFF766FFBE20FFF763FF3E20FFF760FF72
:102A20008720FFF75DFF0620FFF75AFF8120FFF7A1
:102A300057FF9120FFF754FF8220FFF751FF5020EE
:102A4000FFF74EFF8320FFF74BFF7D20FFF748FF86
:102A5000AF20FFF745FF2620FFF742FF0120FFF7D9
:102A60003FFF2520FFF73CFF0020FFF739FF002044
:102A7000FFF736FF5F20FFF733FF3F20FFF730FF00
:102A80002220FFF72DFF0020FFF72AFF0020FFF78D
:102A900027FF5F20FFF724FF3F20FFF721FF0020E3
:102AA000FFF71EFFFF20FFF71BFF0020FFF718FFB7
:102AB000381CFFF715FF301CFFF712FF281CFFF72B
:102AC0000FFF0020F8BDC0462090145424901454E9
:102AD00034A014543090145400A014540269C368F4
:102AE0009A4204D8806810180138C01A01E0013AEF
:102AF000D01A7047F7B58368C668041C4068019116
:102B0000151C9F1B8019974203D902F0D5FCAD1903
:102B10000AE001993A1C02F0CFFC019BED1BD91988
:102B200060682A1C02F0C8FCE560F7BDF7B5171C09
:102B3000C4680022061C019100923369B568A34263
:102B400000D85B19013B1B1B2D1BBD4200D93D1C4E
:102B50009D4200D91D1C73682A1C1819019902F0A6
:102B6000ABFC009A019B52190092B2685B19641980
:102B70000193A31A5A1E93415B421C407F1BF460D1
:102B8000DBD10098FEBD000010B5104C104A0223A6
:102B9000236163610F4BA261A2640F4AE361642366
:102BA0002362E26400230422A3626362E362A365FA
:102BB0006365E3652265E01D084902F08EFC201C78
:102BC000074902F08AFC2023A37110BD0C010020EC
:102BD0002A710000A6000020A2000020337100002E
:102BE00037710000F7B5204E041C33780191171C93
:102BF000002B01D1FFF7C8FF18235C434834361976
:102C0000F268346900920025944216D9B2683D1CDE
:102C1000131B9F4200D91D1C73682A1C19190198A7
:102C200002F04AFC019A641952190192B2687F1BA2
:102C3000A31A5A1E93415B421C40009B1B1B00932E
:102C4000BB4200D90097009A002A07D07368019808
:102C5000191902F031FC009AAD18A418002D00D00B
:102C60003461281CFEBDC0460C01002010B50B1CB1
:102C7000EFF31084012181F31088191CFFF7B2FFD4
:102C800084F3108810BD0000F8B5013018256843A2
:102C9000134D0F1C2D186E69141C012E0ED0002E22
:102CA00006D0022E16D1281CFFF740FF041C14E0AA
:102CB000281CFFF713FFA0420ED305E0281CFFF7E6
:102CC0000DFF844200D9041C281C391C221CFFF76C
:102CD00011FF02E0002400E0341C201CF8BDC046B7
:102CE0000C010020F8B50B4B071C1B780E1C151CA3
:102CF000002B01D1FFF748FFEFF31084012181F38E
:102D00001088381C311C2A1CFFF7BEFF84F3108882
:102D1000F8BDC0460C01002038B5051C081C0C1C71
:102D200002F0E3FB211C021C281CFFF7DBFF38BD6F
:102D300013B56C4607340020211C0122FFF796FFD3
:102D4000012801D1207801E00120404216BD000099
:102D5000F7B5164C01932378051C0F1C161C002B8D
:102D600001D1FFF711FF226995421CD2EFF31080C9
:102D7000012181F31088002D0CD018236A1C5A43BE
:102D80006B43A750A2185660019AE3181A620022FA
:102D90009A625A6218235D43089B6419E36280F3C8
:102DA0001088002001E001204042FEBD0C010020FF
:102DB000826810B5041C4068531C834205D8206803
:102DC0008154A360E3680133E360A26863689A42B8
:102DD0000CD120692168FFF785FFA368984203D0D2
:102DE00001235B42E36001E00023A36010BD00000B
:102DF000F0B585B00A9C051C009101921F1C081CAF
:102E00000126019A904204D30199FDF78FFB013608
:102E1000F7E70296BE4200D202970B9A01231A40AE
:102E2000039219D1002C01D1002415E00B9B202620
:102E30009B070ED53026002F0BD0202609E0281C3A
:102E4000311CFFF7B5FFEA68013C002A04DB002CC7
:102E5000EAD0029BA342F2D3EA680126002A34DBBF
:102E6000012F01D9013F06E00098311CFDF75EFB00
:102E7000019B984208D3019A5643F1E7301C01990F
:102E8000FDF754FB061E10D00098311CFDF74EFBD9
:102E9000331C4343009AD21A0D4B0092195C281C34
:102EA000FFF786FFEB68002BE8DA039A002A0CD0C4
:102EB000002C0AD0029AA24207D2281C2021FFF738
:102EC00077FFEB68013C002BF2DA05B0F0BDC0469D
:102ED0003E710000F0B58FB0149D07900C1C181CBB
:102EE000291C161C069302F0A3FA0699079A0023E0
:102EF00009910A950B930D920C932178651C00297A
:102F000004D10C9B002B00DD03E10DE1252900D04D
:102F1000F6E002340025671E3B782B2B0CD003D83B
:102F2000232B0DD1082308E02D2B03D0302B07D104
:102F3000022302E0012300E004231D430134EAE7F9
:102F400000243B781A1C303A092A05D80A22544337
:102F5000303C0137E418F4E7002103912E2B0DD10A
:102F600001373B781A1C303A092A07D803990A22FC
:102F70004A43303AD21801370392F2E739780423F2
:102F80000A1C9A43682A01D10137F7E7642925D042
:102F900008D8582900D193E063291AD0252900D0F8
:102FA000ACE0A8E0732900D193E00DD8702900D0DF
:102FB000A4E0336809A81A1D1968326008230022AA
:102FC00001920093102293E075296FD0782977D071
:102FD00094E033681A1D326019788CE033681A1D4A
:102FE0001B683260D9175818012205934840049293
:102FF000092806DD0A21FDF7E7FA049B0133049353
:10300000F6E70499039A914200D20492002C05D06D
:10301000059B002B01DB690700D5013CAA0702D5FF
:10302000039B002B10D0E9070ED4002C01D1002403
:103030000AE0049AA24207D209A82021FFF7B8FEAD
:103040000C9B013C002BF0DA0C9B002B56DB059906
:10305000002904DA4942059109A82D2103E06A07F5
:1030600003D509A82B21FFF7A3FE0C9B002B45DB02
:1030700003232B40022B11D1039900290ED1002CE0
:1030800001D100240AE0049AA24207D209A8302103
:10309000FFF78EFE0C9B013C002BF0DA0C9B002B03
:1030A0002CDB0094019509A8059906E0336809A86E
:1030B0001A1D19683260009401950A22039B17E0DB
:1030C000336809A81A1D196832600094019510220E
:1030D000F4E733681A1D32601C6821780134002936
:1030E0000CD009A8FFF764FE0C990029F5DA05E079
:1030F000FFF77EFE02E009A8FFF75AFE7D1C02E002
:1031000009A8FFF755FE0C9A002A00DAF9E62C1CF4
:10311000F3E60B9A002A03D007980699FFF7E2FD21
:103120000C990B9A8B180C930C980FB0F0BD08B546
:10313000002000F00DFE08BD08B5002001F04EFD96
:1031400008BD08B5002001F025FA08BD10B5174BE1
:1031500008229978114202D099780A439A70144B48
:103160008821002249015A50124922200870124930
:1031700080204002585018681049014019601049D9
:1031800010485C582040C024A404204358500E4BE3
:1031900080211A72197601211A7059700B490A7030
:1031A00099790C221142FBD110BDC04600D00740D6
:1031B0000070044000E0074044100000FFFFF3FFF0
:1031C00004100000FFFFFFF00040064000500640E2
:1031D000154B164930B51A1E8A420CD0144C0023E8
:1031E000A408A34204D098000D5801331550F8E705
:1031F000104B9A6001E00F4A93600F4A0F49002379
:10320000891A8B4204D0D45C0D48C4540133F8E7CA
:103210000C4A0D490023891A8B4204D0D01800248F
:1032200004700133F8E730BD00000000000000002A
:103230000000000000ED00E0AC720000EC73000044
:1032400000FEFF1F40FFFF1F20020020031C4170F3
:103250000020187058609860704710B54378041CBF
:103260000120FF2B08D000F0EDFA63780133DBB2C8
:10327000637000F0DBFA002010BD0020704738B505
:10328000041C0D1C00F0DEFAE3681D43E56000F04D
:10329000CDFA002038BD00000A4B00229A641A1CA7
:1032A00040329A631A1C30329A621A1C20329A6198
:1032B0001A1C10329A60044A1360044B9B60DB6056
:1032C0007047C0469801002094010020840100202E
:1032D000024B00221A60186880B270470C007C50C4
:1032E00070B54378041C0E1C002B0AD000F0AAFA1B
:1032F00063780025013BDBB26370257000F096FA1D
:1033000029E00225002926D00378002B16D0FFF7EC
:10331000DFFF6368A268984201D3C31A03E08021EB
:10332000C31A49025B1803259A4214D200F08AFAA4
:103330000023237000F07AFA02250CE003254B1CD1
:1033400009D000F07FFA0123237000F06FFAFFF735
:10335000BFFFA6606060281C70BD38B5051CFFF774
:10336000B7FF041CFFF7B4FF031BA04203D2802267
:10337000001B520283189D42F4D238BD08B50128C3
:1033800001D100F05FFA08BD08B5012801D100F0B5
:103390004DFA08BD10B5FFF77FFF094A01231360FE
:1033A0000849094A0020094C106008600421216086
:1033B000074C216007490B6007490860136010BD86
:1033C0003880045000008450000004500000045174
:1033D0000400045104000C500000045310B5044CC8
:1033E000206021710020A2602373637310BDC0466A
:1033F000E8010020F0B585B003AD374C0090019195
:10340000287069702379009904208B4261D9237B4D
:10341000002663730123AB70371C237BBB4215D995
:10342000A268BB009B58002B0DD01A79D1070AD592
:103430009968281C1B689847002804D0019A677374
:103440000526002A32D00137FFB2E6E7002E02D06F
:10345000019B012B2AD10120FFF790FF00990C203E
:10346000484322680027101800F0B6F8009B01209E
:103470006371FFF789FF0223AB70237BBB4225D921
:10348000A168BB005B58002B0DD01A7991070AD5B3
:103490009968281C1B689847002804D0019A677314
:1034A000002A15D006260137FFB2E6E70023AB70ED
:1034B000013FFFB2FF2F09D0A168BB005B58002B72
:1034C000F6D09968281C1B689847F1E7301C00E08B
:1034D000062005B0F0BDC046E8010020014B587938
:1034E0007047C046E801002013B503780021041C92
:1034F0000191022B07D0032B0BD0012B0ED10279A7
:10350000191C134801E00279114801AB01F02CF9B4
:1035100008E001A90E4801F069F903E00C4801A98F
:1035200001F006F9002812D1A2790A4BD201D2B2D9
:103530001A706278084B5200D2B21A70A278074B08
:103540001A70E278064B1A706279064B1A7016BD33
:103550000040064018408653004086500040065008
:1035600001400650184016501F2303408022DB05FF
:1035700052051A43054943099B005B18101C184368
:103580000068431E9841C0B27047C046288004407E
:103590001F2303408022DB0552051A4304494309D7
:1035A0009B005B18101C1843002303607047C04643
:1035B000288004401F2303408021DA054905114378
:1035C0004209044892001218081C104301229A4034
:1035D000026070472880044073B5124D0022072313
:1035E000041C0093281C131C012101F0E7FA201C85
:1035F000FFF77AFF637A0022217A0093281C131CBC
:1036000001F0DCFAE279084B92041A60074BA17AC8
:103610001D68281C01F006F9281CE17A01F011F957
:10362000002076BD0070044000700C59A0710000AD
:1036300008B5054801F03CF8044B1968C9B20131DE
:10364000FCF774FF08BDC0460040064044801C5E85
:1036500008B5054801F02CF8044B1968C9B20131CE
:10366000FCF764FF08BDC0460040064044801C5E75
:1036700008B5054801F01CF8044B1968C9B20131BE
:10368000FCF754FF08BDC046004006404480145873
:1036900008B5054801F00CF8044B1968C9B20131AE
:1036A000FCF744FF08BDC046004006404480145863
:1036B0000C4B1868C0B202280FD0032802D0002893
:1036C0000ED102E0FA2080000BE0074B80221B683D
:1036D0001202934205D1181C03E0044B186800E065
:1036E0000020704700700C591402002018020020BE
:1036F00008B5FFF7DDFF08BD08B5054B186801F0F8
:1037000098F80023984201D0024B1B68181C08BD92
:10371000A07100001402002008B5044B01201B68B2
:10372000DBB2002B01D0FFF7E7FF08BD0480045295
:1037300010B50C1C122830D8FCF7EEFE0A0A0D1248
:103740002F15181B2F2F1E202F2F2F2F23272B0035
:10375000FFF76EFF01E0FFF77BFF206000201FE016
:10376000FFF786FFF9E7FFF793FFF6E7FFF7A0FF04
:10377000F3E7FFF7C1FFF0E70A4B0CE0FFF7CCFFE0
:10378000EBE7094800F094FFE7E7074800F07AFF0D
:10379000E3E7FA239B002360E0E700232360022095
:1037A00010BDC046006CDC020040064008B5024B6C
:1037B000185CFFF7FFFE08BD4E71000008B5024B14
:1037C000185CFFF7D1FE08BD4E71000008B5BB20A4
:1037D000FFF7CAFE08BD08B57620FFF7EBFE08BD6F
:1037E00008B57620FFF7D4FE08BD08B57620FFF7B0
:1037F000BBFE08BD08B56620FFF7DCFE08BD08B5B6
:103800006620FFF7C5FE08BD08B56620FFF7ACFED1
:1038100008BD08B59420FFF7A7FE08BD08B5024B08
:10382000185CFFF7A1FE08BD50710000044A136840
:10383000002B04D0013B1360002B00D162B670470F
:10384000F801002072B6024B1A6801321A60704704
:10385000F801002010B50B4B0B4A1278002A04D156
:10386000013B002BF8D103200AE0064C074801F089
:103870003FFC012803D0013C002CF7D1F3E70020E6
:1038800010BDC046EA03000002D0075100E0074027
:1038900010B5064C064801F02BFC042804D0013C6E
:1038A000002CF7D1032000E0002010BDEA03000047
:1038B00000E00740F7B5071C0E1C151C0193012002
:1038C000002F15D0002913D0FFF758FD094C002117
:1038D000201C102201F0F9FD27602671002D03D075
:1038E000019BA560237363730120FFF74DFD00204A
:1038F000FEBDC046FC010020F0B5B24F8BB0019078
:1039000002913B7B01207B73FFF738FD3B790199E6
:103910008B4204D80120FFF737FD022050E1019AC5
:10392000396893005E58019B357807AC029A237082
:10393000291C02239943227266600391012901D058
:10394000052D0AD1A048012101F024FB002809D14E
:103950000120FFF719FD012032E1072D02D99A4815
:103960000321F1E701236372002400943B7B00995B
:103970008B4219D9009AB96893005B58002B0ED07E
:103980001A79D1070BD5996807A81B6898470028B2
:1039900005D0009A029B7A730424012B04D1009B6A
:1039A0000133DBB20093E1E70120FFF7EDFC87482C
:1039B00000F0A2FE039A012A1AD10138C0B20228EF
:1039C00000D9D4E0FFF764FE814B984200D9CEE0E5
:1039D000FFF72EFE7F4FB84200D9C8E0FFF748FE40
:1039E000B84200D9C3E0FFF733FEB84200D9BEE0C9
:1039F000029A012A00D0DFE003200A2D00D9DFE07F
:103A0000281CFCF789FD06080A1B4E6441472C362A
:103A10003B0000225CE003225AE06B4801F068FBA7
:103A2000012809D06848002101F0C4FAFFF712FF0D
:103A3000041C002C00D0C3E0012249E0624801F0E0
:103A400057FB042809D06048022101F0B3FAFFF7C0
:103A50001FFF041C002C00D0B2E0042238E005ABAC
:103A600007221A7000225A70F2789A703279DA704E
:103A700030E0072205AB1A70012203E0072205ABF4
:103A80001A7003225A7025E005AB02221A70012237
:103A90001A7104E005AB022201211A7019715A71E2
:103AA00018E005AB02221A700027012246481A715D
:103AB0005F7101F01DFB01280CD04348391C01F057
:103AC00079FAFFF7C7FE041CBC4203D078E0052258
:103AD00005AB1A702B1C083B05A9022B03D8737980
:103AE0008B71B379CB717378002B0DD0012D0BD96D
:103AF000B0780222384B002802D01869024302E055
:103B000018699043021C1A612F4801F077FA0028C7
:103B100000D00324002D05D1FFF79CFE00240028CF
:103B200005D04DE0012D02D1FFF7B2FEF6E70120EE
:103B3000FFF724FC019B234E07AFB37302237B7274
:103B40000025337BAB4222D9B168AB005B58002B18
:103B50000AD01A79910707D59968381C1B689847CD
:103B6000002801D0757305240135EDB2E9E7029B09
:103B7000012B11D0002C0FD00120FFF7FFFB07AE67
:103B80000023009D7372013DEDB2FF2D06D101208F
:103B9000FFF7FAFB201C13E00624EDE7094BAA000F
:103BA0009B68D358002BEED01A79D107EBD59968D2
:103BB000301C1B689847E6E7002C00D11CE7DBE7C8
:103BC0000BB0F0BDFC01002000E0074000400640C3
:103BD00040420F0080841E0000ED00E008B506485A
:103BE00001F086FA012804D00123042802D00B2317
:103BF00000E00023181C08BD00E007400368F7B58B
:103C00001D0AFF2635401B4A1E40AB009F581A4A2A
:103C1000041C9A58281C0192FFF7C8FD311C002291
:103C2000381C01F06DFA019BB6009E19227984239D
:103C30005B05334352001A60802362795B0533438E
:103C40001A60A27990235B05334312011A60E3796D
:103C50000A4A16431A043260002B0AD0084B5B5DF7
:103C6000002B06D01F22134001229A40131C054A44
:103C70001360F7BDAC710000A471000000001818BB
:103C8000B471000000E100E0F8B50368041CFF25F2
:103C9000180A2840104A1D4083009E580F4A9F581A
:103CA000FFF784FD301C291C012201F029FA301C89
:103CB000291C626801F034FAAD00227A88237D194C
:103CC0005B052B4392001A6098235B051D43637AC2
:103CD0009B012B60F8BDC046AC710000A4710000D0
:103CE00038B50C1C002802D1002C09D112E0036861
:103CF0000133F9D0051C0835FFF780FF281CF6E7D3
:103D00002368013306D0251C201C0C35FFF7BCFFAF
:103D10002C1CF5E738BD0000010AFF231940044AB6
:103D2000890003408A580120984050607047C0467F
:103D3000AC710000010AFF231940044A89000340C6
:103D40008A580120984090607047C046AC710000CE
:103D500008B5084B8200D258942302325B05134306
:103D60001B78002B02D000F04BFA01E000F0A0FA23
:103D700008BDC04654710000021C80230C325B0554
:103D800013431B78002BF7D00171704738B5094BEE
:103D90008000C4580D1C201C1830291CFFF7A0FA05
:103DA0000328F8D0002801D004232374207CC0B25B
:103DB00038BDC0460C020020F0B589B005930EABAB
:103DC0000290161C1A78830035488D0A18581E3D3B
:103DD00001903448CFB21C58002007AB1880012353
:103DE000A07CE374A37453425341DBB203936B4250
:103DF0005D41EDB20490002D02D00F0AC9B28C468D
:103E00007F000023FFB29D4204D12B1C002E01D164
:103E1000039AD3B21F4307AB1F700122002D02D0BB
:103E2000604658700222A360E2600198391CFFF7D7
:103E3000A3FF02980F99FFF7A9FF237C002B0CD159
:103E4000002E0AD0059AA660E26031780198FFF74B
:103E500093FF02980F99FFF799FF237C002B16D14F
:103E6000039B002B13D0002D01D1002E0FD0002377
:103E70000125A3600198E56001F0A6F9291C3943EA
:103E80000198FFF779FF02980F99FFF77FFF0498D9
:103E90000023A074207CE374C0B209B0F0BDC0461A
:103EA000547100000C020020104A830010B598588D
:103EB0000F4A9C58E37C002B05D0237C052B02D0B5
:103EC000237C042B09D19823821C5B051343002219
:103ED0001A7001F08BF901236374A37C002B03D0CB
:103EE000201C1830FFF7B9F910BDC046547100000E
:103EF0000C020020F7B5194B8200D358061C019321
:103F0000174B0D1CD75800920124002F24D12422D6
:103F1000081C391C01F0D9FA281C391C1830FFF78D
:103F200095F9301CFFF766FC019801F001F9009A41
:103F30000B4BD5500B4B9A5D1F231A40231C93400B
:103F40001A1C094B1A60019A9C2302325B05134329
:103F500080226C741A703C1C201CFEBD5471000041
:103F60000C0200205271000000E100E0F7B50F4E96
:103F70008400A359002701930D4B051CE2589C2394
:103F800002325B0513431F70FFF739FC094B0198A0
:103F90005A5D1F231A40012393401A1C064B183008
:103FA000DA67FFF76AF9A751F7BDC0460C02002097
:103FB000547100005271000004E100E00A4A8300DD
:103FC00070B59E58094A0C1C9D584A686B699A4204
:103FD00009D0FFF74DFB6268011C0023301C01F083
:103FE000B5F864686C6170BD547100000C0200206B
:103FF000F0B587B005930FAB1B780492334A029358
:1040000083009E58324A03919C58071C637C002B06
:1040100002D10320207456E0029B002B01D11E2305
:104020000E930023E360A360237423606374029BF8
:10403000381CA3740399FFF7C1FF9022B31C5205EB
:104040001A431021117098258422F11C52056D0528
:104050000A431D43022140231170301C2B7001F0D4
:10406000B3F8039B381C1988012300930E9B049A14
:104070000193059BFFF7A0FE0D9B002B16D0237C20
:10408000002B10D10C9B301CA3600D9BE3600C9B9C
:104090001978FFF771FE029B002B12D0381C0E9985
:1040A000FFF774FE0DE0237C042B0AD100232B7054
:1040B000F37801255B092B4202D0301C01F096F801
:1040C0006574207CC0B207B0F0BDC04654710000DA
:1040D0000C020020F0B58BB0099313AB1B7808924B
:1040E000384A049383009D58374A07919C58061C10
:1040F000637C002B02D10320207461E00499002925
:1041000001D11E221292109B1199049A002761601E
:104110002360E760A2742774301C0799A760677456
:10412000FFF74CFFAB1C0393039990235B051943E6
:1041300010230B708423EA1C5B05134302221A70C0
:10414000039A98235B051A4340231370281C05919A
:10415000069201F039F8079B129A1988301C0192D7
:10416000099B0097089AFFF727FE237CDBB2BB422E
:1041700016D105998C220B7011995205012903D192
:10418000039B1A43082301E003990A431370049A1E
:104190002B79002A12D0301C1299FFF7F7FD0DE0A1
:1041A000237C042B0AD1069B01261F70EB785B0948
:1041B000334202D0281C01F019F86674207CC0B28A
:1041C0000BB0F0BD547100000C0200201FB5069C1E
:1041D0000094079C0194089C029401240394FFF727
:1041E00007FF04B010BD1FB5069C0094079C019406
:1041F000089C029401240394FFF76CFF04B010BDE7
:10420000254A830070B59D588422E91C52050A4353
:1042100002211170214A9C5890226B1852051A43B2
:104220001278E978D2B28E0634D594214905194323
:10423000097800292ED0012A15D1EB78134202D03B
:10424000052323740CE0E368013BE360002B07D0F7
:10425000A368281C5A1CA2605978FFF78DFD19E04D
:10426000FFF722FE16E06268013A6260002A06D07B
:104270008C214905012A05D10B43082204E0FFF7F0
:1042800013FE02E00B4300221A7023685A1C2260BE
:104290002A791A7070BDC046547100000C020020CB
:1042A000C31C84204005184302230370704700009C
:1042B000F0B5904B8100CD589022EB7889B0520533
:1042C000DBB2071C0593101CAB1D1843EE78844627
:1042D0000078EC1CC0B20790942040051843007889
:1042E0000494F6B2441EA041834C069698267605A7
:1042F0000C59A91CC0B233430091114302901878A5
:104300000A78C0B2D2B20392029A0191002A30D048
:10431000079900290DD0102362461370281CFFF75F
:10432000BFFF236B002B00D1E1E0F8B2626B0121EB
:10433000D9E000281DD040221A70281CFFF7B0FFDA
:10434000231C2C331B78002B02D1009806433370BA
:10435000236B002B03D0F8B28021626B9847E37D7A
:10436000002B04D0201C18308021FEF788FF0A2380
:10437000BCE0069901228E11281C1640FFF790FF21
:104380000598012103110B4219D0049A90235B0573
:10439000134310221A70002E04D0EB785B07DB0F5A
:1043A00010D11AE0082323702C342378002B00D07E
:1043B0009DE09822009C52052243137097E0002E46
:1043C00016D0EAE7019810230370236B002B6BD003
:1043D000F8B20221626B984766E001990B70236B7B
:1043E000002B03D0F8B2626B042198472B797EE052
:1043F000039A012A26D1EB78134255D0019B1E70F7
:104400002B79231C2C331B78002B07D10298002812
:1044100004D1982300995B050B431870236B002B84
:1044200003D0F8B20821626B9847A37D002B04D01B
:10443000201C18300821FEF722FF00236360E36090
:10444000237554E02B79A268DBB2002A2AD02269B6
:104450001370236901332361A368013BA360A36840
:10446000002B44D1029B002B12D1231C2C331B7830
:10447000002B05D1982300985B050299034319701E
:10448000E37D002B04D0201C18302021FEF7F7FE1E
:10449000002363752361236B002B28D0F8B2626B75
:1044A000202120E0072321E06368002B1DD0E26873
:1044B0001378291C80220C3152050A431278002AF5
:1044C000F7D02B71E3680133E3606368013B6360FD
:1044D0006368002B0BD1E3602375236B002B06D0A0
:1044E000626BF8B21021984701E00623237009B0EF
:1044F000F0BDC046547100000C020020042907D012
:1045000007290BD19C235B0503301843802304E06B
:1045100090235B050330184310230370704700009D
:1045200038B50A4B8000C458094BDC22C3585205E9
:1045300008331A4300231360A27C1D1C9A4203D047
:10454000201C1430FEF789FE257438BD10020020AF
:104550005871000038B50C4B8000C4580B4B002537
:10456000C058D423021C08325B0513431D60084960
:104570002A1C00F058FEE37CAB4203D0201C203004
:10458000FEF76BFE657438BD100200205871000004
:104590001B000200F8B52C4A83009C582B4A061CCD
:1045A0009D58237C002B02D1637C002B4AD0DC2356
:1045B0002F1C5B0508371A1C3A431268002A16D0D4
:1045C0002A1D13431B68002B11D0A368002B0ED0AB
:1045D00022681378EB60236801332360A368013BF2
:1045E000A360A368002B02D1301CFFF799FFD423EE
:1045F0005B051F433A68002A1AD02A1D13431B6823
:10460000002B15D0EB6862681370E36A002B03D0AF
:10461000301C211C98470BE0636801336360E3683A
:10462000013BE360E368002B02D1301CFFF792FFEF
:10463000281C074900F016FE002803D0281C044956
:1046400000F02AFEF8BDC04610020020587100009C
:104650001300010084235B0503431A7800239A4268
:1046600009D080235B05013018430378012B01D169
:10467000024B00E0024B181C7047C04600127A0043
:1046800080841E0038B5084A031C083313431D7884
:10469000064A031C183313431C78FFF7DBFFEDB207
:1046A000E4B22C19E04038BD00009010000010105A
:1046B00010B50D4A831D13431B78041CDBB2002B7D
:1046C0000FD0012B07D1FFF7C5FF084B08341C435F
:1046D0002378D84006E00020022B03D1044B186851
:1046E00000E0044810BDC046000008110000901012
:1046F00014020020006CDC020C4A831D13431B785B
:10470000DBB2012B08D0002B04D00320022B0CD0ED
:1047100005200AE0181C08E080235B0501301843DF
:104720000078431E98410223181A704700000811B0
:104730009C22031C52051830024380201070074A47
:1047400000201A43107006489A1D02431078C0B228
:104750000028F8D1034B0B607047C04600000813D7
:1047600000000811006CDC02F8B5041C0D1C171CBD
:104770001E1CFFF7C1FF012802D1002D04D007E065
:10478000022805D1012D03D1201C311CFFF7D0FFD9
:104790008023621C5B0513431D7084235B05234348
:1047A00002221A700C4A231C083313437A00D2B237
:1047B0001A700A4B402223431A70094AA31D13435F
:1047C0001B78012BF9D1002D01D1064B00E0064BDF
:1047D0003B4133600020F8BD00009010000008133A
:1047E0000000081180841E0000127A000A4A10B5E9
:1047F0001468031C0120002C0CD0084880241843A6
:104800000470074C981D204300780228F9D11268E3
:1048100000200A6010BDC0461402002000000813EA
:10482000000008119C235B05C9011843C9B201703F
:1048300070479C235B0518430078431E9841C0B223
:10484000704794235B0549011843C9B20170704752
:1048500070B506680C1C301C2049FBF767FE1F4929
:10486000051C301CFBF7A6FE0E1C081CE1210901EB
:10487000FBF75CFEE121E0800901301CFBF79AFEAA
:104880000E1C081C3C21FBF751FE3C212081301CF2
:10489000FBF790FE124BA17223806E23FF33228818
:1048A0009D4209D9013292B2ED1A032322801A40A7
:1048B000534253416E33F1E7930701D0094900E0B9
:1048C00009490123CA5C954201D8638003E00133A2
:1048D000AD1A0D2BF6D1A58070BDC04680510100E8
:1048E000B2070000837100007671000030B51149F5
:1048F0000488031C62180020812A19D85A88511E86
:104900000B2915D899884D1E1E2D11D8DD88172D1D
:104910000ED81D893B2D0BD89B7A3B2B08D8A307BB
:1049200001D0054B00E0054B9B5C8B424041C0B27F
:1049300030BDC0464EF8FFFF837100007671000065
:1049400070B5124A85880388AD186E22FF325A432B
:104950004488AA189D0852190D4D6600755B5219BE
:104960009D0702D1022C00D8013A0A60C488E122D6
:104970000389120162433C246343D318827A086896
:104980009B18044A42439B180B6070BD4A05F5FF13
:104990005C71000080510100084B1A6880231B02E3
:1049A0009A420AD1031CA020103340051843036823
:1049B000002B02D180235B000360704714020020AB
:1049C00010B58022041C5205103400231443012129
:1049D000216023604360016090211C304905014340
:1049E0000B608821490501430B608421490501437F
:1049F00010430B60036010BD021C902314325B0552
:104A0000134300221A604260102201601A6070474E
:104A10000068086070470000114B820070B5D558DF
:104A2000104B802292051A60041C281CFFF7C8FF57
:104A3000281CFFF7B1FF0C4B0C4E195D01251F22FE
:104A40001140345D2B1C8B40191C2240084BC020A8
:104A5000A840954019501D5019601D6070BDC0469A
:104A6000947100003C80845E9171000090710000A0
:104A700000E100E0F7B5124B8000C7580025081C84
:104A80000E1C0195FFF732FF041EAC4216D001A99F
:104A9000301CFFF755FF281CFEF72AFE011C802062
:104AA0000002814206D0FBF741FD011C0198FBF793
:104AB0003DFD0190381C0199FFF79EFF201CFEBDB3
:104AC00094710000F7B5134B8000C5580024281CD2
:104AD0000E1C01A90194FFF79BFF201CFEF708FEA6
:104AE000041C8020000284420ED00B4B211C043594
:104AF0001D43FBF71BFD2D68019F211C4743A8B2F6
:104B0000FBF714FD3F180197311C01A8FFF7A0FE29
:104B1000F7BDC0469471000000007810F0B5194B45
:104B2000800085B0C5580026081C0F1C0192039612
:104B3000FFF7DCFE041EB44201D100241EE0381C45
:104B400003A9FFF7FDFE301C2F68FEF7D1FD011C05
:104B500080200002814206D0FBF7E8FC011C03988C
:104B6000FBF7E4FC0390039BBB42E6D3AB60019AE6
:104B700088235B051C351D4393002B60201C05B06A
:104B8000F0BDC04694710000044B8000C2588823D9
:104B90001C325B0513438900196070479471000053
:104BA000054B8000C258882314325B0513431868F4
:104BB000431E9841C0B27047947100006B461A784A
:104BC000E023DB0212041A400B07111C1943024BAD
:104BD000C01801607047C0464410000008B5084B7B
:104BE0008200D258902303325B0513431B78002BBD
:104BF00002D000F015F901E000F07CF908BDC046D4
:104C00009C7100000C4A08B580000C4B8158C358B9
:104C10009C2003314005002208431A710270942041
:104C2000400501430A701A7F002A03D0181C203067
:104C3000FEF713FB08BDC0469C7100001C0200205B
:104C40001C4BF7B53022061C0C1C8700081C0021E9
:104C5000FD5800F03AFC301CFEF7BDFDFEF708FDE4
:104C60002060281C00F06EFB201C00212030FEF785
:104C7000EDFA9023EA1C5B051343019210221A708F
:104C8000281C032100F09EFB281C002100F0C0FB23
:104C9000094BFC50094B9A5D1F231A400123934096
:104CA0001A1C074B1A60019A98235B051343402294
:104CB0001A70F7BD9C7100001C0200209871000062
:104CC00000E100E0F8B50D4E84000D4BA759051C1E
:104CD000E05800F037FB381C2030FEF7CEFA094BC5
:104CE000281C5A5D1F231A40012393401A1C064BAF
:104CF000DA67FEF775FD0023A351F8BD1C02002002
:104D00009C7100009871000004E100E00A4B8000F3
:104D100070B5C558094B0C1CC358161C281C1A68C2
:104D2000096800F016FB30602179281C6279A379AC
:104D300000F05BFB70BDC0469C7100001C020020AF
:104D4000F7B51F4A83009C581E4A061C9D582279BD
:104D50000420002A33D1002903D0301C01AAFFF718
:104D6000D5FF9821EA1C49051143002340200B7010
:104D7000087027699F4203D1301CFFF743FF1DE0F5
:104D800001212171A36194235B052B43197807202E
:104D9000002914D0A368002B03D019780133A36035
:104DA00000E0191CA9712369013B2361A369013348
:104DB000A3619C235B051A43802313700020FEBD72
:104DC0001C0200209C710000F8B5134C8600134FA4
:104DD0003459069DF65901272777A2602561E360C3
:104DE0006561FFF7ADFF051E14D1201C2030079927
:104DF000FEF776FA0328F8D000280BD09C22033661
:104E00005205002332432371137094225205164336
:104E100033700325281CF8BD1C0200209C71000083
:104E200010B51F4B8200D3581E49525819790029DA
:104E300034D05969002911D09C21490511430978C2
:104E400000290BD09479D968E4B2002903D00C7002
:104E5000D9680131D9605969013959611969002945
:104E600014D0942149051143097800290ED099687E
:104E7000002903D00C780131996000E00C1C94717A
:104E80001A69013A1A619A6901329A611A69002A0B
:104E900004D15B69002B01D1FFF7B4FE10BDC04601
:104EA0001C0200209C71000008B5104B8000C35804
:104EB0000F4A81580022581CC2779C2003314005BC
:104EC0000843DA621A701A835A629A621A6302708D
:104ED0009420400501430A701A1C38321278002AC7
:104EE00003D0181D0121FEF7CAF908BD1C020020DD
:104EF0009C71000038B5254B8200D3582449525884
:104F0000591CC97F00293FD0D96A002916DB94219A
:104F1000490511430978002910D0596A1C7F0029DE
:104F200005D0DD6A002D02DD0C78013159629471E3
:104F3000D96A0139D962596B01315963D96A00299B
:104F400005DA9421D41C4905214300240C70196B07
:104F5000002911DD9C2149051143097800290BD056
:104F600091799A6AC9B2002A03D011709A6A013203
:104F70009A621A6B013A1A63DA6A002A04DC1B6B24
:104F8000002B01DCFFF790FF38BDC0461C0200205B
:104F90009C710000012903D0032909D1842300E07A
:104FA00094235B0518430078431E9841C0B200E08B
:104FB00000207047034B013049011843C9B201700A
:104FC0007047C0460000881294235B0502304901F7
:104FD0001843C9B201707047034B0230890118436E
:104FE000C9B201707047C046000008138C235B05EE
:104FF0000230C9001843C9B201707047F7B5384E86
:10500000C21C164332780B78041C0D1CD2B201204E
:10501000072B63D8181CFBF77FFA04192A0D192AED
:105020002A3A304B01341C43002323703378012B80
:10503000FCD152E00320012A50D12A4B01341C43F9
:10504000402323703378042BFCD146E00021012B50
:1050500001D004230221327803209A423ED1201C41
:10506000FFF7A8FF204B04211A698A4333E0022787
:10507000BB4207D10B790027BB4203D04979201CE2
:10508000FFF7AAFF194B01341C43277019E0174B97
:10509000621C1A43042111706A78A11C0B431A7018
:1050A0006B78002B06D1AB78002B03D0E978201C5D
:1050B000FFF78AFFAB79002B03D0E979201CFFF7BB
:1050C00095FF33780421DBB20193019B01330193F7
:1050D000054B1A690A431A6130BF0020FEBDC04665
:1050E000000030100000881200ED00E000001010F9
:1050F000024B033018430078C0B2704700003010F4
:1051000014308023012A04D11B058A401843111C46
:1051100004E0DB04184301238B40D943016070474E
:1051200001238B40002A01D0436000E08360704778
:105130000023C222037043708370C3704371837174
:10514000C371037242728372C3727047F0B587B045
:105150000293FA239B0053430027012504900591F5
:1051600001936D423C1C00970123A340039300264A
:10517000144A059893195988039B5943FBF7D6F9AC
:10518000019A831A824200D9131AAB4204D20D4A03
:105190000094975D1D1E02D00436C82EE8D101345C
:1051A000032C01D0002DDFD1029B002B00D01D600D
:1051B000009A3F231F4093011F43049BFFB25F707F
:1051C00007B0F0BDB6710000942302305B050343C5
:1051D0001B78002B04D088235B051843042303E0CD
:1051E00080231B0518433023037070479422831CCF
:1051F00052051A431278011C0220012A12D1802282
:10520000D2041343CF221A708023DB00C8782022F7
:10521000024004D0013B002B03D0C046F6E7101C2F
:1052200000E009207047012310B58B40041C080CD6
:10523000042816D8FBF770F90A030507090004349F
:1052400004E0083402E00C3400E01034002A03D0FB
:1052500080221205144303E08022D2041443DB436E
:10526000236010BD021C10B5080C0023042810D8C0
:105270000124FBF751F9030507090B00136806E049
:10528000536804E0936802E0D36800E01369CB4000
:105290002340181C10BD0000294A031C881800B5C3
:1052A00010284BD8FBF738F9413A251E1710094A48
:1052B0004A4A4A2C4A4A4A4A3300D0225205043309
:1052C00013438022520336E0CC22520504331343A9
:1052D000802212032FE0C822520504331343802298
:1052E000D20228E0C42252050433134380229202E2
:1052F00021E0C022520504331343802252021AE0F7
:10530000FC225205043313438022120613E0F822D4
:105310005205043313438022D2050CE0BC2252050F
:10532000043313438022120205E0B82252050433ED
:1053300013438022D2011A60002000E0032000BD48
:10534000F2FFFEFF0423C3700023837043700371D8
:105350007047F0B589B00692120B0392012608231C
:1053600007220790059100257642029301920227B9
:1053700000246B1C191C794306980493FBF7D6F89C
:10538000059A824206D3131A9E4203D91E1C03902B
:105390000294019501347F00092C01D0002EE8D140
:1053A000072D03D0002E01D0049DE0E7019B039858
:1053B0001A0170231340029A1343079ADBB2537009
:1053C00009B0F0BD8423C21C5B05134301220A40CF
:1053D0005200D2B289071A70C90F90235B050230C0
:1053E00009011843C9B20170704710B58C2403300D
:1053F0006405C9000443C9B221708821490592009F
:105400000143D2B20A70802252051043037010BDCE
:10541000802302305B05012203430A4089071A708A
:10542000C90F8C235B05C9001843C9B201707047CE
:105430004118884203D0002303700130F9E7704718
:10544000084B10B5041C002B02D0002100E000BF67
:10545000054B1868836A002B00D09847201C00F089
:105460004BF8C046000000008072000070B50E4B83
:105470000E4D0024ED1AAD101E1CAC4204D0A3004A
:10548000F35898470134F8E701F0FCFE084B094D4A
:105490000024ED1AAD101E1CAC4204D0A300F3583A
:1054A00098470134F8E770BDA4720000A4720000B0
:1054B000A4720000A872000010B50023934203D02C
:1054C000CC5CC4540133F9E710BD031C821893422D
:1054D00002D019700133FAE77047031C0A780131D2
:1054E0001A700133002AF9D170470023C25C0133DE
:1054F000002AFBD1581E7047FEE7C046D8070000BF
:105500008A070000B807000012070000B807000073
:10551000AE070000B8070000120700008A0700006D
:105520008A070000AE070000120700000A0700000B
:105530000A0700000A070000BE070000000A00007A
:10554000FA090000FA090000F00900005009000003
:1055500050090000E6090000F009000050090000B1
:10556000E609000050090000F00900004E090000A3
:105570004E0900004E090000880A000009675761C3
:105580007270537069436F6D6D6F6E53696E6B42CD
:1055900075666665725B25645D203D205B3078250D
:1055A0003032585D0A001B5B306D1B5B343B34337B
:1055B0006D1B5B313B33376D0D53616E6974792020
:1055C000636865636B206661696C6564211B5B3091
:1055D0006D0A001B5B306D1B5B343B34316D1B5B14
:1055E000313B33376D0D496E76616C69642073759C
:1055F00070706C7920766F6C74616765205B2564D0
:105600005D206D56211B5B306D0A0077617270530F
:1056100065744C6F77506F7765724D6F6465286B5A
:1056200057617270506F7765724D6F6465564C505C
:10563000532C2030202F2A20736C656570207365F1
:10564000636F6E6473203A20697272656C6576616F
:105650006E742068657265202A2F292829206661CA
:10566000696C65642E2E2E0A000D0A0A0A0A5B2058
:105670002A09090909576172702028485720726564
:10568000766973696F6E204329202F20476C6175FE
:105690007820284857207265766973696F6E2042BA
:1056A000290909092A205D0A000D5B202009090942
:1056B0000920202020202043616D627269646765A3
:1056C000202F2050687973636F6D706C61622020A9
:1056D000200909090920205D0A0A000D0953757087
:1056E000706C793D25646D562C0944656661756C56
:1056F000742054617267657420526561642052653C
:105700006769737465723D3078253032780A000D10
:10571000094932433D25646B622F732C095350496C
:105720003D25646B622F732C09554152543D25640D
:10573000622F732C094932432050756C6C2D5570C3
:105740003D25640A0A000D0953494D2D3E53434738
:1057500043363D30782530327809095254432D3E86
:1057600053523D30782530327809095254432D3E4A
:105770005453523D3078253032780A000D094D439C
:10578000475F43313D3078253032780909094D4370
:10579000475F43323D30782530327809094D434721
:1057A0005F533D3078253032780A000D094D43476C
:1057B0005F53433D3078253032780909094D43471E
:1057C0005F4D433D30782530327809094F53435FB0
:1057D00043523D3078253032780A000D09534D434D
:1057E0005F504D50524F543D307825303278090982
:1057F00009534D435F504D4354524C3D3078253052
:10580000327809095343422D3E5343523D307825A7
:105810003032780A000D09504D435F5245475343DB
:105820003D30782530327809090953494D5F53439B
:105830004743343D307825303278095254432D3E69
:105840005450523D3078253032780A0A000D09252F
:10585000647320696E205254432048616E646C6505
:105860007220746F2D646174652C09256420506D5D
:105870006772204572726F72730A000D09307825C5
:10588000303278202D2D3E205B3078253032782044
:10589000307825303278203078253032785D0A0033
:1058A0000D09307825303278202D2D3E2030782596
:1058B0003032780A000D09307825303278202D2DCD
:1058C0003E202D2D2D2D0A000D0A0925642F25645B
:1058D000207375636365737320726174652E0A00AB
:1058E0000D0925642F2564207375636365737365E3
:1058F00073206D617463686564207265662E20761E
:10590000616C7565206F66203078253032782E0AFC
:10591000000D0925642062616420636F6D6D616E06
:1059200064732E0A0A000A0A0A0D426F6F74696EC8
:105930006720576172702C20696E20332E2E2E2026
:1059400000322E2E2E2000312E2E2E0A0A0A0D0095
:1059500041626F757420746F207377697463682077
:1059600043505520746F20564C5052206D6F646523
:105970002E2E2E2000776172705365744C6F775015
:105980006F7765724D6F6465286B57617270506FE9
:105990007765724D6F6465564C50522829206661B8
:1059A000696C65642E2E2E0A00646F6E652E0A0DDA
:1059B0000041626F757420746F204750494F5F44F7
:1059C00052565F496E697428292E2E2E200041629E
:1059D0006F757420746F206C6F77506F776572509D
:1059E000696E53746174657328292E2E2E20004130
:1059F00044584C3336323A20535049207472616E09
:105A000073616374696F6E20746F207265616420C6
:105A100044455649445F4144206661696C65642E83
:105A20002E2E0A004144584C3336323A2044455613
:105A300049445F4144203D205B3078253032585D39
:105A40002E0A004144584C3336323A2053504920F4
:105A50007472616E73616374696F6E20746F20720B
:105A60006561642044455649445F4D535420666146
:105A7000696C65642E2E2E0A004144584C33363230
:105A80003A2044455649445F4D5354203D205B30F5
:105A900078253032585D2E0A00426F6F7420646F93
:105AA0006E652E0A002D2D2D2D2D2D2D2D2D2D2DFC
:105AB0002D2D2D2D2D2D2D2D2D2D2D2D2D2D2D2D16
:105AC0002D2D2D2D2D2D2D2D2D2D2D2D2D2D2D2D06
:105AD0002D2D2D2D2D2D2D0A006163635F7820283B
:105AE000672F34303936292C206163635F79202891
:105AF000672F34303936292C206163635F7A202880
:105B0000672F34303936292C200A002536642C20A2
:105B100020202020202020202536642C202020201A
:105B20002020202020202025366420004D616B6934
:105B30006E67206465636973696F6E2C206375728C
:105B400072656E743A2053746174696F6E61727914
:105B5000200A004D616B696E672064656369736933
:105B60006F6E2C2063757272656E743A2057616C8B
:105B70006B696E67200A004D616B696E6720646512
:105B8000636973696F6E2C2063757272656E743A07
:105B90002052756E6E696E67200A004D616B696EEA
:105BA00067206465636973696F6E2C206375727218
:105BB000656E743A20556E646566696E6564206F23
:105BC00072205472616E736974696F6E200A0044AA
:105BD000454255473A200025642C2025642C202579
:105BE00064200A0053746174653A2052756E6E69C0
:105BF0006E6720776974682070726F626162696C89
:105C00006974792025642025252C2057616C6B69E7
:105C10006E6720776974682070726F626162696C68
:105C20006974792025642025252C205374617469BA
:105C30006F6E61727920776974682070726F62612B
:105C400062696C697479202564202525005374618C
:105C500074653A2057616C6B696E67207769746868
:105C60002070726F626162696C69747920256420AA
:105C700025252C2053746174696F6E6172792077C9
:105C80006974682070726F626162696C69747920EE
:105C900025642025252C2052756E6E696E6720774D
:105CA0006974682070726F626162696C69747920CE
:105CB00025642025250053746174653A205374616E
:105CC00074696F6E61727920776974682070726F81
:105CD000626162696C6974792025642025252C2015
:105CE00057616C6B696E6720776974682070726F9A
:105CF000626162696C6974792025642025252C20F5
:105D000052756E6E696E6720776974682070726F65
:105D1000626162696C6974792025642025250045DB
:105D20004E44204F46204353560A0A000D53656CDB
:105D30006563743A0A000D2D202761273A207365A8
:105D4000742064656661756C742073656E736F7220
:105D50002E0A000D2D202762273A207365742049F2
:105D60003243206261756420726174652E0A000DF1
:105D70002D202763273A20736574205350492062F1
:105D800061756420726174652E0A000D2D202764F0
:105D9000273A20736574205541525420626175641E
:105DA00020726174652E0A000D2D202765273A2088
:105DB0007365742064656661756C742072656769CB
:105DC0007374657220616464726573732E0A000DCA
:105DD0002D202766273A20777269746520627974CE
:105DE0006520746F2073656E736F722E0A000D2D1F
:105DF000202767273A207365742064656661756C97
:105E0000742073656E736F7220737570706C792077
:105E1000766F6C746167652E0A000D2D2027682748
