:1000000000060020E90400001105000011050000B1
:1000100000000000000000000000000000000000E0
:1000200000000000000000000000000011050000BA
:100030000000000000000000110500001105000094
:100040001105000011050000110500001105000058
:10005000110500001105000011050000B1070000A6
:1000600017290000110500002129000011050000DA
:100070002B290000110500001105000011050000EA
:100080001105000011050000110500001105000018
:1000900089070000A10700001105000011050000FC
:1000A00011050000110500001105000011050000F8
:1000B0001105000011050000C10700001105000036
:10040000FFFFFFFFFFFFFFFFFFFFFFFFFE3DFFFFBF
:1004100010B5064C2378002B07D1054B002B02D0DA
:10042000044800E000BF0123237010BD48FFFF1FF8
:1004300000000000486A000008B5084B002B03D0FC
:100440000748084900E000BF07480368002B03D0B5
:10045000064B002B00D0984708BDC04600000000A6
:10046000486A00004CFFFF1F44FFFF1F0000000010
:10047000164B002B00D1144B9D46402292029A1A33
:10048000924600218B460F461348144A121A04F074
:1004900016FD0F4B002B00D098470E4B002B00D0C1
:1004A00098470020002104000D000D48002802D0CC
:1004B0000C4800E000BF04F0D3FC2000290000F04D
:1004C0001DFE04F0B7FCC046000008000006002036
:1004D000000000000000000048FFFF1F8C02002009
:1004E000000000000000000072B606480649074AF6
:1004F00002600A6002F01EFA02F05EFA62B6FFF7CE
:10050000B7FF000080E100E080E200E0FFFFFFFFB6
:10051000004800471105000002B47146490849002F
:10052000095C49008E4402BC7047C046002934D0A3
:100530000123002210B488422CD301242407A142B5
:1005400004D2814202D209011B01F8E7E400A14272
:1005500004D2814202D249005B00F8E7884201D30D
:10056000401A1A434C08A04202D3001B5C082243E5
:100570008C08A04202D3001B9C082243CC08A04256
:1005800002D3001BDC082243002803D01B0901D042
:100590000909E3E7101C10BC7047002801D00020B7
:1005A000C04307B4024802A14018029003BDC046F0
:1005B000D90000000029F0D003B5FFF7B9FF0EBC49
:1005C0004243891A1847C046002941D010B4041C80
:1005D0004C40A44601230022002900D549420028AE
:1005E00000D5404288422CD301242407A14204D2E2
:1005F000814202D209011B01F8E7E400A14204D2C2
:10060000814202D249005B00F8E7884201D3401AD8
:100610001A434C08A04202D3001B5C0822438C08FA
:10062000A04202D3001B9C082243CC08A04202D364
:10063000001BDC082243002803D01B0901D0090954
:10064000E3E7101C6446002C00D5404210BC704704
:10065000002806D003DB0020C043400801E08020D2
:10066000000607B4024802A14018029003BDC0462C
:10067000190000000029EBD003B5FFF7A7FF0EBC5F
:100680004243891A1847C0467047C0468378022003
:100690009842804140427047437A0020013B012B41
:1006A00003D90B78012001330B707047031C3038DD
:1006B00009280BD91A1C613A2738052A06D91A1CB1
:1006C000413A0020052A01D8181C3738704700002D
:1006D000174AC0239B001360164A1360164A136022
:1006E000164A00231360164A1360164A1360164A0E
:1006F0001360164A1360164A1360164A1360164AAE
:100700001360164A1360164A1360164A1360164A9D
:100710001360164A1360164A1360164A1360164A8D
:100720001360164A1360164A1360164A1360704726
:100730000090145404901454089014540C901454C1
:100740001090145414901454189014541C90145471
:1007500020901454249014543090145400A0145435
:1007600004A0145408A014540CA0145410A0145441
:1007700014A0145418A014541CA0145428A01454E9
:100780002CA0145434A0145408B5002003F07AFEB1
:10079000002803D00020011C03F068FE08BD000003
:1007A000024B1A6801321A607047C04664FFFF1F8F
:1007B00008B50248072103F031FA08BD00C0074020
:1007C000024B012252421A607047C046A09004407A
:1007D00008B5002002F02BFC094AC0239B001360DF
:1007E000084A00201360084B084A1B6808495360F8
:1007F0000323107250729072137003F05BFA08BDFD
:100800000CA0145410A0145418FEFF1F6C000020FC
:10081000D800002010B5002003F0AEFA0A4B0024E7
:100820001C600A4B0A4A1C6080235B001360094A63
:100830000620136002F096FE082002F093FE201CB2
:1008400002F0FAFB10BDC0460CA0145410A01454C2
:10085000189014541C901454064B10B5041C0A1C18
:100860001B68211C002003F0D9FA431E9841400068
:1008700010BDC0461CFEFF1F37B5002002F0B9FBBB
:100880000E4AC0239B0013600D4A0E4C13600E4AA3
:10089000002513600D4B25716571A5711A68FA2347
:1008A0009B005343281C0A49236003F03BFE281C8D
:1008B000211C01AA03F09CFE37BDC04618901454B9
:1008C0001C9014546400002000A014542CFEFF1F40
:1008D0009000002008B5002003F066FE0A4A80233D
:1008E0005B001360094A08201360094A136002F094
:1008F00039FE062002F036FE092002F033FE002009
:1009000002F07CFB08BDC046189014541C9014548F
:1009100000A0145408B5094A80235B001360084AFC
:1009200009201360074A1360074A136002F00CFEA7
:100930000E20FF3002F008FE08BDC046309014546F
:10094000249014542090145404A0145408B500208A
:1009500002F05EFB054A80239B001360044A0020DE
:100960001360044902F0DEFE08BDC0460CA014541A
:1009700010A01454A8FFFF1F08B5002002F00EFFBE
:10098000034B00201860034B186002F046FB08BDC3
:100990000CA0145410A0145408B50620FF3002F027
:1009A000E1FD024B186802F0CCF808BD10FEFF1FF5
:1009B0000FB4F0B585B00AAB04CB244C40250393AB
:1009C000009500200A9903AA231C01F077FE204E0F
:1009D000071E1CDA1F4C0020211C01F061FD33783A
:1009E000002B2ED0FFF7F4FE1B4801F01BFB201C50
:1009F00004F075FA411C201CFFF72EFF002803D0DD
:100A00000020164901F04CFDFFF704FF19E0337890
:100A1000002B13D0FFF7DCFE0F4801F003FB391E5B
:100A2000402900DA291C201CFFF716FF002803D0FC
:100A300000200A4901F034FDFFF7ECFE052002F02A
:100A400080F805B0F0BC08BC04B0184722000020B4
:100A5000CCFFFF1F3A670000E40C00008067000035
:100A600038B5784D041C2B88984200D1E8E0764BCD
:100A7000C218764B92B29A4200D9DDE0744A8023C4
:100A80005B001360734A1360734A1360734A136008
:100A9000734A1360734B984200D17EE024D8724BA6
:100AA000984263D010D8714B984249D0FA23DB00AA
:100AB000984256D0E123DB00984200D0AFE00C20F2
:100AC000FF3002F04FFD3FE0694B984257D096232C
:100AD0001B0198425CD0674B984200D09FE00C20ED
:100AE000FF3002F03FFD4EE0634B984270D00FD8CC
:100AF000624B98425ED0AF231B01984263D0604B9B
:100B0000984200D08BE00C20FF3002F02BFD55E026
:100B10005C4B984269D007D85B4B98427FD10C2040
:100B2000FF3002F01FFD64E0C8231B01984265D02E
:100B3000564B984273D10C20FF3002F005FD61E066
:100B40000C20FF3002F000FD8520400002F00AFD7D
:100B50000820FF3002F006FD8320400002F002FD75
:100B600060E00C20FF3002F0FDFC03E00C20FF30C1
:100B700002F0EAFC8520400002F0E6FCE8E70C20E9
:100B8000FF3002F0E1FC8520400002F0EBFC0CE0BD
:100B90000C20FF3002F0E6FC03E00C20FF3002F0F6
:100BA000D3FC8520400002F0CFFC0820FF3002F08B
:100BB000CBFCD1E70C20FF3002F0C6FC85204000C2
:100BC00002F0D0FC0CE00C20FF3002F0CBFC03E084
:100BD0000C20FF3002F0B8FC8520400002F0B4FC8D
:100BE0000820FF3002F0BEFC14E00C20FF3002F0C1
:100BF000ABFC8520400002F0B5FC07E00C20FF3084
:100C000002F0B0FC8520400002F09EFC0820FF307E
:100C100002F09AFC8320400002F096FC02E01C489F
:100C2000FFF7C6FE1B4B186801F08BFF0620FF3054
:100C300002F08AFC2C8003E01748211CFFF7B8FE65
:100C400038BDC04608FEFF1FF8F8FFFFDC050000B6
:100C500014A0145418A014541CA0145428A0145404
:100C60002CA01454C4090000340800006C070000D4
:100C7000FC08000098080000540B00008C0A0000DB
:100C8000280A00001C0C0000B80B0000E40C000057
:100C9000214F000010FEFF1F4E4F000010B5041C36
:100CA000002901D0FFF714FD0021022000F0E6FF2B
:100CB0000420211C00F0E2FF002802D00148FFF7C9
:100CC00077FE10BD864F0000F8B5051C2648171C9E
:100CD0000C1CFFF76DFE2548FFF76AFE291C221C3D
:100CE0002348FFF765FE234B23481968234B244D07
:100CF0001A68244B244E1B68FFF75AFE234B244CE2
:100D0000F15824486A692B68FFF752FE217862780F
:100D1000A379C9B2D2B2DBB21F48FFF749FE1F4B1D
:100D2000217A227E1B78C9B2D2B2DBB21C48FFF70F
:100D30003FFE1C4B1C4819785A781C4BC9B2D2B2E2
:100D40001B69FFF735FE1A4B1A4899781A4BC9B23E
:100D5000F2586B68FFF72CFE184B3A781968184860
:100D6000FFF726FEF8BDC046E44F00002450000007
:100D70005650000004FEFF1F8A5000002CFEFF1F8B
:100D800000D0034018FEFF1F007004403C1000001C
:100D900000400640C1500000F750000000500640DF
:100DA0002651000000E007405651000000ED00E031
:100DB00000D00740905100003410000064FFFF1F76
:100DC000C851000037B51C4CFF236372FFF700FDCC
:100DD0001A4801F027F9251C01F09EFB01906C7A5E
:100DE0002023E4B2221C9A43131C423B172B03D945
:100DF000231C313B072B1BD8002809DAFF2CEBD032
:100E0000211C002001F058FBFFF704FD201C12E01C
:100E1000FF2CF5D101A80121FFF71EFD002803D00A
:100E20000020074901F03CFBFFF7F4FC019802E0C9
:100E30000028D1DBEEE73EBDCEFFFF1FE40C000033
:100E40008067000070B5FFF7BDFF051CFFF7BAFF14
:100E5000FF24061C281C2040FFF728FC051C301C22
:100E60002040FFF723FC2D012818C0B270BD70B5DB
:100E7000FFF7A8FF061CFFF7A5FF051CFFF7A2FF61
:100E8000041CFFF79FFFFF231E40FA2292001D4023
:100E9000303E56431C406422303D5543303C0A22CC
:100EA0005443751903402C19303BE01870BD000005
:100EB000F0B591B01D1C16AB0C91197817AB0592CB
:100EC0001A7818AB1B78041C0D931CAB1B780E937F
:100ED0001DAB1B8808936B465933DB7F09931FAB0F
:100EE0001B880F9320AB1B780A930B1C914200D9EF
:100EF000131CDBB20293002D03D10599002906D102
:100F000002E0059A002A02D05348FFF751FD0898E5
:100F1000FFF7A6FD201CFFF74BFD0027089C049758
:100F20000697039700230793199B07998B426ADB67
:100F300000261A998E4262DA02990C9A89190B914D
:100F4000C8B20121904700283BD1039B0899013387
:100F500003938C4204D9643CA4B2201CFFF780FDAB
:100F6000002D19D0EB68099A9B7804999B1A5A4274
:100F700053410A9AC9180491002A38D0EA68EB68EC
:100F8000E86802998078711812785B78009033488D
:100F90000B91FFF70DFD2AE0059A09999378CB1A7A
:100FA0005A425341049AD2180A9B0492002B1ED035
:100FB0000599029B8A782A48D2B2F118FFF7F8FC0B
:100FC00015E002280FD10B992648FFF7F1FC06998E
:100FD0000F9A01310691944209D26434A4B2201CC4
:100FE000FFF73EFD03E0033843424341FF181B9BDC
:100FF000002B02DD181C01F0A4FD013699E7079AC9
:101000000132079290E70E9A002A1BD1039B0699A2
:1010100015485A18191CFFF7CBFC322001F091FD3E
:10102000039A099B04991148FFF7C2FC322001F092
:1010300088FD391C0E48FFF7BBFC322001F081FD12
:1010400011B0F0BD029B0D9A0133DBB202939342C3
:1010500000D867E7DAE7C046214F0000F6510000EC
:101060001B52000030520000435200005B5200004F
:101070008C52000070B588B0151C0CAA16780C4A6A
:101080000C1C126806A94A6004AA1570094D088054
:101090002D6805A80670009001930295231C00207E
:1010A00002F030FC431E9841400008B070BDC046BD
:1010B00004FEFF1F00FEFF1FF7B5CB1DDB08DB00A2
:1010C0006A46D21A02AF9546061C0C1CFFF7D4FBE9
:1010D000094B02AD1B680020321C019300942B1CAD
:1010E000011C03F0E3FA041C631E9C41FFF7F2FBB2
:1010F000BD46A000F2BDC0460CFEFF1FF0B5BDB05E
:1011000029AE301C0021072203F0D9FE19A81FAA1E
:1011100033901BA9379221AB23A827AA3491389387
:10112000399030AB25A93B920320E84A01241DAF3A
:1011300018713A91002015A93291309218933470A9
:101140003596369701F040FF201C01F03DFFE04B43
:10115000802212021A6001F011FD0020011C021C05
:10116000031C009401F0E8F9DA48FFF721FCFA20AB
:10117000800001F0E6FCD848FFF71AFCFA20800056
:1011800001F0DFFCD548FFF713FCFA20800001F0E6
:10119000D8FCD34A231C0221D24801F013FD211CA4
:1011A000201C01F01BFD002003F0A8F80025FC2303
:1011B0002DA9DB00281C0B804C808C80CD800D81FC
:1011C0008D7203F0C9F8291C221C15A803F077FEC4
:1011D000299882211D90B2886944BA80B379032688
:1011E0003E70BB7120AF1F901FAE3A800B7005217F
:1011F00031701AAF6A21199069443A80022619AFFA
:101200000B703E7072271CA96F441B900A803B70C4
:1012100004211BAF39708A2722A96F4421900A80CC
:101220003B7021A908270F70922724A96F442390AF
:101230000A803B70092123AF3970259026A80280CF
:101240009A226A44137027A80A2325AF18AA3B7074
:101250000570231C33A801F045FFA348FFF7A8FB46
:10126000291C301C00F00AFD08218843C0B2A842A6
:1012700002D09E48FFF79CFB9D48FFF799FB9D48D5
:10128000FFF796FB9C499D4802F042F99C4C201CBC
:10129000FFF78EFB9B4AC0239B0013609A4A9B4832
:1012A00013609B4A251C1360FFF782FBFFF710FABF
:1012B000201CFFF77DFB0E209621FF30090100F076
:1012C0009BFD0020012100F0EFFD002803D0914894
:1012D000FFF76EFB05E0904B9048DB689978FFF7CD
:1012E00067FB0120011C00F0DFFD002803D08C48C3
:1012F000FFF75EFB05E0884B8A48DB689978FFF7CB
:1013000057FBE1210920C90000F038FE864C8749CF
:10131000201C062200F042FE0F90002803D08448D3
:10132000FFF746FB0EE0E168E268E368E668E06824
:10133000347949789278DB780094407901907D483F
:10134000FFF736FB7C48FFF733FB7C48FFF730FBA9
:10135000FFF73EFA281CFFF72BFB7948FFF728FB25
:10136000784800F05FFE281CFFF722FB764B012235
:101370007648002603271A70FFF71AFB0D960E9782
:1013800000F09CFE724C0D99208815AA80B2FFF7E0
:101390009BFC7048FFF70CFB6F48FFF709FB6F4899
:1013A000FFF706FB6E48FFF703FB6E48FFF700FBF5
:1013B0006D48FFF7FDFA6D48FFF7FAFA6C48FFF742
:1013C000F7FA6C48FFF7F4FA6B48FFF7F1FA0D995A
:1013D0000E9A6A48FFF7ECFA6948FFF7E9FA69489C
:1013E000FFF7E6FA6848FFF7E3FA6848FFF7E0FA24
:1013F0006748FFF7DDFA6748FFF7DAFA6648FFF754
:10140000D7FA6648FFF7D4FA6548FFF7D1FA65487E
:10141000FFF7CEFA6448FFF7CBFA6448FFF7C8FA43
:101420006348FFF7C5FA6348FFF7C2FA6248FFF75F
:10143000BFFAFFF7C7FCFF25011C071C29406A29DA
:1014400000D1BAE100DDC9E0632900D149E115DC32
:10145000522900D195E30ADC0A2900D196E35029EC
:1014600000D098E35548FFF7A3FA55488FE3612968
:1014700000D1E3E0622900D123E18CE3662900D1A9
:1014800049E10EDC642900D13BE1652900D082E30B
:101490004C48FFF78DFAFFF7D5FC0D900D994A489F
:1014A0007AE3672900D17DE1682900D073E34748DA
:1014B000FFF77EFA464C201CFFF77AFA201CFFF754
:1014C00077FA4448FFF774FA434860E3990600004E
:1014D00080020020A1520000BC520000C252000055
:1014E00014FEFF1FC8FEFF1FCB520000F052000089
:1014F000245300002C53000038FEFF1F30FEFF1F56
:10150000F9540000009014540490145449530000FE
:10151000089014546A530000C00000209F5300003C
:10152000BE530000F453000078000020F04E00008D
:10153000145400004F540000B8540000D45400006C
:10154000E6540000E40C0000CCFFFF1FF454000040
:1015500008FEFF1F005500000A5500002755000037
:10156000435500005F5500007C550000A355000066
:10157000C2550000EE550000195600003C56000010
:101580006B56000087560000AB560000CF56000097
:10159000F65600001E5700003C5700005957000047
:1015A0007857000097570000B1570000D15700004E
:1015B000F05700001B580000465800009B660000D2
:1015C000DD660000855D0000BB5D00001F5F000060
:1015D0004D5F00007D5F0000AE5F0000702900D10C
:1015E00094E111DC6D2906DC6C2900DB53E1D34862
:1015F000FFF7DEF946E16E2900D182E16F2900D0C4
:10160000C9E2FFF7C9F9BBE6742900D114E20ADC8C
:10161000722900D187E1732900D0BCE2C848FFF7E6
:10162000C7F9C848B3E2782900D16AE27A2900D123
:101630006FE2752900D0AEE2C348A8E2C348FFF7C5
:10164000B7F9C348FFF7B4F9C248FFF7B1F9C24888
:10165000FFF7AEF9C148FFF7ABF9C148FFF7A8F9AA
:10166000C048FFF7A5F9C048FFF7A2F9BF48FFF748
:101670009FF9BF48FFF79CF9BE48FFF799F9BE48AC
:10168000FFF796F9BD48FFF793F9BD48FFF790F9CA
:10169000BC48FFF78DF9BC48FFF78AF9BB48FFF754
:1016A00087F9BB48FFF784F9BA48FFF781F9FFF7DC
:1016B00089FB011C2940312900D06CE200260E96DE
:1016C0005EE6B548FFF774F9FFF7D1FBB34BB44AB8
:1016D00018601968914201D1B24A1A601968B2487B
:1016E0005AE2B248FFF764F9FFF7C1FBB04BAC4ACE
:1016F00018601968914201D1AA4A1A601968AD4868
:101700004AE2AD48FFF754F9FFF7B1FBAB4B186065
:101710001968AB4840E2AB48FFF74AF9FFF792FB84
:10172000A94E071C391C301CFFF742F9A748FFF7E8
:101730003FF9FFF787FB16AD011C2870301CFFF73F
:1017400037F9992F0FD12978A1480D9AFFF730F971
:101750000D992A780A20012300F016FB011E00D102
:101760000EE69C4818E28D4B2BAE1B6820882C930C
:1017700080B23780FFF774F9FFF7E8F8964B0D9FBA
:101780001B6817AA177002930123311C009501935F
:10179000002002F0B7F8011E00D101E28F48FFF7E8
:1017A00007F9FDE18E48FFF703F9FFF760FB80B210
:1017B000208021888B4889B2EEE10D998A48FFF795
:1017C000F7F8FFF7FFFA10908848FFF7F1F8FFF7F6
:1017D000F9FA11908648FFF7EBF8FFF7F3FA129049
:1017E0008448FFF7E5F8FFF742FB071C8248FFF744
:1017F000DFF8FFF73CFB051C8048FFF7D9F8FFF73F
:1018000036FB13907E48FFF7D3F8FFF71BFB2B1C2A
:10181000061C00977B480E990D9AFFF7C9F823889C
:101820000E989BB2022827D0032827D0012821D068
:101830002E220292119A0896139E303A0492079330
:10184000109AB3B20D990993129B303A0091303B34
:10185000511E8A41002406925A1E93410A93019414
:101860000395059768486949221C694BFFF720FBDF
:101870000E9485E5674802E0674800E06748FFF797
:1018800097F88DE101200021FFF708FA3C200121A3
:10189000FFF704FAF6E72A48FFF78AF86048FFF7EF
:1018A00087F8FFF7CFFA2BAE30705E48FFF780F86D
:1018B000FFF7DDFA2388FFB2051C32789BB26C2F4C
:1018C00011D15948291CFFF773F80024AC4200DB02
:1018D00056E52BAB1A7800230093FF200121FFF778
:1018E000C9FB0134F2E75148291CFFF761F80024D5
:1018F000AC4200DB44E52BA80121FFF7DDFB0134FE
:10190000F6E7208880B2FFF7ABF839E50220002126
:1019100000F0B4F90F90002800D131E5082800D17B
:101920002EE5434833E10820002100F0A7F90F9F7E
:10193000002F00D124E53F4829E1C04603620000A2
:101940001F5F0000B6630000F664000059580000F5
:101950006458000092580000D45800001559000047
:101960005559000095590000D2590000115A000045
:101970004F5A00008C5A0000CA5A0000075B000052
:10198000465B0000835B0000C05B0000FB5B000067
:10199000385C0000755C0000A55C000004FEFF1FC1
:1019A0000F27000010270000D35C0000F35C00004C
:1019B0002CFEFF1F215D00003B5D000018FEFF1F95
:1019C0006A5D0000D25D0000055E00001B5E000045
:1019D000445E0000755E000000FEFF1F965E000082
:1019E000B75E0000F05E0000E05F00001A600000DB
:1019F000436000005C6000009B600000C760000066
:101A0000FF600000306100006D610000A91E000051
:101A1000C00000207A610000A7610000D2610000D0
:101A2000266200004562000065620000B0620000AE
:101A3000FB620000596300002BA9002001F06CFA42
:101A4000FA212B988900FEF771FD011C5648FEF71C
:101A5000AFFF01F0DBFC011C5448FEF7A9FF01F0C9
:101A600031F9011C5248FEF7A3FF524B5248196846
:101A70004B1E9941FEF79CFF002001F0C4FA011CA7
:101A80004E48FEF795FF002001F0CCFA011C4C48AF
:101A9000FEF78EFF002001F0D4FA011C4948FEF742
:101AA00087FF002001F098FA011C4748FEF780FFED
:101AB000012001F091FA011C4448FEF779FF444BE4
:101AC000444819684B1E9941FEF772FF002001F04F
:101AD0008BFA011C4048FEF76BFF404B40481968E9
:101AE0004B1E9941FEF764FF3E4B3F4819684B1E61
:101AF0009941FEF75DFF002001F0A8FA011C3B4868
:101B00004AE03B48FEF754FF3A4801F01AF83A48D9
:101B10003DE03A48FEF74CFFFFF754F9C7B23848AA
:101B2000FEF746FFFFF7A3F986B2311C3548FEF7F2
:101B30003FFF3548FEF73CFF3448FEF739FF344895
:101B4000FEF736FF3348FEF733FF683F7B425F41C5
:101B5000FFB20025304C291C226830486368FEF72C
:101B600027FF381C00F0AAF921682D48626800237D
:101B7000FEF71EFF002E02D0301C00F0E2FF013500
:101B8000E8E72848FEF714FF274800E02748FEF75B
:101B90000FFFFFF7F5FB2648FEF70AFFFFF7F0FB04
:101BA000FEF7EAFEFFF7ECFBE2630000F4630000DF
:101BB0000A6400003C80845E3164000042640000DE
:101BC0005364000064640000786400008C640000CA
:101BD0003C800450A0640000B1640000348084594B
:101BE000C26400003480045AD3640000E56400003D
:101BF0003465000010270000536500005D6500009B
:101C000086650000CE6500000666000030660000B4
:101C100052660000CF5D000000D0034077660000F0
:101C20008A6600009B660000BD6600000867000031
:101C3000895C00001FB5041C01A9002002F0B4FB60
:101C400001A8694602F0EEFA009B68461C1901A93A
:101C5000009402F06FFA01A90122002002F0D0FBEB
:101C60001FBD0000034B00221A60034B8022D205E7
:101C7000DA67704700901C5804E100E010B50A23B1
:101C80000C1C08287DD8FEF747FC051B283C486241
:101C90006970570001F0BAFB0523012871D0FFF7E6
:101CA000E1FF201CFFF7C6FF0020011C01F03CFAF9
:101CB000041C0020012100F091FF002C5ED15FE0A8
:101CC00001F0A4FB062301285BD0FFF7CBFF201C0B
:101CD000FFF7B0FF01200021E8E701F097FB0823A0
:101CE00001284ED000F0EEFF002803D00020012193
:101CF00000F074FF0220002101F016FA00283DD107
:101D00003EE001F083FB072300283AD0FFF7AAFF4B
:101D1000201CFFF78FFF032005E0FFF7A3FF201C27
:101D2000FFF788FF0420002101F0FEF9041C01F0F8
:101D30006DFB0028C1D1BDE70820002101F0F4F9B6
:101D400000281BD10120011C00F048FF18E0FFF71C
:101D500089FF201CFFF76EFF05200CE0FFF782FFD4
:101D6000201CFFF767FF062005E0FFF77BFF201C24
:101D7000FFF760FF0720002101F0D6F9092300E0FA
:101D80000023181C10BD0000F0B5194C85B002915D
:101D90000392071CA08A1E1C80B2FEF761FE40253C
:101DA0003C2E00DCF51CFEF7B5FDA36802991F7000
:101DB000A368039A5970A3689A70606801F0D2FB17
:101DC000FEF75AFD0B49A268E368096800200191FB
:101DD0000095011C02F06AFC051CFEF77BFD6068A3
:101DE00001F0B2FB6B1E9D41680005B0F0BDC0461E
:101DF000C00000200CFEFF1F08B5274A274B586083
:101E00009A60274A0A20DA6040221A619982522297
:101E10001F210023FFF7B8FF002802D02148FEF75A
:101E2000C7FD0A2000F08DFE0A202D210622002386
:101E3000FFF7AAFF002802D01A48FEF7B9FD0A20D2
:101E40002C2107220023FFF79FFF002802D015480E
:101E5000FEF7AEFD0A20282106220023FFF794FF9B
:101E6000002802D00F48FEF7A3FD0A2029213E22B8
:101E70000023FFF789FF002802D00A48FEF798FDEB
:101E80000A20272135220023FFF77EFF002802D0F9
:101E90000448FEF78DFD08BD68FFFF1FC00000204D
:101EA000E2FFFF1F6067000008B5021C4B1E0B20FD
:101EB000111C0022FFF768FF08BD000038B508219B
:101EC000051C0E20FFF7F0FF00280DD0274C201C2A
:101ED000FEF76EFD201CFEF76BFD201CFEF768FD73
:101EE000201CFEF765FD40E0214CE3689A78E3682A
:101EF000D978002D03D01F48FEF75AFD05E00902EE
:101F00000A4311B21C48FEF753FDE3681A79E368EF
:101F10005979002D03D01748FEF74AFD05E0090264
:101F20000A4311B21448FEF743FDE3689A79E36867
:101F3000D979002D03D00F48FEF73AFD05E00902DC
:101F40000A4311B20C48FEF733FDE3681A7AE368DE
:101F5000597A002D03D00748FEF72AFD05E0090253
:101F60000A4311B20448FEF723FD38BDD0680000D3
:101F7000C0000020D7680000E7680000044B054A55
:101F800058609A60044ADA6040221A619982704768
:101F90007800002068FFFF1FE2FFFF1F73B51E4C93
:101FA0000E1CA08A151C80B2FEF75AFDFEF7B2FC8B
:101FB0000023AB420AD02269934207D2F15CA268A7
:101FC000D154E268FF21D1540133F2E7606801F097
:101FD000C9FA012000F0B5FD606801F0B5FA0120F2
:101FE00000F0AFFD606801F0BDFAFEF745FC0B495B
:101FF000A268E3680968002001910095011C02F0C5
:1020000055FB051C6B1E9D41FEF764FC606801F0EA
:102010009BFA680076BDC046780000200CFEFF1FCA
:102020007047000073B50E4C0E4B221C0125061C98
:10203000083200201C600C495A600095031C01F016
:10204000D3FE0A4B8022AA40013C66821A60608A55
:1020500080B2FEF705FD052001F076FA257073BD0C
:10206000CFFFFF1FD800002021200000149014543F
:1020700037B50E24FF34051C201C01F065FA0A2038
:1020800000F05FFD201C01F06DFA0C2001F06AFAEF
:10209000084A012315700093FA239B000020019346
:1020A000011C054B02F002FB051C201C01F04CFA40
:1020B000281C3EBD0D0100200C010020644AC023F5
:1020C0009B0010B51360634A80241360FEF7D4FBB5
:1020D000614B64001C60614B201C1C60604B1C60E9
:1020E00001F032FA642000F02CFD201C01F03AFAD5
:1020F000642000F026FD201C01F026FA642000F088
:1021000020FDAE20FFF7B4FFA020FFF7B1FF722043
:10211000FFF7AEFFA120FFF7ABFF0020FFF7A8FFFE
:10212000A220FFF7A5FF0020FFF7A2FFA420FFF7E2
:102130009FFFA820FFF79CFF3F20FFF799FFAD20EE
:10214000FFF796FF8E20FFF793FFB020FFF790FF79
:102150000B20FFF78DFFB120FFF78AFF3120FFF73B
:1021600087FFB320FFF784FFF020FFF781FF8A206D
:10217000FFF77EFF6420FFF77BFF8B20FFF778FFE0
:102180007820FFF775FF8A20FFF772FF6420FFF7C2
:102190006FFFBB20FFF76CFF3A20FFF769FFBE20FF
:1021A000FFF766FF3E20FFF763FF8720FFF760FF22
:1021B0000620FFF75DFF8120FFF75AFF9120FFF710
:1021C00057FF8220FFF754FF5020FFF751FF832075
:1021D000FFF74EFF7D20FFF74BFFAF20FFF748FFD3
:1021E0002620FFF745FF0120FFF742FF2520FFF7DC
:1021F0003FFF0020FFF73CFF0020FFF739FF5F2083
:10220000FFF736FF3F20FFF733FF2220FFF730FFB5
:102210000020FFF72DFF0020FFF72AFF5F20FFF7C8
:1022200027FF3F20FFF724FF0020FFF721FFFF20BB
:10223000FFF71EFF0020FFF71BFF0020FFF718FF2E
:10224000FF20FFF715FF0020FFF712FF002010BD51
:10225000209014542490145434A0145430901454E6
:1022600000A014540269C3689A4204D88068101808
:102270000138C01A01E0013AD01A7047F7B58368F7
:10228000C668041C40680191151C9F1B8019974269
:1022900003D902F00BFEAD190AE001993A1C02F0D5
:1022A00005FE019BED1BD91960682A1C02F0FEFD9A
:1022B000E560F7BDF7B5171CC4680022061C019144
:1022C00000923369B568A34200D85B19013B1B1B20
:1022D0002D1BBD4200D93D1C9D4200D91D1C7368B9
:1022E0002A1C1819019902F0E1FD009A019B52196C
:1022F0000092B2685B1964190193A31A5A1E9341A4
:102300005B421C407F1BF460DBD10098FEBD0000E7
:1023100010B5104C104A0223236163610F4BA26178
:10232000A2640F4AE36164232362E264002304226F
:10233000A3626362E362A3656365E3652265E01DF2
:10234000084902F0C4FD201C074902F0C0FD20230B
:10235000A37110BD78010020EC680000120100207C
:102360000E010020F5680000F9680000F7B5204E66
:10237000041C33780191171C002B01D1FFF7C8FF13
:1023800018235C4348343619F268346900920025FA
:10239000944216D9B2683D1C131B9F4200D91D1CE4
:1023A00073682A1C1919019802F080FD019A6419BA
:1023B00052190192B2687F1BA31A5A1E93415B42C5
:1023C0001C40009B1B1B0093BB4200D90097009A46
:1023D000002A07D073680198191902F067FD009A66
:1023E000AD18A418002D00D03461281CFEBDC046D5
:1023F0007801002010B50B1CEFF31084012181F34C
:102400001088191CFFF7B2FF84F3108810BD00007C
:10241000F8B5013018256843134D0F1C2D186E694F
:10242000141C012E0ED0002E06D0022E16D1281C10
:10243000FFF740FF041C14E0281CFFF713FFA04225
:102440000ED305E0281CFFF70DFF844200D9041CC1
:10245000281C391C221CFFF711FF02E0002400E0B9
:10246000341C201CF8BDC04678010020F8B50B4B89
:10247000071C1B780E1C151C002B01D1FFF748FF11
:10248000EFF31084012181F31088381C311C2A1CC1
:10249000FFF7BEFF84F31088F8BDC0467801002026
:1024A00038B5051C081C0C1C02F019FD211C021C6F
:1024B000281CFFF7DBFF38BDF8B5164B061C1A7851
:1024C0000C1C1D1C002A01D1FFF722FFEFF310871F
:1024D000012181F310881820013670432818C26842
:1024E0008568531C591B4D1EA94149420B40416947
:1024F000022902D101698B42FCD001698B4204D0D0
:102500004568AC54C360012000E0002087F31088C8
:10251000F8BDC0467801002013B56C460734002092
:10252000211C0122FFF766FF012801D1207801E07C
:102530000120404216BD0000F7B5164C01932378E8
:10254000051C0F1C161C002B01D1FFF7E1FE2269B0
:1025500095421CD2EFF31080012181F31088002DE9
:102560000CD018236A1C5A436B43A750A21856601C
:10257000019AE3181A6200229A625A6218235D4394
:10258000089B6419E36280F31088002001E00120B9
:102590004042FEBD78010020826810B5041C4068EE
:1025A000531C834205D820688154A360E36801333B
:1025B000E360A26863689A420CD120692168FFF742
:1025C00055FFA368984203D001235B42E36001E01A
:1025D0000023A36010BD0000F0B585B00A9C051C67
:1025E000009101921F1C081C0126019A904204D3FD
:1025F0000199FDF79BFF0136F7E70296BE4200D234
:1026000002970B9A01231A40039219D1002C01D191
:10261000002415E00B9B20269B070ED53026002FAB
:102620000BD0202609E0281C311CFFF7B5FFEA6813
:10263000013C002A04DB002CEAD0029BA342F2D327
:10264000EA680126002A34DB012F01D9013F06E0A8
:102650000098311CFDF76AFF019B984208D3019A4C
:102660005643F1E7301C0199FDF760FF061E10D0BC
:102670000098311CFDF75AFF331C4343009AD21ACD
:102680000D4B0092195C281CFFF786FFEB68002BAE
:10269000E8DA039A002A0CD0002C0AD0029AA2424F
:1026A00007D2281C2021FFF777FFEB68013C002BA5
:1026B000F2DA05B0F0BDC04600690000F0B58FB099
:1026C000149D07900C1C181C291C161C069302F064
:1026D000A9FB0699079A002309910A950B930D927D
:1026E0000C932178651C002904D10C9B002B00DD84
:1026F00003E10DE1252900D0F6E002340025671E34
:102700003B782B2B0CD003D8232B0DD1082308E0CA
:102710002D2B03D0302B07D1022302E0012300E050
:1027200004231D430134EAE700243B781A1C303AA5
:10273000092A05D80A225443303C0137E418F4E74B
:10274000002103912E2B0DD101373B781A1C303A12
:10275000092A07D803990A224A43303AD218013786
:102760000392F2E7397804230A1C9A43682A01D1BC
:102770000137F7E7642925D008D8582900D193E01C
:1027800063291AD0252900D0ACE0A8E0732900D134
:1027900093E00DD8702900D0A4E0336809A81A1D71
:1027A000196832600823002201920093102293E0FE
:1027B00075296FD0782977D094E033681A1D32607C
:1027C00019788CE033681A1D1B683260D9175818C5
:1027D0000122059348400492092806DD0A21FDF7ED
:1027E000F3FE049B01330493F6E70499039A9142A4
:1027F00000D20492002C05D0059B002B01DB690759
:1028000000D5013CAA0702D5039B002B10D0E90795
:102810000ED4002C01D100240AE0049AA24207D26F
:1028200009A82021FFF7B8FE0C9B013C002BF0DA31
:102830000C9B002B56DB0599002904DA49420591CF
:1028400009A82D2103E06A0703D509A82B21FFF76A
:10285000A3FE0C9B002B45DB03232B40022B11D145
:10286000039900290ED1002C01D100240AE0049A1A
:10287000A24207D209A83021FFF78EFE0C9B013C33
:10288000002BF0DA0C9B002B2CDB0094019509A89F
:10289000059906E0336809A81A1D1968326000948A
:1028A00001950A22039B17E0336809A81A1D1968CD
:1028B0003260009401951022F4E733681A1D3260EB
:1028C0001C682178013400290CD009A8FFF764FEA8
:1028D0000C990029F5DA05E0FFF77EFE02E009A871
:1028E000FFF75AFE7D1C02E009A8FFF755FE0C9A7F
:1028F000002A00DAF9E62C1CF3E60B9A002A03D032
:1029000007980699FFF7B2FD0C990B9A8B180C9358
:102910000C980FB0F0BD08B5002000F031FE08BDE6
:1029200008B5002001F0CCFD08BD08B5002001F07D
:10293000A3FA08BD10B5174B08229978114202D0AE
:1029400099780A439A70144B8821002249015A5001
:1029500012492220087012498020400258501868FD
:10296000104901401960104910485C582040C024AB
:10297000A404204358500E4B80211A72197601216D
:102980001A7059700B490A7099790C221142FBD1C7
:1029900010BDC04600D007400070044000E0074072
:1029A00044100000FFFFF3FF04100000FFFFFFF0E2
:1029B0000040064000500640154B164930B51A1E1F
:1029C0008A420CD0144C0023A408A34204D09800DF
:1029D0000D5801331550F8E7104B9A6001E00F4A8B
:1029E00093600F4A0F490023891A8B4204D0D45CAC
:1029F0000D48C4540133F8E70C4A0D490023891AE5
:102A00008B4204D0D018002404700133F8E730BDA5
:102A100000000000000000000000000000ED00E0E9
:102A2000706A0000B86B000000FEFF1F48FFFF1F28
:102A30008C020020031C41700020187058609860C0
:102A4000704710B54378041C0120FF2B08D000F01C
:102A500011FB63780133DBB2637000F0FFFA0020F2
:102A600010BD0020704738B5041C0D1C00F002FB9F
:102A7000E3681D43E56000F0F1FA002038BD000076
:102A80000A4B00229A641A1C40329A631A1C303294
:102A90009A621A1C20329A611A1C10329A60044AF7
:102AA0001360044B9B60DB607047C046040200204B
:102AB00000020020F0010020024B00221A6018687A
:102AC00080B270470C007C5070B54378041C0E1C1B
:102AD000002B0AD000F0CEFA63780025013BDBB270
:102AE0006370257000F0BAFA29E00225002926D08B
:102AF0000378002B16D0FFF7DFFF6368A2689842C7
:102B000001D3C31A03E08021C31A49025B180325CD
:102B10009A4214D200F0AEFA0023237000F09EFA1D
:102B200002250CE003254B1C09D000F0A3FA012379
:102B3000237000F093FAFFF7BFFFA6606060281CC7
:102B400070BD38B5051CFFF7B7FF041CFFF7B4FFD5
:102B5000031BA04203D28022001B520283189D4215
:102B6000F4D238BD08B5012801D100F083FA08BDC0
:102B700008B5012801D100F071FA08BD10B5FFF7C2
:102B80007FFF094A012313600849094A0020094CC4
:102B90001060086004212160074C216007490B6028
:102BA00007490860136010BD38800450000084504D
:102BB00000000450000004510400045104000C50B3
:102BC0000000045310B5044C206021710020A26065
:102BD0002373637310BDC04654020020F0B585B066
:102BE00003AD374C009001912870697023790099EA
:102BF00004208B4261D9237B002663730123AB70D1
:102C0000371C237BBB4215D9A268BB009B58002B05
:102C10000DD01A79D1070AD59968281C1B689847E6
:102C2000002804D0019A67730526002A32D00137A4
:102C3000FFB2E6E7002E02D0019B012B2AD1012032
:102C4000FFF790FF00990C204843226800271018D6
:102C500000F0B6F8009B01206371FFF789FF0223A3
:102C6000AB70237BBB4225D9A168BB005B58002B0E
:102C70000DD01A7991070AD59968281C1B689847C6
:102C8000002804D0019A6773002A15D00626013760
:102C9000FFB2E6E70023AB70013FFFB2FF2F09D080
:102CA000A168BB005B58002BF6D09968281C1B68F4
:102CB0009847F1E7301C00E0062005B0F0BDC046A3
:102CC00054020020014B58797047C046540200203E
:102CD00013B503780021041C0191022B07D0032BAC
:102CE0000BD0012B0ED10279191C134801E0027997
:102CF000114801AB01F0AAF908E001A90E4801F062
:102D0000E7F903E00C4801A901F084F9002812D189
:102D1000A2790A4BD201D2B21A706278084B5200E3
:102D2000D2B21A70A278074B1A70E278064B1A706A
:102D30006279064B1A7016BD004006401840865353
:102D40000040865000400650014006501840165082
:102D50001F2303408022DB0552051A43054943091E
:102D60009B005B18101C18430068431E9841C0B2BA
:102D70007047C046288004401F2303408022DB05A3
:102D800052051A43044943099B005B18101C184361
:102D9000002303607047C046288004401F2303407F
:102DA0008021DA05490511434209044892001218AE
:102DB000081C104301229A4002607047288004409A
:102DC00073B5124D00220723041C0093281C131C0A
:102DD000012101F065FB201CFFF77AFF637A0022D6
:102DE000217A0093281C131C01F05AFBE279084B4E
:102DF00092041A60074BA17A1D68281C01F084F91F
:102E0000281CE17A01F08FF9002076BD00700440A3
:102E100000700C596469000008B5054801F0BAF863
:102E2000044B1968C9B20131FDF780FB08BDC046EB
:102E30000040064044801C5E08B5054801F0AAF831
:102E4000044B1968C9B20131FDF770FB08BDC046DB
:102E50000040064044801C5E08B5054801F09AF821
:102E6000044B1968C9B20131FDF760FB08BDC046CB
:102E7000004006404480145808B5054801F08AF81F
:102E8000044B1968C9B20131FDF750FB08BDC046BB
:102E900000400640448014580C4B1868C0B2022809
:102EA0000FD0032802D000280ED102E0FA208000C3
:102EB0000BE0074B80221B681202934205D1181CBD
:102EC00003E0044B186800E00020704700700C59C4
:102ED000800200208402002008B5FFF7DDFF08BD56
:102EE00008B5054B186801F016F90023984201D087
:102EF000024B1B68181C08BD64690000800200209A
:102F000008B5044B01201B68DBB2002B01D0FFF792
:102F1000E7FF08BD0480045210B50C1C122830D8FD
:102F2000FDF7FAFA0A0A0D122F15181B2F2F1E2073
:102F30002F2F2F2F23272B00FFF76EFF01E0FFF726
:102F40007BFF206000201FE0FFF786FFF9E7FFF717
:102F500093FFF6E7FFF7A0FFF3E7FFF7C1FFF0E706
:102F60000A4B0CE0FFF7CCFFEBE7094801F012F841
:102F7000E7E7074800F0F8FFE3E7FA239B00236048
:102F8000E0E700232360022010BDC046006CDC0295
:102F90000040064008B5094B1B68DBB2022B06D087
:102FA000032B07D00020012B07D1054805E0FFF7D0
:102FB00097FF02E0034800F0D7FF08BD04800C5DD6
:102FC000006CDC020040064008B5024B185CFFF7BD
:102FD000E5FE08BD1069000008B5024B185CFFF75C
:102FE000B7FE08BD1069000008B5BB20FFF7B0FEB2
:102FF00008BD08B57620FFF7D1FE08BD08B57620DC
:10300000FFF7BAFE08BD08B57620FFF7A1FE08BDA0
:1030100008B56620FFF7C2FE08BD08B56620FFF7B9
:10302000ABFE08BD08B56620FFF792FE08BD08B5E7
:103030009420FFF7B3FE08BD08B59420FFF79CFE6F
:1030400008BD08B59420FFF783FE08BD08B5024B04
:10305000185CFFF77DFE08BD12690000044A136882
:10306000002B04D0013B1360002B00D162B67047E7
:103070006402002072B6024B1A6801321A6070476F
:103080006402002010B50B4B0B4A1278002A04D1C1
:10309000013B002BF8D103200AE0064C074801F061
:1030A00099FC012803D0013C002CF7D1F3E7002064
:1030B00010BDC046EA03000002D0075100E00740FF
:1030C00010B5064C064801F085FC042804D0013CEC
:1030D000002CF7D1032000E0002010BDEA0300001F
:1030E00000E00740F7B5071C0E1C151C01930120DA
:1030F000002F15D0002913D0FFF734FD094C002113
:10310000201C102201F0DBFE27602671002D03D069
:10311000019BA560237363730120FFF729FD002045
:10312000FEBDC04668020020F0B5B24F8BB00190E2
:1031300002913B7B01207B73FFF714FD3B790199E2
:103140008B4204D80120FFF713FD022050E1019AC1
:10315000396893005E58019B357807AC029A23705A
:10316000291C02239943227266600391012901D030
:10317000052D0AD1A048012101F07EFB002809D1CC
:103180000120FFF7F5FC012032E1072D02D99A4812
:103190000321F1E701236372002400943B7B009933
:1031A0008B4219D9009AB96893005B58002B0ED056
:1031B0001A79D1070BD5996807A81B68984700288A
:1031C00005D0009A029B7A730424012B04D1009B42
:1031D0000133DBB20093E1E70120FFF7C9FC874828
:1031E00000F0FCFE039A012A1AD10138C0B202286D
:1031F00000D9D4E0FFF740FE814B984200D9CEE0E1
:10320000FFF70AFE7F4FB84200D9C8E0FFF724FE5F
:10321000B84200D9C3E0FFF70FFEB84200D9BEE0C4
:10322000029A012A00D0DFE003200A2D00D9DFE056
:10323000281CFDF771F906080A1B4E6441472C361D
:103240003B0000225CE003225AE06B4801F0C2FB25
:10325000012809D06848002101F01EFBFFF712FF8A
:10326000041C002C00D0C3E0012249E0624801F0B8
:10327000B1FB042809D06048022101F00DFBFFF7E3
:103280001FFF041C002C00D0B2E0042238E005AB84
:1032900007221A7000225A70F2789A703279DA7026
:1032A00030E0072205AB1A70012203E0072205ABCC
:1032B0001A7003225A7025E005AB02221A7001220F
:1032C0001A7104E005AB022201211A7019715A71BA
:1032D00018E005AB02221A700027012246481A7135
:1032E0005F7101F077FB01280CD04348391C01F0D5
:1032F000D3FAFFF7C7FE041CBC4203D078E00522D6
:1033000005AB1A702B1C083B05A9022B03D8737957
:103310008B71B379CB717378002B0DD0012D0BD944
:10332000B0780222384B002802D01869024302E02C
:1033300018699043021C1A612F4801F0D1FA002845
:1033400000D00324002D05D1FFF79CFE00240028A7
:1033500005D04DE0012D02D1FFF7B2FEF6E70120C6
:10336000FFF700FC019B234E07AFB37302237B7270
:103370000025337BAB4222D9B168AB005B58002BF0
:103380000AD01A79910707D59968381C1B689847A5
:10339000002801D0757305240135EDB2E9E7029BE1
:1033A000012B11D0002C0FD00120FFF7DBFB07AE63
:1033B0000023009D7372013DEDB2FF2D06D1012067
:1033C000FFF7D6FB201C13E00624EDE7094BAA000B
:1033D0009B68D358002BEED01A79D107EBD59968AA
:1033E000301C1B689847E6E7002C00D11CE7DBE7A0
:1033F0000BB0F0BD6802002000E00740004006402E
:1034000040420F0080841E0000ED00E008B5064831
:1034100001F0E0FA012804D00123042802D00B2394
:1034200000E00023181C08BD00E007400368F7B562
:103430001D0AFF2635401B4A1E40AB009F581A4A02
:10344000041C9A58281C0192FFF7BEFD311C002273
:10345000381C01F0C7FA019BB6009E19227984231B
:103460005B05334352001A60802362795B05334366
:103470001A60A27990235B05334312011A60E37945
:103480000A4A16431A043260002B0AD0084B5B5DCF
:10349000002B06D01F22134001229A40131C054A1C
:1034A0001360F7BD7069000068690000000018181B
:1034B0007869000000E100E0F8B50368041CFF250E
:1034C000180A2840104A1D4083009E580F4A9F58F2
:1034D000FFF77AFD301C291C012201F083FA301C11
:1034E000291C626801F08EFAAD00227A88237D19CA
:1034F0005B052B4392001A6098235B051D43637A9A
:103500009B012B60F8BDC04670690000686900002F
:1035100038B50C1C002802D1002C09D112E0036838
:103520000133F9D0051C0835FFF780FF281CF6E7AA
:103530002368013306D0251C201C0C35FFF7BCFF87
:103540002C1CF5E738BD0000010AFF231940044A8E
:10355000890003408A580120984050607047C04657
:1035600070690000010AFF231940044A89000340E2
:103570008A580120984090607047C04670690000EA
:1035800008B5084B8200D258942302325B051343DE
:103590001B78002B02D000F0C3F901E000F018FA0C
:1035A00008BDC04618690000021C80230C325B0570
:1035B00013431B78002BF7D00171704738B5094BC6
:1035C0008000C4580D1C201C1830291CFFF77CFA01
:1035D0000328F8D0002801D004232374207CC0B233
:1035E00038BDC04678020020F0B589B005930EAB17
:1035F0000290161C1A78830035488D0A18581E3D13
:1036000001903448CFB21C58002007AB188001232A
:10361000A07CE374A37453425341DBB203936B4227
:103620005D41EDB20490002D02D00F0AC9B28C4664
:103630007F000023FFB29D4204D12B1C002E01D13C
:10364000039AD3B21F4307AB1F700122002D02D093
:10365000604658700222A360E2600198391CFFF7AF
:10366000A3FF02980F99FFF7A9FF237C002B0CD131
:10367000002E0AD0059AA660E26031780198FFF723
:1036800093FF02980F99FFF799FF237C002B16D127
:10369000039B002B13D0002D01D1002E0FD000234F
:1036A0000125A3600198E56001F000FA291C394367
:1036B0000198FFF779FF02980F99FFF77FFF0498B1
:1036C0000023A074207CE374C0B209B0F0BDC046F2
:1036D0001869000078020020104A830010B598583D
:1036E0000F4A9C58E37C002B05D0237C052B02D08D
:1036F000237C042B09D19823821C5B0513430022F1
:103700001A7001F0E5F901236374A37C002B03D048
:10371000201C1830FFF795F910BDC046186900004D
:1037200078020020F7B5194B8200D358061C01938C
:10373000174B0D1CD75800920124002F24D12422AE
:10374000081C391C01F0BBFB281C391C1830FFF782
:1037500071F9301CFFF75CFC019801F05BF9009AED
:103760000B4BD5500B4B9A5D1F231A40231C9340E3
:103770001A1C094B1A60019A9C2302325B05134301
:1037800080226C741A703C1C201CFEBD186900005D
:10379000780200201469000000E100E0F7B50F4E48
:1037A0008400A359002701930D4B051CE2589C236C
:1037B00002325B0513431F70FFF72FFC094B019882
:1037C0005A5D1F231A40012393401A1C064B1830E0
:1037D000DA67FFF746F9A751F7BDC0467802002027
:1037E000186900001469000004E100E00A4A83003F
:1037F00070B59E58094A0C1C9D584A686B699A42DC
:1038000009D0FFF729FB6268011C0023301C01F07E
:103810000FF964686C6170BD1869000078020020BF
:10382000F0B587B005930FAB1B780492334A02932F
:1038300083009E58324A03919C58071C637C002BDE
:1038400002D10320207456E0029B002B01D11E23DD
:103850000E930023E360A360237423606374029BD0
:10386000381CA3740399FFF7C1FF9022B31C5205C3
:103870001A431021117098258422F11C52056D0500
:103880000A431D43022140231170301C2B7001F0AC
:103890000DF9039B381C1988012300930E9B049A91
:1038A0000193059BFFF7A0FE0D9B002B16D0237CF8
:1038B000002B10D10C9B301CA3600D9BE3600C9B74
:1038C0001978FFF771FE029B002B12D0381C0E995D
:1038D000FFF774FE0DE0237C042B0AD100232B702C
:1038E000F37801255B092B4202D0301C01F0F0F87F
:1038F0006574207CC0B207B0F0BDC04618690000F6
:10390000780200201FB5069C0094079C0194089C37
:10391000029401240394FFF783FF04B010BD00005C
:10392000254A830070B59D588422E91C52050A433C
:1039300002211170214A9C5890226B1852051A439B
:103940001278E978D2B28E0634D59421490519430C
:10395000097800292ED0012A15D1EB78134202D024
:10396000052323740CE0E368013BE360002B07D0E0
:10397000A368281C5A1CA2605978FFF715FE19E0AD
:10398000FFF7AAFE16E06268013A6260002A06D0DC
:103990008C214905012A05D10B43082204E0FFF7D9
:1039A0009BFE02E00B4300221A7023685A1C22601F
:1039B0002A791A7070BDC04618690000780200208C
:1039C000C31C842040051843022303707047000085
:1039D000F0B5904B8100CD589022EB7889B052051C
:1039E000DBB2071C0593101CAB1D1843EE78844610
:1039F0000078EC1CC0B20790942040051843007872
:103A00000494F6B2441EA041834C0696982676058F
:103A10000C59A91CC0B2334300911143029018788D
:103A20000A78C0B2D2B20392029A0191002A30D031
:103A3000079900290DD0102362461370281CFFF748
:103A4000BFFF236B002B00D1E1E0F8B2626B0121D4
:103A5000D9E000281DD040221A70281CFFF7B0FFC3
:103A6000231C2C331B78002B02D1009806433370A3
:103A7000236B002B03D0F8B28021626B9847E37D63
:103A8000002B04D0201C18308021FEF7ECFF0A2305
:103A9000BCE0069901228E11281C1640FFF790FF0A
:103AA0000598012103110B4219D0049A90235B055C
:103AB000134310221A70002E04D0EB785B07DB0F43
:103AC00010D11AE0082323702C342378002B00D067
:103AD0009DE09822009C52052243137097E0002E2F
:103AE00016D0EAE7019810230370236B002B6BD0EC
:103AF000F8B20221626B984766E001990B70236B64
:103B0000002B03D0F8B2626B042198472B797EE03A
:103B1000039A012A26D1EB78134255D0019B1E70DF
:103B20002B79231C2C331B78002B07D102980028FB
:103B300004D1982300995B050B431870236B002B6D
:103B400003D0F8B20821626B9847A37D002B04D004
:103B5000201C18300821FEF786FF00236360E36015
:103B6000237554E02B79A268DBB2002A2AD022699F
:103B70001370236901332361A368013BA360A36829
:103B8000002B44D1029B002B12D1231C2C331B7819
:103B9000002B05D1982300985B0502990343197007
:103BA000E37D002B04D0201C18302021FEF75BFFA2
:103BB000002363752361236B002B28D0F8B2626B5E
:103BC000202120E0072321E06368002B1DD0E2685C
:103BD0001378291C80220C3152050A431278002ADE
:103BE000F7D02B71E3680133E3606368013B6360E6
:103BF0006368002B0BD1E3602375236B002B06D089
:103C0000626BF8B21021984701E00623237009B0D7
:103C1000F0BDC0461869000078020020042907D0D2
:103C200007290BD19C235B0503301843802304E054
:103C300090235B0503301843102303707047000086
:103C400038B50A4B8000C458094BDC22C3585205D2
:103C500008331A4300231360A27C1D1C9A4203D030
:103C6000201C1430FEF7EDFE257438BD7C020020C8
:103C70001C69000038B50C4B8000C4580B4B002564
:103C8000C058D423021C08325B0513431D60084949
:103C90002A1C00F0C2FFE37CAB4203D0201C203082
:103CA000FEF7CFFE657438BD7C0200201C69000061
:103CB0001B000200F7B5151C2A4A009181002A4B0F
:103CC0008F58061C0191CC580B20002F49D1391C6C
:103CD0003422009801F0F3F8009A019B2149301C2E
:103CE0005A502A78214B92061A60FFF7A0F9201C3F
:103CF00000F00CFF0098391C1430FEF79BFE009872
:103D0000391C2030FEF796FE301CFFF743F96A6835
:103D1000011C201C00F006FF201CA97A00F05BFFAC
:103D2000201C297A00F06BFF6A7AB4235B052343D9
:103D300052031A60CC2308345B058022234312030C
:103D40001A60C8235B051C438023DB022360084BF9
:103D5000381C9A5D1F231A40012393401A1C054BFF
:103D60001A60FEBD7C0200201C69000004800C5D0E
:103D7000E0FEFF1F00E100E0F8B5174A174B850091
:103D8000EB58AF58041CD822191D52050A4312687B
:103D9000002AF8D0124A0833115D1F221140012277
:103DA0008A40111C0F4A0026D167CC2252051A43C3
:103DB0001660C82252051343381C1E601430FEF7EB
:103DC00050FE381C2030FEF74CFE034B201C5E5189
:103DD000FFF732F9F8BDC0467C0200201C690000E4
:103DE000E0FEFF1F04E100E070B504AC2578094C4B
:103DF00080000659084C04592363012362606374F0
:103E0000321CD42308325B0513436A05E06AE16281
:103E10001A6070BD1C6900007C020020F8B51E1CF1
:103E2000134B8000C458134BC5580123A374277C3F
:103E30000620002F1BD10C20002A18D0A26023746A
:103E40002B1CDC2508336D051D4380231B042160DA
:103E50002B60201C1430311CFEF736FE031E032B92
:103E6000F7D00020834202D0286020740A20F8BDD9
:103E70007C0200201C690000F8B52C4A83009C5885
:103E80002B4A061C9D58237C002B02D1637C002BFF
:103E90004AD0DC232F1C5B0508371A1C3A431268F2
:103EA000002A16D02A1D13431B68002B11D0A368CB
:103EB000002B0ED022681378EB6023680133236057
:103EC000A368013BA360A368002B02D1301CFFF75D
:103ED000B7FED4235B051F433A68002A1AD02A1D77
:103EE00013431B68002B15D0EB6862681370E36AFC
:103EF000002B03D0301C211C98470BE06368013372
:103F00006360E368013BE360E368002B02D1301C8F
:103F1000FFF7B0FE281C074900F09EFE002803D0E2
:103F2000281C044900F0B2FEF8BDC0467C02002007
:103F30001C6900001300010084235B0503431A7809
:103F400000239A4209D080235B050130184303788F
:103F5000012B01D1024B00E0024B181C7047C046F8
:103F600000127A0080841E0038B5084A031C08330A
:103F700013431D78064A031C183313431C78FFF7BC
:103F8000DBFFEDB2E4B22C19E04038BD0000901028
:103F90000000101010B50D4A831D13431B78041C3C
:103FA000DBB2002B0FD0012B07D1FFF7C5FF084B69
:103FB00008341C432378D84006E00020022B03D1AC
:103FC000044B186800E0044810BDC046000008110A
:103FD0000000901080020020006CDC020C4A831D5F
:103FE00013431B78DBB2012B08D0002B04D0032035
:103FF000022B0CD005200AE0181C08E080235B058A
:10400000013018430078431E98410223181A704764
:10401000000008119C22031C520518300243802026
:104020001070074A00201A43107006489A1D024378
:104030001078C0B20028F8D1034B0B607047C0461F
:104040000000081300000811006CDC02F8B5041C25
:104050000D1C171C1E1CFFF7C1FF012802D1002DEB
:1040600004D007E0022805D1012D03D1201C311C0A
:10407000FFF7D0FF8023621C5B0513431D70842370
:104080005B05234302221A700C4A231C0833134396
:104090007A00D2B21A700A4B402223431A70094A9E
:1040A000A31D13431B78012BF9D1002D01D1064B21
:1040B00000E0064B3B4133600020F8BD000090104B
:1040C000000008130000081180841E0000127A000E
:1040D0000A4A10B51468031C0120002C0CD00848B3
:1040E000802418430470074C981D20430078022850
:1040F000F9D1126800200A6010BDC046800200207D
:1041000000000813000008119C235B05C901184337
:10411000C9B2017070479C235B0518430078431EA9
:104120009841C0B2704794235B0549011843C9B256
:104130000170704770B506680C1C301C2049FCF7F4
:10414000F5F91F49051C301CFCF734FA0E1C081C3D
:10415000E1210901FCF7EAF9E121E0800901301CC5
:10416000FCF728FA0E1C081C3C21FCF7DFF93C2167
:104170002081301CFCF71EFA124BA17223806E23A3
:10418000FF3322889D4209D9013292B2ED1A0323EE
:1041900022801A40534253416E33F1E7930701D016
:1041A000094900E009490123CA5C954201D86380AE
:1041B00003E00133AD1A0D2BF6D1A58070BDC046CA
:1041C00080510100B2070000476900003A69000011
:1041D00030B511490488031C62180020812A19D8BF
:1041E0005A88511E0B2915D899884D1E1E2D11D89D
:1041F000DD88172D0ED81D893B2D0BD89B7A3B2BC4
:1042000008D8A30701D0054B00E0054B9B5C8B420F
:104210004041C0B230BDC0464EF8FFFF47690000C4
:104220003A69000070B5124A85880388AD186E227D
:10423000FF325A434488AA189D0852190D4D660052
:10424000755B52199D0702D1022C00D8013A0A6011
:10425000C488E1220389120162433C246343D318DA
:10426000827A08689B18044A42439B180B6070BD11
:104270004A05F5FF2069000080510100084B1A68CB
:1042800080231B029A420AD1031CA0201033400550
:1042900018430368002B02D180235B000360704742
:1042A0008002002010B58022041C52051034002327
:1042B00014430121216023604360016090211C3080
:1042C000490501430B608821490501430B608421A6
:1042D0004905014310430B60036010BD021C90238D
:1042E00014325B05134300221A6042601022016001
:1042F0001A6070470068086070470000114B820028
:1043000070B5D558104B802292051A60041C281CE9
:10431000FFF7C8FF281CFFF7B1FF0C4B0C4E195DCF
:1043200001251F221140345D2B1C8B40191C22409B
:10433000084BC020A840954019501D5019601D60C1
:1043400070BDC046586900003C80845E556900001D
:104350005469000000E100E0F7B5124B8000C75837
:104360000025081C0E1C0195FFF732FF041EAC420D
:1043700016D001A9301CFFF755FF281CFEF7ACFD35
:10438000011C80200002814206D0FCF7CFF8011CFE
:104390000198FCF7CBF80190381C0199FFF79EFFBC
:1043A000201CFEBD58690000F7B5134B8000C558AE
:1043B0000024281C0E1C01A90194FFF79BFF201C60
:1043C000FEF78AFD041C8020000284420ED00B4BB5
:1043D000211C04351D43FCF7A9F82D68019F211C01
:1043E0004743A8B2FCF7A2F83F180197311C01A877
:1043F000FFF7A0FEF7BDC046586900000000781026
:10440000F0B5194B800085B0C5580026081C0F1C5C
:1044100001920396FFF7DCFE041EB44201D1002492
:104420001EE0381C03A9FFF7FDFE301C2F68FEF7C5
:1044300053FD011C80200002814206D0FCF776F873
:10444000011C0398FCF772F80390039BBB42E6D370
:10445000AB60019A88235B051C351D4393002B60DC
:10446000201C05B0F0BDC04658690000044B800018
:10447000C25888231C325B051343890019607047BA
:1044800058690000054B8000C258882314325B0530
:1044900013431868431E9841C0B270475869000022
:1044A0006B461A78E023DB0212041A400B07111C3A
:1044B0001943024BC01801607047C0464410000009
:1044C00008B5084B8200D258902303325B05134392
:1044D0001B78002B02D000F015F901E000F07CF908
:1044E00008BDC046606900000C4A08B580000C4B4E
:1044F0008158C3589C2003314005002208431A719B
:1045000002709420400501430A701A7F002A03D0EC
:10451000181C2030FEF795FA08BDC04660690000FF
:10452000880200201C4BF7B53022061C0C1C8700AB
:10453000081C0021FD5800F0C2FC301CFEF759FD9C
:10454000FEF78AFC2060281C00F0F6FB201C0021EE
:104550002030FEF76FFA9023EA1C5B0513430192AB
:1045600010221A70281C032100F026FC281C0021B0
:1045700000F048FC094BFC50094B9A5D1F231A4080
:10458000012393401A1C074B1A60019A98235B057C
:10459000134340221A70F7BD6069000088020020B2
:1045A0005C69000000E100E0F8B50D4E84000D4BA1
:1045B000A759051CE05800F0BFFB381C2030FEF75F
:1045C00050FA094B281C5A5D1F231A4001239340BF
:1045D0001A1C064BDA67FEF711FD0023A351F8BD44
:1045E00088020020606900005C69000004E100E0CE
:1045F0000A4B800070B5C558094B0C1CC358161CDB
:10460000281C1A68096800F09EFB30602179281C7C
:104610006279A37900F0E3FB70BDC04660690000D9
:1046200088020020F7B51F4A83009C581E4A061CCA
:104630009D5822790420002A33D1002903D0301C50
:1046400001AAFFF7D5FF9821EA1C49051143002371
:1046500040200B70087027699F4203D1301CFFF780
:1046600043FF1DE001212171A36194235B052B43CE
:1046700019780720002914D0A368002B03D01978DB
:104680000133A36000E0191CA9712369013B236178
:10469000A3690133A3619C235B051A438023137034
:1046A0000020FEBD8802002060690000F8B5134CB0
:1046B0008600134F3459069DF65901272777A260CB
:1046C0002561E3606561FFF7ADFF051E14D1201C75
:1046D00020300799FEF7F8F90328F8D000280BD00E
:1046E0009C22033652050023324323711370942217
:1046F0005205164333700325281CF8BD880200209C
:104700006069000010B51F4B8200D3581E495258F3
:104710001979002934D05969002911D09C21490503
:104720001143097800290BD09479D968E4B20029A3
:1047300003D00C70D9680131D960596901395961C8
:104740001969002914D094214905114309780029D9
:104750000ED09968002903D00C780131996000E0EF
:104760000C1C94711A69013A1A619A6901329A61B2
:104770001A69002A04D15B69002B01D1FFF7B4FE4E
:1047800010BDC046880200206069000008B5104BCB
:104790008000C3580F4A81580022581CC2779C20C1
:1047A000033140050843DA621A701A835A629A622A
:1047B0001A6302709420400501430A701A1C3832B3
:1047C0001278002A03D0181D0121FEF74CF908BD0C
:1047D000880200206069000038B5254B8200D3585C
:1047E00024495258591CC97F00293FD0D96A002951
:1047F00016DB9421490511430978002910D0596A24
:104800001C7F002905D0DD6A002D02DD0C78013106
:1048100059629471D96A0139D962596B013159636E
:10482000D96A002905DA9421D41C490521430024C2
:104830000C70196B002911DD9C2149051143097881
:1048400000290BD091799A6AC9B2002A03D011705D
:104850009A6A01329A621A6B013A1A63DA6A002A7A
:1048600004DC1B6B002B01DCFFF790FF38BDC0465A
:104870008802002060690000012903D0032909D1C2
:10488000842300E094235B0518430078431E98417D
:10489000C0B200E000207047034B013049011843CB
:1048A000C9B201707047C0460000881294235B05AE
:1048B000023049011843C9B201707047034B0230FE
:1048C00089011843C9B201707047C046000008133F
:1048D0008C235B050230C9001843C9B201707047D0
:1048E000F7B5384EC21C164332780B78041C0D1CE9
:1048F000D2B20120072B63D8181CFBF70DFE041958
:104900002A0D192A2A3A304B01341C430023237004
:104910003378012BFCD152E00320012A50D12A4BDD
:1049200001341C43402323703378042BFCD146E030
:104930000021012B01D004230221327803209A4266
:104940003ED1201CFFF7A8FF204B04211A698A439F
:1049500033E00227BB4207D10B790027BB4203D0CB
:104960004979201CFFF7AAFF194B01341C4327701B
:1049700019E0174B621C1A43042111706A78A11CBC
:104980000B431A706B78002B06D1AB78002B03D049
:10499000E978201CFFF78AFFAB79002B03D0E97977
:1049A000201CFFF795FF33780421DBB20193019BB4
:1049B00001330193054B1A690A431A6130BF002085
:1049C000FEBDC046000030100000881200ED00E07F
:1049D00000001010024B033018430078C0B270473B
:1049E0000000301014308023012A04D11B058A40B6
:1049F0001843111C04E0DB04184301238B40D94306
:104A00000160704701238B40002A01D0436000E021
:104A1000836070470023C222037043708370C370A9
:104A200043718371C371037242728372C3727047A0
:104A3000F0B587B00293FA239B005343002701256A
:104A40000490059101936D423C1C00970123A34003
:104A500003930026144A059893195988039B5943D8
:104A6000FBF764FD019A831A824200D9131AAB4204
:104A700004D20D4A0094975D1D1E02D00436C82E44
:104A8000E8D10134032C01D0002DDFD1029B002B93
:104A900000D01D60009A3F231F4093011F43049BD9
:104AA000FFB25F7007B0F0BD7A6900009423023056
:104AB0005B0503431B78002B04D088235B05184358
:104AC000042303E080231B05184330230370704741
:104AD0009422831C52051A431278011C0220012AD9
:104AE00012D18022D2041343CF221A708023DB001C
:104AF000C8782022024004D0013B002B03D0C046DE
:104B0000F6E7101C00E0092070470000034B03602B
:104B1000034B436000238360036170470400000F70
:104B200000C01FC0F0B50F1C87B091000390381C67
:104B3000141CFBF7FBFC82B29100381C0492FBF7BB
:104B4000F5FC251AA04200D9051B0526331C63433A
:104B50000422029301920299381CFBF7E7FC81B210
:104B600005907143381CFBF7E1FC231AA04200D9E1
:104B7000031BAB4204D8059A1D1C92B20492019605
:104B8000029B01361B190293212EE4D1201C6421C3
:104B9000FBF7CCFC0323434301209D4219D2019B28
:104BA000043B032B06D8039AC4235B0513438022DE
:104BB00092021A60039AE1235B051343019A0020D5
:104BC000013A12061A60039A83235B051343049A81
:104BD0001A6007B0F0BDF42310B55B05022903D1BC
:104BE000184380239B0508E0041C902208345205DA
:104BF00022430901184311600023036010BD842380
:104C000008304A085B05034352001A6080235B05A5
:104C100018430123194001607047012310B58B40F0
:104C2000041C080C042816D8FBF776FC0A030507B9
:104C30000900043404E0083402E00C3400E01034CD
:104C4000002A03D080221205144303E08022D204FC
:104C50001443DB43236010BD021C10B5080C002375
:104C6000042810D80124FBF757FC030507090B00A3
:104C7000136806E0536804E0936802E0D36800E03C
:104C80001369CB402340181C10BD0000294A031CA7
:104C9000881800B510284BD8FBF73EFC413A251E7A
:104CA0001710094A4A4A4A2C4A4A4A4A3300D02233
:104CB0005205043313438022520336E0CC225205BE
:104CC00004331343802212032FE0C8225205043319
:104CD00013438022D20228E0C42252050433134336
:104CE0008022920221E0C022520504331343802225
:104CF00052021AE0FC2252050433134380221206AA
:104D000013E0F8225205043313438022D2050CE04D
:104D1000BC225205043313438022120205E0B8225C
:104D20005205043313438022D2011A60002000E0B0
:104D3000032000BDF2FFFEFF0423C3700023837035
:104D4000437003717047F0B589B00692120B03925D
:104D50000126082307220790059100257642029339
:104D60000192022700246B1C191C794306980493B6
:104D7000FBF7DCFB059A824206D3131A9E4203D945
:104D80001E1C03900294019501347F00092C01D070
:104D9000002EE8D1072D03D0002E01D0049DE0E7BE
:104DA000019B03981A0170231340029A1343079A38
:104DB000DBB2537009B0F0BD8423C21C5B05134302
:104DC00001220A405200D2B289071A70C90F9023FB
:104DD0005B05023009011843C9B20170704710B574
:104DE0008C2403306405C9000443C9B221708821B2
:104DF000490592000143D2B20A7080225205104345
:104E0000037010BD802302305B05012203430A407A
:104E100089071A70C90F8C235B05C9001843C9B2F2
:104E2000017070474118884203D00023037001309D
:104E3000F9E77047084B10B5041C002B02D0002185
:104E400000E000BF054B1868836A002B00D098472C
:104E5000201C00F04BF8C04600000000446A00002F
:104E600070B50E4B0E4D0024ED1AAD101E1CAC4259
:104E700004D0A300F35898470134F8E701F0E4FDAB
:104E8000084B094D0024ED1AAD101E1CAC4204D095
:104E9000A300F35898470134F8E770BD686A000032
:104EA000686A0000686A00006C6A000010B50023A0
:104EB000934203D0CC5CC4540133F9E710BD031C0A
:104EC0008218934202D019700133FAE77047031C2D
:104ED0000A7801311A700133002AF9D17047002392
:104EE000C25C0133002AFBD1581E7047FEE7C04662
:104EF0009F000000000000096757617270537069DD
:104F0000436F6D6D6F6E53696E6B42756666657249
:104F10005B25645D203D205B3078253032585D0A8A
:104F2000001B5B306D1B5B343B34336D1B5B313BD3
:104F300033376D0D53616E69747920636865636BF7
:104F4000206661696C6564211B5B306D0A001B5B28
:104F5000306D1B5B343B34316D1B5B313B33376D44
:104F60000D496E76616C696420737570706C792080
:104F7000766F6C74616765205B25645D206D5621DA
:104F80001B5B306D0A00776172705365744C6F77EC
:104F9000506F7765724D6F6465286B576172705002
:104FA0006F7765724D6F6465564C50532C203020DE
:104FB0002F2A20736C656570207365636F6E647350
:104FC000203A20697272656C6576616E742068653E
:104FD0007265202A2F292829206661696C65642E54
:104FE0002E2E0A000D0A0A0A0A5B202A090909095D
:104FF0005761727020284857207265766973696F0F
:105000006E204329202F20476C617578202848574F
:10501000207265766973696F6E2042290909092A31
:10502000205D0A000D5B20200909090920202020AD
:10503000202043616D627269646765202F2050688B
:105040007973636F6D706C61622020200909090912
:1050500020205D0A0A000D09537570706C793D259A
:10506000646D562C0944656661756C7420546172D8
:105070006765742052656164205265676973746561
:10508000723D3078253032780A000D094932433DAF
:1050900025646B622F732C095350493D25646B6264
:1050A0002F732C09554152543D2564622F732C09EE
:1050B0004932432050756C6C2D55703D25640A0AA9
:1050C000000D0953494D2D3E53434743363D30783B
:1050D0002530327809095254432D3E53523D3078E1
:1050E0002530327809095254432D3E5453523D30F5
:1050F00078253032780A000D094D43475F43313D32
:105100003078253032780909094D43475F43323DF5
:1051100030782530327809094D43475F533D307868
:10512000253032780A000D094D43475F53433D3027
:1051300078253032780909094D43475F4D433D30AA
:10514000782530327809094F53435F43523D307818
:10515000253032780A000D09534D435F504D5052AF
:105160004F543D307825303278090909534D435F5B
:10517000504D4354524C3D30782530327809095314
:1051800043422D3E5343523D3078253032780A0059
:105190000D09504D435F52454753433D307825300C
:1051A000327809090953494D5F53434743343D3031
:1051B0007825303278095254432D3E5450523D30B8
:1051C00078253032780A0A000D0925647320696E4B
:1051D000205254432048616E646C657220746F2DB8
:1051E000646174652C09256420506D6772204572D6
:1051F000726F72730A000D09307825303278202DD5
:105200002D3E205B307825303278203078253032C2
:1052100078203078253032785D0A000D0930782505
:10522000303278202D2D3E203078253032780A001B
:105230000D09307825303278202D2D3E202D2D2D52
:105240002D0A000D0A0925642F25642073756363F8
:1052500065737320726174652E0A000D0925642F31
:10526000256420737563636573736573206D617462
:1052700063686564207265662E2076616C756520B2
:105280006F66203078253032782E0A000D092564AB
:105290002062616420636F6D6D616E64732E0A0A13
:1052A000000A0A0A0D426F6F74696E6720576172B7
:1052B000702C20696E20332E2E2E2000322E2E2EA2
:1052C0002000312E2E2E0A0A0A0D0041626F7574DD
:1052D00020746F207377697463682043505520747D
:1052E0006F20564C5052206D6F64652E2E2E20007C
:1052F000776172705365744C6F77506F7765724D3C
:105300006F6465286B57617270506F7765724D6F6F
:105310006465564C50522829206661696C65642E7C
:105320002E2E0A00646F6E652E0A0D0041626F75A5
:105330007420746F204750494F5F4452565F496E46
:10534000697428292E2E2E200041626F75742074F6
:105350006F206C6F77506F77657250696E53746110
:1053600074657328292E2E2E20004144584C333664
:10537000323A20535049207472616E7361637469CC
:105380006F6E20746F2072656164204445564944F5
:105390005F4144206661696C65642E2E2E0A0041CF
:1053A00044584C3336323A2044455649445F4144D0
:1053B000203D205B3078253032585D2E0A00414474
:1053C000584C3336323A20535049207472616E7310
:1053D000616374696F6E20746F207265616420442C
:1053E000455649445F4D5354206661696C65642E8F
:1053F0002E2E0A004144584C3336323A204445564A
:1054000049445F4D5354203D205B3078253032585D
:105410005D2E0A004154343544423A20535049200D
:105420007472616E73616374696F6E20746F207241
:10543000656164204D616E75666163747572657235
:10544000204944206661696C65642E2E2E0A004155
:105450005434354442204D616E75666163747572D3
:1054600065722049443D5B3078253032585D2C20F0
:105470004465766963652049443D5B307825303268
:1054800058203078253032585D2C20457874656E70
:105490006465642044657669636520496E666F7251
:1054A0006D6174696F6E3D5B307825303258203005
:1054B00078253032585D0A00436F6E6669677572F1
:1054C000696E672042475820426C7565746F6F742F
:1054D000682E0A00456E61626C696E672055415204
:1054E000542E2E2E2000696E697442475828292EAA
:1054F0002E2E2000426F6F7420646F6E652E0A009E
:105500000D53656C6563743A0A000D2D20276127E1
:105510003A207365742064656661756C74207365E8
:105520006E736F722E0A000D2D202762273A2073AA
:10553000657420493243206261756420726174652C
:105540002E0A000D2D202763273A207365742053FF
:105550005049206261756420726174652E0A000DE5
:105560002D202764273A207365742055415254201A
:105570006261756420726174652E0A000D2D20270A
:1055800065273A207365742064656661756C7420C4
:1055900072656769737465722061646472657373A0
:1055A0002E0A000D2D202766273A20777269746530
:1055B000206279746520746F2073656E736F722E2C
:1055C0000A000D2D202767273A2073657420646533
:1055D0006661756C742073656E736F72207375707D
:1055E000706C7920766F6C746167652E0A000D2DE2
:1055F000202768273A20706F776572646F776E2076
:10560000636F6D6D616E6420746F20616C6C2073CC
:10561000656E736F72732E0A000D2D202769273A6D
:10562000207365742070756C6C2D757020656E61CB
:10563000626C652076616C75652E0A000D2D202741
:105640006A273A2072657065617420726561642012
:1056500072656720307825303278206F6E20736550
:105660006E736F72202325642E0A000D2D20276B88
:10567000273A20736C65657020756E74696C2072B2
:10568000657365742E0A000D2D20276C273A207350
:10569000656E6420726570656174656420627974FA
:1056A00065206F6E204932432E0A000D2D20276D94
:1056B000273A2073656E6420726570656174656455
:1056C0002062797465206F6E205350492E0A000DB8
:1056D0002D20276E273A20656E61626C6520736508
:1056E0006E736F7220737570706C7920766F6C7446
:1056F0006167652E0A000D2D20276F273A20646907
:105700007361626C652073656E736F722073757060
:10571000706C7920766F6C746167652E0A000D2DB0
:10572000202770273A2073776974636820746F208C
:10573000564C5052206D6F64652E0A000D2D2027A7
:1057400072273A2073776974636820746F2052550A
:105750004E206D6F64652E0A000D2D202773273AA9
:1057600020706F77657220757020616C6C20736596
:105770006E736F72732E0A000D2D202774273A2046
:1057800064756D702070726F636573736F722073D0
:10579000746174652E0A000D2D202775273A207339
:1057A00065742049324320616464726573732E0A04
:1057B000000D2D202752273A2072656164206279FE
:1057C0007465732066726F6D20466C6173682E0A73
:1057D000000D2D202746273A2077726974652062D4
:1057E0007974657320746F20466C6173682E0A00AB
:1057F0000D2D202778273A2064697361626C65203B
:1058000053574420616E64207370696E20666F7216
:1058100020313020736563732E0A000D2D20277A06
:10582000273A2070657270657475616C6C792064BC
:10583000756D7020616C6C2073656E736F7220647F
:105840006174612E0A000D456E7465722073656C7B
:10585000656374696F6E3E20000D0953656C656366
:10586000743A0A000D092D20273127204144584C55
:1058700033363209090928307830302D2D3078320E
:1058800044293A20312E3656202D2D20332E3556E0
:105890000A000D092D2027322720424D583035357A
:1058A000616363656C20090928307830302D2D3014
:1058B000783346293A20322E3456202D2D20332E8F
:1058C00036562028636F6D70696C6564206F75743F
:1058D00029200A000D092D2027332720424D58305A
:1058E00035356779726F09090928307830302D2DE8
:1058F00030783346293A20322E3456202D2D20334D
:105900002E36562028636F6D70696C6564206F7544
:105910007429200A000D092D2027342720424D58D4
:105920003035356D616709090928307834302D2DFF
:1059300030783532293A20322E3456202D2D20331E
:105940002E36562028636F6D70696C6564206F7504
:105950007429200A000D092D20273527204D4D419F
:10596000383435315109090928307830302D2D303F
:10597000783331293A20312E393556202D2D2033D8
:105980002E36562028636F6D70696C6564206F75C4
:105990007429200A000D092D20273627204C50534A
:1059A00032354809090928307830382D2D307832C1
:1059B00034293A20312E3756202D2D20332E3656BD
:1059C0002028636F6D70696C6564206F7574292081
:1059D0000A000D092D20273727204D41473331314B
:1059E0003009090928307830302D2D3078313129AF
:1059F0003A20312E393556202D2D20332E36562083
:105A000028636F6D70696C6564206F757429200A56
:105A1000000D092D202738272048444331303030ED
:105A200009090928307830302D2D30783146293A4F
:105A300020332E3056202D2D20352E305620286331
:105A40006F6D70696C6564206F757429200A000D94
:105A5000092D2027392720534937303231090909C8
:105A600028307830302D2D30783046293A20312EAC
:105A70003956202D2D20332E36562028636F6D7019
:105A8000696C6564206F757429200A000D092D204A
:105A9000276127204C334744323048090909283010
:105AA0007830462D2D30783339293A20322E32562F
:105AB000202D2D20332E36562028636F6D70696C93
:105AC0006564206F757429200A000D092D20276256
:105AD0002720424D453638300909092830784141A0
:105AE0002D2D30784638293A20312E3656202D2D4E
:105AF00020332E36562028636F6D70696C656420E4
:105B00006F757429200A000D092D20276427205461
:105B10004353333437323509090928307830302D72
:105B20002D30783144293A20322E3756202D2D2021
:105B3000332E33562028636F6D70696C6564206F57
:105B4000757429200A000D092D2027652720534947
:105B500034373035090909286E2F61293A20202071
:105B60002020202020322E3756202D2D20352E3576
:105B7000562028636F6D70696C6564206F75742999
:105B8000200A000D092D2027672720434353383171
:105B90003109090928307830302D2D3078464629D2
:105BA0003A20312E3856202D2D20332E36562028DF
:105BB000636F6D70696C6564206F757429200A00CD
:105BC0000D092D2027682720414D473838333409E7
:105BD000090928307830302D2D3F293A20332E33D3
:105BE00056202D2D20332E33562028636F6D70697B
:105BF0006C6564206F757429200A000D092D20271B
:105C00006A27204153373236320909092830783063
:105C1000302D2D30783242293A20322E3756202D21
:105C20002D20332E36562028636F6D70696C6564A5
:105C3000206F757429200A000D092D20276B27205D
:105C400041533732363309090928307830302D2D49
:105C500030783242293A20322E3756202D2D2033EB
:105C60002E36562028636F6D70696C6564206F75E1
:105C70007429200A000D09456E7465722073656CE5
:105C8000656374696F6E3E20000D09496E76616C24
:105C900069642073656C656374696F6E2027256382
:105CA0002720210A000D0A09536574204932432038
:105CB00062617564207261746520696E206B627028
:105CC000732028652E672E2C20273030303127296D
:105CD0003E20000D0A09493243206261756420723A
:105CE0006174652073657420746F202564206B6275
:105CF0002F73000D0A0953657420535049206261C7
:105D00007564207261746520696E206B6270732007
:105D100028652E672E2C20273030303127293E2051
:105D2000000D0A0953504920626175642072617444
:105D3000653A202564206B622F73000D0A095365B4
:105D400074205541525420626175642072617465FB
:105D500020696E206B6270732028652E672E2C20C0
:105D6000273030303127293E20000D0A0955415295
:105D700054206261756420726174653A2025642044
:105D80006B622F73000D0A09456E74657220322D07
:105D90006E7962626C6520726567697374657220E2
:105DA00068657820616464726573732028652E6766
:105DB0002E2C2027336527293E20000D0A09456E29
:105DC0007465726564205B3078253032785D2E0A08
:105DD0000A000D0A09456E7465722049324320613C
:105DE0006464722E2028652E672E2C2027306627AB
:105DF00029206F72202739392720666F722053506F
:105E000049203E20000D0A09456E746572656420C4
:105E10005B3078253032785D2E0A000D0A09456E18
