S02B00002F55736572732F526168756C2F576172702D6669726D776172652F6275696C642F6B73646B312E316A
S113000000060020E90400001105000011050000AD
S113001000000000000000000000000000000000DC
S113002000000000000000000000000011050000B6
S11300300000000000000000110500001105000090
S11300401105000011050000110500001105000054
S1130050110500001105000011050000850D0000C8
S113006093310000110500009D31000011050000CE
S1130070A731000011050000110500001105000062
S11300801105000011050000110500001105000014
S11300905D0D0000750D0000110500001105000044
S11300A011050000110500001105000011050000F4
S11300B01105000011050000950D00001105000058
S1130400FFFFFFFFFFFFFFFFFFFFFFFFFE3DFFFFBB
S113041010B5064C2378002B07D1054B002B02D0D6
S1130420044800E000BF0123237010BD40FFFF1FFC
S1130430000000002073000008B5084B002B03D017
S11304400748084900E000BF07480368002B03D0B1
S1130450064B002B00D0984708BDC04600000000A2
S11304602073000044FFFF1F3CFFFF1F000000003B
S1130470164B002B00D1144B9D46402292029A1A2F
S1130480924600218B460F461348144A121A05F06F
S11304904EF80F4B002B00D098470E4B002B00D08A
S11304A098470020002104000D000D48002802D0C8
S11304B00C4800E000BF05F00BF82000290001F013
S11304C039F804F0EFFFC0460000080000060020E1
S11304D0000000000000000040FFFF1F2002002079
S11304E0000000000000000072B606480649074AF2
S11304F002600A6002F05CFE02F09CFE62B6FFF746
S1130500B7FF000080E100E080E200E0FFFFFFFFB2
S1130510004800471105000002B47146490849002B
S1130520095C49008E4402BC7047C046002934D09F
S11305300123002210B488422CD301242407A142B1
S113054004D2814202D209011B01F8E7E400A1426E
S113055004D2814202D249005B00F8E7884201D309
S1130560401A1A434C08A04202D3001B5C082243E1
S11305708C08A04202D3001B9C082243CC08A04252
S113058002D3001BDC082243002803D01B0901D03E
S11305900909E3E7101C10BC7047002801D00020B3
S11305A0C04307B4024802A14018029003BDC046EC
S11305B0D90000000029F0D003B5FFF7B9FF0EBC45
S11305C04243891A1847C046002941D010B4041C7C
S11305D04C40A44601230022002900D549420028AA
S11305E000D5404288422CD301242407A14204D2DE
S11305F0814202D209011B01F8E7E400A14204D2BE
S1130600814202D249005B00F8E7884201D3401AD4
S11306101A434C08A04202D3001B5C0822438C08F6
S1130620A04202D3001B9C082243CC08A04202D360
S1130630001BDC082243002803D01B0901D0090950
S1130640E3E7101C6446002C00D5404210BC704700
S1130650002806D003DB0020C043400801E08020CE
S1130660000607B4024802A14018029003BDC04628
S1130670190000000029EBD003B5FFF7A7FF0EBC5B
S11306804243891A1847C0467047C046F0B55F46D2
S113069056464D464446F0B446024500C00F85B068
S11306A00F1C760A2D0E804641D0FF2D26D08024C3
S11306B0240400212643F6007F3D89468B46F90F2A
S11306C07C027800640A000E00918A463CD0FF2820
S11306D034D080231B041C430023E4007F3801939F
S11306E0009F4346019A7B4049469C4611430F298B
S11306F000D971E0764F89007F58BF46002E3ED165
S11307000822022391469B46D9E75A46341CC24626
S113071001920199022937D0032900D1CFE00129A0
S113072000D0ABE053460B400022002632E0002EFE
S113073019D10421012289469346C0E7221C531E85
S11307409A4102320192CBE701270197002CC7D0CE
S1130750201C00F067FA431F9C4076235B42002173
S1130760181A0191BCE7301C00F05CFA7625431F8F
S11307709E406D4200232D1A99469B469FE70C2309
S1130780032199468B469AE7D446012367463B40AA
S1130790FF2200267602D205700ADB0710431843B5
S11307A005B03CBC90469946A246AB46F0BD8026B7
S11307B00023F603FF22EDE700220026EAE780206B
S11307C0C00306423BD0044239D1061C26437602BC
S11307D0760A009BFF22DDE7281A03907601640164
S11307E0A64239D3361B1A2201230120311C5B0097
S11307F07600002901DBB44201D8361B0343013AD9
S1130800002AF3DC741EA641341C1C43039A7F3275
S1130810002A27DD630704D00F232340042B00D0D4
S11308200434270103D52B4B039A1C408032FE2A43
S11308300BDD012361460B40FF220026AAE7064395
S11308407602760A4346FF22A4E7A4010123674601
S1130850660AD2B23B409DE7039F1B22013F0397E8
S11308600023C2E77E23039F5B42DB1B1B2B07DDB8
S1130870012361460B40002200268BE7D446C5E7DE
S1130880221CDA40039B9E339C40231C5C1EA34124
S113089013435A0704D00F221A40042A00D0043309
S11308A05F0105D5012361460B400122002671E753
S11308B09E01624601231340760A00226AE78026DD
S11308C0F60326437602760A5346FF2262E7C046C1
S11308D060550000FFFFFFF7F0B55F4656464D46F2
S11308E04446F0B44402460083B00F1C640A360E3A
S11308F0C50F002E41D0FF2E22D080231B040020E0
S11309001C43E4007F3E82468046391C4B007F0234
S1130910C90F7F0A1B0E8B463BD0FF2B34D080229D
S113092012041743FF007F3B00215A466A4001929C
S113093052460A430F2A63D87A489200825897464F
S1130940002C3FD10822022392469846DDE7019508
S1130950404602282AD1019A01251540FF2300248C
S11309606402DB05600AED071843284303B03CBC6E
S113097090469946A246AB46F0BD002C27D10420F0
S1130980012282469046C0E7391C4A1E9141023139
S1130990CBE70121002FC8D0381C00F043F9431FD6
S11309A09F4076235B421B1A0021BEE7032800D137
S11309B0AEE001284FD1019842461040C5B2002351
S11309C00024CDE70C2303209A4680469DE7201C93
S11309D000F028F97626431F9C4076420023361AFD
S11309E09A46984691E780240025E403FF23B7E75D
S11309F05B463C1C01938846AAE73C1C8846A7E753
S1130A00250C24043A0C240C3F04F6183F0C211C3A
S1130A10231C794353436F435543FB180A0C9B181B
S1130A20B1469F4202D980225202AD1809041A0429
S1130A30090C521894011B0C611E8C41920EED1886
S1130A401443AD012C43230105D501226308012081
S1130A50144081441C434B467F33002B2DDD60073B
S1130A6004D00F222240042A00D00434220103D5EA
S1130A702D4B1C404B468033FE2B17DD019B01257B
S1130A801D400024FF236BE78020C003044208D0EC
S1130A90074206D1041C3C436402640A5D46FF23FA
S1130AA05EE704436402640AFF2359E70198A40142
S1130AB00125640ADBB2054052E77E235B424A46C5
S1130AC09B1A1B2B05DD019B01251D4000240023DF
S1130AD046E7221CDA404B469E339C40231C5C1E96
S1130AE0A3411343580704D00F221A40042A00D00C
S1130AF004335A0105D5019B01251D40002401231F
S1130B002EE701989C010125640A0540002327E78C
S1130B108027FF03019B3C43640201251D40640AB6
S1130B20FF231DE7A0550000FFFFFFF74302590A0A
S1130B304300C20F1B0E00207E2B0DDD9D2B0CDC11
S1130B40802000040143952B0ADC9620C31AD94067
S1130B504842002A00D1081C7047034BD018FBE719
S1130B60963B9940F4E7C046FFFFFF7F70B5041E33
S1130B703CD0C60F00D04442201C00F053F89E2302
S1130B80251C1B1A962B0CDC083884406402640A6A
S1130B90DBB2321C6402DB05600AD207184310433F
S1130BA070BD992B0ADD0522121A211CD1400A1CA2
S1130BB0011C1B318D40691E8D411543052801DD43
S1130BC0421F9540164C2C406A0704D00F22154052
S1130BD0042D00D0043461010CD59F23181AFF287A
S1130BE01AD0A401640AC3B2321CD3E70022002342
S1130BF00024CFE7E408FF2B04D06402640ADBB2CC
S1130C00321CC7E7002C04D08020C00304436402D4
S1130C10640A321CFF23BDE7321CFF230024B9E71A
S1130C20FFFFFFFB1C2101231B04984201D3000C8E
S1130C3010391B0A984201D3000A08391B0998424B
S1130C4001D30009043902A2105C40187047C04661
S1130C500403020201010101000000000000000081
S1130C60837802209842804140427047437A0020B2
S1130C70013B012B03D90B78012001330B70704722
S1130C80031C303809280BD91A1C613A2738052A65
S1130C9006D91A1C413A0020052A01D8181C3738F5
S1130CA070470000174AC0239B001360164A136064
S1130CB0164A1360164A00231360164A1360164A34
S1130CC01360164A1360164A1360164A1360164AD4
S1130CD01360164A1360164A1360164A1360164AC4
S1130CE01360164A1360164A1360164A1360164AB4
S1130CF01360164A1360164A1360164A1360164AA4
S1130D0013607047009014540490145408901454C1
S1130D100C901454109014541490145418901454A7
S1130D201C9014542090145424901454309014544F
S1130D3000A0145404A0145408A014540CA0145477
S1130D4010A0145414A0145418A014541CA0145427
S1130D5028A014542CA0145434A0145408B5002012
S1130D6003F050FF002803D00020011C03F03EFFD5
S1130D7008BD0000024B1A6801321A607047C04671
S1130D805CFFFF1F08B50248072103F0E9FB08BD1B
S1130D9000C00740024B012252421A607047C0460D
S1130DA0A090044037B5002002F047FD0D4AC0234F
S1130DB09B0013600C4A0D4C136000250C4B2571ED
S1130DC06571A5711A68FA239B005343281C0949CD
S1130DD0236003F067FF281C211C01AA03F0C8FF4D
S1130DE037BDC0461C90145400A014545000002079
S1130DF028FEFF1F5800002008B5002003F094FFD0
S1130E000A4A80235B001360094A08201360094AD8
S1130E10136002F0C1FF062002F0BEFF092002F0B9
S1130E20BBFF002002F00EFD08BDC046189014540C
S1130E301C90145400A0145408B5074A80235B0086
S1130E401360064A0E201360054AFF301360054AFA
S1130E50136002F093FF08BD30901454249014548E
S1130E602090145404A0145408B5002002F0F4FC9B
S1130E70054A80239B001360044A00201360044940
S1130E8003F06AF808BDC0460CA0145410A0145412
S1130E90A0FFFF1F08B5002003F09AF8034B0020C1
S1130EA01860034B186002F0DCFC08BD0CA014545D
S1130EB010A0145408B50620FF3002F06DFF024B59
S1130EC0186802F07CFA08BD10FEFF1F0FB41FB5AE
S1130ED006AB04CB0020039340230093069903AA96
S1130EE0084B02F029F8002804DA0749002001F031
S1130EF045FF02E0052002F062FA05B008BC04B028
S1130F001847C0460E0000203170000038B5784DF7
S1130F10041C2B88984200D1E8E0764BC218764B2B
S1130F2092B29A4200D9DDE0744A80235B001360D8
S1130F30734A1360734A1360734A1360734A1360ED
S1130F40734B984200D17EE024D8724B984263D010
S1130F5010D8714B984249D0FA23DB00984256D0FE
S1130F60E123DB00984200D0AFE00C20FF3002F018
S1130F7013FF3FE0694B984257D096231B019842D8
S1130F805CD0674B984200D09FE00C20FF3002F009
S1130F9003FF4EE0634B984270D00FD8624B9842E7
S1130FA05ED0AF231B01984263D0604B984200D0BF
S1130FB08BE00C20FF3002F0EFFE55E05C4B9842D2
S1130FC069D007D85B4B98427FD10C20FF3002F0E8
S1130FD0E3FE64E0C8231B01984265D0564B984257
S1130FE073D10C20FF3002F0C9FE61E00C20FF3009
S1130FF002F0C4FE8520400002F0CEFE0820FF303F
S113100002F0CAFE8320400002F0C6FE60E00C201D
S1131010FF3002F0C1FE03E00C20FF3002F0AEFE10
S11310208520400002F0AAFEE8E70C20FF3002F021
S1131030A5FE8520400002F0AFFE0CE00C20FF303E
S113104002F0AAFE03E00C20FF3002F097FE852098
S1131050400002F093FE0820FF3002F08FFED1E73B
S11310600C20FF3002F08AFE8520400002F094FE3E
S11310700CE00C20FF3002F08FFE03E00C20FF3068
S113108002F07CFE8520400002F078FE0820FF304C
S113109002F082FE14E00C20FF3002F06FFE852087
S11310A0400002F079FE07E00C20FF3002F074FEED
S11310B08520400002F062FE0820FF3002F05EFE50
S11310C08320400002F05AFE02E01C48FFF7FEFEB7
S11310D01B4B186802F073F90620FF3002F04EFE35
S11310E02C8003E01748211CFFF7F0FE38BDC046F2
S11310F008FEFF1FF8F8FFFFDC05000014A01454DD
S113110018A014541CA0145428A014542CA0145433
S1131110C4090000340800006C070000FC0800004B
S113112098080000540B00008C0A0000280A0000F4
S11311301C0C0000B80B0000E40C00000A56000070
S113114010FEFF1F3756000010B5041C002901D003
S1131150FFF7A8FD0021022001F082F90420211CE0
S113116001F07EF9002802D00148FFF7AFFE10BD60
S11311706F560000F8B5051C2648171C0C1CFFF719
S1131180A5FE2548FFF7A2FE291C221C2348FFF7D1
S11311909DFE234B23481968234B244D1A68244B86
S11311A0244E1B68FFF792FE234B244CF15824482D
S11311B06A692B68FFF78AFE21786278A379C9B23D
S11311C0D2B2DBB21F48FFF781FE1F4B217A227E89
S11311D01B78C9B2D2B2DBB21C48FFF777FE1C4BB6
S11311E01C4819785A781C4BC9B2D2B21B69FFF754
S11311F06DFE1A4B1A4899781A4BC9B2F2586B68AB
S1131200FFF764FE184B3A7819681848FFF75EFE3A
S1131210F8BDC046CD5600000D5700003F570000F2
S113122004FEFF1F7357000028FEFF1F00D0034079
S113123018FEFF1F007004403C10000000400640F0
S1131240AA570000E0570000005006400F58000065
S113125000E007403F58000000ED00E000D00740E8
S113126079580000341000005CFFFF1FB1580000E3
S113127008B501F08FFD0028FBDB08BD70B5FFF752
S1131280F7FF051CFFF7F4FFFF24061C281C204071
S1131290FFF7F6FC051C301C2040FFF7F1FC2D0184
S11312A02818C0B270BD70B5FFF7E2FF061CFFF747
S11312B0DFFF051CFFF7DCFF041CFFF7D9FFFF234A
S11312C01E40FA2292001D40303E56431C406422C8
S11312D0303D5543303C0A225443751903402C19C0
S11312E0303BE01870BD0000F0B591B01D1C16AB8A
S11312F00C91197817AB05921A7818AB1B78041C5B
S11313000D931CAB1B780E931DAB1B8808936B4687
S11313105933DB7F09931FAB1B880F9320AB1B78DA
S11313200A930B1C914200D9131CDBB20293002DCB
S113133003D10599002906D102E0059A002A02D0BA
S11313405348FFF7C3FD0898FFF7E0FD201CFFF7A3
S1131350BDFD0027089C0497069703970023079375
S1131360199B07998B426ADB00261A998E4262DA2E
S113137002990C9A89190B91C8B20121904700284F
S11313803BD1039B0899013303938C4204D9643CF9
S1131390A4B2201CFFF7BAFD002D19D0EB68099AFE
S11313A09B7804999B1A5A4253410A9AC91804918A
S11313B0002A38D0EA68EB68E868029980787118E6
S11313C012785B78009033480B91FFF77FFD2AE099
S11313D0059A09999378CB1A5A425341049AD21820
S11313E00A9B0492002B1ED00599029B8A782A48F6
S11313F0D2B2F118FFF76AFD15E002280FD10B995C
S11314002648FFF763FD06990F9A0131069194422D
S113141009D26434A4B2201CFFF778FD03E003383A
S113142043424341FF181B9B002B02DD181C01F0B3
S1131430C6FF013699E7079A0132079290E70E9AA0
S1131440002A1BD1039B069915485A18191CFFF74B
S11314503DFD322001F0B3FF039A099B0499114822
S1131460FFF734FD322001F0AAFF391C0E48FFF7C4
S11314702DFD322001F0A3FF11B0F0BD029B0D9AA7
S11314800133DBB20293934200D867E7DAE7C04640
S11314900A560000DF5800000459000019590000E2
S11314A02C590000445900007559000070B588B0EB
S11314B0151C0CAA16780C4A0C1C126806A94A6062
S11314C004AA1570094D08802D6805A806700090BF
S11314D001930295231C002002F0AAFE431E9841AA
S11314E0400008B070BDC04604FEFF1F00FEFF1F91
S11314F0F7B5CB1DDB08DB006A46D21A02AF95466E
S1131500061C0C1CFFF74EFC094B02AD1B680020A7
S1131510321C019300942B1C011C03F087FC041C57
S1131520631E9C41FFF768FCBD46A000F2BDC046A7
S11315300CFEFF1FF0B5C3B02CAE00210722301CF7
S113154003F0F5FF1CA820AA39901EA93C9224ABF5
S113155026A82AAA3A913E933F9036AB28A94192F5
S11315600320E24A012522AF18714091002018A9F6
S1131570389136921B933D9735703B9602F048F9AB
S1131580281C02F045F9DA4B802212021A6001F09D
S113159033FF0020011C021C031C009501F00AFC0F
S11315A0D448FFF793FCFA20800001F008FFD248EA
S11315B0FFF78CFCFA20800001F001FFCF48FFF711
S11315C085FCFA20800001F0FAFECD4A2B1C022192
S11315D0CC4801F035FF291C281C01F03DFF0020F8
S11315E003F04CFA0024FC2333A9DB00201C0B80FD
S11315F04D808D80CC800C818C7203F06DFA211C9F
S11316002A1C18A803F093FF311C072220A803F01A
S113161085FF032320AA1370381C311C072203F012
S11316207DFF0523311C07221CA83B7003F076FFC5
S113163002211CA801700722311C1EA803F06EFFB2
S113164004231EAA1370311C072224A803F066FF8A
S113165024AB08201870311C072226A803F05EFF73
S1131660092726A90F700722311C28A803F056FF6A
S11316700A2328AA13702AAB391C1BAA1C7039A888
S11316802B1C02F049F9A048FFF720FC211C022082
S113169000F0E6FE08218843C0B2A04202D09B4875
S11316A0FFF714FC9A48FFF711FC9A48FFF70EFC69
S11316B099499A4802F046FB994C201CFFF706FC16
S11316C0984AC0239B001360974A98481360984A2D
S11316D01360FFF7FBFBFFF7E5FA201CFFF7F6FBAF
S11316E0E1211D20C90001F067F80121002001F06B
S11316F069F80E209621FF30090100F06FFF0020E9
S1131700012100F0C3FF002803D08A48FFF7DEFB65
S113171005E0894B8948DB689978FFF7D7FB0120FE
S1131720011C00F0B3FF1390002803D08448FFF796
S1131730CDFB05E0804B8348DB689978FFF7C6FB57
S1131740814B012281481A70FFF7C0FB002203235A
S11317500E92149210937E48FFF7B8FB7D48FFF772
S1131760B5FB00200D900221012001F041F87A4CD4
S11317700221A378E5789B01AD0803201D4301F005
S113178037F8A378E6789B010221B60805201E43AA
S113179001F02EF8A378E4789B018027A408BF0108
S11317A01C436E48FFF792FB7D407C407E406C4AB0
S11317B06C4B6D4FD1586D487A697B68FFF786FB97
S11317C06648FFF783FB6A4829183218231809B2C0
S11317D012B21BB26748FFF779FBFA20800001F0D0
S11317E0EEFD654900236A18222192B2FF31181CCC
S11317F091425841614A011CA018614A80B2824258
S11318005B410B420DD05D4833189BB29A4208D31A
S11318100D980A21FEF72EFF732230AB5A54594813
S113182042E0594900236A18584992B2181C91425F
S11318305841574A011CA018564A80B282425B4163
S11318400B420DD0544833189BB29A4208D30D98DA
S11318500A21FEF70FFF772230AB5A544F4823E09A
S11318604F495048002376182D184F4A4F48191CE9
S1131870ADB2B6B2B2425941A8425B4130AD0D9807
S11318800B420BD046496418A4B2A24206D30A21E3
S1131890FEF7F0FE72236B54454805E00A21FEF77B
S11318A0E9FE752343486B54FFF710FB0D980A219A
S11318B0FEF7E0FE4B4259410D9B633B5A425341B4
S11318C0194300D115E10D9A002A00D111E100233A
S11318D00F931E1C1C1C30AA9A5C732A01D101347C
S11318E070E0772A68D101366CE0C0466D0C0000C8
S11318F0140200208A590000A5590000AB590000C9
S113190014FEFF1FC4FEFF1FB4590000D959000084
S11319100D5A0000155A000034FEFF1F2CFEFF1F55
S1131920025B00000090145404901454325A0000D6
S113193008901454535A000088000020885A00006C
S1131940A75A0000DD5A0000C4FFFF1FFD5A000023
S1131950095B00003D5B0000060000208C6600006F
S1131960007004403C10000000D003406F5B000096
S113197000E0FFFFA55B000090D0FFFF99E1FFFFAF
S113198032030000C65B0000FFD7FFFFFE0F00001C
S1131990FFE7FFFFFE0B0000FFEFFFFFED5B000022
S11319A0FFF7FFFFFFC7FFFFFE1F0000FE07000059
S11319B0115C0000355C00000F98723A51424A41B4
S11319C080180F9001330A2B85D1BD48FFF77EFAAA
S11319D0321C211CBB480F9BFFF778FA0F99A319FF
S11319E05B18181C1193FFF7C1F8051C0F98FFF73B
S11319F0BDF8291CFEF74AFEB349FEF76DFF1590AA
S1131A00301CFFF7B3F8291CFEF740FEAE49FEF781
S1131A1063FF1290201CFFF7A9F8291CFEF736FE7D
S1131A20A949FEF759FF041C1598FFF77FF8169093
S1131A301298FFF77BF81790201CFFF777F80F9A9E
S1131A40031CA24D012A19DD1198002801D100219F
S1131A501591179A16999E48FFF738FA281CFFF734
S1131A6035FA99491598FEF711FE9A49FEF734FFA5
S1131A70FFF75CF80021C0B20A1C35E0032E1ADD22
S1131A80119A002A01D1002012901A1C1799169B52
S1131A909148FFF71BFA281CFFF718FA8A49129895
S1131AA0FEF7F4FD8B49FEF717FFFFF73FF8C2B2CC
S1131AB00020011C18E01199002900D10024179A74
S1131AC0191C8648169BFFF701FA281CFFF7FEF93C
S1131AD07D49201CFEF7DAFD7E49FEF7FDFEFFF787
S1131AE025F8C1B20020021C00F052FF7C4801F02E
S1131AF066FC764C201CFFF7E9F97A4A7A4B7B485E
S1131B00D1587A697B68FFF7E1F9201CFFF7DEF909
S1131B100D9801300D90642800D024E67448FFF736
S1131B20D5F97448FFF7D2F9734C0E99208818AA96
S1131B3080B2FFF71FFB7148FFF7C8F97048FFF741
S1131B40C5F97048FFF7C2F96F48FFF7BFF96F484E
S1131B50FFF7BCF96E48FFF7B9F96E48FFF7B6F91D
S1131B606D48FFF7B3F96D48FFF7B0F96C48FFF71C
S1131B70ADF90E99109A6B48FFF7A8F96A48FFF778
S1131B80A5F96A48FFF7A2F96948FFF79FF9694880
S1131B90FFF79CF96848FFF799F96848FFF796F949
S1131BA06748FFF793F96748FFF790F96648FFF72E
S1131BB08DF96648FFF78AF96548FFF787F96548A4
S1131BC0FFF784F96448FFF781F9FFF751FBFF251C
S1131BD0011C071C29406A2900D198E141DC6329D2
S1131BE000D128E115DC522900D1AEE30ADC0A2930
S1131BF000D1AFE3502900D0B1E35848FFF766F9AC
S1131C005748A8E3612900D1BCE0622900D102E170
S1131C10A5E3662900D128E10EDC642900D11AE18C
S1131C20652900D09BE34F48FFF750F9FFF726FBE7
S1131C300E900E994C4893E3672900D15CE1682922
S1131C4000D08CE34948FFF741F9494C201CFFF7C9
S1131C503DF9201CFFF73AF94648FFF737F94648A3
S1131C6079E3702900D119E211DC6D2906DC6C29B5
S1131C7000DBD5E14148FFF729F9C8E16E2900D11D
S1131C8006E26F2900D06AE3FFF714F963E57429CB
S1131C9000D19BE20ADC722900D10EE2732900D044
S1131CA05DE33248FFF712F9354854E3782900D14F
S1131CB0FFE27A2900D104E3752900D04FE3EAE278
S1131CC0695C0000715C00000000C8428C66000082
S1131CD07E5C000000007F43E75C0000505D000074
S1131CE0B80B0000007004403C1000006F5B000063
S1131CF0095B0000B95D000008FEFF1FC65D00001F
S1131D00D05D0000ED5D0000095E0000255E00006E
S1131D10425E0000695E0000885E0000B45E000060
S1131D20DF5E0000025F0000315F00004D5F0000D5
S1131D30715F0000955F0000BC5F0000E45F00007D
S1131D40026000001F6000003E6000005D60000053
S1131D5077600000A2600000CD600000926F000078
S1131D60D46F00004166000077660000DB67000066
S1131D7009680000396800006A680000A06A000071
S1131D80536C0000D248FFF7A1F8D248FFF79EF841
S1131D90D148FFF79BF8D148FFF798F8D048FFF7F0
S1131DA095F8D048FFF792F8CF48FFF78FF8CF485F
S1131DB0FFF78CF8CE48FFF789F8CE48FFF786F88E
S1131DC0CD48FFF783F8CD48FFF780F8CC48FFF7FC
S1131DD07DF8CC48FFF77AF8CB48FFF777F8CB4883
S1131DE0FFF774F8CA48FFF771F8CA48FFF76EF8AE
S1131DF0C948FFF76BF8C948FFF768F8FFF738FAE6
S1131E00011C2940312903D0352900D1ACE2A6E2D6
S1131E10002110919FE4C248FFF758F8FFF743FAF6
S1131E20C04BC14A18601968914201D1BF4A1A6077
S1131E301968BF4894E2BF48FFF748F8FFF733FA40
S1131E40BD4BB94A18601968914201D1B74A1A606A
S1131E501968BA4884E2BA48FFF738F8FFF723FA5A
S1131E60B84B18601968B8487AE2B848FFF72EF8FA
S1131E70FFF704FAB64E071C391C301CFFF726F88E
S1131E80B448FFF723F8FFF7F9F919AD011C2870DE
S1131E90301CFFF71BF8992F0FD12978AE480E9A02
S1131EA0FFF714F80E992A780A20012300F05EFB4C
S1131EB0011E00D14FE4A94852E29A4B2EAE1B6892
S1131EC020882F9380B23780FFF720F8FEF7CCFFED
S1131ED00E9B1AAA1370A24B311C1B68002002939C
S1131EE001230095019302F0A3F9011E00D141E200
S1131EF09C48FEF7EBFF3DE29B48FEF7E7FFFFF748
S1131F00D2F980B220802188984889B228E20E99BB
S1131F109748FEF7DBFFFFF7ABF9031C303B5A1E73
S1131F209341DBB293480D93FEF7D0FFFFF7A0F97E
S1131F3030380F909048FEF7C9FFFFF799F9031C5A
S1131F40303B5A1E9341DBB28C481193FEF7BEFF1F
S1131F50FFF7A9F9061C8A48FEF7B8FFFFF7A3F9B3
S1131F60051C8848FEF7B2FFFFF79DF9071C864859
S1131F70FEF7ACFFFFF782F90E9A129000968348A1
S1131F8010992B1CFEF7A2FF2288109892B2BFB2C0
S1131F90022836D0032836D001281AD00E992E23D1
S1131FA00D980091029312990F9B0792119A0024A5
S1131FB00493069008910A92019403950596099753
S1131FC073487449221C744BFFF78EF91094FFF781
S1131FD0C2FB0F980E9B3121029104900D99119828
S1131FE00792129A00930023069108920A90019393
S1131FF0039505960997694869496A4AFFF774F990
S1132000B8E1694800E06948FEF760FFB2E10120E9
S11320100021FFF799F83C200121FFF795F8F6E736
S11320206348FEF753FF6348FEF750FFFFF726F9B6
S11320302EAE30706048FEF749FFFFF734F923886D
S1132040FFB2051C32789BB26C2F12D15B48291C5D
S1132050FEF73CFF0024AC4201DBFFF77CFB2EAB18
S11320601A7800230093FF200121FFF71FFA01349F
S1132070F1E75348291CFEF729FF0024AC4201DB99
S1132080FFF769FB2EA80121FFF732FA0134F5E7C7
S1132090208880B2FEF73AFFFFF75DFB02200021A3
S11320A000F0DEF91390002801D1FFF754FB082853
S11320B001D1FFF750FB43484DE10021082000F017
S11320C0CFF91399002901D1FFF745FB3E4842E1BE
S11320D0E0600000EB600000196100005B6100003B
S11320E09C610000DC6100000C6200004962000099
S11320F088620000C66200000363000041630000C0
S11321007E630000BD630000FA63000037640000D2
S113211072640000AF640000EC64000031650000EC
S11321206165000004FEFF1F0F2700001027000058
S11321308F650000AF65000028FEFF1FDD6500000D
S1132140F765000018FEFF1F266600008E6600007B
S1132150C1660000D7660000006700003167000018
S113216000FEFF1F5267000073670000AC670000A9
S11321709C680000D6680000FF6800001869000031
S11321805769000083690000BB690000EC69000026
S1132190296A00008D26000088000020366A0000AD
S11321A0F127000006000020446A00006F6A000066
S11321B0DB670000C36A0000E26A0000026B0000F3
S11321C04D6B0000986B0000F66B00002EA90020F8
S11321D001F0E0FAFA212E988900FEF7A7F9011C14
S11321E06648FEF773FE01F02BFD011C6448FEF700
S11321F06DFE01F0A5F9011C6248FEF767FE624B13
S1132200624819684B1E9941FEF760FE002001F0F8
S11322101EFB011C5E48FEF759FE002001F026FB60
S1132220011C5C48FEF752FE002001F024FB011C57
S11322305948FEF74BFE002001F0F2FA011C574802
S1132240FEF744FE012001F0EBFA011C5448FEF7AE
S11322503DFE544B544819684B1E9941FEF736FE17
S1132260002001F0E5FA011C5048FEF72FFE504B08
S1132270504819684B1E9941FEF728FE4E4B4F48B3
S113228019684B1E9941FEF721FE002001F0F8FA6F
S1132290011C4B4864E0149A002A01D149485AE0D1
S11322A04948FEF713FEFEF7E9FF149B5870FFF749
S11322B052FA4648FEF70AFE454801F080F84548C0
S11322C049E04548FEF702FEFEF7D2FFC6B2434896
S11322D0FEF7FCFDFEF7E7FF85B2291C4048FEF738
S11322E0F5FD0121002000F06DFA071C3D48FEF7C2
S11322F0EDFD3D48FEF7EAFD3C48FEF7E7FD3C48AE
S1132300FEF7E4FD3B48FEF7E1FD683E73425E41A3
S1132310F6B200243848211C026843683748FEF7A7
S1132320D5FD301C00F0BCF9301C00F09BFA324A99
S1132330334811683B1C5268FEF7C8FD002D02D0DB
S1132340281C01F03CF80134E4E72E48FEF7BEFDFA
S11323502D4800E02D48FEF7B9FDFFF7FCF92C48A5
S1132360FEF7B4FDFFF7F7F92A4B01201493109000
S1132370FFF7F1F9FEF78EFDFFF7EDF97F6C000032
S1132380916C0000A76C00003C80845ECE6C000061
S1132390DF6C0000F06C0000016D0000156D0000A2
S11323A0296D00003C8004503D6D00004E6D00001E
S11323B0348084595F6D00003480045A706D0000CD
S11323C0826D0000936D0000D16D0000096E000065
S11323D010270000286E0000326E00005B6E0000C3
S11323E0A36E0000DB6E0000056F0000276F000085
S11323F0496F00008B66000000D003406E6F000040
S1132400816F0000926F0000B46F0000FF6F000046
S113241045650000060000201FB5041C01A900202A
S113242002F082FB01A8694602F0BCFA009B6846F0
S11324301C1901A9009402F03DFA01A9012200200F
S113244002F09EFB1FBD0000034B00221A60034BE9
S11324508022D205DA67704700901C5804E100E03E
S113246010B50A230C1C08287DD8FEF755F8051B67
S1132470283C48626970570001F0E2FB05230128FB
S113248071D0FFF7E1FF201CFFF7C6FF0020011CFD
S113249001F064FA041C0020012100F0DDFF002C8F
S11324A05ED15FE001F0CCFB062301285BD0FFF78F
S11324B0CBFF201CFFF7B0FF01200021E8E701F06B
S11324C0BFFB082301284ED001F03AF8002803D0BE
S11324D00020012100F0C0FF0220002101F03EFA9B
S11324E000283DD13EE001F0ABFB072300283AD0A1
S11324F0FFF7AAFF201CFFF78FFF032005E0FFF77B
S1132500A3FF201CFFF788FF0420002101F026FA16
S1132510041C01F095FB0028C1D1BDE7082000216F
S113252001F01CFA00281BD10120011C00F094FFCB
S113253018E0FFF789FF201CFFF76EFF05200CE071
S1132540FFF782FF201CFFF767FF062005E0FFF777
S11325507BFF201CFFF760FF0720002101F0FEF93C
S1132560092300E00023181C10BD0000F0B5194C2D
S113257085B002910392071CA08A1E1C80B2FEF74C
S1132580C5FC40253C2E00DCF51CFEF755FCA36879
S113259002991F70A368039A5970A3689A706068BF
S11325A001F0FAFBFEF7FEFB0B49A268E368096839
S11325B0002001910095011C02F038FC051CFEF777
S11325C01BFC606801F0DAFB6B1E9D41680005B0DE
S11325D0F0BDC046880000200CFEFF1F08B5274A46
S11325E0274B58609A60274A0A20DA6040221A6111
S11325F0998252221F210023FFF7B8FF002802D03E
S11326002148FEF763FC0A2000F0D9FE0A202D21A0
S113261006220023FFF7AAFF002802D01A48FEF77B
S113262055FC0A202C2107220023FFF79FFF0028D6
S113263002D01548FEF74AFC0A202821062200236E
S1132640FFF794FF002802D00F48FEF73FFC0A2052
S113265029213E220023FFF789FF002802D00A48DF
S1132660FEF734FC0A20272135220023FFF77EFFE2
S1132670002802D00448FEF729FC08BD60FFFF1FB4
S113268088000020C5FFFF1F5770000008B5021C1A
S11326904B1E0B20111C0022FFF768FF08BD000031
S11326A038B50821051C0E20FFF7F0FF00280DD0D7
S11326B0274C201CFEF70AFC201CFEF707FC201CFC
S11326C0FEF704FC201CFEF701FC40E0214CE3680B
S11326D09A78E368D978002D03D01F48FEF7F6FBFB
S11326E005E009020A4311B21C48FEF7EFFBE36858
S11326F01A79E3685979002D03D01748FEF7E6FBF1
S113270005E009020A4311B21448FEF7DFFBE3684F
S11327109A79E368D979002D03D00F48FEF7D6FBE8
S113272005E009020A4311B20C48FEF7CFFBE36847
S11327301A7AE368597A002D03D00748FEF7C6FBDE
S113274005E009020A4311B20448FEF7BFFB38BD95
S1132750A871000088000020AF710000BF71000064
S1132760F0B5124B89B05A7806AC2280104A061C88
S1132770126805AD0792D8880F1C80B2FEF7C6FB1D
S11327802E7004AE3770FEF76FFB0A4B211C1B68DA
S11327902A1C0293012301930096002001F048FDB6
S11327A0431E9841400009B0F0BDC0460600002019
S11327B004FEFF1F00FEFF1F014B5870D9807047B5
S11327C00600002038B5094B041CD8880D1C80B2C3
S11327D0FEF79CFB211C0920FFF7C2FF291C041CE7
S11327E02A20FFF7BDFF0443E0B238BD06000020F5
S11327F0F0B58BB007ADFF23041C05912B7018288E
S113280004D8092806D2062823D803E0031C1D3B5C
S1132810142B1ED8104F08AE7B78023733800F4B31
S11328201B680993B88880B2FEF770FB2C70FEF722
S11328301BFB0B4B00201B68311C0293059B00976C
S113284001932A1C012301F000FD431E984140001E
S113285000E003200BB0F0BD0600002004FEFF1FC3
S113286000FEFF1F38B5324C051CE08880B2FEF72D
S11328704DFB02210120FFF7BBFFA178E278C9B22A
S1132880D2B2002803D02B48FEF720FB10E0002D25
S113289003D02948FEF71AFB0AE092088901114384
S11328A080229201254B5140C9182548FEF70EFBA2
S11328B002210320FFF79CFFA178E278C9B2D2B2CB
S11328C0002803D01B48FEF701FB10E0002D03D0C5
S11328D01948FEF7FBFA0AE09208890111438022A5
S11328E09201164B5140C9181548FEF7EFFA022120
S11328F00520FFF77DFFA178E278C9B2D2B20028A3
S113290003D00C48FEF7E2FA10E0002D03D00A4889
S1132910FEF7DCFA0AE09208890111438022920151
S1132920064B5140C9180648FEF7D0FA38BDC046D8
S113293006000020A8710000AF71000000E0FFFF56
S1132940BF71000037B50E24FF34051C201C01F0B4
S113295015FA0A2000F033FD201C01F01DFA0C20AA
S113296001F01AFA084A012315700093FA239B0018
S113297000200193011C054B02F058FA051C201C91
S113298001F0FCF9281C3EBDA1000020A00000209D
S1132990F8B5151CC023654A9B001360644A0E1CDD
S11329A01360071C8024FEF7FDF9624B64001C6071
S11329B0614B201C1C60614B1C6001F0DFF964203A
S11329C000F0FDFC201C01F0E7F9642000F0F7FCA6
S11329D0201C01F0D3F9642000F0F1FCAE20FFF7D5
S11329E0B1FFA020FFF7AEFF7220FFF7ABFFA120DD
S11329F0FFF7A8FF0020FFF7A5FFA220FFF7A2FF23
S1132A000020FFF79FFFA420FFF79CFFA820FFF7FB
S1132A1099FF3F20FFF796FFAD20FFF793FF8E202D
S1132A20FFF790FFB020FFF78DFF0B20FFF78AFF21
S1132A30B120FFF787FF3120FFF784FFB320FFF7B2
S1132A4081FFF020FFF77EFF8A20FFF77BFF6420E1
S1132A50FFF778FF8B20FFF775FF7820FFF772FFF1
S1132A608A20FFF76FFF6420FFF76CFFBB20FFF79E
S1132A7069FF3A20FFF766FFBE20FFF763FF3E20A1
S1132A80FFF760FF8720FFF75DFF0620FFF75AFF7F
S1132A908120FFF757FF9120FFF754FF8220FFF7B3
S1132AA051FF5020FFF74EFF8320FFF74BFF7D209F
S1132AB0FFF748FFAF20FFF745FF2620FFF742FF4F
S1132AC00120FFF73FFF2520FFF73CFF0020FFF721
S1132AD039FF0020FFF736FF5F20FFF733FF3F2069
S1132AE0FFF730FF2220FFF72DFF0020FFF72AFF1A
S1132AF00020FFF727FF5F20FFF724FF3F20FFF7A9
S1132B0021FF0020FFF71EFFFF20FFF71BFF00201F
S1132B10FFF718FF381CFFF715FF301CFFF712FFF3
S1132B20281CFFF70FFF0020F8BDC0462090145466
S1132B302490145434A014543090145400A0145409
S1132B400269C3689A4204D8806810180138C01A10
S1132B5001E0013AD01A7047F7B58368C668041CCF
S1132B6040680191151C9F1B8019974203D902F0FC
S1132B70D5FCAD190AE001993A1C02F0CFFC019B87
S1132B80ED1BD91960682A1C02F0C8FCE560F7BD8A
S1132B90F7B5171CC4680022061C01910092336922
S1132BA0B568A34200D85B19013B1B1B2D1BBD421A
S1132BB000D93D1C9D4200D91D1C73682A1C18199C
S1132BC0019902F0ABFC009A019B52190092B26881
S1132BD05B1964190193A31A5A1E93415B421C406A
S1132BE07F1BF460DBD10098FEBD000010B5104CD3
S1132BF0104A0223236163610F4BA261A2640F4A4E
S1132C00E36164232362E26400230422A362636217
S1132C10E362A3656365E3652265E01D084902F08C
S1132C208EFC201C074902F08AFC2023A37110BDEE
S1132C300C010020C4710000A6000020A2000020A6
S1132C40CD710000D1710000F7B5204E041C33781B
S1132C500191171C002B01D1FFF7C8FF18235C4317
S1132C6048343619F268346900920025944216D922
S1132C70B2683D1C131B9F4200D91D1C73682A1C9B
S1132C801919019802F04AFC019A64195219019227
S1132C90B2687F1BA31A5A1E93415B421C40009BDF
S1132CA01B1B0093BB4200D90097009A002A07D04F
S1132CB073680198191902F031FC009AAD18A41830
S1132CC0002D00D03461281CFEBDC0460C0100203C
S1132CD010B50B1CEFF31084012181F31088191C2B
S1132CE0FFF7B2FF84F3108810BD0000F8B501307F
S1132CF018256843134D0F1C2D186E69141C012EE2
S1132D000ED0002E06D0022E16D1281CFFF740FF4D
S1132D10041C14E0281CFFF713FFA0420ED305E0A7
S1132D20281CFFF70DFF844200D9041C281C391C01
S1132D30221CFFF711FF02E0002400E0341C201CD9
S1132D40F8BDC0460C010020F8B50B4B071C1B78DE
S1132D500E1C151C002B01D1FFF748FFEFF3108464
S1132D60012181F31088381C311C2A1CFFF7BEFF97
S1132D7084F31088F8BDC0460C01002038B5051C4A
S1132D80081C0C1C02F0E3FB211C021C281CFFF78E
S1132D90DBFF38BD13B56C4607340020211C01222B
S1132DA0FFF796FF012801D1207801E0012040427D
S1132DB016BD0000F7B5164C01932378051C0F1CB3
S1132DC0161C002B01D1FFF711FF226995421CD27A
S1132DD0EFF31080012181F31088002D0CD018230B
S1132DE06A1C5A436B43A750A2185660019AE31811
S1132DF01A6200229A625A6218235D43089B64197E
S1132E00E36280F31088002001E001204042FEBD0F
S1132E100C010020826810B5041C4068531C8342D6
S1132E2005D820688154A360E3680133E360A26895
S1132E3063689A420CD120692168FFF785FFA36873
S1132E40984203D001235B42E36001E00023A360C6
S1132E5010BD0000F0B585B00A9C051C00910192DC
S1132E601F1C081C0126019A904204D30199FDF706
S1132E705DFB0136F7E70296BE4200D202970B9A39
S1132E8001231A40039219D1002C01D1002415E02A
S1132E900B9B20269B070ED53026002F0BD0202617
S1132EA009E0281C311CFFF7B5FFEA68013C002A41
S1132EB004DB002CEAD0029BA342F2D3EA68012689
S1132EC0002A34DB012F01D9013F06E00098311CB0
S1132ED0FDF72CFB019B984208D3019A5643F1E776
S1132EE0301C0199FDF722FB061E10D00098311CFE
S1132EF0FDF71CFB331C4343009AD21A0D4B00927E
S1132F00195C281CFFF786FFEB68002BE8DA039AAC
S1132F10002A0CD0002C0AD0029AA24207D2281C04
S1132F202021FFF777FFEB68013C002BF2DA05B0B4
S1132F30F0BDC046D8710000F0B58FB0149D079065
S1132F400C1C181C291C161C069302F0A3FA0699E3
S1132F50079A002309910A950B930D920C932178FB
S1132F60651C002904D10C9B002B00DD03E10DE15D
S1132F70252900D0F6E002340025671E3B782B2B70
S1132F800CD003D8232B0DD1082308E02D2B03D01C
S1132F90302B07D1022302E0012300E004231D4368
S1132FA00134EAE700243B781A1C303A092A05D890
S1132FB00A225443303C0137E418F4E7002103911A
S1132FC02E2B0DD101373B781A1C303A092A07D829
S1132FD003990A224A43303AD21801370392F2E79E
S1132FE0397804230A1C9A43682A01D10137F7E788
S1132FF0642925D008D8582900D193E063291AD030
S1133000252900D0ACE0A8E0732900D193E00DD8C5
S1133010702900D0A4E0336809A81A1D1968326029
S11330200823002201920093102293E075296FD0A7
S1133030782977D094E033681A1D326019788CE0CF
S113304033681A1D1B683260D9175818012205937A
S113305048400492092806DD0A21FDF7B5FA049BCD
S113306001330493F6E70499039A914200D204923F
S1133070002C05D0059B002B01DB690700D5013C22
S1133080AA0702D5039B002B10D0E9070ED4002C0D
S113309001D100240AE0049AA24207D209A82021FF
S11330A0FFF7B8FE0C9B013C002BF0DA0C9B002BC5
S11330B056DB0599002904DA4942059109A82D2116
S11330C003E06A0703D509A82B21FFF7A3FE0C9B95
S11330D0002B45DB03232B40022B11D1039900293C
S11330E00ED1002C01D100240AE0049AA24207D296
S11330F009A83021FFF78EFE0C9B013C002BF0DA6F
S11331000C9B002B2CDB0094019509A8059906E083
S1133110336809A81A1D19683260009401950A22BF
S1133120039B17E0336809A81A1D196832600094DC
S113313001951022F4E733681A1D32601C68217867
S1133140013400290CD009A8FFF764FE0C9900296A
S1133150F5DA05E0FFF77EFE02E009A8FFF75AFE64
S11331607D1C02E009A8FFF755FE0C9A002A00DA3C
S1133170F9E62C1CF3E60B9A002A03D0079806996B
S1133180FFF7E2FD0C990B9A8B180C930C980FB077
S1133190F0BD08B5002000F00DFE08BD08B5002004
S11331A001F04EFD08BD08B5002001F025FA08BD68
S11331B010B5174B08229978114202D099780A4326
S11331C09A70144B8821002249015A501249222036
S11331D00870124980204002585018681049014074
S11331E01960104910485C582040C024A4042043AE
S11331F058500E4B80211A72197601211A70597099
S11332000B490A7099790C221142FBD110BDC046BA
S113321000D007400070044000E007404410000064
S1133220FFFFF3FF04100000FFFFFFF00040064023
S113323000500640154B164930B51A1E8A420CD070
S1133240144C0023A408A34204D098000D58013361
S11332501550F8E7104B9A6001E00F4A93600F4A4B
S11332600F490023891A8B4204D0D45C0D48C454FE
S11332700133F8E70C4A0D490023891A8B4204D024
S1133280D018002404700133F8E730BD00000000BA
S1133290000000000000000000ED00E048730000A2
S11332A08874000000FEFF1F40FFFF1F2002002063
S11332B0031C41700020187058609860704710B566
S11332C04378041C0120FF2B08D000F0EDFA63784A
S11332D00133DBB2637000F0DBFA002010BD002084
S11332E0704738B5041C0D1C00F0DEFAE3681D437A
S11332F0E56000F0CDFA002038BD00000A4B002242
S11333009A641A1C40329A631A1C30329A621A1C4C
S113331020329A611A1C10329A60044A1360044BDA
S11333209B60DB607047C046980100209401002038
S113333084010020024B00221A60186880B2704792
S11333400C007C5070B54378041C0E1C002B0AD072
S113335000F0AAFA63780025013BDBB263702570A4
S113336000F096FA29E00225002926D00378002BE4
S113337016D0FFF7DFFF6368A268984201D3C31A2F
S113338003E08021C31A49025B1803259A4214D230
S113339000F08AFA0023237000F07AFA02250CE088
S11333A003254B1C09D000F07FFA0123237000F0A1
S11333B06FFAFFF7BFFFA6606060281C70BD38B5C8
S11333C0051CFFF7B7FF041CFFF7B4FF031BA04263
S11333D003D28022001B520283189D42F4D238BDCE
S11333E008B5012801D100F05FFA08BD08B501282D
S11333F001D100F04DFA08BD10B5FFF77FFF094A6F
S1133400012313600849094A0020094C1060086030
S113341004212160074C216007490B6007490860BB
S1133420136010BD38800450000084500000045024
S1133430000004510400045104000C500000045323
S113344010B5044C206021710020A26023736373C3
S113345010BDC046E8010020F0B585B003AD374C7F
S113346000900191287069702379009904208B429F
S113347061D9237B002663730123AB70371C237B44
S1133480BB4215D9A268BB009B58002B0DD01A79FA
S1133490D1070AD59968281C1B689847002804D0CE
S11334A0019A67730526002A32D00137FFB2E6E796
S11334B0002E02D0019B012B2AD10120FFF790FF9F
S11334C000990C20484322680027101800F0B6F831
S11334D0009B01206371FFF789FF0223AB70237BFC
S11334E0BB4225D9A168BB005B58002B0DD01A79CB
S11334F091070AD59968281C1B689847002804D0AE
S1133500019A6773002A15D006260137FFB2E6E751
S11335100023AB70013FFFB2FF2F09D0A168BB00AD
S11335205B58002BF6D09968281C1B689847F1E774
S1133530301C00E0062005B0F0BDC046E8010020C4
S1133540014B58797047C046E801002013B5037851
S11335500021041C0191022B07D0032B0BD0012B5B
S11335600ED10279191C134801E00279114801AB0C
S113357001F02CF908E001A90E4801F069F903E013
S11335800C4801A901F006F9002812D1A2790A4BCE
S1133590D201D2B21A706278084B5200D2B21A70B9
S11335A0A278074B1A70E278064B1A706279064BC0
S11335B01A7016BD004006401840865300408650DD
S11335C00040065001400650184016501F23034087
S11335D08022DB0552051A43054943099B005B1809
S11335E0101C18430068431E9841C0B27047C0467F
S11335F0288004401F2303408022DB0552051A4320
S1133600044943099B005B18101C18430023036002
S11336107047C046288004401F2303408021DA05F8
S1133620490511434209044892001218081C10432A
S113363001229A40026070472880044073B5124DFD
S113364000220723041C0093281C131C012101F0F1
S1133650E7FA201CFFF77AFF637A0022217A0093AD
S1133660281C131C01F0DCFAE279084B92041A605E
S1133670074BA17A1D68281C01F006F9281CE17A81
S113368001F011F9002076BD0070044000700C595F
S11336903C72000008B5054801F03CF8044B196879
S11336A0C9B20131FCF742FF08BDC04600400640E4
S11336B044801C5E08B5054801F02CF8044B1968D9
S11336C0C9B20131FCF732FF08BDC04600400640D4
S11336D044801C5E08B5054801F01CF8044B1968C9
S11336E0C9B20131FCF722FF08BDC04600400640C4
S11336F04480145808B5054801F00CF8044B1968C7
S1133700C9B20131FCF712FF08BDC04600400640B3
S1133710448014580C4B1868C0B202280FD00328F8
S113372002D000280ED102E0FA2080000BE0074B03
S113373080221B681202934205D1181C03E0044B3B
S1133740186800E00020704700700C591402002033
S11337501802002008B5FFF7DDFF08BD08B5054BCA
S1133760186801F098F80023984201D0024B1B68B6
S1133770181C08BD3C7200001402002008B5044B5C
S113378001201B68DBB2002B01D0FFF7E7FF08BD67
S11337900480045210B50C1C122830D8FCF7BCFE6F
S11337A00A0A0D122F15181B2F2F1E202F2F2F2F13
S11337B023272B00FFF76EFF01E0FFF77BFF20605C
S11337C000201FE0FFF786FFF9E7FFF793FFF6E716
S11337D0FFF7A0FFF3E7FFF7C1FFF0E70A4B0CE0A8
S11337E0FFF7CCFFEBE7094800F094FFE7E7074851
S11337F000F07AFFE3E7FA239B002360E0E700236D
S11338002360022010BDC046006CDC02004006406C
S113381008B5024B185CFFF7FFFE08BDE871000015
S113382008B5024B185CFFF7D1FE08BDE871000033
S113383008B5BB20FFF7CAFE08BD08B57620FFF720
S1133840EBFE08BD08B57620FFF7D4FE08BD08B529
S11338507620FFF7BBFE08BD08B56620FFF7DCFE47
S113386008BD08B56620FFF7C5FE08BD08B566208B
S1133870FFF7ACFE08BD08B59420FFF7A7FE08BD0E
S113388008B5024B185CFFF7A1FE08BDEA71000001
S1133890044A1368002B04D0013B1360002B00D1B1
S11338A062B67047F801002072B6024B1A68013202
S11338B01A607047F801002010B50B4B0B4A1278C0
S11338C0002A04D1013B002BF8D103200AE0064C66
S11338D0074801F03FFC012803D0013C002CF7D13C
S11338E0F3E7002010BDC046EA03000002D00751F0
S11338F000E0074010B5064C064801F02BFC0428F4
S113390004D0013C002CF7D1032000E0002010BDBE
S1133910EA03000000E00740F7B5071C0E1C151C65
S113392001930120002F15D0002913D0FFF758FD73
S1133930094C0021201C102201F0F9FD276026719A
S1133940002D03D0019BA560237363730120FFF74F
S11339504DFD0020FEBDC046FC010020F0B5B24F75
S11339608BB0019002913B7B01207B73FFF738FD04
S11339703B7901998B4204D80120FFF737FD0220DF
S113398050E1019A396893005E58019B357807AC81
S1133990029A2370291C02239943227266600391C0
S11339A0012901D0052D0AD1A048012101F024FBF1
S11339B0002809D10120FFF719FD012032E1072D6C
S11339C002D99A480321F1E7012363720024009489
S11339D03B7B00998B4219D9009AB96893005B58D4
S11339E0002B0ED01A79D1070BD5996807A81B684C
S11339F09847002805D0009A029B7A730424012B6F
S1133A0004D1009B0133DBB20093E1E70120FFF70F
S1133A10EDFC874800F0A2FE039A012A1AD101386E
S1133A20C0B2022800D9D4E0FFF764FE814B98426B
S1133A3000D9CEE0FFF72EFE7F4FB84200D9C8E090
S1133A40FFF748FEB84200D9C3E0FFF733FEB8429F
S1133A5000D9BEE0029A012A00D0DFE003200A2D3B
S1133A6000D9DFE0281CFCF757FD06080A1B4E644A
S1133A7041472C363B0000225CE003225AE06B48AD
S1133A8001F068FB012809D06848002101F0C4FA5C
S1133A90FFF712FF041C002C00D0C3E0012249E010
S1133AA0624801F057FB042809D06048022101F064
S1133AB0B3FAFFF71FFF041C002C00D0B2E004226D
S1133AC038E005AB07221A7000225A70F2789A7017
S1133AD03279DA7030E0072205AB1A70012203E074
S1133AE0072205AB1A7003225A7025E005AB0222A7
S1133AF01A7001221A7104E005AB022201211A7026
S1133B0019715A7118E005AB02221A7000270122BC
S1133B1046481A715F7101F01DFB01280CD043481F
S1133B20391C01F079FAFFF7C7FE041CBC4203D02C
S1133B3078E0052205AB1A702B1C083B05A9022B63
S1133B4003D873798B71B379CB717378002B0DD053
S1133B50012D0BD9B0780222384B002802D0186905
S1133B60024302E018699043021C1A612F4801F0D5
S1133B7077FA002800D00324002D05D1FFF79CFE1E
S1133B800024002805D04DE0012D02D1FFF7B2FE3C
S1133B90F6E70120FFF724FC019B234E07AFB37324
S1133BA002237B720025337BAB4222D9B168AB0080
S1133BB05B58002B0AD01A79910707D59968381CED
S1133BC01B689847002801D0757305240135EDB2B0
S1133BD0E9E7029B012B11D0002C0FD00120FFF745
S1133BE0FFFB07AE0023009D7372013DEDB2FF2D74
S1133BF006D10120FFF7FAFB201C13E00624EDE7B1
S1133C00094BAA009B68D358002BEED01A79D10730
S1133C10EBD59968301C1B689847E6E7002C00D167
S1133C201CE7DBE70BB0F0BDFC01002000E007401F
S1133C300040064040420F0080841E0000ED00E07A
S1133C4008B5064801F086FA012804D001230428A7
S1133C5002D00B2300E00023181C08BD00E007403D
S1133C600368F7B51D0AFF2635401B4A1E40AB000A
S1133C709F581A4A041C9A58281C0192FFF7C8FD41
S1133C80311C0022381C01F06DFA019BB6009E190C
S1133C90227984235B05334352001A6080236279BE
S1133CA05B0533431A60A27990235B053343120109
S1133CB01A60E3790A4A16431A043260002B0AD0C8
S1133CC0084B5B5D002B06D01F22134001229A4053
S1133CD0131C054A1360F7BD4872000040720000CF
S1133CE0000018185072000000E100E0F8B5036805
S1133CF0041CFF25180A2840104A1D4083009E58C2
S1133D000F4A9F58FFF784FD301C291C012201F043
S1133D1029FA301C291C626801F034FAAD00227AB9
S1133D2088237D195B052B4392001A6098235B0559
S1133D301D43637A9B012B60F8BDC04648720000A6
S1133D404072000038B50C1C002802D1002C09D1A7
S1133D5012E003680133F9D0051C0835FFF780FF32
S1133D60281CF6E72368013306D0251C201C0C35DB
S1133D70FFF7BCFF2C1CF5E738BD0000010AFF2348
S1133D801940044A890003408A5801209840506031
S1133D907047C04648720000010AFF231940044AD4
S1133DA0890003408A580120984090607047C046BB
S1133DB04872000008B5084B8200D258942302329E
S1133DC05B0513431B78002B02D000F04BFA01E093
S1133DD000F0A0FA08BDC046F0710000021C802368
S1133DE00C325B0513431B78002BF7D0017170472D
S1133DF038B5094B8000C4580D1C201C1830291CF0
S1133E00FFF7A0FA0328F8D0002801D00423237474
S1133E10207CC0B238BDC0460C020020F0B589B089
S1133E2005930EAB0290161C1A78830035488D0A50
S1133E3018581E3D01903448CFB21C58002007ABDF
S1133E4018800123A07CE374A37453425341DBB272
S1133E5003936B425D41EDB20490002D02D00F0A32
S1133E60C9B28C467F000023FFB29D4204D12B1CB3
S1133E70002E01D1039AD3B21F4307AB1F70012256
S1133E80002D02D0604658700222A360E2600198BF
S1133E90391CFFF7A3FF02980F99FFF7A9FF237CB2
S1133EA0002B0CD1002E0AD0059AA660E26031786E
S1133EB00198FFF793FF02980F99FFF799FF237C6E
S1133EC0002B16D1039B002B13D0002D01D1002E03
S1133ED00FD000230125A3600198E56001F0A6F945
S1133EE0291C39430198FFF779FF02980F99FFF7CE
S1133EF07FFF04980023A074207CE374C0B209B04F
S1133F00F0BDC046F07100000C020020104A83008E
S1133F1010B598580F4A9C58E37C002B05D0237C9D
S1133F20052B02D0237C042B09D19823821C5B052A
S1133F30134300221A7001F08BF901236374A37CEC
S1133F40002B03D0201C1830FFF7B9F910BDC04670
S1133F50F07100000C020020F7B5194B8200D35811
S1133F60061C0193174B0D1CD75800920124002FF7
S1133F7024D12422081C391C01F0D9FA281C391C2C
S1133F801830FFF795F9301CFFF766FC019801F033
S1133F9001F9009A0B4BD5500B4B9A5D1F231A4025
S1133FA0231C93401A1C094B1A60019A9C23023269
S1133FB05B05134380226C741A703C1C201CFEBDEC
S1133FC0F07100000C020020EC71000000E100E040
S1133FD0F7B50F4E8400A359002701930D4B051C20
S1133FE0E2589C2302325B0513431F70FFF739FC30
S1133FF0094B01985A5D1F231A40012393401A1C50
S1134000064B1830DA67FFF76AF9A751F7BDC046C7
S11340100C020020F0710000EC71000004E100E0EB
S11340200A4A830070B59E58094A0C1C9D584A6878
S11340306B699A4209D0FFF74DFB6268011C0023AB
S1134040301C01F0B5F864686C6170BDF07100005B
S11340500C020020F0B587B005930FAB1B780492D7
S1134060334A029383009E58324A03919C58071C9A
S1134070637C002B02D10320207456E0029B002BAA
S113408001D11E230E930023E360A36023742360F5
S11340906374029B381CA3740399FFF7C1FF902239
S11340A0B31C52051A431021117098258422F11C67
S11340B052056D050A431D43022140231170301C33
S11340C02B7001F0B3F8039B381C1988012300936B
S11340D00E9B049A0193059BFFF7A0FE0D9B002BFA
S11340E016D0237C002B10D10C9B301CA3600D9B9D
S11340F0E3600C9B1978FFF771FE029B002B12D032
S1134100381C0E99FFF774FE0DE0237C042B0AD1B2
S113411000232B70F37801255B092B4202D0301C5D
S113412001F096F86574207CC0B207B0F0BDC046BB
S1134130F07100000C020020F0B58BB0099313ABB2
S11341401B780892384A049383009D58374A079194
S11341509C58061C637C002B02D10320207461E070
S11341600499002901D11E221292109B1199049ADC
S1134170002761602360E760A2742774301C0799EC
S1134180A7606774FFF74CFFAB1C0393039990235C
S11341905B05194310230B708423EA1C5B0513434E
S11341A002221A70039A98235B051A434023137062
S11341B0281C0591069201F039F8079B129A198878
S11341C0301C0192099B0097089AFFF727FE237C75
S11341D0DBB2BB4216D105998C220B7011995205A2
S11341E0012903D1039B1A43082301E003990A43DD
S11341F01370049A2B79002A12D0301C1299FFF7FD
S1134200F7FD0DE0237C042B0AD1069B01261F70C9
S1134210EB785B09334202D0281C01F019F866746C
S1134220207CC0B20BB0F0BDF07100000C02002085
S11342301FB5069C0094079C0194089C02940124D9
S11342400394FFF707FF04B010BD1FB5069C00944C
S1134250079C0194089C029401240394FFF76CFFCB
S113426004B010BD254A830070B59D588422E91C12
S113427052050A4302211170214A9C5890226B185E
S113428052051A431278E978D2B28E0634D59421B5
S113429049051943097800292ED0012A15D1EB7854
S11342A0134202D0052323740CE0E368013BE3606E
S11342B0002B07D0A368281C5A1CA2605978FFF76A
S11342C08DFD19E0FFF722FE16E06268013A626094
S11342D0002A06D08C214905012A05D10B43082266
S11342E004E0FFF713FE02E00B4300221A70236878
S11342F05A1C22602A791A7070BDC046F071000001
S11343000C020020C31C84204005184302230370C0
S113431070470000F0B5904B8100CD589022EB78A7
S113432089B05205DBB2071C0593101CAB1D184362
S1134330EE7884460078EC1CC0B2079094204005C7
S1134340184300780494F6B2441EA041834C0696A8
S1134350982676050C59A91CC0B233430091114329
S1134360029018780A78C0B2D2B20392029A0191EC
S1134370002A30D0079900290DD01023624613700B
S1134380281CFFF7BFFF236B002B00D1E1E0F8B23C
S1134390626B0121D9E000281DD040221A70281C2C
S11343A0FFF7B0FF231C2C331B78002B02D100989D
S11343B006433370236B002B03D0F8B28021626B69
S11343C09847E37D002B04D0201C18308021FEF791
S11343D088FF0A23BCE0069901228E11281C16408E
S11343E0FFF790FF0598012103110B4219D0049A9D
S11343F090235B05134310221A70002E04D0EB782F
S11344005B07DB0F10D11AE0082323702C342378C8
S1134410002B00D09DE09822009C5205224313708B
S113442097E0002E16D0EAE7019810230370236B5F
S1134430002B6BD0F8B20221626B984766E00199B9
S11344400B70236B002B03D0F8B2626B04219847E6
S11344502B797EE0039A012A26D1EB78134255D0BA
S1134460019B1E702B79231C2C331B78002B07D146
S11344700298002804D1982300995B050B43187017
S1134480236B002B03D0F8B20821626B9847A37DFD
S1134490002B04D0201C18300821FEF722FF002333
S11344A06360E360237554E02B79A268DBB2002AD1
S11344B02AD022691370236901332361A368013B65
S11344C0A360A368002B44D1029B002B12D1231CB0
S11344D02C331B78002B05D1982300985B05029997
S11344E003431970E37D002B04D0201C18302021D5
S11344F0FEF7F7FE002363752361236B002B28D09E
S1134500F8B2626B202120E0072321E06368002BCE
S11345101DD0E2681378291C80220C3152050A430D
S11345201278002AF7D02B71E3680133E3606368E3
S1134530013B63606368002B0BD1E3602375236B3D
S1134540002B06D0626BF8B21021984701E00623D5
S1134550237009B0F0BDC046F07100000C020020C9
S1134560042907D007290BD19C235B05033018438A
S1134570802304E090235B05033018431023037069
S11345807047000038B50A4B8000C458094BDC2240
S1134590C358520508331A4300231360A27C1D1C20
S11345A09A4203D0201C1430FEF789FE257438BDCE
S11345B010020020F471000038B50C4B8000C45880
S11345C00B4B0025C058D423021C08325B0513434F
S11345D01D6008492A1C00F058FEE37CAB4203D05E
S11345E0201C2030FEF76BFE657438BD10020020DD
S11345F0F47100001B000200F8B52C4A83009C589B
S11346002B4A061C9D58237C002B02D1637C002B73
S11346104AD0DC232F1C5B0508371A1C3A43126866
S1134620002A16D02A1D13431B68002B11D0A3683F
S1134630002B0ED022681378EB60236801332360CB
S1134640A368013BA360A368002B02D1301CFFF7D1
S113465099FFD4235B051F433A68002A1AD02A1D08
S113466013431B68002B15D0EB6862681370E36A70
S1134670002B03D0301C211C98470BE063680133E6
S11346806360E368013BE360E368002B02D1301C04
S1134690FFF792FF281C074900F016FE002803D0FC
S11346A0281C044900F02AFEF8BDC0461002002070
S11346B0F47100001300010084235B0503431A789E
S11346C000239A4209D080235B0501301843037804
S11346D0012B01D1024B00E0024B181C7047C0466D
S11346E000127A0080841E0038B5084A031C08337F
S11346F013431D78064A031C183313431C78FFF731
S1134700DBFFEDB2E4B22C19E04038BD000090109C
S11347100000101010B50D4A831D13431B78041CB0
S1134720DBB2002B0FD0012B07D1FFF7C5FF084BDD
S113473008341C432378D84006E00020022B03D120
S1134740044B186800E0044810BDC046000008117E
S11347500000901014020020006CDC020C4A831D3F
S113476013431B78DBB2012B08D0002B04D00320A9
S1134770022B0CD005200AE0181C08E080235B05FE
S1134780013018430078431E98410223181A7047D9
S1134790000008119C22031C52051830024380209B
S11347A01070074A00201A43107006489A1D0243ED
S11347B01078C0B20028F8D1034B0B607047C04694
S11347C00000081300000811006CDC02F8B5041C9A
S11347D00D1C171C1E1CFFF7C1FF012802D1002D60
S11347E004D007E0022805D1012D03D1201C311C7F
S11347F0FFF7D0FF8023621C5B0513431D708423E5
S11348005B05234302221A700C4A231C083313430A
S11348107A00D2B21A700A4B402223431A70094A12
S1134820A31D13431B78012BF9D1002D01D1064B95
S113483000E0064B3B4133600020F8BD00009010BF
S1134840000008130000081180841E0000127A0082
S11348500A4A10B51468031C0120002C0CD0084827
S1134860802418430470074C981D204300780228C4
S1134870F9D1126800200A6010BDC046140200205D
S113488000000813000008119C235B05C9011843AC
S1134890C9B2017070479C235B0518430078431E1E
S11348A09841C0B2704794235B0549011843C9B2CB
S11348B00170704770B506680C1C301C2049FBF76A
S11348C035FE1F49051C301CFBF774FE0E1C081C2A
S11348D0E1210901FBF72AFEE121E0800901301CF6
S11348E0FBF768FE0E1C081C3C21FBF71FFE3C2155
S11348F02081301CFBF75EFE124BA17223806E23D5
S1134900FF3322889D4209D9013292B2ED1A032362
S113491022801A40534253416E33F1E7930701D08A
S1134920094900E009490123CA5C954201D8638022
S113493003E00133AD1A0D2BF6D1A58070BDC0463E
S113494080510100B20700001F72000012720000C3
S113495030B511490488031C62180020812A19D833
S11349605A88511E0B2915D899884D1E1E2D11D811
S1134970DD88172D0ED81D893B2D0BD89B7A3B2B38
S113498008D8A30701D0054B00E0054B9B5C8B4284
S11349904041C0B230BDC0464EF8FFFF1F72000058
S11349A01272000070B5124A85880388AD186E2211
S11349B0FF325A434488AA189D0852190D4D6600C7
S11349C0755B52199D0702D1022C00D8013A0A6086
S11349D0C488E1220389120162433C246343D3184F
S11349E0827A08689B18044A42439B180B6070BD86
S11349F04A05F5FFF871000080510100084B1A6860
S1134A0080231B029A420AD1031CA02010334005C4
S1134A1018430368002B02D180235B0003607047B6
S1134A201402002010B58022041C52051034002307
S1134A3014430121216023604360016090211C30F4
S1134A40490501430B608821490501430B6084211A
S1134A504905014310430B60036010BD021C902301
S1134A6014325B05134300221A6042601022016075
S1134A701A6070470068086070470000114B82009C
S1134A8070B5D558104B802292051A60041C281C5E
S1134A90FFF7C8FF281CFFF7B1FF0C4B0C4E195D44
S1134AA001251F221140345D2B1C8B40191C224010
S1134AB0084BC020A840954019501D5019601D6036
S1134AC070BDC046307200003C80845E2D720000D0
S1134AD02C72000000E100E0F7B5124B8000C758CB
S1134AE00025081C0E1C0195FFF732FF041EAC4282
S1134AF016D001A9301CFFF755FF281CFEF72AFE2B
S1134B00011C80200002814206D0FBF70FFD011C2E
S1134B100198FBF70BFD0190381C0199FFF79EFFEC
S1134B20201CFEBD30720000F7B5134B8000C55841
S1134B300024281C0E1C01A90194FFF79BFF201CD4
S1134B40FEF708FE041C8020000284420ED00B4BAA
S1134B50211C04351D43FBF7E9FC2D68019F211C32
S1134B604743A8B2FBF7E2FC3F180197311C01A8A8
S1134B70FFF7A0FEF7BDC0463072000000007810B9
S1134B80F0B5194B800085B0C5580026081C0F1CD1
S1134B9001920396FFF7DCFE041EB44201D1002407
S1134BA01EE0381C03A9FFF7FDFE301C2F68FEF73A
S1134BB0D1FD011C80200002814206D0FBF7B6FC27
S1134BC0011C0398FBF7B2FC0390039BBB42E6D3A2
S1134BD0AB60019A88235B051C351D4393002B6051
S1134BE0201C05B0F0BDC04630720000044B8000AC
S1134BF0C25888231C325B0513438900196070472F
S1134C0030720000054B8000C258882314325B05C3
S1134C1013431868431E9841C0B2704730720000B5
S1134C206B461A78E023DB0212041A400B07111CAE
S1134C301943024BC01801607047C046441000007D
S1134C4008B5084B8200D258902303325B05134306
S1134C501B78002B02D000F015F901E000F07CF97C
S1134C6008BDC046387200000C4A08B580000C4BE1
S1134C708158C3589C2003314005002208431A710F
S1134C8002709420400501430A701A7F002A03D061
S1134C90181C2030FEF713FB08BDC0463872000014
S1134CA01C0200201C4BF7B53022061C0C1C87008C
S1134CB0081C0021FD5800F03AFC301CFEF7BDFD35
S1134CC0FEF708FD2060281C00F06EFB201C00216C
S1134CD02030FEF7EDFA9023EA1C5B0513430192A2
S1134CE010221A70281C032100F09EFB281C0021AE
S1134CF000F0C0FB094BFC50094B9A5D1F231A407E
S1134D00012393401A1C074B1A60019A98235B05F0
S1134D10134340221A70F7BD387200001C020020B1
S1134D203472000000E100E0F8B50D4E84000D4B34
S1134D30A759051CE05800F037FB381C2030FEF75B
S1134D40CEFA094B281C5A5D1F231A4001239340B5
S1134D501A1C064BDA67FEF775FD0023A351F8BD54
S1134D601C020020387200003472000004E100E0EC
S1134D700A4B800070B5C558094B0C1CC358161C4F
S1134D80281C1A68096800F016FB30602179281C79
S1134D906279A37900F05BFB70BDC04638720000F5
S1134DA01C020020F7B51F4A83009C581E4A061CAB
S1134DB09D5822790420002A33D1002903D0301CC5
S1134DC001AAFFF7D5FF9821EA1C490511430023E6
S1134DD040200B70087027699F4203D1301CFFF7F5
S1134DE043FF1DE001212171A36194235B052B4343
S1134DF019780720002914D0A368002B03D0197850
S1134E000133A36000E0191CA9712369013B2361EC
S1134E10A3690133A3619C235B051A4380231370A8
S1134E200020FEBD1C02002038720000F8B5134CAF
S1134E308600134F3459069DF65901272777A2603F
S1134E402561E3606561FFF7ADFF051E14D1201CE9
S1134E5020300799FEF776FA0328F8D000280BD003
S1134E609C2203365205002332432371137094228B
S1134E705205164333700325281CF8BD1C0200207C
S1134E803872000010B51F4B8200D3581E49525887
S1134E901979002934D05969002911D09C21490578
S1134EA01143097800290BD09479D968E4B2002918
S1134EB003D00C70D9680131D9605969013959613D
S1134EC01969002914D0942149051143097800294E
S1134ED00ED09968002903D00C780131996000E064
S1134EE00C1C94711A69013A1A619A6901329A6127
S1134EF01A69002A04D15B69002B01D1FFF7B4FEC3
S1134F0010BDC0461C0200203872000008B5104BCA
S1134F108000C3580F4A81580022581CC2779C2035
S1134F20033140050843DA621A701A835A629A629E
S1134F301A6302709420400501430A701A1C383227
S1134F401278002A03D0181D0121FEF7CAF908BD02
S1134F501C0200203872000038B5254B8200D3585B
S1134F6024495258591CC97F00293FD0D96A0029C5
S1134F7016DB9421490511430978002910D0596A98
S1134F801C7F002905D0DD6A002D02DD0C7801317B
S1134F9059629471D96A0139D962596B01315963E3
S1134FA0D96A002905DA9421D41C49052143002437
S1134FB00C70196B002911DD9C21490511430978F6
S1134FC000290BD091799A6AC9B2002A03D01170D2
S1134FD09A6A01329A621A6B013A1A63DA6A002AEF
S1134FE004DC1B6B002B01DCFFF790FF38BDC046CF
S1134FF01C02002038720000012903D0032909D1C2
S1135000842300E094235B0518430078431E9841F1
S1135010C0B200E000207047034B0130490118433F
S1135020C9B201707047C0460000881294235B0522
S1135030023049011843C9B201707047034B023072
S113504089011843C9B201707047C04600000813B3
S11350508C235B050230C9001843C9B20170704744
S1135060F7B5384EC21C164332780B78041C0D1C5D
S1135070D2B20120072B63D8181CFBF74DFA041990
S11350802A0D192A2A3A304B01341C430023237079
S11350903378012BFCD152E00320012A50D12A4B52
S11350A001341C43402323703378042BFCD146E0A5
S11350B00021012B01D004230221327803209A42DB
S11350C03ED1201CFFF7A8FF204B04211A698A4314
S11350D033E00227BB4207D10B790027BB4203D040
S11350E04979201CFFF7AAFF194B01341C43277090
S11350F019E0174B621C1A43042111706A78A11C31
S11351000B431A706B78002B06D1AB78002B03D0BD
S1135110E978201CFFF78AFFAB79002B03D0E979EB
S1135120201CFFF795FF33780421DBB20193019B28
S113513001330193054B1A690A431A6130BF0020F9
S1135140FEBDC046000030100000881200ED00E0F3
S113515000001010024B033018430078C0B27047AF
S11351600000301014308023012A04D11B058A402A
S11351701843111C04E0DB04184301238B40D9437A
S11351800160704701238B40002A01D0436000E096
S1135190836070470023C222037043708370C3701E
S11351A043718371C371037242728372C372704715
S11351B0F0B587B00293FA239B00534300270125DF
S11351C00490059101936D423C1C00970123A34078
S11351D003930026144A059893195988039B59434D
S11351E0FBF7A4F9019A831A824200D9131AAB423D
S11351F004D20D4A0094975D1D1E02D00436C82EB9
S1135200E8D10134032C01D0002DDFD1029B002B07
S113521000D01D60009A3F231F4093011F43049B4D
S1135220FFB25F7007B0F0BD5272000094230230E9
S11352305B0503431B78002B04D088235B051843CC
S1135240042303E080231B051843302303707047B5
S11352509422831C52051A431278011C0220012A4D
S113526012D18022D2041343CF221A708023DB0090
S1135270C8782022024004D0013B002B03D0C04652
S1135280F6E7101C00E009207047012310B58B409D
S1135290041C080C042816D8FBF73EF90A0305077A
S11352A00900043404E0083402E00C3400E0103453
S11352B0002A03D080221205144303E08022D20482
S11352C01443DB43236010BD021C10B5080C0023FB
S11352D0042810D80124FBF71FF9030507090B0064
S11352E0136806E0536804E0936802E0D36800E0C2
S11352F01369CB402340181C10BD0000294A031C2D
S1135300881800B510284BD8FBF706F9413A251E3A
S11353101710094A4A4A4A2C4A4A4A4A3300D022B8
S11353205205043313438022520336E0CC22520543
S113533004331343802212032FE0C822520504339E
S113534013438022D20228E0C422520504331343BB
S11353508022920221E0C0225205043313438022AA
S113536052021AE0FC22520504331343802212062F
S113537013E0F8225205043313438022D2050CE0D3
S1135380BC225205043313438022120205E0B822E2
S11353905205043313438022D2011A60002000E036
S11353A0032000BDF2FFFEFF0423C37000238370BB
S11353B0437003717047F0B589B00692120B0392E3
S11353C001260823072207900591002576420293BF
S11353D00192022700246B1C191C7943069804933C
S11353E0FBF7A4F8059A824206D3131A9E4203D906
S11353F01E1C03900294019501347F00092C01D0F6
S1135400002EE8D1072D03D0002E01D0049DE0E743
S1135410019B03981A0170231340029A1343079ABD
S1135420DBB2537009B0F0BD8423C21C5B05134387
S113543001220A405200D2B289071A70C90F902380
S11354405B05023009011843C9B20170704710B5F9
S11354508C2403306405C9000443C9B22170882137
S1135460490592000143D2B20A70802252051043CA
S1135470037010BD802302305B05012203430A4000
S113548089071A70C90F8C235B05C9001843C9B278
S1135490017070474118884203D000230370013023
S11354A0F9E77047084B10B5041C002B02D000210B
S11354B000E000BF054B1868836A002B00D09847B2
S11354C0201C00F04BF8C046000000001C730000D4
S11354D070B50E4B0E4D0024ED1AAD101E1CAC42DF
S11354E004D0A300F35898470134F8E701F018FFFB
S11354F0084B094D0024ED1AAD101E1CAC4204D01B
S1135500A300F35898470134F8E770BD40730000D6
S113551040730000407300004473000010B5002382
S1135520934203D0CC5CC4540133F9E710BD031C8F
S11355308218934202D019700133FAE77047031CB2
S11355400A7801311A700133002AF9D17047002317
S1135550C25C0133002AFBD1581E7047FEE7C046E7
S1135560D80700008A070000B807000012070000EF
S1135570B8070000AE070000B807000012070000DB
S11355808A0700008A070000AE0700001207000027
S11355900A0700000A0700000A070000BE0700000F
S11355A0000A0000FA090000FA090000F0090000EE
S11355B05009000050090000E6090000F00900004D
S11355C050090000E609000050090000F00900003D
S11355D04E0900004E0900004E090000880A000030
S11355E0096757617270537069436F6D6D6F6E53C5
S11355F0696E6B4275666665725B25645D203D204D
S11356005B3078253032585D0A001B5B306D1B5BC4
S1135610343B34336D1B5B313B33376D0D53616E5B
S113562069747920636865636B206661696C65647D
S1135630211B5B306D0A001B5B306D1B5B343B34FC
S1135640316D1B5B313B33376D0D496E76616C698F
S11356506420737570706C7920766F6C7461676503
S1135660205B25645D206D56211B5B306D0A00773D
S11356706172705365744C6F77506F7765724D6FBC
S11356806465286B57617270506F7765724D6F64F3
S113569065564C50532C2030202F2A20736C65659E
S11356A070207365636F6E6473203A20697272654B
S11356B06C6576616E742068657265202A2F2928CE
S11356C029206661696C65642E2E2E0A000D0A0A73
S11356D00A0A5B202A0909090957617270202848BF
S11356E057207265766973696F6E204329202F20D5
S11356F0476C61757820284857207265766973690C
S11357006F6E2042290909092A205D0A000D5B20D9
S1135710200909090920202020202043616D62729C
S113572069646765202F2050687973636F6D706CAE
S113573061622020200909090920205D0A0A000D60
S113574009537570706C793D25646D562C09446558
S11357506661756C7420546172676574205265616A
S1135760642052656769737465723D307825303200
S1135770780A000D094932433D25646B622F732C6E
S1135780095350493D25646B622F732C09554152CE
S1135790543D2564622F732C094932432050756CA3
S11357A06C2D55703D25640A0A000D0953494D2D91
S11357B03E53434743363D30782530327809095209
S11357C054432D3E53523D307825303278090952E6
S11357D054432D3E5453523D3078253032780A00DC
S11357E00D094D43475F43313D3078253032780908
S11357F009094D43475F43323D30782530327809FB
S1135800094D43475F533D3078253032780A000D07
S1135810094D43475F53433D3078253032780909B9
S1135820094D43475F4D433D3078253032780909AF
S11358304F53435F43523D3078253032780A000D90
S113584009534D435F504D50524F543D30782530ED
S11358503278090909534D435F504D4354524C3D2E
S113586030782530327809095343422D3E53435250
S11358703D3078253032780A000D09504D435F528F
S1135880454753433D307825303278090909534957
S11358904D5F53434743343D3078253032780952C5
S11358A054432D3E5450523D3078253032780A0A04
S11358B0000D0925647320696E2052544320486109
S11358C06E646C657220746F2D646174652C092597
S11358D06420506D6772204572726F72730A000DF6
S11358E009307825303278202D2D3E205B30782504
S11358F030327820307825303278203078253032B4
S1135900785D0A000D09307825303278202D2D3E3F
S1135910203078253032780A000D0930782530326D
S113592078202D2D3E202D2D2D2D0A000D0A092520
S1135930642F2564207375636365737320726174C7
S1135940652E0A000D0925642F2564207375636391
S11359506573736573206D61746368656420726533
S1135960662E2076616C7565206F66203078253050
S113597032782E0A000D0925642062616420636F69
S11359806D6D616E64732E0A0A000A0A0A0D426F75
S11359906F74696E6720576172702C20696E2033B2
S11359A02E2E2E2000322E2E2E2000312E2E2E0AA8
S11359B00A0A0D0041626F757420746F2073776951
S11359C07463682043505520746F20564C50522005
S11359D06D6F64652E2E2E2000776172705365748E
S11359E04C6F77506F7765724D6F6465286B5761A4
S11359F07270506F7765724D6F6465564C505228C3
S1135A0029206661696C65642E2E2E0A00646F6E0F
S1135A10652E0A0D0041626F757420746F20475023
S1135A20494F5F4452565F496E697428292E2E2EC1
S1135A30200041626F757420746F206C6F77506F13
S1135A4077657250696E53746174657328292E2EBC
S1135A502E20004144584C3336323A2053504920CA
S1135A607472616E73616374696F6E20746F2072F7
S1135A706561642044455649445F41442066616938
S1135A806C65642E2E2E0A004144584C3336323A4B
S1135A902044455649445F4144203D205B307825ED
S1135AA03032585D2E0A004144584C3336323A2085
S1135AB0535049207472616E73616374696F6E2010
S1135AC0746F20726561642044455649445F4D53A8
S1135AD054206661696C65642E2E2E0A0041445878
S1135AE04C3336323A2044455649445F4D53542092
S1135AF03D205B3078253032585D2E0A00426F6FAE
S1135B007420646F6E652E0A002D2D2D2D2D2D2DE4
S1135B102D2D2D2D2D2D2D2D2D2D2D2D2D2D2D2DB1
S1135B202D2D2D2D2D2D2D2D2D2D2D2D2D2D2D2DA1
S1135B302D2D2D2D2D2D2D2D2D2D2D0A0061636341
S1135B405F782028672F34303936292C206163632D
S1135B505F792028672F34303936292C206163631C
S1135B605F7A2028672F34303936292C200A000D1B
S1135B700953494D2D3E53434743363D3078253034
S1135B80327809095254432D3E53523D3078253022
S1135B90327809095254432D3E5450523D307825F1
S1135BA03032780A002536642C2020202020202042
S1135BB020202536642C2020202020202020202076
S1135BC02025366420004D616B696E67206465632F
S1135BD06973696F6E2C2063757272656E743A20F6
S1135BE053746174696F6E617279200A004D616B40
S1135BF0696E67206465636973696F6E2C206375D1
S1135C007272656E743A2057616C6B696E67200A14
S1135C10004D616B696E67206465636973696F6EBB
S1135C202C2063757272656E743A2052756E6E69BB
S1135C306E67200A004D616B696E67206465636955
S1135C4073696F6E2C2063757272656E743A205599
S1135C506E646566696E6564206F72205472616E4D
S1135C60736974696F6E200A0044454255473A20AF
S1135C700025642C2025642C202564200A005374FC
S1135C806174653A2052756E6E696E672077697427
S1135C90682070726F626162696C6974792025642E
S1135CA02025252C2057616C6B696E6720776974F9
S1135CB0682070726F626162696C6974792025640E
S1135CC02025252C2053746174696F6E61727920CC
S1135CD0776974682070726F626162696C69747943
S1135CE02025642025250053746174653A2057618A
S1135CF06C6B696E6720776974682070726F62617B
S1135D0062696C6974792025642025252C205374DC
S1135D106174696F6E61727920776974682070723A
S1135D206F626162696C6974792025642025252C71
S1135D302052756E6E696E67207769746820707280
S1135D406F626162696C697479202564202525007D
S1135D5053746174653A2053746174696F6E61722F
S1135D607920776974682070726F626162696C6906
S1135D7074792025642025252C2057616C6B696E6D
S1135D806720776974682070726F626162696C69F8
S1135D9074792025642025252C2052756E6E696E39
S1135DA06720776974682070726F626162696C69D8
S1135DB0747920256420252500454E44204F462033
S1135DC04353560A0A000D53656C6563743A0A001E
S1135DD00D2D202761273A20736574206465666160
S1135DE0756C742073656E736F722E0A000D2D200E
S1135DF02762273A20736574204932432062617513
S1135E006420726174652E0A000D2D202763273AE1
S1135E102073657420535049206261756420726157
S1135E2074652E0A000D2D202764273A20736574AB
S1135E302055415254206261756420726174652E4C
S1135E400A000D2D202765273A20736574206465A8
S1135E506661756C7420726567697374657220611C
S1135E606464726573732E0A000D2D202766273A29
S1135E70207772697465206279746520746F207369
S1135E80656E736F722E0A000D2D202767273A2046
S1135E907365742064656661756C742073656E73D4
S1135EA06F7220737570706C7920766F6C74616793
S1135EB0652E0A000D2D202768273A20706F77651C
S1135EC072646F776E20636F6D6D616E6420746FA2
S1135ED020616C6C2073656E736F72732E0A000DF3
S1135EE02D202769273A207365742070756C6C2DFA
S1135EF0757020656E61626C652076616C75652EC7
S1135F000A000D2D20276A273A2072657065617496
S1135F10207265616420726567203078253032789C
S1135F20206F6E2073656E736F72202325642E0AB2
S1135F30000D2D20276B273A20736C656570207542
S1135F406E74696C2072657365742E0A000D2D20C1
S1135F50276C273A2073656E6420726570656174DE
S1135F6065642062797465206F6E204932432E0A7D
S1135F70000D2D20276D273A2073656E642072650D
S1135F807065617465642062797465206F6E205356
S1135F9050492E0A000D2D20276E273A20656E6188
S1135FA0626C652073656E736F7220737570706CAC
S1135FB07920766F6C746167652E0A000D2D202799
S1135FC06F273A2064697361626C652073656E7330
S1135FD06F7220737570706C7920766F6C74616762
S1135FE0652E0A000D2D202770273A2073776974D7
S1135FF0636820746F20564C5052206D6F64652E78
S11360000A000D2D202772273A207377697463687C
S113601020746F2052554E206D6F64652E0A000D5A
